:10000000AEC100000C94C60E0C94F10E0C941C0FA3
:100010000C94470F0C94720F0C949D0FD1C10000EB
:10002000CFC10000CDC10000CBC10000C9C100009C
:10003000C7C10000C5C10000C3C10000C1C10000AC
:10004000BFC10000BDC10000BBC10000B9C10000BC
:10005000B7C10000B5C10000B3C100000C94FB2380
:10006000AFC100000C94F9270C942F28A9C10000FF
:10007000A7C10000A5C10000A3C10000A1C10000EC
:100080009FC100009DC100009BC1000099C10000FC
:1000900097C1000095C1000093C100000C94A022FC
:1000A0008FC100008DC100008BC1000089C100001C
:1000B00087C1000085C1000083C1000081C100002C
:1000C0007FC100007DC100007BC1000079C100003C
:1000D00077C1000075C1000073C1000071C100004C
:1000E0006FC1000059056105690571057905810534
:1000F0008905910529252E2533253D254725C02530
:100100005125592561256B2575257F258E25982537
:10011000C025A225AC25B625E125E425D325D72584
:10012000DD251B26E825EC25F225F625FA250026F7
:10013000042608261B260E261226162600000A0B69
:1001400002090C0D0E080703040100000000000066
:10015000000000000000000000000000000000009F
:10016000000000000000000012111000000000005C
:10017000000000000000000000000000000000007F
:1001800000000102102020080810204010204080AC
:10019000020102010804020101020408102040804B
:1001A00080402010080402018004020180402010D9
:1001B0000804020108040201010204081020408022
:1001C0000102040810204080050505050705080800
:1001D0000808020202020A0A0808040404040101D1
:1001E00001010101010103030303030303030407E6
:1001F00007070C0C0C0C0C0C0C0C0202020206067D
:100200000606060606060B0B0B0B0B0B0B0B000072
:1002100020002300260029002C002F0032000001BE
:10022000000003010601090100002200250028004A
:100230002B002E00310034000201000005010801EE
:100240000B0100002100240027002A002D003000AF
:10025000330001010000040107010A0100407A1087
:10026000F35A00A0724E18090010A5D4E80000E867
:100270007648170000E40B54020000CA9A3B0000C5
:1002800000E1F505000080969800000040420F0054
:100290000000A08601000000102700000000E80315
:1002A000000000006400000000000A0000000000E0
:1002B0000100000000002C76D888DC674F0823DF9F
:1002C000C1DFAE59E1B1B796E5E3E453C63AE65172
:1002D000997696E8E6C28426EB898C9B62ED407C99
:1002E0006FFCEFBC9C9F40F2BAA56FA5F490055A35
:1002F0002AF75C936B6CF9676DC11BFCE0E40D475A
:10030000FEF520E6B500D0ED902E0300943577057C
:100310000080841E080000204E0A000000C80C3334
:100320003333330F986E12831141EF8D2114893BC3
:10033000E65516CFFEE6DB18D1844B381BF77C1D43
:10034000901DA4BBE424203284725E228100C9F196
:1003500024ECA1E53D275919B9216128371B112447
:100360001FBECFEFD1E2DEBFCDBF00E00CBF18E073
:10037000A0E0B2E0EEE9F6E600E00BBF02C00790B5
:100380000D92A031B107D9F720E1A0E1B8E001C09A
:100390001D92A336B207E1F713E0CCE5D3E000E00D
:1003A00006C022970109FE010BBF0E94C52BC6356E
:1003B000D10780E00807A9F70E9449290C943E3331
:1003C0001FCEFC01DB0182818C93838111968C937B
:1003D0001197848112968C931297858113968C9332
:1003E0001397868114968C931497878115968C9316
:1003F0001597808516968C931697818517968C9302
:1004000088E090E00895FC01DB014C9150E060E051
:1004100070E0428353836483758311968C911197A6
:10042000582B428353836483758312968C91129761
:10043000682B428353836483758313968C9113973F
:10044000782B428353836483758314964C9114975D
:1004500050E060E070E046835783608771871596AF
:100460008C911597582B4683578360877187169612
:100470008C911697682B46835783608771871796F0
:100480008C91782B468357836087718788E090E052
:10049000089587E192E0089585E292E008956F92D1
:1004A0007F928F929F92AF92BF92CF92DF92EF9204
:1004B000FF920F931F93CF93DF93FC01DB018C918D
:1004C00090E09383828311962C911197922B9383C2
:1004D000828312964D915D916D917C9115975D018E
:1004E00086E0A80EB11C8A019B010A5F1F4F2F4FA7
:1004F0003F4F6501CA1ADB0AE12CF12CC016D10668
:10050000E206F30640F4E501F9905E01CE010297A0
:10051000EC01F882EECFED01C40FD51F1D82CD0195
:10052000059695838483ED01C40FD51FCE80DF80AF
:10053000E884F984465F5F4F3D01640E751E8A01B1
:10054000222717FD2095322F0C0D1D1D2E1D3F1D3E
:1005500043018A1A9B0AA12CB12C80169106A2068F
:10056000B30640F4E30169913E01CE010297EC012C
:100570006883EECFC40ED51E9D012C0D3D1DC90113
:100580000197EC011882415051094A0F5B1F5783B4
:100590004683E901088119812A813B81D4E0CD0E8F
:1005A000D11C3D016C0C7D1CA601662757FD609592
:1005B000762F400F511F621F731F43018A1A9B0A37
:1005C000A12CB12C84169506A606B70640F4E301CB
:1005D000F9903E01CE010297EC01F882EECF0C0DAE
:1005E0001D1D9D01200F311FC9010197EC011882CB
:1005F000D1E0CD1AD108CA0EDB1ED186C086D90142
:1006000011968C91119712964C91129750E060E0E0
:1006100070E0BA0155274427582B8C91482B13962C
:100620008C91782B4287538764877587C80104961D
:10063000DF91CF911F910F91FF90EF90DF90CF90BE
:10064000BF90AF909F908F907F906F90089586E4B9
:1006500092E008958FE592E00895AF92BF92CF9215
:10066000DF92EF92FF921F93CF93DF939C01FB01E8
:100670008081D90112968C9381819281A381B4816A
:100680005B01C5E0AC0EB11CAC01BD014B5F5F4F1F
:100690006F4F7F4F6501CE1ADF0AE12CF12CC41693
:1006A000D506E606F70650F4E501D9905E017E0115
:1006B000D2E0ED1AF108E701D882ECCFEF01C80FC4
:1006C000D91F1C823496E901FC83EB830596DF91E8
:1006D000CF911F91FF90EF90DF90CF90BF90AF90A0
:1006E000089580E892E0089583E992E0089589E012
:1006F00097E0089584EB92E00895CF92DF92EF9215
:10070000FF920F931F93CF93DF938C01EB018881AE
:1007100090E0A0E0B0E0F80182839383A483B583E6
:100720002981922B82839383A483B5832A81A22B70
:1007300082839383A483B5832B81B22B828393839B
:10074000A483B5838C8190E0A0E0B0E0868397839A
:10075000A087B1872D81922B86839783A087B1874D
:100760002E81A22B86839783A087B1872F81B22BFE
:1007700086839783A087B187488550E060E070E06A
:1007800042875387648775878985582B42875387AB
:10079000648775878A85682B428753876487758746
:1007A0008B85782B42875387648775878C859D85D9
:1007B000AE85BF859E01205F3F4FAC01BD01405F0C
:1007C0005F4F6F4F7F4F6901CC1ADD0AE12CF12C8E
:1007D000C416D506E606F70650F4F901D1909F013C
:1007E0007F01F2E0EF1AF108F701D082ECCF9E0111
:1007F000280F391FF90117862F96F801D787C6876A
:100800004096DF91CF911F910F91FF90EF90DF9075
:10081000CF90089585ED92E0089585EE92E00895D9
:1008200086E093E008958CE193E008958DE393E0F2
:1008300008958AE593E008950F931F93CF93DF9374
:10084000EC018B01029659DFF801E80FF91F2181B5
:10085000428150E060E070E0BA0155274427522BF6
:100860002081422B2381722B4A8B5B8B6C8B7D8B7F
:100870002581468150E060E070E0BA0155274427A9
:10088000522B2481422B2781722B4E8B5F8B688FDA
:10089000798F0896DF91CF911F910F9108958BE783
:1008A00093E0089585E993E0089586EB93E0089539
:1008B0008DEC93E008958EEE93E0089582E094E04D
:1008C0000895FC01DB0132812381948185813C9371
:1008D00011962C93119712969C93129713968C93C2
:1008E0001397368127819085818514963C931497C0
:1008F00015962C93159716969C93169717968C938E
:100900001797328523859485858518963C9318978B
:1009100019962C9319971A969C931A971B968C9359
:100920008CE090E00895FC01DB0111968C91119709
:1009300012964C91129750E060E070E0BA01552792
:100940004427582B8C91482B13968C911397782B16
:10095000428353836483758315968C9115971696FD
:100960004C91169750E060E070E0BA01552744279B
:10097000582B14968C911497482B17968C91179797
:10098000782B468357836087718719968C911997C6
:100990001A964C911A9750E060E070E0BA01552722
:1009A0004427582B18968C911897482B1B968C919E
:1009B000782B42875387648775878CE090E0089591
:1009C00083E294E0089584E394E008950F931F93E5
:1009D000CF93DF93EC018B0102968FDEF801E80FD5
:1009E000F91F2181428150E060E070E0BA01552793
:1009F0004427522B2081422B2381722B4A8B5B8B05
:100A00006C8B7D8B2581468150E060E070E0BA01FF
:100A100055274427522B2481422B2781722B4E8B42
:100A20005F8B688F798F2185428550E060E070E0B0
:100A3000BA0155274427522B2085422B2385722B40
:100A40004A8F5B8F6C8F7D8F2585468550E060E0F7
:100A500070E0BA0155274427522B2485422B278565
:100A6000722B4E8F5F8F68A379A34096DF91CF9151
:100A70001F910F91089585E594E008958AE694E02A
:100A800008958BE894E0089583EA94E00895282F70
:100A900090E0223010F4049603C0263008F4029748
:100AA0008830910508F044C0FC01EE58FF4F0C94CB
:100AB000B52B809169008C7F816080936900E89AF2
:100AC000089580916900837F846080936900E99A2A
:100AD0000895809169008F7C806180936900EA9A13
:100AE0000895809169008F73806480936900EB9A08
:100AF000089580916A008C7F816080936A00EC9AEF
:100B0000089580916A00837F846080936A00ED9AE3
:100B1000089580916A008F7C806180936A00EE9ACC
:100B2000089580916A008F73806480936A00EF9AC1
:100B300008958E579B4FFC01808108950F931F935A
:100B4000CF93DF93EC018C010A5F1F4FC8013EDF9A
:100B5000E8A5F9A5C801DF91CF911F910F911994D4
:100B6000FC0182A593A5089585E594E008958AE6A1
:100B700094E008950F931F93CF93DF93EC018C01C2
:100B80000A5F1F4FC801CFDEEC89FD89C801DF91E4
:100B9000CF911F910F911994FC018689978908952F
:100BA00083E294E0089584E394E00895FC0186A133
:100BB00097A108958EEE93E0089582E094E0089561
:100BC000AF92BF92CF92DF92EF92FF920F931F935B
:100BD000CF93DF93EC017B018A81DB018C938B81C6
:100BE00011968C93EC81FD81DF010D900020E9F7D7
:100BF000CD0101976C01CE1ADF0AC601A0E0B0E07A
:100C0000FB0182839383A483B5836C817D81A601DC
:100C1000C70106960E94172EEE81FF81DF010D901D
:100C20000020E9F7CD0101975C01AE1ABF0AF70178
:100C3000EC0DFD1D850120E030E006831783208741
:100C400031879AE0C90ED11C6E817F81A501C70151
:100C50008C0D9D1D0E94172ECA0CDB1CE885F985A2
:100C6000DF010D900020E9F7CD0101975C01AE1A7C
:100C7000BF0AF701EC0DFD1D850120E030E0008387
:100C800011832283338394E0C90ED11C6885798552
:100C9000A501C7018C0D9D1D0E94172EAC0CBD1C1B
:100CA0003A852B859C858D85F701EA0DFB1D3083E8
:100CB000218392838383C5010496DF91CF911F9195
:100CC0000F91FF90EF90DF90CF90BF90AF9008957D
:100CD0000F931F93CF93DF93DC01FB0112968C914E
:100CE0001297808313968D919C911497EC01099033
:100CF0000020E9F72197C81BD90B8E0120E030E0D6
:100D0000018312832383348313966D917C9114970E
:100D1000AE01CF0105960E94172ECE010596DF91F8
:100D2000CF911F910F910895BF92CF92DF92EF92D2
:100D3000FF920F931F93CF93DF93EC017B018A8186
:100D4000DB018C9311961C92119712961C921297AC
:100D500013961C92FB01379640E024E030E05A8164
:100D6000C90104964517E0F4AF81B88524E0429F9D
:100D7000A00DB11D11246C9111965C9111971296E2
:100D80003C91129713962C91DF0113976C93119657
:100D90005C9311963C9320839C014F5F3496DFCF88
:100DA0004985F701E20FF31F4083118212821382FB
:100DB00020E03985F701E80FF91F04962317B0F4F6
:100DC000AE85BF8534E0239FA00DB11D11246C9129
:100DD00011965C91119712964C91129713963C9133
:100DE00060835183428333832F5FE3CF288920833D
:100DF000118212821382B12C2889B21698F54B2DDC
:100E000050E0440F551FEB89FC89E40FF51F01905A
:100E1000F081E02DDF010D900020E9F79D012150C8
:100E200031096901CE1ADF0AF701E80FF91F8601BF
:100E300020E030E000831183228333838C010C5F38
:100E40001F4FEB89FC89E40FF51F60817181A601BA
:100E5000C701800F911F0E94172EC601800F911F9E
:100E6000B394CACFDF91CF911F910F91FF90EF9074
:100E7000DF90CF90BF9008950F931F93CF93DF9390
:100E8000DC01FB0112968C911297808313968C9152
:100E90001397818314968C911497828315968C9165
:100EA0001597838316968C911697848317968C9149
:100EB0001797858318968C911897868319968C912D
:100EC000199787831A968C911A9780871B968C9115
:100ED0001B9781871C968C911C9782871D968C91FD
:100EE0001D9783871E968D919C911F97EC01099009
:100EF0000020E9F72197C81BD90B8E0120E030E0D4
:100F000004871587268737871E966D917C911F97DA
:100F1000AE01CF0140960E94172ECE014096DF9180
:100F2000CF911F910F9108950F931F93CF93DF934C
:100F3000EC018B010296A0DF5A894B893C892D89EF
:100F4000F801E80FF91F50834183328323835E89C0
:100F50004F89388D298D548345833683278308969E
:100F6000DF91CF911F910F9108950F931F93CF930E
:100F7000DF93EC018B0102967FDF5A894B893C8914
:100F80002D89F801E80FF91F5083418332832383B1
:100F90005E894F89388D298D548345833683278315
:100FA0005A8D4B8D3C8D2D8D5087418732872387FD
:100FB0005E8D4F8D38A129A15487458736872787B5
:100FC0004096DF91CF911F910F9108954F925F92BC
:100FD0007F928F929F92AF92BF92CF92DF92EF92C9
:100FE000FF920F931F93CF93DF93EC018B01DB01F3
:100FF000FC908A818F1550F4B4E0FB9EB00111245F
:101000008F8198850E94332D98878F83FA82F8010B
:101010003796F12C44E050E09E012D5F3F4F8A81CE
:10102000BA016C5F7F4F6B01F81660F5408150E0AC
:1010300060E070E0742F662755274427DF0113977F
:101040008C91482B11968C91582B11968C91682B72
:101050004B835C836D837E83A6016F81788584E0FA
:10106000F89E600D711D1124D9018D909D90AD9059
:10107000BC90DB018D929D92AD92BC921397F3943C
:101080003496CDCFF801E40FF51FF08089858F15D8
:1010900050F484E0F89EB00111248E859F850E9453
:1010A000332D9F878E879601F98680E0FE013A9660
:1010B0009985D801A20FB31FA9014C5F5F4F6A0148
:1010C000891748F511969C91119712964C91129799
:1010D00050E060E070E0BA0155274427592B9C91FD
:1010E000492B13969C91792B4A875B876C877D8768
:1010F0009601AE85BF8594E0899FA00DB11D112496
:1011000040815181628173814D935D936D937C9396
:1011100013978F5FCDCFFC9088898F1550F46F2D7A
:1011200070E0660F771F8B899C890E94332D9C8B02
:101130008B8BC601F88A712C2E0151E1450E511C92
:101140002889721608F044C0F801E80FF91FC08022
:10115000D180E280F3800496F801E80FF91FAC011A
:10116000662757FD6095762F4C0D5D1D6E1D7F1D0A
:101170009F01201B310B4901A12CB12C841695062F
:10118000A606B70638F4B1909F0122503109D90163
:10119000BC92EECFC80ED91EF801EC0DFD1D3197A3
:1011A00010829C0121503109200F311F3A8B298B6D
:1011B000C6013B892C89E32FF22FE70DF11DE70DC6
:1011C000F11DD2012D913C91318320837394B8CFCE
:1011D000DF91CF911F910F91FF90EF90DF90CF9013
:1011E000BF90AF909F908F907F905F904F900895A9
:1011F0008F929F92AF92BF92CF92DF92EF92FF9227
:10120000CF93DF93EC010E9445246093580E7093B6
:10121000590E80935A0E90935B0E20E030E040E729
:1012200052E46C817D818E819F810E940E2B2CED7A
:1012300039ED47E35FE30E94BF296B017C0120E0A9
:1012400030E040E752E46A8D7B8D8C8D9D8D0E944D
:101250000E2B23ED3DE442E95EE30E940E2B2CEDC4
:1012600039ED47E35FE30E94BF294B015C019B011D
:10127000AC01C701B6010E94562960939E0E70937F
:101280009F0E8093A00E9093A10EA5019401C7011B
:10129000B6010E9457296093840E7093850E809347
:1012A000860E9093870EDF91CF91FF90EF90DF90A5
:1012B000CF90BF90AF909F908F9008958F929F9204
:1012C000AF92BF92CF92DF92EF92FF920F931F9354
:1012D000CF93DF93EC01CB01BA018B019C01B7E105
:1012E0003595279517950795BA95D1F71127222798
:1012F0003327011511052105310521F000581C4F38
:101300002F4F3F4F188219821A826B017C01B5E082
:10131000CC0CDD1CEE1CFF1CBA95D1F7CB826B0107
:101320007C0143E0F594E794D794C7944A95D1F7AC
:10133000CC826B017C015BE0F594E794D794C79471
:101340005A95D1F7CD8268017901E4E0CC0CDD1C1F
:10135000EE1CFF1CEA95D1F74B015C01F3E1B5945B
:10136000A79497948794FA95D1F7482D4F704C29FC
:101370004E8368017901A4E0F594E794D794C7946B
:10138000AA95D1F720E030E0A9010E94BB2987FD92
:1013900002C0CF8203C08C2D80688F8388E090E0EC
:1013A000DF91CF911F910F91FF90EF90DF90CF9041
:1013B000BF90AF909F908F900895EF92FF920F9300
:1013C0001F93CF93DF938C01EB01FC01428153818A
:1013D00064817581CE0172DF7C01F80146815781FD
:1013E00060857185CE018E0D9F1D68DFE80EF91EA8
:1013F000F8014285538564857585CE018E0D9F1D4C
:101400005DDF8E0D9F1DDF91CF911F910F91FF909A
:10141000EF900895EF92FF920F931F93CF93DF9376
:101420008C017B01029628DDEC01B701680F791F62
:10143000C8014296C2DF8C0F9D1FDF91CF911F9193
:101440000F91FF90EF900895EF92FF920F931F93EB
:10145000CF93DF938C017B010296AFDFEC01B701E4
:10146000680F791FC8014096A8DF8C0F9D1FDF9180
:10147000CF911F910F91FF90EF900895EF92FF92FF
:101480000F931F93CF93DF93EC018B010296F4DC53
:10149000F801E80FF91F2A8920832B8921832C89E1
:1014A00022837C0123E0E20EF11CB8016E0D7F1D4A
:1014B000CE01459682DFE80EF91EB8016E0D7F1D44
:1014C000CE0183967ADFE80EF91EB8016E0D7F1DFE
:1014D000CE01C19672DF8E0D9F1DDF91CF911F91BE
:1014E0000F91FF90EF9008957F928F929F92AF920D
:1014F000BF92CF92DF92EF92FF920F931F93CF9301
:10150000DF93EC018B010296B7DC2A89F801E80F22
:10151000F91F2083118212829C012C5F3F4F13829E
:10152000712C8A89F801E20FF31FA9014C5F5F4F0C
:101530004A01781660F5872D90E0880F991FAD89D4
:10154000BE89A80FB91F4D915C91DA010D90002062
:10155000E9F79D01215031095901A41AB50A650125
:10156000E12CF12CC082D182E282F382ED89FE89E6
:10157000E80FF91F60817181A501C801880D991DCF
:101580000E94172E9501280D391D7394CACF8F899B
:101590008083118212825A011382F12C8F89F80103
:1015A000EA0DFB1DF81688F4AC8DBD8D54E0F59E58
:1015B000A00DB11D11244D915D916D917C91CF01D4
:1015C0007DDEA80EB91EF394E9CF8E8D8083118243
:1015D000128284E0A80EB11C1382F12C8E8DF801CA
:1015E000EA0DFB1DF81688F4ABA1BCA124E0F29E25
:1015F000A00DB11D11244D915D916D917C91CF0194
:101600005DDEA80EB91EF394E9CF8DA1808311820F
:10161000128234E0A30EB11C1382F12C8DA1F816B6
:1016200098F4EAA5FBA544E0F49EE00DF11D112419
:101630004081518162817381C8018A0D9B1D3EDE0C
:10164000A80EB91EF394EACFC501DF91CF911F9187
:101650000F91FF90EF90DF90CF90BF90AF909F9051
:101660008F907F9008950F931F93FC01DB010381FE
:1016700002950695077010E020E030E00D931D9371
:101680002D933C931397448150E060E070E093E029
:10169000440F551F661F771F9A95D1F7402B512B8A
:1016A000622B732B4D935D936D937C931397058100
:1016B00010E020E030E08BE0000F111F221F331FED
:1016C0008A95D1F7042B152B262B372B0D931D93C1
:1016D0002D933C93139746814F7050E060E070E08B
:1016E00093E1440F551F661F771F9A95D1F7402B42
:1016F000512B622B732B4D935D936D937C931397BA
:10170000868182958F7007810F7710E020E030E0AE
:1017100094E0000F111F221F331F9A95D1F7082B59
:101720000115110521053105A1F0005813402109CB
:10173000310987E1000F111F221F331F8A95D1F74E
:10174000042B152B262B372B0D931D932D933C9398
:1017500013970781007810E020E030E0302F222737
:10176000112700274D915D916D917C911397402B2E
:10177000512B622B732B4D935D936D937C93139739
:1017800088E090E01F910F910895EF92FF920F93E0
:101790001F93CF93DF938C01EB01BC016E5F7F4FF2
:1017A000CE0161DF7C01B8016A5F7F4FCE018E0DF3
:1017B0009F1D59DFE80EF91EB801665F7F4FCE010D
:1017C0008E0D9F1D50DF8E0D9F1DDF91CF911F91BC
:1017D0000F91FF90EF900895EF92FF920F931F9358
:1017E000CF93DF938C017B0102960E947D03EC0175
:1017F000B701680F791FC8014296C7DF8C0F9D1F84
:10180000DF91CF911F910F91FF90EF900895EF928C
:10181000FF920F931F93CF93DF938C017B0102966E
:10182000B4DFEC01B701680F791FC8014096ADDF46
:101830008C0F9D1FDF91CF911F910F91FF90EF9023
:1018400008950F931F93CF93DF93EC018C010A5FF0
:101850001F4FC801DCDFECA1FDA1C801DF91CF91D2
:101860001F910F911994EF92FF920F931F93CF93B3
:10187000DF93EC018B0102960E947D03F801E80FD3
:10188000F91F20812A8B21812B8B22812C8B7C01BB
:1018900023E0E20EF11CB8016E0D7F1DCE014596CE
:1018A00074DFE80EF91EB8016E0D7F1DCE01839620
:1018B0006CDFE80EF91EB8016E0D7F1DCE01C196DA
:1018C00064DF8E0D9F1DDF91CF911F910F91FF90CF
:1018D000EF9008954F925F926F927F928F929F92B6
:1018E000AF92BF92CF92DF92EF92FF920F931F932E
:1018F000CF93DF93EC018B0102960E947D034C0194
:10190000F801E80FF91FF0808A898F1550F46F2DC8
:1019100070E0660F771F8D899E890E94332D9E8B04
:101920008D8BA4014C5F5F4FFA8A90E06E0123E13A
:10193000C20ED11C8A89F801E40FF51F9A012C5FB1
:101940003F4F7901981708F040C080809180A280B5
:10195000B380F801EE0DFF1DA701662757FD6095C6
:10196000762F480D591D6A1D7B1D9F01201B310BD1
:101970002901612C712C441655066606770638F449
:1019800081919F0122503109D9018C93EECF8E0CA9
:101990009F1CF801E80DF91D319710829701215025
:1019A0003109200F311F3C8B2B8BA4012D898E898F
:1019B000E22FF82FE90FF11DE90FF11DD6012D914E
:1019C0003C91318320839F5FB5CFB0808F898B1589
:1019D00050F434E0B39EB00111248C8D9D8D0E9493
:1019E000332D9D8F8C8FBF8A912C5E0188E1A80ECC
:1019F000B11C2F89C8018E0D9F1D9216B0F4B50140
:101A000032DEE80EF91EEC8DFD8DA4E09A9EE00D0D
:101A1000F11D1124D5014D915D916D917C91408313
:101A20005183628373839394E4CFFC01B0808E8DE5
:101A30008B1550F4F4E0BF9EB00111248BA19CA142
:101A40000E94332D9CA38BA324E0E20EF11CBE8EDA
:101A5000912C5E013FE1A30EB11C2E8DC8018E0DAD
:101A60009F1D9216B0F4B501FEDDE80EF91EEBA144
:101A7000FCA184E0989EE00DF11D1124D5014D914B
:101A80005D916D917C9140835183628373839394C4
:101A9000E4CFFC01B0808DA18B1550F4F4E0BF9E23
:101AA000B00111248AA59BA50E94332D9BA78AA76C
:101AB00024E0E20EF11CBDA2912C5E0136E2A30EE1
:101AC000B11C8DA19816C8F4B501C8018E0D9F1DDB
:101AD000CADDE80EF91EEAA5FBA584E0989EE00D9C
:101AE000F11D1124D5014D915D916D917C91408343
:101AF0005183628373839394E4CFC701DF91CF91C5
:101B00001F910F91FF90EF90DF90CF90BF90AF901B
:101B10009F908F907F906F905F904F900895CF939C
:101B2000DF93AB01EC01AE81BF81ED91FC91119788
:101B30006C817D810190F081E02DCD01DF91CF910D
:101B40001994FC0185E697E09183808312821382C9
:101B500014821582168217821086118612861386C9
:101B6000148615860895CF93DF93EC0189EB97E0F7
:101B70009983888389E597E09B838A831C821D82F1
:101B80001E821F82188619861A861B861C861D8651
:101B90001E861F8684EC96E0998B888B1A8A1B8A96
:101BA0001C8ACE014596CDDFCE018396CADFCE01D9
:101BB000C196DF91CF91C5CFDC01ED91FD91808180
:101BC000ED91FD919081ED91FD916C9163708E236B
:101BD00009F064609F2309F06860E9EFFDE0E60F1B
:101BE000F11D659565956D936D917D918D919D919B
:101BF000099423C01AC012C016C010C01EC009C06C
:101C000014C013C006C019C009C00DC007C00DC064
:101C100014C062507040804090400BC061507040D2
:101C20008040904006C06E5F01C06F5F7F4F8F4F56
:101C30009F4F9E938E937E936E930895CF93DF93E1
:101C4000EC018B85823020F4F894CE01B5DF01C021
:101C5000F8946F81788589859A857894DF91CF9102
:101C60000895823159F150F4823099F0833061F552
:101C70007093F00E6093EF0E81E01CC0843179F018
:101C8000A0F0853109F57093F20E6093F10E82E0B9
:101C900011C07093EE0E6093ED0E80E00BC0709358
:101CA000F40E6093F30E83E005C07093F60E60931C
:101CB000F50E84E00E94470581E008957093F80EC8
:101CC0006093F70E85E0F6CF80E008950F931F93A1
:101CD000CF93DF93EC01062F142F62E0802F0E9438
:101CE0001C2662E0812F0E941C26202F30E0F90183
:101CF000E853FE4FE491F0E0EE0FFF1FE25FFD4F6F
:101D00004591549159834883F901EE57FE4F249130
:101D10002C83212F30E0F901E853FE4FE491F0E0ED
:101D2000EE0FFF1FE25FFD4FA591B491BB83AA8325
:101D3000F901EE57FE4F24912D831F8218861986D4
:101D40001A8680ED97E00E949924E881F9819081BC
:101D50008C81982381E009F480E0EA81FB81908105
:101D60002D81922309F082608E83BE01802F79DF5E
:101D70008B87BE01812F75DF2B8590E0820F911D2F
:101D80008B87DF91CF911F910F9108951F920F9232
:101D90000FB60F9211240BB60F922F933F934F93D0
:101DA0005F936F937F938F939F93AF93BF93EF93C3
:101DB000FF938091F10E9091F20EFEDEFF91EF9174
:101DC000BF91AF919F918F917F916F915F914F9153
:101DD0003F912F910F900BBE0F900FBE0F901F9051
:101DE00018951F920F920FB60F9211240BB60F92F7
:101DF0002F933F934F935F936F937F938F939F9313
:101E0000AF93BF93EF93FF938091F30E9091F40EF5
:101E1000D3DEFF91EF91BF91AF919F918F917F9111
:101E20006F915F914F913F912F910F900BBE0F904B
:101E30000FBE0F901F9018951F920F920FB60F9222
:101E400011240BB60F922F933F934F935F936F9391
:101E50007F938F939F93AF93BF93EF93FF93809163
:101E6000F50E9091F60EA8DEFF91EF91BF91AF9124
:101E70009F918F917F916F915F914F913F912F91A2
:101E80000F900BBE0F900FBE0F901F9018951F92D2
:101E90000F920FB60F9211240BB60F922F933F9310
:101EA0004F935F936F937F938F939F93AF93BF9362
:101EB000EF93FF938091F70E9091F80E7DDEFF91E6
:101EC000EF91BF91AF919F918F917F916F915F91B2
:101ED0004F913F912F910F900BBE0F900FBE0F901F
:101EE0001F9018951F920F920FB60F9211240BB6E8
:101EF0000F922F933F934F935F936F937F938F93A3
:101F00009F93AF93BF93EF93FF938091ED0E9091CA
:101F1000EE0E52DEFF91EF91BF91AF919F918F91A5
:101F20007F916F915F914F913F912F910F900BBED9
:101F30000F900FBE0F901F9018951F920F920FB623
:101F40000F9211240BB60F922F933F934F935F93F1
:101F50006F937F938F939F93AF93BF93EF93FF9371
:101F60008091EF0E9091F00E27DEFF91EF91BF91DF
:101F7000AF919F918F917F916F915F914F913F9121
:101F80002F910F900BBE0F900FBE0F901F901895C2
:101F90004F925F926F927F928F929F92AF92BF9279
:101FA000CF92DF92EF92FF920F931F93CF93DF9325
:101FB000EC016A017B0128013901488559856A8550
:101FC0007B8597018601041B150B260B370BC90176
:101FD000B8010E945A2A20E635EE4DE053E40E94F3
:101FE000BF294B015C0160E67AEE80E090E0A3013E
:101FF00092010E94932BCA01B9010E94582A9B01A9
:10200000AC01C501B4010E940E2B6C877D878E87C1
:102010009F872BED3FE049EC50E40E940E2B20E01F
:1020200030E040E752E40E94BF296E8B7F8B888F9F
:10203000998FC886D986EA86FB86DF91CF911F915A
:102040000F91FF90EF90DF90CF90BF90AF909F9057
:102050008F907F906F905F904F9008954F925F9216
:102060006F927F928F929F92AF92BF92CF92DF92A8
:10207000EF92FF92CF93DF93EC012C853D854E8547
:102080005F85688979898A899B890E9456296B01B5
:102090007C012C813D814E815F810E9457294B013B
:1020A0005C016C837D838E839F832091120230912B
:1020B00013024091140250911502C701B6010E940B
:1020C0000E2B2B013C0120913C0E30913D0E409196
:1020D0003E0E50913F0EC501B4010E940E2B9B0194
:1020E000AC01C301B2010E9457294B015C01288158
:1020F00039814A815B81C701B6010E94562920912E
:102100000E0230910F0240911002509111020E9474
:102110000E2B9B01AC01C501B4010E9457294B0154
:102120005C01C882D982EA82FB826C897D8988271A
:1021300077FD8095982F0E945A2A20E030E045EAEA
:1021400053E40E940E2B20E030E04FE753E40E945E
:10215000BF29A50194010E9457296B017C0120E051
:1021600030E045EA53EC0E94BB2987FD11C020E016
:1021700030E045EA53E4C701B6010E940A2B181665
:102180006CF4C12CD12C75EAE72E73E4F72E06C04F
:10219000C12CD12C65EAE62E63ECF62E20E030E06F
:1021A00045EA53E4C701B6010E94BF2920E030E0B0
:1021B0004FE753E40E940E2B0E94272A7D8B6C8BE5
:1021C000DF91CF91FF90EF90DF90CF90BF90AF90D5
:1021D0009F908F907F906F905F904F900895FC013B
:1021E00085EC97E09183808382EC9FE093838283E8
:1021F00040E051EE60E070E044835583668377836E
:10220000DF01AE57BB4F1C921E968DE497E01196EE
:102210009C938E9312961C92129718961C921E9263
:10222000179719961C9219971F961C921E921E972B
:1022300050961C92509754961C921E92539780E091
:1022400090E0DF01A80FB91FAC5EBB4F1D921C923E
:10225000029682339105A9F780E090E0DF01A80F94
:10226000B91FAA5BBB4F1D921C9202968233910547
:10227000A9F780E090E0DF01A80FB91F54961C92E7
:102280000196811522E09207B1F780E090E0DF012E
:10229000A80FB91FAC5EBD4F1C920196811522E0BC
:1022A0009207A9F70895AC0120E030E0FA01EC5E56
:1022B000FB4F0190F081E02DEF2B91F4F901E65FE7
:1022C000FD4FEE0FFF1FE80FF91F71836083235846
:1022D0003F4FFB01358324839783868381E00895F4
:1022E0002F5F3F4F4E5F5F4F29313105F9F680E098
:1022F0000895CF92DF92EF92FF920F931F93CF93A7
:10230000DF93CDB7DEB760970FB6F894DEBF0FBE90
:10231000CDBF8C010E94452428EE33E040E050E020
:102320000E94932B69017A019B01AC01F80184851D
:102330009585A685B7858C0D9D1DAE1DBF1D898712
:102340009A87AB87BC8760E472E48FE090E00E94DC
:10235000712B0089118922893389600F711F821FB7
:10236000931F6D877E878F87988BBE01635F7F4F3A
:10237000CE0109960E94CE2388E0FE013996DE0147
:10238000119601900D928A95E1F729813A814B814E
:102390005C816D817E818F81988560960FB6F894FF
:1023A000DEBF0FBECDBFDF91CF911F910F91FF9088
:1023B000EF90DF90CF9008950F931F93CF93DF930B
:1023C000CDB7DEB72A970FB6F894DEBF0FBECDBFEC
:1023D0008C0189E297E09A8389831B821C821D828B
:1023E0001E821F82188619861A86D801ED91FC91EB
:1023F0000190F081E02DAE014F5F5F4F6AE070E029
:10240000C80119950E944524F80160877187828769
:1024100093872A960FB6F894DEBF0FBECDBFDF912B
:10242000CF911F910F9108954F925F926F927F927B
:102430008F929F92AF92BF92CF92DF92EF92FF92D4
:102440000F931F93CF93DF93CDB7DEB72E970FB6C1
:10245000F894DEBF0FBECDBF8C0185E397E09A8371
:1024600089831C821B8284EC96E09E838D839887EF
:102470008F839A8789871B861C861D861E86580136
:1024800082E3A80EB11C7801412C82E0582E612C09
:10249000712C6701ACEECA1AABEFDA0AD601ED91E6
:1024A000FC913097B9F1848195819C838B838081E5
:1024B00091819E838D8382819381DC01ED91FC91DA
:1024C0000480F581E02D199598878F83D601ED91D1
:1024D000FC9182819381DC01ED91FC910680F78172
:1024E000E02D19959A8789874B865C866D867E8656
:1024F000F80180819181F601A081B18118966D91DA
:102500007C911997DC01ED91FC91AE014F5F5F4F1B
:10251000C8011995B2E0EB0EF11CEA14FB0409F0B6
:10252000B8CF7801412CB2E05B2E612C712C670191
:10253000EAEBCE1AEBEFDE0AF601A081B18110972B
:10254000E1F112968D919C9113979C838B83149645
:102550008D919C9115979E838D83ED91FC911197A0
:102560000480F581E02DCD01199598878F83D601E0
:102570008D919C91DC01ED91FC910680F781E02D1D
:1025800019959A8789874B865C866D867E86D801E9
:10259000ED91FC9180809180F60180819181DC0138
:1025A000ED91FC910280F381E02D1995AE014F5F12
:1025B0005F4FBC01C801F4011995F2E0EF0EF11C68
:1025C000EA14FB0409F0B3CFF801EE57FB4F81E0AA
:1025D00080832E960FB6F894DEBF0FBECDBFDF917D
:1025E000CF911F910F91FF90EF90DF90CF90BF9010
:1025F000AF909F908F907F906F905F904F900895D5
:102600008F929F92AF92BF92CF92DF92EF92FF9202
:102610000F931F93CF93DF93CDB7DEB72A970FB6F3
:10262000F894DEBF0FBECDBF8C015B0189E297E05D
:102630009A8389831B821C821D821E821F821886B8
:1026400019861A860E9445246B017C01F801808559
:102650009185A285B385C81AD90AEA0AFB0AB50191
:10266000CE0101960E94030298EE892E93E0992EE6
:10267000A12CB12CC701B601A50194010E94932B96
:1026800069017A019B01AC018B819C81AD81BE8186
:102690008C0D9D1DAE1DBF1D8B839C83AD83BE83A2
:1026A00060E472E48FE090E00E94712BCF80D884C8
:1026B000E984FA84C60ED71EE81EF91ECF82D8869A
:1026C000E986FA860E944524CB80DC80ED80FE807E
:1026D000F1E0CF1AD108E108F108A50194010E94A8
:1026E000932B49015A019B01AC01C818D908EA088B
:1026F000FB08F801C486D586E686F786CF80D884A5
:10270000E984FA84F6E3DF1AF5E6EF0AF4ECFF0A4F
:1027100060E472E48FE090E00E94712BC61AD70A41
:10272000E80AF90AF801C08AD18AE28AF38AB80174
:10273000605F7F4FC8010C960E94CE230E94452403
:10274000F801E957FB4F60837183828393832A9654
:102750000FB6F894DEBF0FBECDBFDF91CF911F91B2
:102760000F91FF90EF90DF90CF90BF90AF909F9030
:102770008F9008952F923F924F925F926F927F9227
:102780008F929F92AF92BF92CF92DF92EF92FF9281
:102790000F931F93CF93DF93CDB7DEB760970FB63C
:1027A000F894DEBF0FBECDBF4C010E9445246B01E3
:1027B0007C01940129573B4F3E832D83F901808191
:1027C0009181A281B381A7019601281B390B4A0B85
:1027D0005B0BDA01C901893F9A42A105B10510F0EE
:1027E00035971082A40148585B4F588B4F87DA0108
:1027F0008D919C91892B79F0F401E557FB4F8081F5
:102800009181A281B3818C159D05AE05BF0518F499
:10281000FA01118210823401F0E86F1AFBEF7F0A8F
:10282000940124583B4F3A832983A4014E575B4FB0
:1028300058874F832C5E3F4F3C872B87435F5F4F0A
:102840005E874D87840106581B4F1601270154E10E
:10285000250E311C411C511C540184E1A80EB11CF1
:10286000940122583B4F3C832B83A40145575B4F77
:102870005A874987D40112968D919C911397DC0158
:10288000ED91FC910680F781E02D19959C0197FD53
:1028900029C1F30180819181820F931F91838083ED
:1028A000AF85B8894D915C9147305105E1F4EB81DA
:1028B000FC8180819181AC014F5F5F4F51834083E8
:1028C000F401E80FF91F248BD8018D919C91119789
:1028D00001978D939C93892B09F0BECF28E030E0BF
:1028E000EF85F88986C04115510519F52F3F31054F
:1028F00069F481E090E0AF85B8898D939C93E98578
:10290000FA852082318242825382B4CF0E944524CC
:102910006C197D098E099F09663071058105910545
:1029200008F49ACFF401EE57FB4F10828EEF9FEF21
:10293000FEC04130510591F42E3F310519F482E07B
:1029400090E02EC0EF85F88911821082AF81B885A2
:102950008C91811181CFC4012FDD8CCF4230510584
:1029600089F4F80131832083AB81BC811D921C92D4
:1029700083E090E0EF85F88991838083D3012D93E4
:102980003C9378CF4330510581F4322F2227F80150
:1029900080819181820F931F9183808384E090E0F6
:1029A000AF85B8898D939C9365CF4430510599F4D8
:1029B00060E071E00E94802B8F3F910539F485E043
:1029C00090E0EF85F8899183808354CFAF85B889F3
:1029D0001D921C924FCF4530510571F4E981FA8167
:1029E0003183208386E090E0AF85B8898D939C93F6
:1029F000F301318320833ECF46305105D1F4322F8D
:102A00002227A981BA818D919C911197820F931FE2
:102A10008D939C9327E030E0EF85F8893183208304
:102A2000D8018D919C91892B09F016CF28E030E0D8
:102A3000E0CF4830510509F00FCFAF85B8891D921E
:102A40001C9260E071E00E94802B8F3F910509F09D
:102A500003CFA981BA81ED91FC913097A1F4C40113
:102A6000ABDCC401E1DCF401ED57FB4FC082D18245
:102A7000E282F382ED81FE81C082D182E282F38222
:102A80008FEF9FEF54C0EA30F10521F4B501C40186
:102A9000B7DDF0CEE630F10551F4B5018B859C85AC
:102AA0000E94E60781E0AD85BE858C93E3CEEB30D6
:102AB000F10521F4EF81F8851082DCCEE154FE4F60
:102AC000EE0FFF1FE80DF91D80819181009709F439
:102AD000C3CEDC01ED91FC910190F081E02DB501B8
:102AE0001995C8CEF401EE57FB4F80818823E9F099
:102AF00084010D571B4FF80180819181A281B38120
:102B0000A7019601281B390B4A0B5B0BDA01C9019F
:102B1000853C9940A105B10540F0C4014DDCD801C8
:102B2000CD92DD92ED92FC92139780E090E060965A
:102B30000FB6F894DEBF0FBECDBFDF91CF911F91CE
:102B40000F91FF90EF90DF90CF90BF90AF909F904C
:102B50008F907F906F905F904F903F902F9008954F
:102B60008F929F92AF92BF92CF92DF92EF92FF929D
:102B7000CF93DF936B017C012091800E3091810E09
:102B80004091820E5091830E60919A0E70919B0E2F
:102B900080919C0E90919D0E0E94572920E030E07C
:102BA00040E05FE30E940E2B20E030E040E752E47B
:102BB0000E94BF292CED39ED47E35FE30E940E2B05
:102BC0004B015C01C8E9D8E085E699E092DB2883F7
:102BD00039834A835B836C837D838E839F8380925A
:102BE000A4089092A508A092A608B092A7081092F7
:102BF000A8081092A9081092AA081092AB08C70161
:102C0000B6010E94582A20E030E04AE754E40E94CE
:102C1000BF296093AC087093AD088093AE08909381
:102C2000AF0860E978E086E898E00E948F0D85E6BD
:102C300099E0DF91CF91FF90EF90DF90CF90BF9020
:102C4000AF909F908F9096CDCF93DF9300D01F923F
:102C50001F92CDB7DEB721E437E03A8329836B8337
:102C60005D834C83DC01ED91FC910190F081E02DBE
:102C7000AE014F5F5F4F67E070E019950F900F90C6
:102C80000F900F900F90DF91CF910895AB0161E00D
:102C9000DBCFCF92DF92EF92FF920F931F93CF93F0
:102CA000DF93FC0122813381C481D581422F532FD0
:102CB0006C2F7D2F409312025093130260931402E5
:102CC0007093150216810781F084E184D801C70151
:102CD0004B2F5A2F692F782F40930E0250930F02DB
:102CE0006093100270931102428553856485758547
:102CF0006A01C601A62FB72F80933C0E90933D0E1C
:102D0000A0933E0EB0933F0E7F936F935F934F93CC
:102D1000EF92FF920F931F93DF93CF933F932F93E5
:102D200084EC94E09F938F938AE09EE09F938F932F
:102D30000E94272E8DB79EB740960FB6F8949EBF7F
:102D40000FBE8DBF6AE07EE085E699E0DF91CF910E
:102D50001F910F91FF90EF90DF90CF9097CFEF9260
:102D6000FF920F931F93CF93DF93FC010289138986
:102D7000C28DD38D1F930F9386ED94E09F938F9315
:102D80006AE0E62E6EE0F62EFF92EF920E94272E6A
:102D9000B70185E699E07ADFDF93CF938EEE94E07A
:102DA0009F938F93FF92EF920E94272EB70185E6A3
:102DB00099E06CDF0E9445246093540E7093550E89
:102DC0008093560E9093570EEDB7FEB73C960FB614
:102DD000F894FEBF0FBEEDBF17FD02C061E001C059
:102DE00060E087E00E945526B80117FF03C0719587
:102DF0006195710988E00E940625D7FD02C061E057
:102E000001C060E089E00E945526BE01D7FF03C0E3
:102E10007195619571098AE0DF91CF911F910F91B2
:102E2000FF90EF900C940625EF92FF920F931F9363
:102E3000CF93DF938C01EB011F938F9387E095E095
:102E40009F938F937AE0E72E7EE0F72EFF92EF922A
:102E50000E94272EB70185E699E018DFDF93CF9314
:102E600087E295E09F938F93FF92EF920E94272E27
:102E7000B70185E699E00ADF8DB79EB70C960FB6CD
:102E8000F8949EBF0FBE8DBF17FD02C061E001C068
:102E900060E087E00E945526B80117FF03C07195D6
:102EA0006195710988E00E940625D7FD02C061E0A6
:102EB00001C060E089E00E945526BE01D7FF03C033
:102EC0007195619571098AE0DF91CF911F910F9102
:102ED000FF90EF900C940625CF92DF92EF92FF9235
:102EE0000F931F93CF93DF93CDB7DEB764970FB6E1
:102EF000F894DEBF0FBECDBF61E088E00E941C26C3
:102F000061E087E00E941C2661E08AE00E941C26A6
:102F100061E089E00E941C2660E070E080E090E0C3
:102F200083DF4091690950916A0960916B09709142
:102F30006C0926E080916709909168090E949927A1
:102F40001092DE0D1092DD0D1092E00D1092DF0D4B
:102F50001092E40D1092E30D1092E20D1092E10D2B
:102F600080E091EEA0E0B0E08093690990936A0957
:102F7000A0936B09B0936C09EBEAFDE080E090E070
:102F800021913191232B81F4FC01EE0FFF1FE555B8
:102F9000F24F25E239E0318320838C599F4F909383
:102FA00028098093270904C001968931910541F7CA
:102FB000EBEAFDE080E090E021913191232B81F458
:102FC000FC01EE0FFF1FE555F24F2DE339E0318391
:102FD00020838C599F4F9093400980933F0904C0F0
:102FE00001968931910541F7EBEAFDE080E090E040
:102FF00021913191232B81F4FC01EE0FFF1FE55548
:10300000F24F29EF38E0318320838C599F4F909302
:10301000FC088093FB0804C001968931910541F7B3
:1030200066E878E085E699E03ED960EB78E085E6F1
:1030300099E039D988E495E090937D0880937C08E5
:1030400062E678E085E699E02ED98BE595E09093ED
:103050004708809346088AE092E090934C0880935A
:103060004B0885E699E045D920933E0830933F0808
:10307000409340085093410860934208709343087E
:10308000809344089093450882E080934808809399
:103090004D088093540880935B0884E298E09093F5
:1030A0005A08809359088CE198E0909353088093D4
:1030B000520884E198E090936108809360086CE284
:1030C00078E085E699E0EFD88091E70D811104C0A2
:1030D00085E699E04FDBF8CF68E675E085E699E094
:1030E000D5DD68E875E085E699E0D0DD6091E70E12
:1030F0007091E80E85E699E0C9DD60910602709155
:10310000070280910802909109029E012F5F3F4FB4
:103110007901890124E04AE00E94EC2BFF92EF92B2
:1031200081EA95E09F938F93EAE0CE2EEEE0DE2ECB
:10313000DF92CF920E94272EB60185E699E0A6DDA8
:1031400060911008709111088091120890911308F5
:1031500024E04AE00E94EC2BFF92EF9285EC95E090
:103160009F938F93DF92CF920E94272EB60185E620
:1031700099E08CDD89EF9EE00E94322165E070E0ED
:1031800080E090E00E9474240FB6F894DEBF0FBE7A
:10319000CDBF64960FB6F894DEBF0FBECDBFDF91F2
:1031A000CF911F910F91FF90EF90DF90CF900895F6
:1031B000CF92DF92EF92FF920F931F93CF93DF9303
:1031C000EC017B01643671053CF0FC01EE57FB4FCE
:1031D0008081882309F462C0DA01ED91FC910190AD
:1031E000F081E02DBE01655E7D4FCA0119958C010D
:1031F0006E01BCEECB1ABDEFDB0A2FEFF601208388
:103200002EEF319620833196808331969083890FFB
:103210008095319680833196E0823196F08285E008
:1032200090E020E030E0A801495F5F4F84179507E8
:1032300050F4FE01E80FF91FEC5EFD4F6081260F90
:10324000311D0196F3CF085F1F4F4C0F5D1FFA0130
:10325000EC5EFD4F209520830130F2E01F07B0F4B3
:103260007601C7018C199D09801791076CF48A813A
:103270009B81D7016D917D01DC01ED91FC91019065
:10328000F081E02D1995EDCFC8010AC044EE55E05C
:1032900063E0CE01D9DC8FEF9FEF02C080E090E0C9
:1032A000DF91CF911F910F91FF90EF90DF90CF9022
:1032B0000895EF92FF920F931F93CF93DF936DE1E9
:1032C00076E087EE9EE00E94332982ED9EE00E9428
:1032D000A10D8DEB9EE00E94A10D88EA9EE00E9468
:1032E000A10D42E163E188E69EE00E94660E42E0A5
:1032F00063E08CE59EE00E94660E85E699E00E9400
:10330000EF108FEC97E090933E0980933D0985E99B
:1033100097E0909344098093430985E499E00E94E3
:10332000A10D83E599E00E94A10D88EF98E09093AC
:1033300062098093610981E090E090936409809331
:10334000630922E636E030934209209341092BEDD0
:1033500037E0309326092093250921EA37E030939E
:103360002C0920932B0910922D0910922E091092EE
:103370002F091092300910923109109232091092DF
:1033800033091092340910923509109236091092BF
:1033900037091092380929E436E130933A0920932D
:1033A000390990933C0980933B092AE636E0309333
:1033B0002A092093290927EE37E03093FA08209351
:1033C000F9082DEA37E0309300092093FF0809E55A
:1033D00017E010930209009301091092030910925B
:1033E000040910920509109206091092070910921B
:1033F00008091092090910920A0910920B091092FB
:103400000C0910920D0910920E09C4ECD6E0D0936D
:103410001009C0930F09109211091092120910920D
:10342000130910921409109215091092160910929E
:103430001709109218091092190910921A0910927E
:103440001B0910921C0910921D0910921E0910925E
:103450001F09109220092FEA36E1309322092093A8
:10346000210990932409809323098EE696E0909396
:10347000FE088093FD088AEB98E00E94B30D86E772
:1034800096E09093B1088093B0088AEB98E090930F
:10349000B3088093B2081092B9081092B80880E976
:1034A000E82E88E0F82E81E797E0F701918380838A
:1034B0001093930800939208109294081092950824
:1034C00010929608109297081092980810929908F6
:1034D00010929A0810929B0810929C0810929D08D6
:1034E00010929E0810929F08D093A108C093A00844
:1034F00082EA98E00E94A10D8EE796E090938708FB
:1035000080938608F0928908E092880810928F08CC
:1035100010928E08ECE6F8E08DE797E091838083C7
:1035200010936F0800936E08109270081092710843
:103530001092720810927308109274081092750815
:1035400010927608109277081092780810927908F5
:1035500010927A0810927B08D0937D08C0937C0863
:1035600010927E0810927F081092800810928108B5
:103570001092820810928308109284081092850895
:1035800082E595E09093630880936208F093650864
:10359000E093640810926B0810926A08E6E3F8E082
:1035A00089E897E091838083109339080093380865
:1035B00010923A0810923B0810923C0810923D0875
:1035C00010923E0810923F08109240081092410855
:1035D0001092420810924308109244081092450835
:1035E000D0934708C09346081092480810924C08A0
:1035F00010924B0810924D081092530810925208E6
:103600001092540810925A081092590810925B08B0
:10361000109261081092600886E896E090932D0859
:1036200080932C08F0932F08E0932E081092350811
:10363000109234082091060230910702409108024E
:10364000509109026BED7FE089EC90E40E94BF2964
:1036500060931008709311088093120890931308D8
:10366000DF91CF911F910F91FF90EF90089587EE1A
:103670009EE00C94CC28CF93C62FBC0189EF9EE02E
:1036800004D66C2F89EF9EE0AFD589EF9EE0CF91F5
:103690006EC61F93CF93DF931F92CDB7DEB7162F61
:1036A000BC0189EF9EE04983F0D5612F89EF9EE050
:1036B0009BD54981642F89EF9EE096D589EF9EE0E6
:1036C0000F90DF91CF911F9152C640E261E08EE1F1
:1036D00090E0DFDF65E070E080E090E00E9474241D
:1036E00048E160E08EE190E0D4DF65E070E080E0EA
:1036F00090E00E94742441E062E08EE190E0C9DF36
:1037000065E070E080E090E00E94742481E008951C
:103710001F93CF93DF93EC01162FBC0189EF9EE03E
:10372000B4D5612F89EF9EE05FD589EF9EE01FD66B
:1037300064E170E080E090E00E94742441E050E099
:10374000BE0189EF9EE011D689EF9EE0FED4DF91A5
:10375000CF911F91089560E083E590E0D9DF853E29
:1037600019F548E06DE283E590E093DF65E070E0F5
:1037700080E090E00E94742449E061E383E590E0FA
:1037800088DF65E070E080E090E00E94742449E00A
:103790006CE283E590E07DDF65E070E080E090E042
:1037A0000E94742481E0089580E0089560E088E636
:1037B00090E0AEDF8E77883671F540E86EE388E6FC
:1037C00090E067DF65E070E080E090E00E947424A4
:1037D0004BE166E188E690E05CDF65E070E080E068
:1037E00090E00E94742443E165E188E690E051DFB7
:1037F00065E070E080E090E00E94742443E06EE3B6
:1038000088E690E046DF6AE070E080E090E00E94A9
:10381000742481E0089580E008959DDF8093CC08B2
:10382000C5DF8093CD0851DF8093CE088091CC080E
:10383000811106C047E956E063E085E699E004DAC5
:103840008091CD08811106C040EB56E063E085E62B
:1038500099E0FAD98091CE08811106C045EC56E076
:1038600063E085E699E0F0D9109216020895CF93AF
:10387000DF931092E60E62E383E590E0FCDE46E023
:1038800050E063E570E089EF9EE06FD589EF9EE040
:1038900054D4892B79F0C091E60ED0E089EF9EE0F8
:1038A00054D4C052D14F88838091E60E8F5F8093AD
:1038B000E60EECCF6091E10E70E0762F66278091E6
:1038C000E00E682B882777FD8095982F0E945A2A52
:1038D0002DEC3CEC4CEC51E40E94BF296093D40EDB
:1038E0007093D50E8093D60E9093D70E6091E30E11
:1038F00070E0762F66278091E20E682B882777FD8F
:103900008095982F0E945A2A2DEC3CEC4CEC51E407
:103910000E94BF296093D80E7093D90E8093DA0E5F
:103920009093DB0E6091E50E70E0762F6627809114
:10393000E40E682B882777FD8095982F0E945A2ADD
:103940002DEC3CEC4CEC51E40E94BF296093DC0E62
:103950007093DD0E8093DE0E9093DF0EDF91CF919A
:103960000895CF93DF931092D10E6DE188E690E039
:1039700082DE46E050E068E670E089EF9EE0F5D434
:1039800089EF9EE0DAD3892B79F0C091D10ED0E097
:1039900089EF9EE0DAD3C553D14F88838091D10E51
:1039A0008F5F8093D10EECCF6091CB0E70E0762FBD
:1039B00066278091CC0E682B882777FD8095982FFD
:1039C0000E945A2A29ED33E24FE95AE30E940E2B56
:1039D0006093BF0E7093C00E8093C10E9093C20E81
:1039E0006091CD0E70E0762F66278091CE0E682B09
:1039F000882777FD8095982F0E945A2A29ED33E277
:103A00004FE95AE30E940E2B6093C30E7093C40ECD
:103A10008093C50E9093C60E6091CF0E70E0762F06
:103A200066278091D00E682B882777FD8095982F88
:103A30000E945A2A29ED33E24FE95AE30E940E2BE5
:103A40006093C70E7093C80E8093C90E9093CA0EF0
:103A5000DF91CF910895CF93DF931092BC0E63E076
:103A60008EE190E008DE46E050E06EE170E089EF24
:103A70009EE07BD489EF9EE060D3892B79F0C091E2
:103A8000BC0ED0E089EF9EE060D3CA54D14F88834A
:103A90008091BC0E8F5F8093BC0EECCF6091B60E10
:103AA00070E0762F66278091B70E682B882777FD08
:103AB0008095982F0E945A2A2FE135E84BE65FE364
:103AC0000E940E2B6093AA0E7093AB0E8093AC0EE7
:103AD0009093AD0E6091BA0E70E0762F66278091BC
:103AE000BB0E682B882777FD8095982F0E945A2A55
:103AF0002FE135E84BE65FE30E940E2B6093AE0E9C
:103B00007093AF0E8093B00E9093B10E6091B80E8B
:103B100070E0762F66278091B90E682B882777FD95
:103B20008095982F0E945A2A2FE135E84BE65FE3F3
:103B30000E940E2B6093B20E7093B30E8093B40E5E
:103B40009093B50E41E062E08EE190E0DF91CF917D
:103B5000A0CD85E699E00E9479112093C2083093A8
:103B6000C3084093C4085093C5086093C608709377
:103B7000C7088093C8089093C9088DED96E090938C
:103B8000CB088093CA088091CC08882389F16FDE26
:103B90008091D40E9091D50EA091D60EB091D70EF3
:103BA0008093D1089093D208A093D308B093D408FF
:103BB0008091D80E9091D90EA091DA0EB091DB0EC3
:103BC0008093D5089093D608A093D708B093D808CF
:103BD0008091DC0E9091DD0EA091DE0EB091DF0E93
:103BE0008093D9089093DA08A093DB08B093DC089F
:103BF0008091CD08882389F1B4DE8091BF0E909129
:103C0000C00EA091C10EB091C20E8093DF089093B8
:103C1000E008A093E108B093E2088091C30E909170
:103C2000C40EA091C50EB091C60E8093E308909388
:103C3000E408A093E508B093E6088091C70E909140
:103C4000C80EA091C90EB091CA0E8093E708909358
:103C5000E808A093E908B093EA088091CE08882389
:103C600089F1F9DE8091AA0E9091AB0EA091AC0E75
:103C7000B091AD0E8093ED089093EE08A093EF08FD
:103C8000B093F0088091AE0E9091AF0EA091B00E5F
:103C9000B091B10E8093F1089093F208A093F308CD
:103CA000B093F4088091B20E9091B30EA091B40E2F
:103CB000B091B50E8093F5089093F608A093F7089D
:103CC000B093F8086AEB78E080EB98E00C948F0DE5
:103CD0004F925F926F927F928F929F92AF92BF921C
:103CE000CF92DF92EF92FF920F931F93CF93DF93C8
:103CF00000D01F92CDB7DEB7C8D5C0904C0ED09083
:103D00004D0EE0904E0EF0904F0E6C197D098E090D
:103D10009F096436710581059105C0F0B6D5C09044
:103D20004C0ED0904D0EE0904E0EF0904F0E6C1950
:103D30007D098E099F090E94B015A7D560934C0E8E
:103D400070934D0E80934E0E90934F0E9ED5C09063
:103D5000500ED090510EE090520EF090530E6C1910
:103D60007D098E099F09643671058105910508F466
:103D700041C08BD56B017C018091500E9091510E0A
:103D8000A091520EB091530EC81AD90AEA0AFB0A42
:103D900088E69EE00E941E0EAB01BC0197018601E1
:103DA0008EE89EE00E94C80F8CE59EE00E941E0EE9
:103DB000AB01BC019701860184E79EE00E94C80F19
:103DC0008EE89EE00E942E1084E79EE00E942E1056
:103DD0006091880E7091890E8091A20E9091A30E31
:103DE00023D853D56093500E7093510E8093520E8A
:103DF0009093530E4AD5C090580ED090590EE09033
:103E00005A0EF0905B0E6C197D098E099F0960397E
:103E1000714081059105F0F010929E0E10929F0E58
:103E20001092A00E1092A10E1092840E1092850E88
:103E30001092860E1092870E1092890E1092880EA4
:103E40001092A30E1092A20E60E070E080E090E06D
:103E50000E9414171AD5C090480ED090490EE090D9
:103E60004A0EF0904B0E6C197D098E099F0964363D
:103E700071058105910580F080911602882311F06B
:103E8000CCDC01C066DE01D56093480E7093490E0C
:103E900080934A0E90934B0EF8D4C090440ED0906D
:103EA000450EE090460EF090470E6C197D098E0984
:103EB0009F096436710581059105D8F188E69EE079
:103EC0000E941E0E60937E0870937F088093800886
:103ED000909381088CE59EE00E941E0E60938208FC
:103EE00070938308809384089093850885E699E011
:103EF0000E947911209374083093750840937608D6
:103F000050937708609378087093790880937A08C3
:103F100090937B086CE678E082E698E00E948F0D33
:103F2000B4D46093440E7093450E8093460E9093E4
:103F3000470EABD4C090400ED090410EE090420EA0
:103F4000F090430E6C197D098E099F096436710546
:103F50008105910508F4D9C088E69EE00E941E0EF6
:103F60002B013C018CE59EE00E941E0E4B015C0182
:103F7000C0900602D0900702E0900802F09009027B
:103F80000091520810915308B201882777FD80955F
:103F9000982F0E945A2A69837A838B839C83C3015A
:103FA000B2010E945A2AA70196010E94BF290E94CD
:103FB000272A882777FD8095982F0E945A2AA701E3
:103FC00096010E940E2B9B01AC0169817A818B8145
:103FD0009C810E9456290E94272A882777FD809578
:103FE000982F0E945A2A9B01AC0160911008709191
:103FF000110880911208909113080E940E2BF8016D
:104000006083718382839383B401882777FD8095D1
:10401000982F0E945A2A2B013C01C501B4010E942D
:104020005A2AA70196010E94BF290E94272A8827A1
:1040300077FD8095982F0E945A2AA70196010E9429
:104040000E2B9B01AC01C301B2010E9456290E94B4
:10405000272A882777FD8095982F0E945A2A9B014E
:10406000AC01609110087091110880911208909134
:1040700013080E940E2BF80164837583868397834F
:10408000E0915908F0915A088091A40E9091A50EE4
:10409000A091A60EB091A70E80839183A283B383D3
:1040A00080918A0E90918B0EA0918C0EB0918D0E06
:1040B00084839583A683B78385E699E00E9479116E
:1040C00020933E0830933F084093400850934108A6
:1040D0006093420870934308809344089093450886
:1040E00066E378E08CE298E00E948F0D66E378E06A
:1040F0008CE298E00E948F0DC8D36093400E7093BD
:10410000410E8093420E9093430E85E699E00F9006
:104110000F900F900F90DF91CF911F910F91FF9013
:10412000EF90DF90CF90BF90AF909F908F907F9057
:104130006F905F904F900C94BA138091290F90E08C
:1041400020912A0F821B9109089520912A0F8091B6
:10415000290F281750F4E22FF0E0E55DF04F808141
:1041600090E02F5F20932A0F08958FEF9FEF08951F
:10417000E0912A0F8091290FE81730F4F0E0E55D17
:10418000F04F808190E008958FEF9FEF089508959C
:10419000CF92DF92EF92FF920F931F93CF93DF9313
:1041A0007C01CB018A012091050F222389F0EB01CC
:1041B0006B01C40ED51ECC15DD0561F06991D701E8
:1041C000ED91FC910190F081E02DC7011995F3CF9D
:1041D000642F8DD1C801DF91CF911F910F91FF9076
:1041E000EF90DF90CF900895CF93DF931F92CDB7DC
:1041F000DEB769832091050F2223D1F02091060FAD
:10420000203240F021E030E0FC013383228380E063
:1042100090E014C08091070FE82FF0E0E85FF04FC6
:10422000998190838F5F8093070F8093060F04C05E
:1042300061E0CE0101965BD181E090E00F90DF91CB
:10424000CF910895FC011382128248EE53E060E0A2
:1042500070E0448355836683778383EF97E091838F
:104260008083089510922A0F1092290F1092070F41
:104270001092060F81C081E08093050F6093280F94
:104280001092070F1092060F0895F5CF0F93062F87
:1042900021E04091060F68E07FE08091280FD0D0A8
:1042A0001092070F1092060F1092050F0F910895AC
:1042B0008F929F92AF92BF92CF92DF92EF92FF9236
:1042C0000F931F93CF93DF93EC01F62ED42E48016A
:1042D0005901EE2009F1CFDF1E2D143008F013E054
:1042E0001150B8F0E881F98128E0129FB001112443
:1042F000A501940104C056954795379527956A9571
:10430000D2F7CA01B9010190F081E02DCE011995D3
:10431000E7CF60E0CE01BADF4D2D413208F040E238
:104320002C2D6BE27FE08F2D43D010922A0F8093CB
:10433000290FDF91CF911F910F91FF90EF90DF90A8
:10434000CF90BF90AF909F908F900895CF92EF92B3
:104350000F931F93C22EE12C00E010E09801A8DF1C
:104360001F910F91EF90CF90089521E0EFCF61E082
:104370008DCF89EF9EE066CF1092B80F81E08093D9
:10438000B60F1092B50F61E084E18FD461E085E152
:104390008CD4E9EBF0E080818E7F808380818D7FFB
:1043A000808388E48093B80085E48093BC000895FE
:1043B000413208F043C09091B80F9111FCCF91E0C9
:1043C0009093B80F2093B60F2FEF20934B0F1092BE
:1043D000900F240F20938F0F9093B70F9091B70FEA
:1043E000880F892B8093B70F8091B50F813061F4CE
:1043F0001092B50F8091B70F8093BB008091BC00E5
:1044000083FDF8CF85EC01C085EE8093BC008091E0
:10441000B80F8130E1F38091900F841710F4409130
:10442000900F21E93FE0FB01D9018A2F821B8417FD
:1044300018F48D918193F9CF842F089580E0089529
:104440000F93413208F04AC09091B80F9111FCCF00
:1044500092E09093B80F0093B60F9FEF90934B0F9D
:104460001092900F40938F0FFB0161E97FE0DB0119
:104470009A2F961B941718F491919D93F9CF10924F
:10448000B70F9091B70F880F892B8093B70F80914A
:10449000B50F813061F41092B50F8091B70F809302
:1044A000BB008091BC0083FDF8CF85EC01C085EE98
:1044B0008093BC00222321F08091B80F8230E1F379
:1044C00080914B0F8F3F61F080914B0F803251F004
:1044D00080914B0F803341F483E007C081E005C039
:1044E00080E003C082E001C084E00F910895613252
:1044F00098F42091B80F243089F460936D0FFC017B
:104500008FE69FE0DC012A2F281B261718F4219143
:104510002D93F9CF80E0089581E0089582E0089519
:1045200085ED8093BC008091BC0084FDFCCF10928F
:10453000B80F089585EC8093BC001092B80F0895D1
:104540001F920F920FB60F9211240BB60F922F935A
:104550003F934F935F936F937F938F939F93AF930B
:10456000BF93EF93FF938091B900887F803609F461
:104570009DC070F5883209F45CC090F4803109F474
:1045800055C038F4882309F4F3C0883009F44EC0CC
:10459000F2C0883109F44DC0803209F45EC0EBC02E
:1045A000803409F469C050F4803309F456C088336C
:1045B00009F0E1C080934B0FBDDFDDC0803509F409
:1045C0004FC0883509F45DC0883409F0D4C0D2C02A
:1045D000883909F4C3C0A8F4883709F467C038F4EF
:1045E000883609F463C0803709F460C0C4C08838D5
:1045F00009F4B4C0803909F45FC0803809F0BBC049
:104600005BC0803B09F482C038F4803A09F466C08C
:10461000883A09F47BC0AFC0803C09F4A3C0883C51
:1046200009F4A0C0883B09F486C0A5C08091B70FEB
:1046300010C09091900F80918F0F981770F5E091B6
:10464000900F81E08E0F8093900FF0E0EF56F04FC7
:1046500080818093BB0085EC82C080934B0F8AC021
:10466000E091900F81E08E0F8093900F8091BB00BE
:10467000F0E0EF56F04F80839091900F80918F0F74
:104680006AC0E091900F81E08E0F8093900F80912F
:10469000BB00F0E0EF56F04F80838091B60F8111A0
:1046A00069C081E08093B50F84EA5DC083E08093A8
:1046B000B80F10924C0FCFCF80914C0F803208F082
:1046C0004DC0E0914C0F81E08E0F80934C0F809194
:1046D000BB00F0E0E35BF04F8083BDCF2BDF809128
:1046E0004C0F803230F4E0914C0FF0E0E35BF04F80
:1046F000108260914C0F70E0E091B10FF091B20F19
:104700008DE49FE0199510924C0F35C084E08093A2
:10471000B80F10926E0F10926D0FE091B30FF091E1
:10472000B40F199580916D0F811105C081E08093C0
:104730006D0F10926F0FE0916E0F81E08E0F8093DE
:104740006E0FF0E0E159F04F80818093BB009091B3
:104750006E0F80916D0F981708F47DCF85E88093D8
:10476000BC0009C085EC8093BC001092B80F03C058
:1047700010924B0FD5DEFF91EF91BF91AF919F91BA
:104780008F917F916F915F914F913F912F910F90FA
:104790000BBE0F900FBE0F901F901895CF92DF9217
:1047A000EF92FF920F931F93CF93DF938C01EB0156
:1047B000688179818A819B8120E03AEC4AE95BE358
:1047C000B2D7F801C080D180E280F380C20ED31E40
:1047D000E41EF51EC082D182E282F382688379836F
:1047E0008A839B83DF91CF911F910F91FF90EF9070
:1047F000DF90CF9008951F920F920FB60F92112461
:104800002F933F938F939F93AF93BF938091BA0F52
:104810009091BB0FA091BC0FB091BD0F3091B90F1B
:1048200023E0230F2D3720F40196A11DB11D05C0F3
:1048300026E8230F0296A11DB11D2093B90F809386
:10484000BA0F9093BB0FA093BC0FB093BD0F809194
:10485000BE0F9091BF0FA091C00FB091C10F0196F4
:10486000A11DB11D8093BE0F9093BF0FA093C00FE9
:10487000B093C10FBF91AF919F918F913F912F91B5
:104880000F900FBE0F901F9018952FB7F89460915E
:10489000BA0F7091BB0F8091BC0F9091BD0F2FBFCD
:1048A00008953FB7F8948091BE0F9091BF0FA091EB
:1048B000C00FB091C10F26B5A89B05C02F3F19F0BE
:1048C0000196A11DB11D3FBF6627782F892F9A2F12
:1048D000620F711D811D911D42E0660F771F881FB9
:1048E000991F4A95D1F70895CF92DF92EF92FF92E8
:1048F000CF93DF936B017C01D4DFEB01C114D104B2
:10490000E104F10479F0D1D4CCDF6C1B7D0B683E5F
:104910007340A0F381E0C81AD108E108F108C8513A
:10492000DC4FECCFDF91CF91FF90EF90DF90CF90F5
:1049300008958230910538F0880F991F880F991FCC
:1049400005970197F1F70895789484B5826084BD46
:1049500084B5816084BD85B5826085BD85B5816083
:1049600085BDEEE6F0E0808181608083E1E8F0E0E3
:104970001082808182608083808181608083E0E812
:10498000F0E0808181608083E1EBF0E080818460F1
:104990008083E0EBF0E0808181608083E1E9F0E0FA
:1049A000808182608083808181608083E0E9F0E0A3
:1049B000808181608083E1EAF0E080818260808391
:1049C000808181608083E0EAF0E080818160808383
:1049D000E1E2F1E080818260808380818160808378
:1049E000E0E2F1E0808181608083EAE7F0E08081AD
:1049F0008460808380818260808380818160808305
:104A00008081806880831092C10008951F93CF93A6
:104A1000DF93182FEB0161E00FD1209711F460E0D4
:104A200004C0CF3FD10531F461E0812FDF91CF91F8
:104A30001F913BC1E12FF0E0E45CFE4F449150E058
:104A4000FA013197E231F10508F09AC0E658FF4FBC
:104A50008CC684B5806884BDC7BD97C084B58062AC
:104A600084BDC8BD92C08091800080688093800022
:104A7000D0938900C093880088C0809180008062B4
:104A800080938000D0938B00C0938A007EC0809179
:104A90008000886080938000D0938D00C0938C004C
:104AA00074C08091B00080688093B000C093B30060
:104AB0006CC08091B00080628093B000C093B4005D
:104AC00064C080919000806880939000D09399009A
:104AD000C09398005AC080919000806280939000AB
:104AE000D0939B00C0939A0050C080919000886042
:104AF00080939000D0939D00C0939C0046C080910D
:104B0000A00080688093A0008091A0008F7B80939C
:104B1000A000D093A900C093A80037C08091A00046
:104B200080628093A000D093AB00C093AA002DC0F8
:104B30008091A00088608093A000D093AD00C093C6
:104B4000AC0023C080912001806880932001D09325
:104B50002901C093280119C08091200180628093AF
:104B60002001D0932B01C0932A010FC08091200116
:104B7000886080932001D0932D01C0932C0105C043
:104B8000C038D1050CF050CF4ACFDF91CF911F91A3
:104B9000089590E0FC013197E231F10508F04BC037
:104BA000E457FF4FE2C5809180008F7703C080916A
:104BB00080008F7D80938000089580918000877FA2
:104BC000F9CF84B58F7702C084B58F7D84BD0895F9
:104BD0008091B0008F7703C08091B0008F7D80936B
:104BE000B0000895809190008F7707C08091900069
:104BF0008F7D03C080919000877F809390000895FF
:104C00008091A0008F7707C08091A0008F7D03C0A6
:104C10008091A000877F8093A0000895809120015B
:104C20008F7707C0809120018F7D03C08091200184
:104C3000877F809320010895CF93DF9390E0FC015C
:104C4000EE57FE4F2491FC01E853FE4F84918823D8
:104C500049F190E0880F991FFC01EE5BFD4FA59193
:104C6000B491885D9D4FFC01C591D4919FB76111AE
:104C700008C0F8948C91209582238C93888182239C
:104C80000AC0623051F4F8948C91322F309583230E
:104C90008C938881822B888304C0F8948C91822B1A
:104CA0008C939FBFDF91CF9108950F931F93CF9364
:104CB000DF931F92CDB7DEB7282F30E0F901E45C17
:104CC000FE4F8491F901EE57FE4F1491F901E8531C
:104CD000FE4F04910023C1F0882319F0698359DF46
:104CE0006981E02FF0E0EE0FFF1FE85DFD4FA59119
:104CF000B4919FB7F8948C91611103C010958123F2
:104D000001C0812B8C939FBF0F90DF91CF911F919A
:104D10000F910895FC01818D228D90E0805C9F4F62
:104D2000821B91098F7399270895FC01918D828DC3
:104D3000981731F0828DE80FF11D858D90E0089570
:104D40008FEF9FEF0895FC01918D828D981761F090
:104D5000828DDF01A80FB11D5D968C91928D9F5FB2
:104D60009F73928F90E008958FEF9FEF089588E5ED
:104D700098E2892B39F080E090E0892B19F098D1E6
:104D8000811125C080E090E0892B41F080E090E027
:104D9000892B21F00E94000081111CC080E090E06E
:104DA000892B41F080E090E0892B21F00E940000E7
:104DB000811113C080E090E0892BA1F080E090E0A9
:104DC000892B81F00E94000081110AC008950E9481
:104DD0000000D8CF0E940000E1CF0E940000EACF7F
:104DE0000C9400000895FC01848DDF01A80FB11D13
:104DF000A35ABF4F2C91848D90E001968F73992711
:104E0000848FA689B7892C93A089B1898C918064FD
:104E10008C93938D848D981306C00288F389E02DBE
:104E200080818F7D80830895CF93DF93EC01888DFF
:104E30008823C1F0EA89FB89808185FD05C0A889A6
:104E4000B9898C9186FD0EC00FB607FCF5CF808125
:104E500085FFF2CFA889B9898C9185FFEDCFCE016E
:104E6000C2DFE8CFDF91CF910895CF92DF92FF921A
:104E70000F931F93CF93DF931F92CDB7DEB76C01D3
:104E800081E0D60158968C9358975B969C915B97DE
:104E90005C968C915C97981307C05096ED91FC91AD
:104EA0005197808185FD2DC0F601038D10E00F5FC5
:104EB0001F4F0F731127F02EF601848DF81210C0CA
:104EC0000FB607FCF9CFD6015096ED91FC915197A2
:104ED000808185FFF1CFC601698385DF6981ECCFD1
:104EE000838DE80FF11DE35AFF4F6083D6015B9677
:104EF0000C935B975296ED91FC9153978081806261
:104F00000CC0D6015696ED91FC9157976083509650
:104F1000ED91FC91519780818064808381E090E0E5
:104F20000F90DF91CF911F910F91FF90DF90CF9065
:104F30000895BF92CF92DF92EF92FF92CF93DF93CB
:104F4000EC016A017B01B22EE889F98982E0808355
:104F5000411581EE58076105710599F060E079E02F
:104F60008DE390E0A7019601DED32150310941097C
:104F700051095695479537952795211580E13807B2
:104F800090F0E889F989108260E874E88EE190E099
:104F9000A7019601C8D321503109410951095695FD
:104FA000479537952795EC85FD853083EE85FF8500
:104FB0002083188EEC89FD89B082EA89FB89808183
:104FC00080618083EA89FB89808188608083EA89A7
:104FD000FB89808180688083EA89FB8980818F7D5D
:104FE0008083DF91CF91FF90EF90DF90CF90BF90C3
:104FF00008951F920F920FB60F9211240BB60F92C5
:105000002F938F939F93EF93FF93E091D20FF091A3
:10501000D30F8081E091D80FF091D90F82FD12C09B
:1050200090818091DB0F8F5F8F732091DC0F82174F
:1050300051F0E091DB0FF0E0EE53F04F958F80934D
:10504000DB0F01C08081FF91EF919F918F912F9194
:105050000F900BBE0F900FBE0F901F9018951F92D0
:105060000F920FB60F9211240BB60F922F933F930E
:105070004F935F936F937F938F939F93AF93BF9360
:10508000EF93FF9382EC9FE0AEDEFF91EF91BF9133
:10509000AF919F918F917F916F915F914F913F91D0
:1050A0002F910F900BBE0F900FBE0F901F90189571
:1050B00082EC9FE02FDE21E0892B09F420E0822F93
:1050C00008951092C50F1092C40F88EE93E0A0E0EF
:1050D000B0E08093C60F9093C70FA093C80FB09312
:1050E000C90F83E098E09093C30F8093C20F85ECC3
:1050F00090E09093CF0F8093CE0F84EC90E090934C
:10510000D10F8093D00F80EC90E09093D30F8093D9
:10511000D20F81EC90E09093D50F8093D40F82EC66
:1051200090E09093D70F8093D60F86EC90E0909309
:10513000D90F8093D80F1092DB0F1092DC0F1092D2
:10514000DD0F1092DE0F0895CF92DF92EF92FF9263
:105150000F931F93CF93DF937C016A01EB0100E073
:1051600010E00C151D0571F06991D701ED91FC91CE
:105170000190F081E02DC7011995892B19F00F5F7F
:105180001F4FEFCFC801DF91CF911F910F91FF907B
:10519000EF90DF90CF900895FC0180819181D4C37E
:1051A000CF93DF93EC0188819981009709F0CCD3EC
:1051B000198218821D821C821B821A82DF91CF9174
:1051C00008950F931F93CF93DF93EC018B016F5FD3
:1051D0007F4F8881998147D4009731F099838883E4
:1051E0001B830A8381E001C080E0DF91CF911F9192
:1051F0000F910895CF93DF93EC0188819981892BDA
:1052000029F08A819B818617970758F4CE01D9DF50
:10521000882341F08C819D81892B19F4E881F981E3
:10522000108281E0DF91CF910895EF92FF920F936A
:105230001F93CF93DF93EC017B018A01BA01DADF80
:10524000811103C0CE01ACDF06C01D830C83B70102
:1052500088819981F5D4CE01DF91CF911F910F9173
:10526000FF90EF900895FC01118210821382128248
:10527000158214826115710551F0FB010190002027
:10528000E9F7AF0141505109461B570BCECF0895A6
:1052900008955ADBFDDF0E946C17C7EBD6E20E942F
:1052A000681E2097E1F363DDFACF08955058BB27BD
:1052B000AA270ED075C166D130F06BD120F031F441
:1052C0009F3F11F41EF45BC10EF4E095E7FB51C162
:1052D000E92F77D180F3BA17620773078407950720
:1052E00018F071F49EF58FC10EF4E0950B2EBA2FD5
:1052F000A02D0B01B90190010C01CA01A0011124DC
:10530000FF27591B99F0593F50F4503E68F11A1687
:10531000F040A22F232F342F4427585FF3CF469518
:1053200037952795A795F0405395C9F77EF41F163A
:10533000BA0B620B730B840BBAF09150A1F0FF0F04
:10534000BB1F661F771F881FC2F70EC0BA0F621FF0
:10535000731F841F48F4879577956795B795F795E0
:105360009E3F08F0B3CF9395880F08F09927EE0F72
:10537000979587950895D9D008F481E008950CD0C9
:105380000FC107D140F0FED030F021F45F3F19F09B
:10539000F0C0511139C1F3C014D198F39923C9F366
:1053A0005523B1F3951B550BBB27AA27621773072B
:1053B000840738F09F5F5F4F220F331F441FAA1FDF
:1053C000A9F333D00E2E3AF0E0E830D0915050409F
:1053D000E695001CCAF729D0FE2F27D0660F771F4D
:1053E000881FBB1F261737074807AB07B0E809F02F
:1053F000BB0B802DBF01FF2793585F4F2AF09E3FC4
:10540000510568F0B6C000C15F3FECF3983EDCF395
:10541000869577956795B795F7959F5FC9F7880F3C
:10542000911D9695879597F90895E1E0660F771F8E
:10543000881FBB1F621773078407BA0720F0621B1F
:10544000730B840BBA0BEE1F88F7E095089504D018
:105450006894B111D9C00895BCD088F09F5790F0DE
:10546000B92F9927B751A0F0D1F0660F771F881F89
:10547000991F1AF0BA95C9F712C0B13081F0C3D0A4
:10548000B1E00895C0C0672F782F8827B85F39F042
:10549000B93FCCF3869577956795B395D9F73EF4E8
:1054A00090958095709561957F4F8F4F9F4F089590
:1054B000E89409C097FB3EF49095809570956195AE
:1054C0007F4F8F4F9F4F9923A9F0F92F96E9BB2764
:1054D0009395F695879577956795B795F111F8CFE0
:1054E000FAF4BB0F11F460FF1BC06F5F7F4F8F4F4B
:1054F0009F4F16C0882311F096E911C0772321F041
:105500009EE8872F762F05C0662371F096E8862FD8
:1055100070E060E02AF09A95660F771F881FDAF72F
:10552000880F9695879597F90895990F0008550F5C
:10553000AA0BE0E8FEEF16161706E807F907C0F019
:1055400012161306E407F50798F0621B730B840B21
:10555000950B39F40A2661F0232B242B252B21F4FB
:1055600008950A2609F4A140A6958FEF811D811D9B
:10557000089597F99F6780E870E060E008959FEFD5
:1055800080EC089500240A941616170618060906DA
:10559000089500240A9412161306140605060895A9
:1055A000092E0394000C11F4882352F0BB0F40F431
:1055B000BF2B11F460FF04C06F5F7F4F8F4F9F4F71
:1055C000089557FD9058440F551F59F05F3F71F0F3
:1055D0004795880F97FB991F61F09F3F79F087955A
:1055E0000895121613061406551FF2CF4695F1DFE3
:1055F00008C0161617061806991FF1CF8695710573
:10560000610508940895E894BB2766277727CB01A6
:1056100097F908958ADF08F48FEF08950BD0C0CF73
:10562000B1DF28F0B6DF18F0952309F0A2CFA7CF9D
:105630001124EACFC6DFA0F3959FD1F3950F50E078
:10564000551F629FF001729FBB27F00DB11D639F34
:10565000AA27F00DB11DAA1F649F6627B00DA11DDA
:10566000661F829F2227B00DA11D621F739FB00D80
:10567000A11D621F839FA00D611D221F749F3327F0
:10568000A00D611D231F849F600D211D822F762F89
:105690006A2F11249F5750408AF0E1F088234AF086
:1056A000EE0FFF1FBB1F661F771F881F91505040D2
:1056B000A9F79E3F510570F05CCFA6CF5F3FECF39A
:1056C000983EDCF3869577956795B795F795E795BE
:1056D0009F5FC1F7FE2B880F911D9695879597F9CF
:1056E0000895DB018F939F9346D0BF91AF91A29F06
:1056F000800D911DA39F900DB29F900D11240895D0
:1057000097FB072E16F4009406D077FD08D041D001
:1057100007FC05D03EF4909581959F4F08957095B4
:1057200061957F4F0895A1E21A2EAA1BBB1BFD01B4
:105730000DC0AA1FBB1FEE1FFF1FA217B307E40770
:10574000F50720F0A21BB30BE40BF50B661F771FC8
:10575000881F991F1A9469F76095709580959095A8
:105760009B01AC01BD01CF010895EE0FFF1F059015
:10577000F491E02D199421D0A59F900DB49F900D28
:10578000A49F800D911D112408950790F691E02D9E
:105790001994AA1BBB1B51E107C0AA1FBB1FA61768
:1057A000B70710F0A61BB70B881F991F5A95A9F7CA
:1057B00080959095BC01CD010895A29FB001B39F43
:1057C000C001A39F700D811D1124911DB29F700D0A
:1057D000811D1124911D0895EF920F931F93CF9374
:1057E000DF93E80147FF02C034E101C034E0E42F59
:1057F000FF27E7FDF095F7FF03C0F195E195F1096B
:10580000E32E022F2E2FAE013ED4CE01DF91CF9199
:105810001F910F91EF900895CF93DF938230910500
:1058200010F482E090E0E0916110F091621020E0CD
:1058300030E0A0E0B0E0309739F140815181481765
:105840005907B8F04817590771F48281938110976E
:1058500029F013969C938E9312972CC0909362100C
:105860008093611027C02115310531F0421753078D
:1058700018F0A901DB0101C0EF019A01BD01DF01B0
:105880000280F381E02DD7CF21153105F9F0281BD7
:10589000390B2430310580F48A819B8161157105B3
:1058A00021F0FB019383828304C090936210809364
:1058B0006110FE01329644C0FE01E20FF31F819396
:1058C000919322503109398328833AC020915F1087
:1058D00030916010232B41F4209102023091030299
:1058E0003093601020935F102091000230910102EC
:1058F0002115310541F42DB73EB740910402509176
:105900000502241B350BE0915F10F0916010E21747
:10591000F307A0F42E1B3F0B2817390778F0AC01D2
:105920004E5F5F4F2417350748F04E0F5F1F5093AF
:10593000601040935F108193919302C0E0E0F0E02B
:10594000CF01DF91CF910895CF93DF93009709F4B2
:1059500087C0FC01329713821282C0916110D091EE
:105960006210209781F420813181280F391F8091A6
:105970005F10909160108217930779F5F093601093
:10598000E0935F106DC0DE0120E030E0AE17BF078E
:1059900050F412964D915C9113979D01411551055C
:1059A00009F1DA01F3CFB383A28340815181840FDF
:1059B000951F8A179B0771F48D919C911197840F05
:1059C000951F02969183808312968D919C911397D7
:1059D000938382832115310529F4F0936210E093BB
:1059E00061103EC0D9011396FC93EE9312974D912E
:1059F0005D91A40FB51FEA17FB0779F480819181AF
:105A0000840F951F0296D90111969C938E938281E3
:105A1000938113969C938E931297E0E0F0E08A8135
:105A20009B81009719F0FE01EC01F9CFCE0102969F
:105A300028813981820F931F20915F10309160106F
:105A40002817390769F4309729F4109262101092E0
:105A5000611002C013821282D0936010C0935F1055
:105A6000DF91CF9108956F927F928F929F92AF9224
:105A7000BF92CF92DF92EF92FF920F931F93CF933B
:105A8000DF93EC01CB01209779F4DF91CF911F9147
:105A90000F91FF90EF90DF90CF90BF90AF909F90CD
:105AA0008F907F906F90B8CEFE01E60FF71F9E019A
:105AB00022503109E217F30708F4A8C0D9010D916B
:105AC0001C91119706171707B0F00530110508F45F
:105AD0009BC0A801445051094617570708F494C0C9
