:10000000AEC100000C94190F0C94440F0C946F0FA8
:100010000C949A0F0C94C50F0C94F00FD1C10000F2
:10002000CFC10000CDC10000CBC10000C9C100009C
:10003000C7C10000C5C10000C3C10000C1C10000AC
:10004000BFC10000BDC10000BBC10000B9C10000BC
:10005000B7C10000B5C10000B3C100000C94FB2380
:10006000AFC100000C94F9270C942F28A9C10000FF
:10007000A7C10000A5C10000A3C10000A1C10000EC
:100080009FC100009DC100009BC1000099C10000FC
:1000900097C1000095C1000093C100000C94A022FC
:1000A0008FC100008DC100008BC1000089C100001C
:1000B00087C1000085C1000083C1000081C100002C
:1000C0007FC100007DC100007BC1000079C100003C
:1000D00077C1000075C1000073C1000071C100004C
:1000E0006FC100004805500558056005680570059A
:1000F0007805800529252E2533253D254725C02552
:100100005125592561256B2575257F258E25982537
:10011000C025A225AC25B625E125E425D325D72584
:10012000DD251B26E825EC25F225F625FA250026F7
:10013000042608261B260E261226162600000A0B69
:1001400002090C0D0E080703040100000000000066
:10015000000000000000000000000000000000009F
:10016000000000000000000012111000000000005C
:10017000000000000000000000000000000000007F
:1001800000000102102020080810204010204080AC
:10019000020102010804020101020408102040804B
:1001A00080402010080402018004020180402010D9
:1001B0000804020108040201010204081020408022
:1001C0000102040810204080050505050705080800
:1001D0000808020202020A0A0808040404040101D1
:1001E00001010101010103030303030303030407E6
:1001F00007070C0C0C0C0C0C0C0C0202020206067D
:100200000606060606060B0B0B0B0B0B0B0B000072
:1002100020002300260029002C002F0032000001BE
:10022000000003010601090100002200250028004A
:100230002B002E00310034000201000005010801EE
:100240000B0100002100240027002A002D003000AF
:10025000330001010000040107010A0100407A1087
:10026000F35A00A0724E18090010A5D4E80000E867
:100270007648170000E40B54020000CA9A3B0000C5
:1002800000E1F505000080969800000040420F0054
:100290000000A08601000000102700000000E80315
:1002A000000000006400000000000A0000000000E0
:1002B0000100000000002C76D888DC674F0823DF9F
:1002C000C1DFAE59E1B1B796E5E3E453C63AE65172
:1002D000997696E8E6C28426EB898C9B62ED407C99
:1002E0006FFCEFBC9C9F40F2BAA56FA5F490055A35
:1002F0002AF75C936B6CF9676DC11BFCE0E40D475A
:10030000FEF520E6B500D0ED902E0300943577057C
:100310000080841E080000204E0A000000C80C3334
:100320003333330F986E12831141EF8D2114893BC3
:10033000E65516CFFEE6DB18D1844B381BF77C1D43
:10034000901DA4BBE424203284725E228100C9F196
:1003500024ECA1E53D276519B92161283B1B112437
:100360001FBECFEFD1E2DEBFCDBF00E00CBF17E074
:10037000A0E0B2E0EEE9F6E600E00BBF02C00790B5
:100380000D92AE3DB107D9F720E1AEEDB7E001C067
:100390001D92A133B207E1F713E0CCE5D3E000E012
:1003A00006C022970109FE010BBF0E94C52BC6356E
:1003B000D10780E00807A9F70E9449290C943E3331
:1003C0001FCEFC01DB0182818C93838111968C937B
:1003D0001197848112968C931297858113968C9332
:1003E0001397868114968C931497878115968C9316
:1003F0001597808516968C931697818517968C9302
:1004000088E090E00895FC01DB014C9150E060E051
:1004100070E0428353836483758311968C911197A6
:10042000582B428353836483758312968C91129761
:10043000682B428353836483758313968C9113973F
:10044000782B428353836483758314964C9114975D
:1004500050E060E070E046835783608771871596AF
:100460008C911597582B4683578360877187169612
:100470008C911697682B46835783608771871796F0
:100480008C91782B468357836087718788E090E052
:10049000089587E192E0089585E292E008956F92D1
:1004A0007F928F929F92AF92BF92CF92DF92EF9204
:1004B000FF920F931F93CF93DF93FC01DB018C918D
:1004C00090E09383828311962C911197922B9383C2
:1004D000828312964D915D916D917C9115975D018E
:1004E00086E0A80EB11C8A019B010A5F1F4F2F4FA7
:1004F0003F4F6501CA1ADB0AE12CF12CC016D10668
:10050000E206F30640F4E501F9905E01CE010297A0
:10051000EC01F882EECFED01C40FD51F1D82CD0195
:10052000059695838483ED01C40FD51FCE80DF80AF
:10053000E884F984465F5F4F3D01640E751E8A01B1
:10054000222717FD2095322F0C0D1D1D2E1D3F1D3E
:1005500043018A1A9B0AA12CB12C80169106A2068F
:10056000B30640F4E30169913E01CE010297EC012C
:100570006883EECFC40ED51E9D012C0D3D1DC90113
:100580000197EC011882415051094A0F5B1F5783B4
:100590004683E901088119812A813B81D4E0CD0E8F
:1005A000D11C3D016C0C7D1CA601662757FD609592
:1005B000762F400F511F621F731F43018A1A9B0A37
:1005C000A12CB12C84169506A606B70640F4E301CB
:1005D000F9903E01CE010297EC01F882EECF0C0DAE
:1005E0001D1D9D01200F311FC9010197EC011882CB
:1005F000D1E0CD1AD108CA0EDB1ED186C086D90142
:1006000011968C91119712964C91129750E060E0E0
:1006100070E0BA0155274427582B8C91482B13962C
:100620008C91782B4287538764877587C80104961D
:10063000DF91CF911F910F91FF90EF90DF90CF90BE
:10064000BF90AF909F908F907F906F90089586E4B9
:1006500092E008958FE592E00895AF92BF92CF9215
:10066000DF92EF92FF921F93CF93DF939C01FB01E8
:100670008081D90112968C9381819281A381B4816A
:100680005B01C5E0AC0EB11CAC01BD014B5F5F4F1F
:100690006F4F7F4F6501CE1ADF0AE12CF12CC41693
:1006A000D506E606F70650F4E501D9905E017E0115
:1006B000D2E0ED1AF108E701D882ECCFEF01C80FC4
:1006C000D91F1C823496E901FC83EB830596DF91E8
:1006D000CF911F91FF90EF90DF90CF90BF90AF90A0
:1006E000089580E892E0089583E992E0089588ED06
:1006F00096E0089584EB92E00895CF92DF92EF9216
:10070000FF920F931F93CF93DF938C01EB018881AE
:1007100090E0A0E0B0E0F80182839383A483B583E6
:100720002981922B82839383A483B5832A81A22B70
:1007300082839383A483B5832B81B22B828393839B
:10074000A483B5838C8190E0A0E0B0E0868397839A
:10075000A087B1872D81922B86839783A087B1874D
:100760002E81A22B86839783A087B1872F81B22BFE
:1007700086839783A087B187488550E060E070E06A
:1007800042875387648775878985582B42875387AB
:10079000648775878A85682B428753876487758746
:1007A0008B85782B42875387648775878C859D85D9
:1007B000AE85BF859E01205F3F4FAC01BD01405F0C
:1007C0005F4F6F4F7F4F6901CC1ADD0AE12CF12C8E
:1007D000C416D506E606F70650F4F901D1909F013C
:1007E0007F01F2E0EF1AF108F701D082ECCF9E0111
:1007F000280F391FF90117862F96F801D787C6876A
:100800004096DF91CF911F910F91FF90EF90DF9075
:10081000CF90089585ED92E0089585EE92E00895D9
:1008200086E093E008958CE193E008958DE393E0F2
:1008300008958AE593E008950F931F93CF93DF9374
:10084000EC018B01029659DFF801E80FF91F2181B5
:10085000428150E060E070E0BA0155274427522BF6
:100860002081422B2381722B4A8B5B8B6C8B7D8B7F
:100870002581468150E060E070E0BA0155274427A9
:10088000522B2481422B2781722B4E8B5F8B688FDA
:10089000798F0896DF91CF911F910F9108958BE783
:1008A00093E0089585E993E0089586EB93E0089539
:1008B0008DEC93E008958EEE93E0089582E094E04D
:1008C0000895FC01DB0132812381948185813C9371
:1008D00011962C93119712969C93129713968C93C2
:1008E0001397368127819085818514963C931497C0
:1008F00015962C93159716969C93169717968C938E
:100900001797328523859485858518963C9318978B
:1009100019962C9319971A969C931A971B968C9359
:100920008CE090E00895FC01DB0111968C91119709
:1009300012964C91129750E060E070E0BA01552792
:100940004427582B8C91482B13968C911397782B16
:10095000428353836483758315968C9115971696FD
:100960004C91169750E060E070E0BA01552744279B
:10097000582B14968C911497482B17968C91179797
:10098000782B468357836087718719968C911997C6
:100990001A964C911A9750E060E070E0BA01552722
:1009A0004427582B18968C911897482B1B968C919E
:1009B000782B42875387648775878CE090E0089591
:1009C00083E294E0089584E394E008950F931F93E5
:1009D000CF93DF93EC018B0102968FDEF801E80FD5
:1009E000F91F2181428150E060E070E0BA01552793
:1009F0004427522B2081422B2381722B4A8B5B8B05
:100A00006C8B7D8B2581468150E060E070E0BA01FF
:100A100055274427522B2481422B2781722B4E8B42
:100A20005F8B688F798F2185428550E060E070E0B0
:100A3000BA0155274427522B2085422B2385722B40
:100A40004A8F5B8F6C8F7D8F0C96DF91CF911F91BA
:100A50000F91089585E594E008958AE694E008955D
:100A60008BE894E0089583EA94E00895282F90E0BD
:100A7000223010F4049603C0263008F40297883020
:100A8000910508F044C0FC01EE58FF4F0C94B52BC3
:100A9000809169008C7F816080936900E89A089555
:100AA00080916900837F846080936900E99A08954A
:100AB000809169008F7C806180936900EA9A089533
:100AC000809169008F73806480936900EB9A089528
:100AD00080916A008C7F816080936A00EC9A08950F
:100AE00080916A00837F846080936A00ED9A089504
:100AF00080916A008F7C806180936A00EE9A0895ED
:100B000080916A008F73806480936A00EF9A0895E1
:100B10008E579B4FFC01808108950F931F93CF93B5
:100B2000DF93EC018C010A5F1F4FC8014FDFECA17E
:100B3000FDA1C801DF91CF911F910F911994FC0184
:100B400086A197A1089585E594E008958AE694E04A
:100B500008950F931F93CF93DF93EC018C010A5FED
:100B60001F4FC801E0DEEC89FD89C801DF91CF91FC
:100B70001F910F911994FC0186899789089583E24A
:100B800094E0089584E394E00895FC0186A197A180
:100B900008958EEE93E0089582E094E00895AF9278
:100BA000BF92CF92DF92EF92FF920F931F93CF935A
:100BB000DF93EC017B018A81DB018C938B811196A1
:100BC0008C93EC81FD81DF010D900020E9F7CD01D0
:100BD00001976C01CE1ADF0AC601A0E0B0E0FB016C
:100BE00082839383A483B5836C817D81A601C70131
:100BF00006960E94172EEE81FF81DF010D900020E6
:100C0000E9F7CD0101975C01AE1ABF0AF701EC0DBF
:100C1000FD1D850120E030E00683178320873187A2
:100C20009AE0C90ED11C6E817F81A501C7018C0D90
:100C30009D1D0E94172ECA0CDB1CE885F985DF017B
:100C40000D900020E9F7CD0101975C01AE1ABF0AB3
:100C5000F701EC0DFD1D850120E030E000831183DC
:100C60002283338394E0C90ED11C68857985A50160
:100C7000C7018C0D9D1D0E94172EAC0CBD1C3A8522
:100C80002B859C858D85F701EA0DFB1D3083218323
:100C900092838383C5010496DF91CF911F910F91B9
:100CA000FF90EF90DF90CF90BF90AF9008950F939B
:100CB0001F93CF93DF93DC01FB0112968C91129767
:100CC000808313968D919C911497EC0109900020DC
:100CD000E9F72197C81BD90B8E0120E030E0018392
:100CE00012832383348313966D917C911497AE0104
:100CF000CF0105960E94172ECE010596DF91CF9168
:100D00001F910F910895BF92CF92DF92EF92FF92C1
:100D10000F931F93CF93DF93EC017B018A81DB015B
:100D20008C9311961C92119712961C9212971396FF
:100D30001C92FB01379640E024E030E05A81C90163
:100D400004964517E0F4AF81B88524E0429FA00DDA
:100D5000B11D11246C9111965C91119712963C91E2
:100D6000129713962C91DF0113976C9311965C9355
:100D700011963C9320839C014F5F3496DFCF4985C9
:100D8000F701E20FF31F408311821282138220E0E9
:100D90003985F701E80FF91F04962317B0F4AE85E3
:100DA000BF8534E0239FA00DB11D11246C911196D5
:100DB0005C91119712964C91129713963C91608317
:100DC0005183428333832F5FE3CF288920831182AD
:100DD00012821382B12C2889B21698F54B2D50E05F
:100DE000440F551FEB89FC89E40FF51F0190F0813A
:100DF000E02DDF010D900020E9F79D012150310920
:100E00006901CE1ADF0AF701E80FF91F860120E019
:100E100030E000831183228333838C010C5F1F4FEA
:100E2000EB89FC89E40FF51F60817181A601C70180
:100E3000800F911F0E94172EC601800F911FB3943F
:100E4000CACFDF91CF911F910F91FF90EF90DF906C
:100E5000CF90BF9008950F931F93CF93DF93DC0142
:100E6000FB0112968C911297808313968C911397A5
:100E7000818314968C911497828315968C91159783
:100E8000838316968C911697848317968C91179767
:100E9000858318968C911897868319968C9119974B
:100EA00087831A968C911A9780871B968C911B9733
:100EB00081871C968C911C9782871D968C911D971B
:100EC00083871E968D919C911F97EC0109900020BD
:100ED000E9F72197C81BD90B8E0120E030E0048789
:100EE0001587268737871E966D917C911F97AE01D7
:100EF000CF0140960E94172ECE014096DF91CF91F0
:100F00001F910F9108950F931F93CF93DF93EC01DF
:100F10008B010296A0DF5A894B893C892D89F80103
:100F2000E80FF91F50834183328323835E894F8901
:100F3000388D298D54834583368327830896DF9126
:100F4000CF911F910F9108950F931F93CF93DF932C
:100F5000EC018B0102967FDF5A894B893C892D89F0
:100F6000F801E80FF91F50834183328323835E89A0
:100F70004F89388D298D54834583368327835A8D35
:100F80004B8D3C8D2D8D50874187328723870C9662
:100F9000DF91CF911F910F9108954F925F927F92B1
:100FA0008F929F92AF92BF92CF92DF92EF92FF9279
:100FB0000F931F93CF93DF93EC018B01DB01FC9028
:100FC0008A818F1550F4B4E0FB9EB00111248F810B
:100FD00098850E94332D98878F83FA82F80137967F
:100FE000F12C44E050E09E012D5F3F4F8A81BA0111
:100FF0006C5F7F4F6B01F81660F5408150E060E058
:1010000070E0742F662755274427DF0113978C91D2
:10101000482B11968C91582B11968C91682B4B83F1
:101020005C836D837E83A6016F81788584E0F89E62
:10103000600D711D1124D9018D909D90AD90BC90D3
:10104000DB018D929D92AD92BC921397F3943496EE
:10105000CDCFF801E40FF51FF08089858F1550F48E
:1010600084E0F89EB00111248E859F850E94332D67
:101070009F878E879601F98680E0FE013A969985D2
:10108000D801A20FB31FA9014C5F5F4F6A018917F6
:1010900048F511969C91119712964C91129750E039
:1010A00060E070E0BA0155274427592B9C91492BE9
:1010B00013969C91792B4A875B876C877D87960175
:1010C000AE85BF8594E0899FA00DB11D112440819C
:1010D0005181628173814D935D936D937C931397DE
:1010E0008F5FCDCFFC9088898F1550F46F2D70E005
:1010F000660F771F8B899C890E94332D9C8B8B8B6D
:10110000C601F88A712C2E0151E1450E511C288927
:10111000721608F044C0F801E80FF91FC080D180B2
:10112000E280F3800496F801E80FF91FAC0166270E
:1011300057FD6095762F4C0D5D1D6E1D7F1D9F0127
:10114000201B310B4901A12CB12C84169506A60653
:10115000B70638F4B1909F0122503109D901BC92F1
:10116000EECFC80ED91EF801EC0DFD1D319710828F
:101170009C0121503109200F311F3A8B298BC60168
:101180003B892C89E32FF22FE70DF11DE70DF11DAF
:10119000D2012D913C91318320837394B8CFDF919C
:1011A000CF911F910F91FF90EF90DF90CF90BF9064
:1011B000AF909F908F907F905F904F9008958F9207
:1011C0009F92AF92BF92CF92DF92EF92FF92CF9316
:1011D000DF93EC010E9445246093260E7093270E46
:1011E0008093280E9093290E20E030E040E752E4EF
:1011F0006C817D818E819F810E940E2B2CED39EDBB
:1012000047E35FE30E94BF296B017C0120E030E0EF
:1012100040E752E46A8D7B8D8C8D9D8D0E940E2B54
:1012200023ED3DE442E95EE30E940E2B2CED39ED07
:1012300047E35FE30E94BF294B015C019B01AC01C6
:10124000C701B6010E94562960936C0E70936D0E13
:1012500080936E0E90936F0EA5019401C701B601A5
:101260000E9457296093520E7093530E8093540E30
:101270009093550EDF91CF91FF90EF90DF90CF903C
:10128000BF90AF909F908F900895CF92DF92EF9292
:10129000FF920F931F93CF93DF93FC010289138971
:1012A000C689D789E28CF38C0E9445246093220E74
:1012B0007093230E8093240E9093250E6701EE24E5
:1012C000D7FCE094FE2CC60ED71EE81EF91EC09275
:1012D0000A0ED0920B0EE0920C0EF0920D0E17FD3E
:1012E00008C00F3F110519F014F00FEF10E061E096
:1012F00007C001308FEF180714F401E01FEF60E022
:1013000087E00E945526B80117FF03C071956195CB
:10131000710988E00E940625D7FD08C0CF3FD1059E
:1013200019F014F0CFEFD0E061E007C0C1308FEFCB
:10133000D80714F4C1E0DFEF60E089E00E94552691
:10134000BE01D7FF03C07195619571098AE0DF91F5
:10135000CF911F910F91FF90EF90DF90CF900C9461
:1013600006258F929F92AF92BF92CF92DF92EF921B
:10137000FF920F931F93CF93DF93EC01CB01BA0140
:101380008B019C01B7E13595279517950795BA957F
:10139000D1F7112722273327011511052105310522
:1013A00021F000581C4F2F4F3F4F188219821A828C
:1013B0006B017C01B5E0CC0CDD1CEE1CFF1CBA956A
:1013C000D1F7CB826B017C0143E0F594E794D7948D
:1013D000C7944A95D1F7CC826B017C015BE0F59410
:1013E000E794D794C7945A95D1F7CD8268017901D3
:1013F000E4E0CC0CDD1CEE1CFF1CEA95D1F74B01A0
:101400005C01F3E1B594A79497948794FA95D1F78A
:10141000482D4F704C294E8368017901A4E0F59462
:10142000E794D794C794AA95D1F720E030E0A901BA
:101430000E94BB2987FD02C0CF8203C08C2D80682B
:101440008F8388E090E0DF91CF911F910F91FF9003
:10145000EF90DF90CF90BF90AF909F908F900895C6
:10146000EF92FF920F931F93CF93DF938C01EB01C9
:10147000FC014281538164817581CE0172DF7C0160
:10148000F8014681578160857185CE018E0D9F1DC3
:1014900068DFE80EF91EF80142855385648575857D
:1014A000CE018E0D9F1D5DDF8E0D9F1DDF91CF91B3
:1014B0001F910F91FF90EF900895EF92FF920F937D
:1014C0001F93CF93DF938C017B010296C4DCEC0168
:1014D000B701680F791FC8014296C2DF8C0F9D1FAC
:1014E000DF91CF911F910F91FF90EF900895EF92B0
:1014F000FF920F931F93CF93DF938C017B01029692
:10150000AFDFEC01B701680F791FC8014096A8DF73
:101510008C0F9D1FDF91CF911F910F91FF90EF9046
:101520000895EF92FF920F931F93CF93DF93EC01F7
:101530008B01029690DCF801E80FF91F2A892083BD
:101540002B8921832C8922837C0123E0E20EF11C6C
:10155000B8016E0D7F1DCE01459682DFE80EF91EA3
:10156000B8016E0D7F1DCE0183967ADFE80EF91E5D
:10157000B8016E0D7F1DCE01C19672DF8E0D9F1DCD
:10158000DF91CF911F910F91FF90EF9008957F927F
:101590008F929F92AF92BF92CF92DF92EF92FF9283
:1015A0000F931F93CF93DF93EC018B01029653DCD3
:1015B0002A89F801E80FF91F2083118212829C0109
:1015C0002C5F3F4F1382712C8A89F801E20FF31FC1
:1015D000A9014C5F5F4F4A01781660F5872D90E0B6
:1015E000880F991FAD89BE89A80FB91F4D915C91D5
:1015F000DA010D900020E9F79D01215031095901D0
:10160000A41AB50A6501E12CF12CC082D182E282D4
:10161000F382ED89FE89E80FF91F60817181A501D0
:10162000C801880D991D0E94172E9501280D391D9E
:101630007394CACF8F898083118212825A011382D8
:10164000F12C8F89F801EA0DFB1DF81688F4AC8D9A
:10165000BD8D54E0F59EA00DB11D11244D915D91FD
:101660006D917C91CF017DDEA80EB91EF394E9CF78
:101670008E8D80831182128284E0A80EB11C1382A9
:10168000F12C8E8DF801EA0DFB1DF81688F4ABA144
:10169000BCA124E0F29EA00DB11D11244D915D91DD
:1016A0006D917C91CF015DDEA80EB91EF394E9CF58
:1016B0008DA180831182128234E0A30EB11C1382AB
:1016C000F12C8DA1F81698F4EAA5FBA544E0F49E50
:1016D000E00DF11D11244081518162817381C801A7
:1016E0008A0D9B1D3EDEA80EB91EF394EACFC501FC
:1016F000DF91CF911F910F91FF90EF90DF90CF90EE
:10170000BF90AF909F908F907F9008950F931F93FD
:10171000FC01DB01038102950695077010E020E0D3
:1017200030E00D931D932D933C931397448150E02B
:1017300060E070E093E0440F551F661F771F9A9595
:10174000D1F7402B512B622B732B4D935D936D93EF
:101750007C931397058110E020E030E08BE0000FD0
:10176000111F221F331F8A95D1F7042B152B262B0F
:10177000372B0D931D932D933C93139746814F70F8
:1017800050E060E070E093E1440F551F661F771F43
:101790009A95D1F7402B512B622B732B4D935D9370
:1017A0006D937C931397868182958F7007810F7755
:1017B00010E020E030E094E0000F111F221F331FE3
:1017C0009A95D1F7082B0115110521053105A1F0D6
:1017D000005813402109310987E1000F111F221F12
:1017E000331F8A95D1F7042B152B262B372B0D93FE
:1017F0001D932D933C9313970781007810E020E010
:1018000030E0302F2227112700274D915D916D91F7
:101810007C911397402B512B622B732B4D935D932F
:101820006D937C93139788E090E01F910F9108953A
:10183000EF92FF920F931F93CF93DF938C01EB01F5
:10184000BC016E5F7F4FCE0161DF7C01B8016A5F32
:101850007F4FCE018E0D9F1D59DFE80EF91EB80196
:10186000665F7F4FCE018E0D9F1D50DF8E0D9F1D39
:10187000DF91CF911F910F91FF90EF900895EF921C
:10188000FF920F931F93CF93DF938C017B010296FE
:101890000E947D03EC01B701680F791FC8014296D1
:1018A000C7DF8C0F9D1FDF91CF911F910F91FF908C
:1018B000EF900895EF92FF920F931F93CF93DF93D2
:1018C0008C017B010296B4DFEC01B701680F791F30
:1018D000C8014096ADDF8C0F9D1FDF91CF911F9106
:1018E0000F91FF90EF9008950F931F93CF93DF9385
:1018F000EC018C010A5F1F4FC801DCDFECA1FDA1E8
:10190000C801DF91CF911F910F911994EF92FF922F
:101910000F931F93CF93DF93EC018B0102960E94EC
:101920007D03F801E80FF91F20812A8B21812B8B81
:1019300022812C8B7C0123E0E20EF11CB8016E0D9C
:101940007F1DCE01459674DFE80EF91EB8016E0DBD
:101950007F1DCE0183966CDFE80EF91EB8016E0D77
:101960007F1DCE01C19664DF8E0D9F1DDF91CF914B
:101970001F910F91FF90EF9008954F925F926F9299
:101980007F928F929F92AF92BF92CF92DF92EF920F
:10199000FF920F931F93CF93DF93EC018B0102967D
:1019A0000E947D034C01F801E80FF91FF0808A893D
:1019B0008F1550F46F2D70E0660F771F8D899E890B
:1019C0000E94332D9E8B8D8BA4014C5F5F4FFA8A52
:1019D00090E06E0123E1C20ED11C8A89F801E40F68
:1019E000F51F9A012C5F3F4F7901981708F040C00E
:1019F00080809180A280B380F801EE0DFF1DA701C9
:101A0000662757FD6095762F480D591D6A1D7B1D71
:101A10009F01201B310B2901612C712C44165506A6
:101A20006606770638F481919F0122503109D90169
:101A30008C93EECF8E0C9F1CF801E80DF91D3197A9
:101A40001082970121503109200F311F3C8B2B8BC5
:101A5000A4012D898E89E22FF82FE90FF11DE90FDE
:101A6000F11DD6012D913C91318320839F5FB5CF2D
:101A7000B0808F898B1550F434E0B39EB0011124EF
:101A80008C8D9D8D0E94332D9D8F8C8FBF8A912CC4
:101A90005E0188E1A80EB11C2F89C8018E0D9F1D23
:101AA0009216B0F4B50132DEE80EF91EEC8DFD8D14
:101AB000A4E09A9EE00DF11D1124D5014D915D9198
:101AC0006D917C9140835183628373839394E4CFBF
:101AD000FC01B0808E8D8B1550F4F4E0BF9EB001F8
:101AE00011248BA19CA10E94332D9CA38BA324E0E5
:101AF000E20EF11CBE8E912C5E013FE1A30EB11CE3
:101B00002E8DC8018E0D9F1D9216B0F4B501FEDD1D
:101B1000E80EF91EEBA1FCA184E0989EE00DF11DFA
:101B20001124D5014D915D916D917C91408351833C
:101B3000628373839394E4CFFC01B0808DA18B15F5
:101B400050F4F4E0BF9EB00111248AA59BA50E9429
:101B5000332D9BA78AA724E0E20EF11CBDA2912C95
:101B60005E0136E2A30EB11C8DA19816C8F4B50132
:101B7000C8018E0D9F1DCADDE80EF91EEAA5FBA562
:101B800084E0989EE00DF11D1124D5014D915D91E9
:101B90006D917C9140835183628373839394E4CFEE
:101BA000C701DF91CF911F910F91FF90EF90DF90D0
:101BB000CF90BF90AF909F908F907F906F905F90ED
:101BC0004F900895CF93DF93AB01EC01AE81BF81BD
:101BD000ED91FC9111976C817D810190F081E02D58
:101BE000CD01DF91CF911994FC0184E397E09183BB
:101BF00080831282138214821582168217821086C5
:101C0000118612861386148615860895CF93DF9366
:101C1000EC0188E897E09983888388E297E09B83CA
:101C20008A831C821D821E821F82188619861A864C
:101C30001B861C861D861E861F8683E996E0998B6F
:101C4000888B1A8A1B8A1C8ACE014596CDDFCE016D
:101C50008396CADFCE01C196DF91CF91C5CFDC015B
:101C6000ED91FD918081ED91FD919081ED91FD913E
:101C70006C9163708E2309F064609F2309F06860A3
:101C8000ECE4FEE0E60FF11D659565956D936D91B1
:101C90007D918D919D91099423C01AC012C016C0E8
:101CA00010C01EC009C014C013C006C019C009C0AE
:101CB0000DC007C00DC014C06250704080409040FD
:101CC0000BC0615070408040904006C06E5F01C004
:101CD0006F5F7F4F8F4F9F4F9E938E937E936E9338
:101CE0000895CF93DF93EC018B85823020F4F89434
:101CF000CE01B5DF01C0F8946F81788589859A851A
:101D00007894DF91CF910895823159F150F4823067
:101D100099F0833061F57093BE0E6093BD0E81E043
:101D20001CC0843179F0A0F0853109F57093C00EA4
:101D30006093BF0E82E011C07093BC0E6093BB0E27
:101D400080E00BC07093C20E6093C10E83E005C0AB
:101D50007093C40E6093C30E84E00E94360581E048
:101D600008957093C60E6093C50E85E0F6CF80E0AF
:101D700008950F931F93CF93DF93EC01062F142F39
:101D800062E0802F0E941C2662E0812F0E941C26A8
:101D9000202F30E0F901E853FE4FE491F0E0EE0F20
:101DA000FF1FE25FFD4F4591549159834883F9012C
:101DB000EE57FE4F24912C83212F30E0F901E85398
:101DC000FE4FE491F0E0EE0FFF1FE25FFD4FA591A3
:101DD000B491BB83AA83F901EE57FE4F24912D8362
:101DE0001F82188619861A8680ED97E00E94992432
:101DF000E881F98190818C81982381E009F480E069
:101E0000EA81FB8190812D81922309F082608E838B
:101E1000BE01802F79DF8B87BE01812F75DF2B8577
:101E200090E0820F911D8B87DF91CF911F910F91D1
:101E300008951F920F920FB60F9211240BB60F92B6
:101E40002F933F934F935F936F937F938F939F93C2
:101E5000AF93BF93EF93FF938091BF0E9091C00E0D
:101E6000FEDEFF91EF91BF91AF919F918F917F9196
:101E70006F915F914F913F912F910F900BBE0F90FB
:101E80000FBE0F901F9018951F920F920FB60F92D2
:101E900011240BB60F922F933F934F935F936F9341
:101EA0007F938F939F93AF93BF93EF93FF93809113
:101EB000C10E9091C20ED3DEFF91EF91BF91AF9111
:101EC0009F918F917F916F915F914F913F912F9152
:101ED0000F900BBE0F900FBE0F901F9018951F9282
:101EE0000F920FB60F9211240BB60F922F933F93C0
:101EF0004F935F936F937F938F939F93AF93BF9312
:101F0000EF93FF938091C30E9091C40EA8DEFF91D2
:101F1000EF91BF91AF919F918F917F916F915F9161
:101F20004F913F912F910F900BBE0F900FBE0F90CE
:101F30001F9018951F920F920FB60F9211240BB697
:101F40000F922F933F934F935F936F937F938F9352
:101F50009F93AF93BF93EF93FF938091C50E9091A2
:101F6000C60E7DDEFF91EF91BF91AF919F918F9152
:101F70007F916F915F914F913F912F910F900BBE89
:101F80000F900FBE0F901F9018951F920F920FB6D3
:101F90000F9211240BB60F922F933F934F935F93A1
:101FA0006F937F938F939F93AF93BF93EF93FF9321
:101FB0008091BB0E9091BC0E52DEFF91EF91BF91CC
:101FC000AF919F918F917F916F915F914F913F91D1
:101FD0002F910F900BBE0F900FBE0F901F90189572
:101FE0001F920F920FB60F9211240BB60F922F93E0
:101FF0003F934F935F936F937F938F939F93AF9391
:10200000BF93EF93FF938091BD0E9091BE0E27DE9C
:10201000FF91EF91BF91AF919F918F917F916F91C0
:102020005F914F913F912F910F900BBE0F900FBE7C
:102030000F901F9018954F925F926F927F928F92A0
:102040009F92AF92BF92CF92DF92EF92FF920F9347
:102050001F93CF93DF93EC016A017B0128013901C3
:10206000488559856A857B8597018601041B150B78
:10207000260B370BC901B8010E945A2A20E635EE1B
:102080004DE053E40E94BF294B015C0160E67AEE0B
:1020900080E090E0A30192010E94932BCA01B90154
:1020A0000E94582A9B01AC01C501B4010E940E2B6D
:1020B0006C877D878E879F872BED3FE049EC50E44E
:1020C0000E940E2B20E030E040E752E40E94BF293E
:1020D0006E8B7F8B888F998FC886D986EA86FB8620
:1020E000DF91CF911F910F91FF90EF90DF90CF90F4
:1020F000BF90AF909F908F907F906F905F904F9028
:1021000008954F925F926F927F928F929F92AF92BB
:10211000BF92CF92DF92EF92FF92CF93DF93EC01C9
:102120002C853D854E855F85688979898A899B895B
:102130000E9456296B017C012C813D814E815F817B
:102140000E9457294B015C016C837D838E839F83A2
:102150002091120230911302409114025091150205
:10216000C701B6010E940E2B2B013C012091060EE7
:102170003091070E4091080E5091090EC501B4012F
:102180000E940E2B9B01AC01C301B2010E94572992
:102190004B015C01288139814A815B81C701B6010D
:1021A0000E94562920910E0230910F024091100298
:1021B000509111020E940E2B9B01AC01C501B4018C
:1021C0000E9457294B015C01C882D982EA82FB82B6
:1021D0006C897D89882777FD8095982F0E945A2ADF
:1021E00020E030E045EA53E40E940E2B20E030E08E
:1021F0004FE753E40E94BF29A50194010E9457298B
:102200006B017C0120E030E045EA53EC0E94BB29E1
:1022100087FD11C020E030E045EA53E4C701B60174
:102220000E940A2B18166CF4C12CD12C75EAE72EEB
:1022300073E4F72E06C0C12CD12C65EAE62E63ECC0
:10224000F62E20E030E045EA53E4C701B6010E94D3
:10225000BF2920E030E04FE753E40E940E2B0E949C
:10226000272A7D8B6C8BDF91CF91FF90EF90DF90D1
:10227000CF90BF90AF909F908F907F906F905F9026
:102280004F900895FC0184E997E09183808380E971
:102290009FE09383828340E051EE60E070E04483EE
:1022A000558366837783DF01AE57BB4F1C921E9622
:1022B0008CE197E011969C938E9312961C92129744
:1022C00018961C921E92179719961C9219971F9692
:1022D0001C921E921E9750961C92509754961C92D8
:1022E0001E92539780E090E0DF01A80FB91FAC5E0B
:1022F000BB4F1D921C92029682339105A9F780E094
:1023000090E0DF01A80FB91FAA5BBB4F1D921C9282
:10231000029682339105A9F780E090E0DF01A80FD3
:10232000B91F54961C920196811522E09207B1F7CD
:1023300080E090E0DF01A80FB91FAC5EBD4F1C929A
:102340000196811522E09207A9F70895AC0120E0DB
:1023500030E0FA01EC5EFB4F0190F081E02DEF2BB5
:1023600091F4F901E65FFD4FEE0FFF1FE80FF91F33
:102370007183608323583F4FFB0135832483978308
:10238000868381E008952F5F3F4F4E5F5F4F293175
:102390003105F9F680E00895CF92DF92EF92FF9237
:1023A0000F931F93CF93DF93CDB7DEB760970FB630
:1023B000F894DEBF0FBECDBF8C010E94452428EEED
:1023C00033E040E050E00E94932B69017A019B01C9
:1023D000AC01F80184859585A685B7858C0D9D1D7A
:1023E000AE1DBF1D89879A87AB87BC8760E472E406
:1023F0008FE090E00E94712B008911892289338936
:10240000600F711F821F931F6D877E878F87988B48
:10241000BE01635F7F4FCE0109960E94CE2388E004
:10242000FE013996DE01119601900D928A95E1F731
:1024300029813A814B815C816D817E818F81988574
:1024400060960FB6F894DEBF0FBECDBFDF91CF917F
:102450001F910F91FF90EF90DF90CF9008950F9311
:102460001F93CF93DF93CDB7DEB72A970FB6F894BB
:10247000DEBF0FBECDBF8C0188EF96E09A838983C3
:102480001B821C821D821E821F82188619861A8654
:10249000D801ED91FC910190F081E02DAE014F5FEC
:1024A0005F4F6AE070E0C80119950E944524F80169
:1024B00060877187828793872A960FB6F894DEBF6C
:1024C0000FBECDBFDF91CF911F910F9108954F9215
:1024D0005F926F927F928F929F92AF92BF92CF92B4
:1024E000DF92EF92FF920F931F93CF93DF93CDB7BD
:1024F000DEB72E970FB6F894DEBF0FBECDBF8C01AE
:1025000084E097E09A8389831C821B8283E996E0AA
:102510009E838D8398878F839A8789871B861C86E5
:102520001D861E86580182E3A80EB11C7801412C3D
:1025300082E0582E612C712C6701ACEECA1AABEF09
:10254000DA0AD601ED91FC913097B9F18481958139
:102550009C838B83808191819E838D8382819381F3
:10256000DC01ED91FC910480F581E02D19959887AF
:102570008F83D601ED91FC9182819381DC01ED91F5
:10258000FC910680F781E02D19959A8789874B8603
:102590005C866D867E86F80180819181F601A0813E
:1025A000B18118966D917C911997DC01ED91FC91A8
:1025B000AE014F5F5F4FC8011995B2E0EB0EF11C01
:1025C000EA14FB0409F0B8CF7801412CB2E05B2E8D
:1025D000612C712C6701EAEBCE1AEBEFDE0AF601F3
:1025E000A081B1811097E1F112968D919C91139782
:1025F0009C838B8314968D919C9115979E838D83DC
:10260000ED91FC9111970480F581E02DCD01199594
:1026100098878F83D6018D919C91DC01ED91FC917F
:102620000680F781E02D19959A8789874B865C860D
:102630006D867E86D801ED91FC9180809180F601B7
:1026400080819181DC01ED91FC910280F381E02D8C
:102650001995AE014F5F5F4FBC01C801F401199598
:10266000F2E0EF0EF11CEA14FB0409F0B3CFF8011D
:10267000EE57FB4F81E080832E960FB6F894DEBFB5
:102680000FBECDBFDF91CF911F910F91FF90EF90C3
:10269000DF90CF90BF90AF909F908F907F906F9082
:1026A0005F904F9008958F929F92AF92BF92CF927A
:1026B000DF92EF92FF920F931F93CF93DF93CDB7EB
:1026C000DEB72A970FB6F894DEBF0FBECDBF8C01E0
:1026D0005B0188EF96E09A8389831B821C821D82AE
:1026E0001E821F82188619861A860E9445246B0155
:1026F0007C01F80180859185A285B385C81AD90A25
:10270000EA0AFB0AB501CE0101960E94030298EE87
:10271000892E93E0992EA12CB12CC701B601A501F9
:1027200094010E94932B69017A019B01AC018B817A
:102730009C81AD81BE818C0D9D1DAE1DBF1D8B8307
:102740009C83AD83BE8360E472E48FE090E00E94DE
:10275000712BCF80D884E984FA84C60ED71EE81E78
:10276000F91ECF82D886E986FA860E944524CB805E
:10277000DC80ED80FE80F1E0CF1AD108E108F1089D
:10278000A50194010E94932B49015A019B01AC01C0
:10279000C818D908EA08FB08F801C486D586E68679
:1027A000F786CF80D884E984FA84F6E3DF1AF5E669
:1027B000EF0AF4ECFF0A60E472E48FE090E00E941C
:1027C000712BC61AD70AE80AF90AF801C08AD18A19
:1027D000E28AF38AB801605F7F4FC8010C960E94BD
:1027E000CE230E944524F801E957FB4F6083718393
:1027F000828393832A960FB6F894DEBF0FBECDBFB7
:10280000DF91CF911F910F91FF90EF90DF90CF90CC
:10281000BF90AF909F908F9008952F923F924F92CC
:102820005F926F927F928F929F92AF92BF92CF9260
:10283000DF92EF92FF920F931F93CF93DF93CDB769
:10284000DEB760970FB6F894DEBF0FBECDBF4C0168
:102850000E9445246B017C01940129573B4F3E8324
:102860002D83F90180819181A281B381A701960115
:10287000281B390B4A0B5B0BDA01C901893F9A42CD
:10288000A105B10510F035971082A40148585B4F9F
:10289000588B4F87DA018D919C91892B79F0F40147
:1028A000E557FB4F80819181A281B3818C159D05F5
:1028B000AE05BF0518F4FA01118210823401F0E868
:1028C0006F1AFBEF7F0A940124583B4F3A83298308
:1028D000A4014E575B4F58874F832C5E3F4F3C8778
:1028E0002B87435F5F4F5E874D87840106581B4FE0
:1028F0001601270154E1250E311C411C511C5401C5
:1029000084E1A80EB11C940122583B4F3C832B83D9
:10291000A40145575B4F5A874987D40112968D9180
:102920009C911397DC01ED91FC910680F781E02DDD
:1029300019959C0197FD29C1F30180819181820F36
:10294000931F91838083AF85B8894D915C91473007
:102950005105E1F4EB81FC8180819181AC014F5FF5
:102960005F4F51834083F401E80FF91F248BD80196
:102970008D919C91119701978D939C93892B09F0D0
:10298000BECF28E030E0EF85F88986C041155105BB
:1029900019F52F3F310569F481E090E0AF85B889E2
:1029A0008D939C93E985FA852082318242825382FD
:1029B000B4CF0E9445246C197D098E099F096630A9
:1029C00071058105910508F49ACFF401EE57FB4F8C
:1029D00010828EEF9FEFFEC04130510591F42E3FE3
:1029E000310519F482E090E02EC0EF85F88911825C
:1029F0001082AF81B8858C91811181CFC4012FDD08
:102A00008CCF4230510589F4F80131832083AB81AA
:102A1000BC811D921C9283E090E0EF85F889918340
:102A20008083D3012D933C9378CF4330510581F4BB
:102A3000322F2227F80180819181820F931F918389
:102A4000808384E090E0AF85B8898D939C9365CFB7
:102A50004430510599F460E071E00E94802B8F3F73
:102A6000910539F485E090E0EF85F88991838083C2
:102A700054CFAF85B8891D921C924FCF4530510578
:102A800071F4E981FA813183208386E090E0AF859B
:102A9000B8898D939C93F301318320833ECF4630D8
:102AA0005105D1F4322F2227A981BA818D919C91B1
:102AB0001197820F931F8D939C9327E030E0EF8551
:102AC000F88931832083D8018D919C91892B09F05D
:102AD00016CF28E030E0E0CF4830510509F00FCFA5
:102AE000AF85B8891D921C9260E071E00E94802B36
:102AF0008F3F910509F003CFA981BA81ED91FC9137
:102B00003097A1F4C401ABDCC401E1DCF401ED5762
:102B1000FB4FC082D182E282F382ED81FE81C082CE
:102B2000D182E282F3828FEF9FEF54C0EA30F10549
:102B300021F4B501C401B7DDF0CEE630F10551F462
:102B4000B5018B859C850E94CD0781E0AD85BE8552
:102B50008C93E3CEEB30F10521F4EF81F885108200
:102B6000DCCEE154FE4FEE0FFF1FE80DF91D808112
:102B70009181009709F4C3CEDC01ED91FC910190A5
:102B8000F081E02DB5011995C8CEF401EE57FB4F49
:102B900080818823E9F084010D571B4FF801808163
:102BA0009181A281B381A7019601281B390B4A0BA1
:102BB0005B0BDA01C901853C9940A105B10540F0E4
:102BC000C4014DDCD801CD92DD92ED92FC921397B9
:102BD00080E090E060960FB6F894DEBF0FBECDBFE8
:102BE000DF91CF911F910F91FF90EF90DF90CF90E9
:102BF000BF90AF909F908F907F906F905F904F901D
:102C00003F902F9008958F929F92AF92BF92CF9254
:102C1000DF92EF92FF92CF93DF936B017C012091C3
:102C20004E0E30914F0E4091500E5091510E6091CA
:102C3000680E7091690E80916A0E90916B0E0E94E1
:102C4000572920E030E040E05FE30E940E2B20E0B7
:102C500030E040E752E40E94BF292CED39ED47E314
:102C60005FE30E940E2B4B015C01C6E6D8E08FE2C9
:102C700099E092DB288339834A835B836C837D836D
:102C80008E839F838092720890927308A09274083A
:102C9000B092750810927608109277081092780812
:102CA00010927908C701B6010E94582A20E030E04E
:102CB0004AE754E40E94BF2960937A0870937B0826
:102CC00080937C0890937D086EE578E084E598E039
:102CD0000E94E20D8FE299E0DF91CF91FF90EF909B
:102CE000DF90CF90BF90AF909F908F9096CDCF9375
:102CF000DF9300D01F921F92CDB7DEB720E137E0FF
:102D00003A8329836B835D834C83DC01ED91FC91D5
:102D10000190F081E02DAE014F5F5F4F67E070E002
:102D200019950F900F900F900F900F90DF91CF910A
:102D30000895AB0161E0DBCFCF92DF92EF92FF927B
:102D40000F931F93CF93DF93FC0122813381C481C2
:102D5000D581422F532F6C2F7D2F40931202509319
:102D60001302609314027093150216810781F08498
:102D7000E184D801C7014B2F5A2F692F782F409338
:102D80000E0250930F02609310027093110242855D
:102D90005385648575856A01C601A62FB72F809378
:102DA000060E9093070EA093080EB093090E7F9322
:102DB0006F935F934F93EF92FF920F931F93DF9365
:102DC000CF933F932F9384EC94E09F938F9384ED64
:102DD0009DE09F938F930E94272E8DB79EB74096BC
:102DE0000FB6F8949EBF0FBE8DBF64ED7DE08FE2FD
:102DF00099E0DF91CF911F910F91FF90EF90DF90BD
:102E0000CF9097CFEF92FF920F931F93CF93DF93C3
:102E10008C01EB011F938F9386ED94E09F938F932A
:102E200064EDE62E6DE0F62EFF92EF920E94272EC3
:102E3000B7018FE299E07DDFDF93CF9386EF94E0D7
:102E40009F938F93FF92EF920E94272EB7018FE2FC
:102E500099E06FDF4091220E5091230E6091240E75
:102E60007091250E40575E4F6F4F7F4F40930A0E73
:102E700050930B0E60930C0E70930D0E8DB79EB792
:102E80000C960FB6F8949EBF0FBE8DBF17FD02C003
:102E900061E001C060E087E00E945526B80117FF9D
:102EA00003C071956195710988E00E940625D7FDE0
:102EB00002C061E001C060E089E00E945526BE01C9
:102EC000D7FF03C07195619571098AE0DF91CF91B9
:102ED0001F910F91FF90EF900C940625CF92DF92F7
:102EE000EF92FF920F931F93CF93DF93CDB7DEB78F
:102EF00064970FB6F894DEBF0FBECDBF61E088E0E7
:102F00000E941C2661E087E00E941C2661E08AE0A6
:102F10000E941C2661E089E00E941C2660E070E0AF
:102F200080E090E06FDF4091330950913409609167
:102F300035097091360926E0809131099091320966
:102F40000E9499271092A80D1092A70D1092AA0D19
:102F50001092A90D1092AE0D1092AD0D1092AC0D05
:102F60001092AB0D80E091EEA0E0B0E080933309C9
:102F700090933409A0933509B0933609E5E7FDE055
:102F800080E090E021913191232B81F4FC01EE0F40
:102F9000FF1FEB58F24F2FEE38E0318320838C591E
:102FA0009F4F9093F2088093F10804C001968931F5
:102FB000910541F7E5E7FDE080E090E02191319156
:102FC000232B81F4FC01EE0FFF1FEB58F24F27E09B
:102FD00039E0318320838C599F4F90930A09809365
:102FE000090904C001968931910541F7E5E7FDE043
:102FF00080E090E021913191232B81F4FC01EE0FD0
:10300000FF1FEB58F24F27EC38E0318320838C59B7
:103010009F4F9093CA088093C90804C001968931D4
:10302000910541F764E578E08FE299E08FD96EE78A
:1030300078E08FE299E08AD987E195E090934B0898
:1030400080934A0860E378E08FE299E07FD98AE2D2
:1030500095E090931508809314088AE092E090938D
:103060001A08809319088FE299E096D920930C08EA
:1030700030930D0840930E0850930F08609310088A
:1030800070931108809312089093130882E0809344
:10309000160880931B08809322088093290882EFEA
:1030A00097E090932808809327088AEE97E0909302
:1030B00021088093200882EE97E090932F08809358
:1030C0002E086AEF77E08FE299E040D98091B10D48
:1030D000811104C08FE299E0A0DBF8CF67E375E0CF
:1030E0008FE299E026DE67E575E08FE299E021DE68
:1030F0006091B50E7091B60E8FE299E01ADE609184
:1031000006027091070280910802909109029E01C7
:103110002F5F3F4F7901890124E04AE00E94EC2BA8
:10312000FF92EF9280E795E09F938F9374EDC72E07
:103130007DE0D72EDF92CF920E94272EB6018FE23C
:1031400099E0F7DD6091DE077091DF078091E0077D
:103150009091E10724E04AE00E94EC2BFF92EF926D
:1031600084E995E09F938F93DF92CF920E94272E60
:10317000B6018FE299E0DDDD87EC9EE00E9432210E
:1031800065E070E080E090E00E9474240E94452495
:1031900060930A0E70930B0E80930C0E90930D0E9D
:1031A0000FB6F894DEBF0FBECDBF64960FB6F8948D
:1031B000DEBF0FBECDBFDF91CF911F910F91FF906A
:1031C000EF90DF90CF900895CF92DF92EF92FF9231
:1031D0000F931F93CF93DF93EC017B01643671054E
:1031E0003CF0FC01EE57FB4F8081882309F462C05C
:1031F000DA01ED91FC910190F081E02DBE01655E58
:103200007D4FCA0119958C016E01BCEECB1ABDEF42
:10321000DB0A2FEFF60120832EEF319620833196C3
:10322000808331969083890F809531968083319683
:10323000E0823196F08285E090E020E030E0A80165
:10324000495F5F4F8417950750F4FE01E80FF91F9F
:10325000EC5EFD4F6081260F311D0196F3CF085FB4
:103260001F4F4C0F5D1FFA01EC5EFD4F2095208330
:103270000130F2E01F07B0F47601C7018C199D09F7
:10328000801791076CF48A819B81D7016D917D0134
:10329000DC01ED91FC910190F081E02D1995EDCFCD
:1032A000C8010AC043EB55E063E0CE0120DD8FEF9B
:1032B0009FEF02C080E090E0DF91CF911F910F91CE
:1032C000FF90EF90DF90CF900895EF92FF920F93D1
:1032D0001F93CF93DF936CEE75E085EB9EE00E9429
:1032E000332980EA9EE00E94F40D8BE89EE00E9464
:1032F000F40D86E79EE00E94F40D42E163E186E36F
:103300009EE00E94B90E42E063E08AE29EE00E94E5
:10331000B90E8FE299E00E9442118EE997E09093F6
:1033200008098093070984E697E090930E0980933B
:103330000D098FE099E00E94F40D8DE199E00E9463
:10334000F40D8FED98E090932C0980932B0981E088
:1033500090E090932E0980932D0921E336E030937D
:103360000C0920930B092AEA37E03093F0082093E8
:10337000EF0820E737E03093F6082093F508109225
:10338000F7081092F8081092F9081092FA081092B3
:10339000FB081092FC081092FD081092FE08109293
:1033A000FF081092000910920109109202092CE9FD
:1033B00036E1309304092093030990930609809322
:1033C000050929E336E03093F4082093F30826EB4F
:1033D00037E03093C8082093C7082CE737E03093D4
:1033E000CE082093CD0808E217E01093D008009390
:1033F000CF081092D1081092D2081092D3081092E0
:10340000D4081092D5081092D6081092D7081092BE
:10341000D8081092D9081092DA081092DB0810929E
:10342000DC08C3E9D6E0D093DE08C093DD08109233
:10343000DF081092E0081092E1081092E208109262
:10344000E3081092E4081092E5081092E608109242
:10345000E7081092E8081092E9081092EA0825E4BB
:1034600039E03093EC082093EB089093EE088093BA
:10347000ED088DE396E09093CC088093CB0888E824
:1034800098E00E94060E85E496E090937F08809372
:103490007E0888E898E090938108809380081092D5
:1034A0008708109286088EE5E82E88E0F82E80E4E2
:1034B00097E0F7019183808310936108009360087F
:1034C00010926208109263081092640810926508C6
:1034D00010926608109267081092680810926908A6
:1034E00010926A0810926B0810926C0810926D0886
:1034F000D0936F08C0936E0880E798E00E94F40DA7
:103500008DE496E09093550880935408F092570804
:10351000E092560810925D0810925C08EAE3F8E029
:103520008CE497E09183808310933D0800933C08DE
:1035300010923E0810923F081092400810924108E5
:1035400010924208109243081092440810924508C5
:1035500010924608109247081092480810924908A5
:10356000D0934B08C0934A0810924C0810924D0813
:1035700010924E0810924F08109250081092510865
:10358000109252081092530881E295E0909331080E
:1035900080933008F0933308E09332081092390892
:1035A00010923808E4E0F8E088E597E091838083A2
:1035B0001093070800930608109208081092090853
:1035C00010920A0810920B0810920C0810920D0825
:1035D00010920E0810920F08109210081092110805
:1035E0001092120810921308D0931508C093140873
:1035F0001092160810921A081092190810921B08BF
:103600001092210810922008109222081092280887
:10361000109227081092290810922F0810922E0855
:1036200085E596E09093FB078093FA07F093FD07FA
:10363000E093FC0710920308109202082091060202
:103640003091070240910802509109026BED7FE032
:1036500089EC90E40E94BF296093DE077093DF0736
:103660008093E0079093E107DF91CF911F910F9135
:10367000FF90EF90089585EB9EE00C94CC28CF93BB
:10368000C62FBC0187EC9EE000D66C2F87EC9EE035
:10369000ABD587EC9EE0CF916AC61F93CF93DF93A3
:1036A0001F92CDB7DEB7162FBC0187EC9EE0498391
:1036B000ECD5612F87EC9EE097D54981642F87EC8C
:1036C0009EE092D587EC9EE00F90DF91CF911F9105
:1036D0004EC640E261E08EE190E0DFDF65E070E041
:1036E00080E090E00E94742448E160E08EE190E088
:1036F000D4DF65E070E080E090E00E94742441E057
:1037000062E08EE190E0C9DF65E070E080E090E08B
:103710000E94742481E008951F93CF93DF93EC01FE
:10372000162FBC0187EC9EE0B0D5612F87EC9EE0A0
:103730005BD587EC9EE01BD664E170E080E090E012
:103740000E94742441E050E0BE0187EC9EE00DD65B
:1037500087EC9EE0FAD4DF91CF911F91089560E04D
:1037600083E590E0D9DF853E19F548E06DE283E519
:1037700090E093DF65E070E080E090E00E947424C8
:1037800049E061E383E590E088DF65E070E080E098
:1037900090E00E94742449E06CE283E590E07DDFD4
:1037A00065E070E080E090E00E94742481E008957C
:1037B00080E0089560E088E690E0AEDF8E7788369E
:1037C00071F540E86EE388E690E067DF65E070E061
:1037D00080E090E00E9474244BE166E188E690E08E
:1037E0005CDF65E070E080E090E00E94742443E1DB
:1037F00065E188E690E051DF65E070E080E090E010
:103800000E94742443E06EE388E690E046DF6AE0BD
:1038100070E080E090E00E94742481E0089580E0F0
:1038200008959DDF80939A08C5DF80939B0851DF40
:1038300080939C0880919A08811106C046E656E064
:1038400063E08FE299E053DA80919B08811106C012
:103850004FE756E063E08FE299E049DA80919C08F7
:10386000811106C044E956E063E08FE299E03FDA57
:10387000109216020895CF93DF931092B40E62E374
:1038800083E590E0FCDE46E050E063E570E087EC25
:103890009EE06BD587EC9EE050D4892B79F0C091E7
:1038A000B40ED0E087EC9EE050D4C255D14F88834F
:1038B0008091B40E8F5F8093B40EECCF6091AF0E09
:1038C00070E0762F66278091AE0E682B882777FDF3
:1038D0008095982F0E945A2A2DEC3CEC4CEC51E438
:1038E0000E94BF296093A20E7093A30E8093A40E32
:1038F0009093A50E6091B10E70E0762F66278091AF
:10390000B00E682B882777FD8095982F0E945A2A41
:103910002DEC3CEC4CEC51E40E94BF296093A60EC8
:103920007093A70E8093A80E9093A90E6091B30E8A
:1039300070E0762F66278091B20E682B882777FD7E
:103940008095982F0E945A2A2DEC3CEC4CEC51E4C7
:103950000E94BF296093AA0E7093AB0E8093AC0EA9
:103960009093AD0EDF91CF910895CF93DF93109296
:103970009F0E6DE188E690E082DE46E050E068E66A
:1039800070E087EC9EE0F1D487EC9EE0D6D3892BE3
:1039900079F0C0919F0ED0E087EC9EE0D6D3C75659
:1039A000D14F888380919F0E8F5F80939F0EECCFC5
:1039B0006091990E70E0762F662780919A0E682BA1
:1039C000882777FD8095982F0E945A2A29ED33E2A7
:1039D0004FE95AE30E940E2B60938D0E70938E0E6A
:1039E00080938F0E9093900E60919B0E70E0762FD7
:1039F000662780919C0E682B882777FD8095982FED
:103A00000E945A2A29ED33E24FE95AE30E940E2B15
:103A10006093910E7093920E8093930E9093940EF8
:103A200060919D0E70E0762F662780919E0E682B28
:103A3000882777FD8095982F0E945A2A29ED33E236
:103A40004FE95AE30E940E2B6093950E7093960EE9
:103A50008093970E9093980EDF91CF910895CF9316
:103A6000DF9310928A0E63E08EE190E008DE46E07C
:103A700050E06EE170E087EC9EE077D487EC9EE04A
:103A80005CD3892B79F0C0918A0ED0E087EC9EE060
:103A90005CD3CC57D14F888380918A0E8F5F8093FF
:103AA0008A0EECCF6091840E70E0762F66278091AD
:103AB000850E682B882777FD8095982F0E945A2ABB
:103AC0002FE135E84BE65FE30E940E2B6093780E02
:103AD0007093790E80937A0E90937B0E6091880E8E
:103AE00070E0762F66278091890E682B882777FDF6
:103AF0008095982F0E945A2A2FE135E84BE65FE324
:103B00000E940E2B60937C0E70937D0E80937E0E30
:103B100090937F0E6091860E70E0762F66278091DD
:103B2000870E682B882777FD8095982F0E945A2A48
:103B30002FE135E84BE65FE30E940E2B6093800E89
:103B40007093810E8093820E9093830E41E062E029
:103B50008EE190E0DF91CF91A0CD8FE299E00E94BD
:103B6000CC11209390083093910840939208509381
:103B700093086093940870939508809396089093A7
:103B800097088CEA96E09093990880939808809122
:103B90009A08882389F16FDE8091A20E9091A30E7E
:103BA000A091A40EB091A50E80939F089093A008B9
:103BB000A093A108B093A2088091A60E9091A70EA1
:103BC000A091A80EB091A90E8093A3089093A40889
:103BD000A093A508B093A6088091AA0E9091AB0E71
:103BE000A091AC0EB091AD0E8093A7089093A80859
:103BF000A093A908B093AA0880919B08882389F113
:103C0000B4DE80918D0E90918E0EA0918F0EB091AA
:103C1000900E8093AD089093AE08A093AF08B09338
:103C2000B0088091910E9091920EA091930EB09158
:103C3000940E8093B1089093B208A093B308B09308
:103C4000B4088091950E9091960EA091970EB09128
:103C5000980E8093B5089093B608A093B708B093D8
:103C6000B80880919C08882389F1F9DE8091780E4C
:103C70009091790EA0917A0EB0917B0E8093BB0843
:103C80009093BC08A093BD08B093BE0880917C0EB1
:103C900090917D0EA0917E0EB0917F0E8093BF0813
:103CA0009093C008A093C108B093C2088091800E81
:103CB0009091810EA091820EB091830E8093C308E3
:103CC0009093C408A093C508B093C60868E878E04C
:103CD0008EE798E00C94E20D4F925F926F927F9284
:103CE0008F929F92AF92BF92CF92DF92EF92FF920C
:103CF0000F931F93CF93DF9300D01F92CDB7DEB702
:103D0000C4D5C0901A0ED0901B0EE0901C0EF090FF
:103D10001D0E6C197D098E099F0964367105810598
:103D20009105C0F0B2D5C0901A0ED0901B0EE09055
:103D30001C0EF0901D0E6C197D098E099F090E94C2
:103D40000316A3D560931A0E70931B0E80931C0E5E
:103D500090931D0E9AD5C0901E0ED0901F0EE0902D
:103D6000200EF090210E6C197D098E099F09643692
:103D700071058105910508F441C087D56B017C016F
:103D800080911E0E90911F0EA091200EB091210ED9
:103D9000C81AD90AEA0AFB0A86E39EE00E94710E5D
:103DA000AB01BC01970186018CE59EE00E941B10CF
:103DB0008AE29EE00E94710EAB01BC019701860170
:103DC00082E49EE00E941B108CE59EE00E94811020
:103DD00082E49EE00E9481106091560E7091570E11
:103DE0008091700E9091710E0DD84FD560931E0E7C
:103DF00070931F0E8093200E9093210E46D5C09095
:103E00000A0ED0900B0EE0900C0EF0900D0EC61620
:103E1000D706E806F906F0F410926C0E10926D0EBB
:103E200010926E0E10926F0E1092520E1092530E50
:103E30001092540E1092550E1092570E1092560E6C
:103E40001092710E1092700E60E070E080E090E0D1
:103E50000E9402171AD5C090160ED090170EE0904F
:103E6000180EF090190E6C197D098E099F096436A1
:103E700071058105910580F080911602882311F06B
:103E8000D0DC01C06ADE01D56093160E7093170E68
:103E90008093180E9093190EF8D4C090120ED09003
:103EA000130EE090140EF090150E6C197D098E091A
:103EB0009F096436710581059105D8F186E39EE07E
:103EC0000E94710E60934C0870934D0880934E08C9
:103ED00090934F088AE29EE00E94710E6093500812
:103EE0007093510880935208909353088FE299E0A1
:103EF0000E94CC1120934208309343084093440819
:103F0000509345086093460870934708809348088B
:103F1000909349086AE378E080E398E00E94E20D1C
:103F2000B4D46093120E7093130E8093140E90937A
:103F3000150EABD4C0900E0ED0900F0EE090100E68
:103F4000F090110E6C197D098E099F096436710578
:103F50008105910508F4D9C086E39EE00E94710EA8
:103F60002B013C018AE29EE00E94710E4B015C0134
:103F7000C0900602D0900702E0900802F09009027B
:103F80000091200810912108B201882777FD8095C3
:103F9000982F0E945A2A69837A838B839C83C3015A
:103FA000B2010E945A2AA70196010E94BF290E94CD
:103FB000272A882777FD8095982F0E945A2AA701E3
:103FC00096010E940E2B9B01AC0169817A818B8145
:103FD0009C810E9456290E94272A882777FD809578
:103FE000982F0E945A2A9B01AC016091DE077091C4
:103FF000DF078091E0079091E1070E940E2BF80106
:104000006083718382839383B401882777FD8095D1
:10401000982F0E945A2A2B013C01C501B4010E942D
:104020005A2AA70196010E94BF290E94272A8827A1
:1040300077FD8095982F0E945A2AA70196010E9429
:104040000E2B9B01AC01C301B2010E9456290E94B4
:10405000272A882777FD8095982F0E945A2A9B014E
:10406000AC016091DE077091DF078091E0079091CD
:10407000E1070E940E2BF801648375838683978382
:10408000E0912708F09128088091720E9091730EAC
:10409000A091740EB091750E80839183A283B38337
:1040A0008091580E9091590EA0915A0EB0915B0ECE
:1040B00084839583A683B7838FE299E00E94CC1115
:1040C00020930C0830930D0840930E0850930F086E
:1040D000609310087093110880931208909313084E
:1040E00064E078E08AEF97E00E94E20D64E078E017
:1040F0008AEF97E00E94E20DC8D360930E0E709392
:104100000F0E8093100E9093110E8FE299E00F9096
:104110000F900F900F90DF91CF911F910F91FF9013
:10412000EF90DF90CF90BF90AF909F908F907F9057
:104130006F905F904F900C940D148091F70E90E06B
:104140002091F80E821B910908952091F80E80911C
:10415000F70E281750F4E22FF0E0E750F14F80817E
:1041600090E02F5F2093F80E08958FEF9FEF089552
:10417000E091F80E8091F70EE81730F4F0E0E75088
:10418000F14F808190E008958FEF9FEF089508959B
:10419000CF92DF92EF92FF920F931F93CF93DF9313
:1041A0007C01CB018A012091D30E222389F0EB01FF
:1041B0006B01C40ED51ECC15DD0561F06991D701E8
:1041C000ED91FC910190F081E02DC7011995F3CF9D
:1041D000642F8DD1C801DF91CF911F910F91FF9076
:1041E000EF90DF90CF900895CF93DF931F92CDB7DC
:1041F000DEB769832091D30E2223D1F02091D40E13
:10420000203240F021E030E0FC013383228380E063
:1042100090E014C08091D50EE82FF0E0EA52F14F03
:10422000998190838F5F8093D50E8093D40E04C0C4
:1042300061E0CE0101965BD181E090E00F90DF91CB
:10424000CF910895FC011382128248EE53E060E0A2
:1042500070E0448355836683778382EC97E0918393
:10426000808308951092F80E1092F70E1092D50EDA
:104270001092D40E81C081E08093D30E6093F60E2D
:104280001092D50E1092D40E0895F5CF0F93062FED
:1042900021E04091D40E66ED7EE08091F60ED0D004
:1042A0001092D50E1092D40E1092D30E0F91089545
:1042B0008F929F92AF92BF92CF92DF92EF92FF9236
:1042C0000F931F93CF93DF93EC01F62ED42E48016A
:1042D0005901EE2009F1CFDF1E2D143008F013E054
:1042E0001150B8F0E881F98128E0129FB001112443
:1042F000A501940104C056954795379527956A9571
:10430000D2F7CA01B9010190F081E02DCE011995D3
:10431000E7CF60E0CE01BADF4D2D413208F040E238
:104320002C2D69EF7EE08F2D43D01092F80E8093F4
:10433000F70EDF91CF911F910F91FF90EF90DF90DB
:10434000CF90BF90AF909F908F900895CF92EF92B3
:104350000F931F93C22EE12C00E010E09801A8DF1C
:104360001F910F91EF90CF90089521E0EFCF61E082
:104370008DCF87EC9EE066CF1092860F81E0809310
:10438000840F1092830F61E084E18FD461E085E1B6
:104390008CD4E9EBF0E080818E7F808380818D7FFB
:1043A000808388E48093B80085E48093BC000895FE
:1043B000413208F043C09091860F9111FCCF91E0FB
:1043C0009093860F2093840F2FEF2093190F109254
:1043D0005E0F240F20935D0F9093850F9091850FB2
:1043E000880F892B8093850F8091830F813061F432
:1043F0001092830F8091850F8093BB008091BC0049
:1044000083FDF8CF85EC01C085EE8093BC008091E0
:10441000860F8130E1F380915E0F841710F4409194
:104420005E0F2FE53FE0FB01D9018A2F821B841725
:1044300018F48D918193F9CF842F089580E0089529
:104440000F93413208F04AC09091860F9111FCCF32
:1044500092E09093860F0093840F9FEF9093190F33
:1044600010925E0F40935D0FFB016FE57FE0DB0173
:104470009A2F961B941718F491919D93F9CF10924F
:10448000850F9091850F880F892B8093850F8091E0
:10449000830F813061F41092830F8091850F809398
:1044A000BB008091BC0083FDF8CF85EC01C085EE98
:1044B0008093BC00222321F08091860F8230E1F3AB
:1044C0008091190F8F3F61F08091190F803251F068
:1044D0008091190F803341F483E007C081E005C06B
:1044E00080E003C082E001C084E00F910895613252
:1044F00098F42091860F243089F460933B0FFC01DF
:104500008DE39FE0DC012A2F281B261718F4219148
:104510002D93F9CF80E0089581E0089582E0089519
:1045200085ED8093BC008091BC0084FDFCCF10928F
:10453000860F089585EC8093BC001092860F089535
:104540001F920F920FB60F9211240BB60F922F935A
:104550003F934F935F936F937F938F939F93AF930B
:10456000BF93EF93FF938091B900887F803609F461
:104570009DC070F5883209F45CC090F4803109F474
:1045800055C038F4882309F4F3C0883009F44EC0CC
:10459000F2C0883109F44DC0803209F45EC0EBC02E
:1045A000803409F469C050F4803309F456C088336C
:1045B00009F0E1C08093190FBDDFDDC0803509F43B
:1045C0004FC0883509F45DC0883409F0D4C0D2C02A
:1045D000883909F4C3C0A8F4883709F467C038F4EF
:1045E000883609F463C0803709F460C0C4C08838D5
:1045F00009F4B4C0803909F45FC0803809F0BBC049
:104600005BC0803B09F482C038F4803A09F466C08C
:10461000883A09F47BC0AFC0803C09F4A3C0883C51
:1046200009F4A0C0883B09F486C0A5C08091850F1D
:1046300010C090915E0F80915D0F981770F5E0911A
:104640005E0F81E08E0F80935E0FF0E0E15AF04F35
:1046500080818093BB0085EC82C08093190F8AC053
:10466000E0915E0F81E08E0F80935E0F8091BB0022
:10467000F0E0E15AF04F808390915E0F80915D0FE2
:104680006AC0E0915E0F81E08E0F80935E0F809193
:10469000BB00F0E0E15AF04F80838091840F8111DC
:1046A00069C081E08093830F84EA5DC083E08093DA
:1046B000860F10921A0FCFCF80911A0F803208F018
:1046C0004DC0E0911A0F81E08E0F80931A0F8091F8
:1046D000BB00F0E0E55EF04F8083BDCF2BDF809123
:1046E0001A0F803230F4E0911A0FF0E0E55EF04FDF
:1046F000108260911A0F70E0E0917F0FF091800FAF
:104700008BE19FE0199510921A0F35C084E08093D9
:10471000860F10923C0F10923B0FE091810FF091A9
:10472000820F199580913B0F811105C081E0809324
:104730003B0F10923D0FE0913C0F81E08E0F809374
:104740003C0FF0E0E35CF04F80818093BB009091E0
:104750003C0F80913B0F981708F47DCF85E880933C
:10476000BC0009C085EC8093BC001092860F03C08A
:104770001092190FD5DEFF91EF91BF91AF919F91EC
:104780008F917F916F915F914F913F912F910F90FA
:104790000BBE0F900FBE0F901F901895CF92DF9217
:1047A000EF92FF920F931F93CF93DF938C01EB0156
:1047B000688179818A819B8120E03AEC4AE95BE358
:1047C000B2D7F801C080D180E280F380C20ED31E40
:1047D000E41EF51EC082D182E282F382688379836F
:1047E0008A839B83DF91CF911F910F91FF90EF9070
:1047F000DF90CF9008951F920F920FB60F92112461
:104800002F933F938F939F93AF93BF938091880F84
:104810009091890FA0918A0FB0918B0F3091870FE3
:1048200023E0230F2D3720F40196A11DB11D05C0F3
:1048300026E8230F0296A11DB11D2093870F8093B8
:10484000880F9093890FA0938A0FB0938B0F80915C
:104850008C0F90918D0FA0918E0FB0918F0F0196BC
:10486000A11DB11D80938C0F90938D0FA0938E0F7F
:10487000B0938F0FBF91AF919F918F913F912F91E7
:104880000F900FBE0F901F9018952FB7F89460915E
:10489000880F7091890F80918A0F90918B0F2FBF95
:1048A00008953FB7F89480918C0F90918D0FA0914F
:1048B0008E0FB0918F0F26B5A89B05C02F3F19F022
:1048C0000196A11DB11D3FBF6627782F892F9A2F12
:1048D000620F711D811D911D42E0660F771F881FB9
:1048E000991F4A95D1F70895CF92DF92EF92FF92E8
:1048F000CF93DF936B017C01D4DFEB01C114D104B2
:10490000E104F10479F0D1D4CCDF6C1B7D0B683E5F
:104910007340A0F381E0C81AD108E108F108C8513A
:10492000DC4FECCFDF91CF91FF90EF90DF90CF90F5
:1049300008958230910538F0880F991F880F991FCC
:1049400005970197F1F70895789484B5826084BD46
:1049500084B5816084BD85B5826085BD85B5816083
:1049600085BDEEE6F0E0808181608083E1E8F0E0E3
:104970001082808182608083808181608083E0E812
:10498000F0E0808181608083E1EBF0E080818460F1
:104990008083E0EBF0E0808181608083E1E9F0E0FA
:1049A000808182608083808181608083E0E9F0E0A3
:1049B000808181608083E1EAF0E080818260808391
:1049C000808181608083E0EAF0E080818160808383
:1049D000E1E2F1E080818260808380818160808378
:1049E000E0E2F1E0808181608083EAE7F0E08081AD
:1049F0008460808380818260808380818160808305
:104A00008081806880831092C10008951F93CF93A6
:104A1000DF93182FEB0161E00FD1209711F460E0D4
:104A200004C0CF3FD10531F461E0812FDF91CF91F8
:104A30001F913BC1E12FF0E0E45CFE4F449150E058
:104A4000FA013197E231F10508F09AC0E658FF4FBC
:104A50008CC684B5806884BDC7BD97C084B58062AC
:104A600084BDC8BD92C08091800080688093800022
:104A7000D0938900C093880088C0809180008062B4
:104A800080938000D0938B00C0938A007EC0809179
:104A90008000886080938000D0938D00C0938C004C
:104AA00074C08091B00080688093B000C093B30060
:104AB0006CC08091B00080628093B000C093B4005D
:104AC00064C080919000806880939000D09399009A
:104AD000C09398005AC080919000806280939000AB
:104AE000D0939B00C0939A0050C080919000886042
:104AF00080939000D0939D00C0939C0046C080910D
:104B0000A00080688093A0008091A0008F7B80939C
:104B1000A000D093A900C093A80037C08091A00046
:104B200080628093A000D093AB00C093AA002DC0F8
:104B30008091A00088608093A000D093AD00C093C6
:104B4000AC0023C080912001806880932001D09325
:104B50002901C093280119C08091200180628093AF
:104B60002001D0932B01C0932A010FC08091200116
:104B7000886080932001D0932D01C0932C0105C043
:104B8000C038D1050CF050CF4ACFDF91CF911F91A3
:104B9000089590E0FC013197E231F10508F04BC037
:104BA000E457FF4FE2C5809180008F7703C080916A
:104BB00080008F7D80938000089580918000877FA2
:104BC000F9CF84B58F7702C084B58F7D84BD0895F9
:104BD0008091B0008F7703C08091B0008F7D80936B
:104BE000B0000895809190008F7707C08091900069
:104BF0008F7D03C080919000877F809390000895FF
:104C00008091A0008F7707C08091A0008F7D03C0A6
:104C10008091A000877F8093A0000895809120015B
:104C20008F7707C0809120018F7D03C08091200184
:104C3000877F809320010895CF93DF9390E0FC015C
:104C4000EE57FE4F2491FC01E853FE4F84918823D8
:104C500049F190E0880F991FFC01EE5BFD4FA59193
:104C6000B491885D9D4FFC01C591D4919FB76111AE
:104C700008C0F8948C91209582238C93888182239C
:104C80000AC0623051F4F8948C91322F309583230E
:104C90008C938881822B888304C0F8948C91822B1A
:104CA0008C939FBFDF91CF9108950F931F93CF9364
:104CB000DF931F92CDB7DEB7282F30E0F901E45C17
:104CC000FE4F8491F901EE57FE4F1491F901E8531C
:104CD000FE4F04910023C1F0882319F0698359DF46
:104CE0006981E02FF0E0EE0FFF1FE85DFD4FA59119
:104CF000B4919FB7F8948C91611103C010958123F2
:104D000001C0812B8C939FBF0F90DF91CF911F919A
:104D10000F910895FC01818D228D90E0805C9F4F62
:104D2000821B91098F7399270895FC01918D828DC3
:104D3000981731F0828DE80FF11D858D90E0089570
:104D40008FEF9FEF0895FC01918D828D981761F090
:104D5000828DDF01A80FB11D5D968C91928D9F5FB2
:104D60009F73928F90E008958FEF9FEF089588E5ED
:104D700098E2892B39F080E090E0892B19F098D1E6
:104D8000811125C080E090E0892B41F080E090E027
:104D9000892B21F00E94000081111CC080E090E06E
:104DA000892B41F080E090E0892B21F00E940000E7
:104DB000811113C080E090E0892BA1F080E090E0A9
:104DC000892B81F00E94000081110AC008950E9481
:104DD0000000D8CF0E940000E1CF0E940000EACF7F
:104DE0000C9400000895FC01848DDF01A80FB11D13
:104DF000A35ABF4F2C91848D90E001968F73992711
:104E0000848FA689B7892C93A089B1898C918064FD
:104E10008C93938D848D981306C00288F389E02DBE
:104E200080818F7D80830895CF93DF93EC01888DFF
:104E30008823C1F0EA89FB89808185FD05C0A889A6
:104E4000B9898C9186FD0EC00FB607FCF5CF808125
:104E500085FFF2CFA889B9898C9185FFEDCFCE016E
:104E6000C2DFE8CFDF91CF910895CF92DF92FF921A
:104E70000F931F93CF93DF931F92CDB7DEB76C01D3
:104E800081E0D60158968C9358975B969C915B97DE
:104E90005C968C915C97981307C05096ED91FC91AD
:104EA0005197808185FD2DC0F601038D10E00F5FC5
:104EB0001F4F0F731127F02EF601848DF81210C0CA
:104EC0000FB607FCF9CFD6015096ED91FC915197A2
:104ED000808185FFF1CFC601698385DF6981ECCFD1
:104EE000838DE80FF11DE35AFF4F6083D6015B9677
:104EF0000C935B975296ED91FC9153978081806261
:104F00000CC0D6015696ED91FC9157976083509650
:104F1000ED91FC91519780818064808381E090E0E5
:104F20000F90DF91CF911F910F91FF90DF90CF9065
:104F30000895BF92CF92DF92EF92FF92CF93DF93CB
:104F4000EC016A017B01B22EE889F98982E0808355
:104F5000411581EE58076105710599F060E079E02F
:104F60008DE390E0A7019601DED32150310941097C
:104F700051095695479537952795211580E13807B2
:104F800090F0E889F989108260E874E88EE190E099
:104F9000A7019601C8D321503109410951095695FD
:104FA000479537952795EC85FD853083EE85FF8500
:104FB0002083188EEC89FD89B082EA89FB89808183
:104FC00080618083EA89FB89808188608083EA89A7
:104FD000FB89808180688083EA89FB8980818F7D5D
:104FE0008083DF91CF91FF90EF90DF90CF90BF90C3
:104FF00008951F920F920FB60F9211240BB60F92C5
:105000002F938F939F93EF93FF93E091A00FF091D5
:10501000A10F8081E091A60FF091A70F82FD12C031
:1050200090818091A90F8F5F8F732091AA0F8217B3
:1050300051F0E091A90FF0E0E057F04F958F809389
:10504000A90F01C08081FF91EF919F918F912F91C6
:105050000F900BBE0F900FBE0F901F9018951F92D0
:105060000F920FB60F9211240BB60F922F933F930E
:105070004F935F936F937F938F939F93AF93BF9360
:10508000EF93FF9380E99FE0AEDEFF91EF91BF9138
:10509000AF919F918F917F916F915F914F913F91D0
:1050A0002F910F900BBE0F900FBE0F901F90189571
:1050B00080E99FE02FDE21E0892B09F420E0822F98
:1050C00008951092930F1092920F88EE93E0A0E053
:1050D000B0E08093940F9093950FA093960FB093A8
:1050E000970F82ED97E09093910F8093900F85EC4E
:1050F00090E090939D0F80939C0F84EC90E09093B0
:105100009F0F80939E0F80EC90E09093A10F80936F
:10511000A00F81EC90E09093A30F8093A20F82ECFC
:1051200090E09093A50F8093A40F86EC90E090936D
:10513000A70F8093A60F1092A90F1092AA0F10929A
:10514000AB0F1092AC0F0895CF92DF92EF92FF92C7
:105150000F931F93CF93DF937C016A01EB0100E073
:1051600010E00C151D0571F06991D701ED91FC91CE
:105170000190F081E02DC7011995892B19F00F5F7F
:105180001F4FEFCFC801DF91CF911F910F91FF907B
:10519000EF90DF90CF900895FC0180819181D4C37E
:1051A000CF93DF93EC0188819981009709F0CCD3EC
:1051B000198218821D821C821B821A82DF91CF9174
:1051C00008950F931F93CF93DF93EC018B016F5FD3
:1051D0007F4F8881998147D4009731F099838883E4
:1051E0001B830A8381E001C080E0DF91CF911F9192
:1051F0000F910895CF93DF93EC0188819981892BDA
:1052000029F08A819B818617970758F4CE01D9DF50
:10521000882341F08C819D81892B19F4E881F981E3
:10522000108281E0DF91CF910895EF92FF920F936A
:105230001F93CF93DF93EC017B018A01BA01DADF80
:10524000811103C0CE01ACDF06C01D830C83B70102
:1052500088819981F5D4CE01DF91CF911F910F9173
:10526000FF90EF900895FC01118210821382128248
:10527000158214826115710551F0FB010190002027
:10528000E9F7AF0141505109461B570BCECF0895A6
:1052900008955ADBFDDF0E946E17C7EBD6E20E942D
:1052A0006C1E2097E1F363DDFACF08955058BB27B9
:1052B000AA270ED075C166D130F06BD120F031F441
:1052C0009F3F11F41EF45BC10EF4E095E7FB51C162
:1052D000E92F77D180F3BA17620773078407950720
:1052E00018F071F49EF58FC10EF4E0950B2EBA2FD5
:1052F000A02D0B01B90190010C01CA01A0011124DC
:10530000FF27591B99F0593F50F4503E68F11A1687
:10531000F040A22F232F342F4427585FF3CF469518
:1053200037952795A795F0405395C9F77EF41F163A
:10533000BA0B620B730B840BBAF09150A1F0FF0F04
:10534000BB1F661F771F881FC2F70EC0BA0F621FF0
:10535000731F841F48F4879577956795B795F795E0
:105360009E3F08F0B3CF9395880F08F09927EE0F72
:10537000979587950895D9D008F481E008950CD0C9
:105380000FC107D140F0FED030F021F45F3F19F09B
:10539000F0C0511139C1F3C014D198F39923C9F366
:1053A0005523B1F3951B550BBB27AA27621773072B
:1053B000840738F09F5F5F4F220F331F441FAA1FDF
:1053C000A9F333D00E2E3AF0E0E830D0915050409F
:1053D000E695001CCAF729D0FE2F27D0660F771F4D
:1053E000881FBB1F261737074807AB07B0E809F02F
:1053F000BB0B802DBF01FF2793585F4F2AF09E3FC4
:10540000510568F0B6C000C15F3FECF3983EDCF395
:10541000869577956795B795F7959F5FC9F7880F3C
:10542000911D9695879597F90895E1E0660F771F8E
:10543000881FBB1F621773078407BA0720F0621B1F
:10544000730B840BBA0BEE1F88F7E095089504D018
:105450006894B111D9C00895BCD088F09F5790F0DE
:10546000B92F9927B751A0F0D1F0660F771F881F89
:10547000991F1AF0BA95C9F712C0B13081F0C3D0A4
:10548000B1E00895C0C0672F782F8827B85F39F042
:10549000B93FCCF3869577956795B395D9F73EF4E8
:1054A00090958095709561957F4F8F4F9F4F089590
:1054B000E89409C097FB3EF49095809570956195AE
:1054C0007F4F8F4F9F4F9923A9F0F92F96E9BB2764
:1054D0009395F695879577956795B795F111F8CFE0
:1054E000FAF4BB0F11F460FF1BC06F5F7F4F8F4F4B
:1054F0009F4F16C0882311F096E911C0772321F041
:105500009EE8872F762F05C0662371F096E8862FD8
:1055100070E060E02AF09A95660F771F881FDAF72F
:10552000880F9695879597F90895990F0008550F5C
:10553000AA0BE0E8FEEF16161706E807F907C0F019
:1055400012161306E407F50798F0621B730B840B21
:10555000950B39F40A2661F0232B242B252B21F4FB
:1055600008950A2609F4A140A6958FEF811D811D9B
:10557000089597F99F6780E870E060E008959FEFD5
:1055800080EC089500240A941616170618060906DA
:10559000089500240A9412161306140605060895A9
:1055A000092E0394000C11F4882352F0BB0F40F431
:1055B000BF2B11F460FF04C06F5F7F4F8F4F9F4F71
:1055C000089557FD9058440F551F59F05F3F71F0F3
:1055D0004795880F97FB991F61F09F3F79F087955A
:1055E0000895121613061406551FF2CF4695F1DFE3
:1055F00008C0161617061806991FF1CF8695710573
:10560000610508940895E894BB2766277727CB01A6
:1056100097F908958ADF08F48FEF08950BD0C0CF73
:10562000B1DF28F0B6DF18F0952309F0A2CFA7CF9D
:105630001124EACFC6DFA0F3959FD1F3950F50E078
:10564000551F629FF001729FBB27F00DB11D639F34
:10565000AA27F00DB11DAA1F649F6627B00DA11DDA
:10566000661F829F2227B00DA11D621F739FB00D80
:10567000A11D621F839FA00D611D221F749F3327F0
:10568000A00D611D231F849F600D211D822F762F89
:105690006A2F11249F5750408AF0E1F088234AF086
:1056A000EE0FFF1FBB1F661F771F881F91505040D2
:1056B000A9F79E3F510570F05CCFA6CF5F3FECF39A
:1056C000983EDCF3869577956795B795F795E795BE
:1056D0009F5FC1F7FE2B880F911D9695879597F9CF
:1056E0000895DB018F939F9346D0BF91AF91A29F06
:1056F000800D911DA39F900DB29F900D11240895D0
:1057000097FB072E16F4009406D077FD08D041D001
:1057100007FC05D03EF4909581959F4F08957095B4
:1057200061957F4F0895A1E21A2EAA1BBB1BFD01B4
:105730000DC0AA1FBB1FEE1FFF1FA217B307E40770
:10574000F50720F0A21BB30BE40BF50B661F771FC8
:10575000881F991F1A9469F76095709580959095A8
:105760009B01AC01BD01CF010895EE0FFF1F059015
:10577000F491E02D199421D0A59F900DB49F900D28
:10578000A49F800D911D112408950790F691E02D9E
:105790001994AA1BBB1B51E107C0AA1FBB1FA61768
:1057A000B70710F0A61BB70B881F991F5A95A9F7CA
:1057B00080959095BC01CD010895A29FB001B39F43
:1057C000C001A39F700D811D1124911DB29F700D0A
:1057D000811D1124911D0895EF920F931F93CF9374
:1057E000DF93E80147FF02C034E101C034E0E42F59
:1057F000FF27E7FDF095F7FF03C0F195E195F1096B
:10580000E32E022F2E2FAE013ED4CE01DF91CF9199
:105810001F910F91EF900895CF93DF938230910500
:1058200010F482E090E0E0912F10F091301020E031
:1058300030E0A0E0B0E0309739F140815181481765
:105840005907B8F04817590771F48281938110976E
:1058500029F013969C938E9312972CC0909330103E
:1058600080932F1027C02115310531F042175307BF
:1058700018F0A901DB0101C0EF019A01BD01DF01B0
:105880000280F381E02DD7CF21153105F9F0281BD7
:10589000390B2430310580F48A819B8161157105B3
:1058A00021F0FB019383828304C090933010809396
:1058B0002F10FE01329644C0FE01E20FF31F8193C8
:1058C000919322503109398328833AC020912D10B9
:1058D00030912E10232B41F42091020230910302CB
:1058E00030932E1020932D10209100023091010250
:1058F0002115310541F42DB73EB740910402509176
:105900000502241B350BE0912D10F0912E10E217AB
:10591000F307A0F42E1B3F0B2817390778F0AC01D2
:105920004E5F5F4F2417350748F04E0F5F1F5093AF
:105930002E1040932D108193919302C0E0E0F0E08F
:10594000CF01DF91CF910895CF93DF93009709F4B2
:1059500087C0FC01329713821282C0912F10D09120
:105960003010209781F420813181280F391F8091D8
:105970002D1090912E108217930779F5F0932E1029
:10598000E0932D106DC0DE0120E030E0AE17BF07C0
:1059900050F412964D915C9113979D01411551055C
:1059A00009F1DA01F3CFB383A28340815181840FDF
:1059B000951F8A179B0771F48D919C911197840F05
:1059C000951F02969183808312968D919C911397D7
:1059D000938382832115310529F4F0933010E093ED
:1059E0002F103EC0D9011396FC93EE9312974D9160
:1059F0005D91A40FB51FEA17FB0779F480819181AF
:105A0000840F951F0296D90111969C938E938281E3
:105A1000938113969C938E931297E0E0F0E08A8135
:105A20009B81009719F0FE01EC01F9CFCE0102969F
:105A300028813981820F931F20912D1030912E10D3
:105A40002817390769F4309729F410923010109212
:105A50002F1002C013821282D0932E10C0932D10EB
:105A6000DF91CF9108956F927F928F929F92AF9224
:105A7000BF92CF92DF92EF92FF920F931F93CF933B
:105A8000DF93EC01CB01209779F4DF91CF911F9147
:105A90000F91FF90EF90DF90CF90BF90AF909F90CD
:105AA0008F907F906F90B8CEFE01E60FF71F9E019A
:105AB00022503109E217F30708F4A8C0D9010D916B
:105AC0001C91119706171707B0F00530110508F45F
:105AD0009BC0A801445051094617570708F494C0C9
