:1000000030C100000C941D0B0C94480B0C94730B26
:100010000C949E0B0C94C90B0C94F40B53C1000070
:1000200051C100004FC100004DC100004BC1000094
:1000300049C1000047C1000045C1000043C10000A4
:1000400041C100003FC100003DC100003BC10000B4
:1000500039C1000037C1000035C100000C94BC1C40
:1000600031C100000C94BA200C94F0202BC1000088
:1000700029C1000027C1000025C1000023C10000E4
:1000800021C100001FC100001DC100001BC10000F4
:1000900019C1000017C1000015C100000C94611BBC
:1000A00011C100000FC100000DC100000BC1000014
:1000B00009C1000007C1000005C1000003C1000024
:1000C00001C10000FFC00000FDC00000FBC0000037
:1000D000F9C00000F7C00000F5C00000F3C0000048
:1000E000F1C0000041044904510459046104690449
:1000F00071047904EA1DEF1DF41DFE1D081E811E0A
:10010000121E1A1E221E2C1E361E401E4F1E591E67
:10011000811E631E6D1E771EA21EA51E941E981EB4
:100120009E1EDC1EA91EAD1EB31EB71EBB1EC11E29
:10013000C51EC91EDC1ECF1ED31ED71E00000A0B13
:1001400002090C0D0E080703040100000000000066
:10015000000000000000000000000000000000009F
:10016000000000000000000012111000000000005C
:10017000000000000000000000000000000000007F
:1001800000000102102020080810204010204080AC
:10019000020102010804020101020408102040804B
:1001A00080402010080402018004020180402010D9
:1001B0000804020108040201010204081020408022
:1001C0000102040810204080050505050705080800
:1001D0000808020202020A0A0808040404040101D1
:1001E00001010101010103030303030303030407E6
:1001F00007070C0C0C0C0C0C0C0C0202020206067D
:100200000606060606060B0B0B0B0B0B0B0B000072
:1002100020002300260029002C002F0032000001BE
:10022000000003010601090100002200250028004A
:100230002B002E00310034000201000005010801EE
:100240000B0100002100240027002A002D003000AF
:10025000330001010000040107010A01EF137A1ABB
:10026000222111241FBECFEFD1E2DEBFCDBF00E0BF
:100270000CBF15E0A0E0B2E0E2E1F2E500E00BBF68
:1002800002C007900D92A83DB107D9F72DE0A8ED67
:10029000B5E001C01D92AF36B207E1F712E0C2E649
:1002A000D2E000E006C022970109FE010BBF0E94C8
:1002B0000A24CC35D10780E00807A9F70E948E21D7
:1002C0000C9407299DCEFC01DB0182818C938381F4
:1002D00011968C931197848112968C931297858135
:1002E00013968C931397868114968C931497878119
:1002F00015968C931597808516968C931697818505
:1003000017968C9388E090E00895FC01DB014C91F6
:1003100050E060E070E042835383648375831196FC
:100320008C911197582B4283538364837583129663
:100330008C911297682B4283538364837583139641
:100340008C911397782B428353836483758314961F
:100350004C91149750E060E070E0468357836087CB
:10036000718715968C911597582B46835783608714
:10037000718716968C911697682B468357836087F2
:10038000718717968C91782B468357836087718786
:1003900088E090E008958FE092E008958DE192E08A
:1003A00008956F927F928F929F92AF92BF92CF9259
:1003B000DF92EF92FF920F931F93CF93DF93FC0195
:1003C000DB018C9190E09383828311962C9111979D
:1003D000922B9383828312964D915D916D917C91C6
:1003E00015975D0186E0A80EB11C8A019B010A5F8A
:1003F0001F4F2F4F3F4F6501CA1ADB0AE12CF12C2A
:10040000C016D106E206F30640F4E501F9905E015C
:10041000CE010297EC01F882EECFED01C40FD51F9B
:100420001D82CD01059695838483ED01C40FD51FF0
:10043000CE80DF80E884F984465F5F4F3D01640E23
:10044000751E8A01222717FD2095322F0C0D1D1DC8
:100450002E1D3F1D43018A1A9B0AA12CB12C801628
:100460009106A206B30640F4E30169913E01CE0174
:100470000297EC016883EECFC40ED51E9D012C0DB2
:100480003D1DC9010197EC011882415051094A0FE5
:100490005B1F57834683E901088119812A813B81CB
:1004A000D4E0CD0ED11C3D016C0C7D1CA60166274D
:1004B00057FD6095762F400F511F621F731F430138
:1004C0008A1A9B0AA12CB12C84169506A606B7069B
:1004D00040F4E301F9903E01CE010297EC01F8826D
:1004E000EECF0C0D1D1D9D01200F311FC90101977D
:1004F000EC011882D1E0CD1AD108CA0EDB1ED186DC
:10050000C086D90111968C91119712964C91129731
:1005100050E060E070E0BA0155274427582B8C91D9
:10052000482B13968C91782B428753876487758765
:10053000C8010496DF91CF911F910F91FF90EF902A
:10054000DF90CF90BF90AF909F908F907F906F90F3
:1005500008958EE392E0089587E592E00895AF92C2
:10056000BF92CF92DF92EF92FF921F93CF93DF93D0
:100570009C01FB018081D90112968C93818192812B
:10058000A381B4815B01C5E0AC0EB11CAC01BD011F
:100590004B5F5F4F6F4F7F4F6501CE1ADF0AE12C33
:1005A000F12CC416D506E606F70650F4E501D990FD
:1005B0005E017E01D2E0ED1AF108E701D882ECCFAE
:1005C000EF01C80FD91F1C823496E901FC83EB832D
:1005D0000596DF91CF911F91FF90EF90DF90CF9024
:1005E000BF90AF90089588E792E008958BE892E07D
:1005F000089582E095E008958CEA92E00895CF9204
:10060000DF92EF92FF920F931F93CF93DF938C01B2
:10061000EB01888190E0A0E0B0E0F8018283938351
:10062000A483B5832981922B82839383A483B5838A
:100630002A81A22B82839383A483B5832B81B22B3F
:1006400082839383A483B5838C8190E0A0E0B0E0A3
:1006500086839783A087B1872D81922B868397838A
:10066000A087B1872E81A22B86839783A087B1872D
:100670002F81B22B86839783A087B187488550E06E
:1006800060E070E042875387648775878985582BBF
:1006900042875387648775878A85682B428753878B
:1006A000648775878B85782B428753876487758726
:1006B0008C859D85AE85BF859E01205F3F4FAC0137
:1006C000BD01405F5F4F6F4F7F4F6901CC1ADD0A5C
:1006D000E12CF12CC416D506E606F70650F4F90114
:1006E000D1909F017F01F2E0EF1AF108F701D0826B
:1006F000ECCF9E01280F391FF90117862F96F801BC
:10070000D787C6874096DF91CF911F910F91FF90B9
:10071000EF90DF90CF9008958DEC92E008958DEDED
:1007200092E008958EEF92E0089584E193E00895B9
:1007300085E393E0089582E593E0089583E793E0ED
:10074000089587E893E00895FC01DB01328123815D
:10075000948185813C9311962C93119712969C93CA
:10076000129713968C9313973681278190858185F4
:1007700014963C93149715962C93159716969C9364
:10078000169717968C9317973285238594858585C0
:1007900018963C93189719962C9319971A969C9330
:1007A0001A971B968C938CE090E00895FC01DB0176
:1007B00011968C91119712964C91129750E060E02F
:1007C00070E0BA0155274427582B8C91482B13967B
:1007D0008C911397782B428353836483758315968A
:1007E0008C91159716964C91169750E060E070E04A
:1007F000BA0155274427582B14968C911497482BEF
:1008000017968C911797782B46835783608771874B
:1008100019968C9119971A964C911A9750E060E0AE
:1008200070E0BA0155274427582B18968C911897D9
:10083000482B1B968C91782B42875387648775874A
:100840008CE090E0089588EA93E0089589EB93E0C6
:1008500008958AED93E0089582EF93E00895282F9C
:1008600090E0223010F4049603C0263008F402977A
:100870008830910508F044C0FC01EE58FF4F0C94FD
:10088000FA23809169008C7F816080936900E89AE7
:10089000089580916900837F846080936900E99A5C
:1008A0000895809169008F7C806180936900EA9A45
:1008B0000895809169008F73806480936900EB9A3A
:1008C000089580916A008C7F816080936A00EC9A21
:1008D000089580916A00837F846080936A00ED9A16
:1008E000089580916A008F7C806180936A00EE9AFF
:1008F000089580916A008F73806480936A00EF9AF4
:1009000008958E579B4FFC01808108950F931F938C
:10091000CF93DF93EC018C010A5F1F4FC80146DFC4
:10092000EC89FD89C801DF91CF911F910F91199436
:10093000FC0186899789089588EA93E0089589EBF8
:1009400093E00895FC0186A197A1089583E793E0C1
:10095000089587E893E00895AF92BF92CF92DF9217
:10096000EF92FF920F931F93CF93DF93EC017B01E4
:100970008A81DB018C938B8111968C93EC81FD81B4
:10098000DF010D900020E9F7CD0101976C01CE1A2F
:10099000DF0AC601A0E0B0E0FB0182839383A48359
:1009A000B5836C817D81A601C70106960E9415253D
:1009B000EE81FF81DF010D900020E9F7CD01019765
:1009C0005C01AE1ABF0AF701EC0DFD1D850120E0A8
:1009D00030E006831783208731879AE0C90ED11C47
:1009E0006E817F81A501C7018C0D9D1D0E9415257B
:1009F000CA0CDB1CE885F985DF010D900020E9F7C2
:100A0000CD0101975C01AE1ABF0AF701EC0DFD1D87
:100A1000850120E030E0008311832283338394E05A
:100A2000C90ED11C68857985A501C7018C0D9D1D56
:100A30000E941525AC0CBD1C3A852B859C858D85A7
:100A4000F701EA0DFB1D3083218392838383C50167
:100A50000496DF91CF911F910F91FF90EF90DF905F
:100A6000CF90BF90AF9008950F931F93CF93DF93D4
:100A7000DC01FB0112968C911297808313968D9165
:100A80009C911497EC0109900020E9F72197C81B6D
:100A9000D90B8E0120E030E001831283238334835D
:100AA00013966D917C911497AE01CF0105960E942B
:100AB0001525CE010596DF91CF911F910F910895D5
:100AC000BF92CF92DF92EF92FF920F931F93CF933B
:100AD000DF93EC017B018A81DB018C9311961C92E0
:100AE000119712961C92129713961C92FB0137963F
:100AF00040E024E030E05A81C90104964517E0F453
:100B0000AF81B88524E0429FA00DB11D11246C91E6
:100B100011965C91119712963C91129713962C9115
:100B2000DF0113976C9311965C9311963C9320838D
:100B30009C014F5F3496DFCF4985F701E20FF31F29
:100B4000408311821282138220E03985F701E80F79
:100B5000F91F04962317B0F4AE85BF8534E0239FB8
:100B6000A00DB11D11246C9111965C9111971296F4
:100B70004C91129713963C91608351834283338347
:100B80002F5FE3CF28892083118212821382B12C38
:100B90002889B21698F54B2D50E0440F551FEB896C
:100BA000FC89E40FF51F0190F081E02DDF010D902D
:100BB0000020E9F79D01215031096901CE1ADF0AB1
:100BC000F701E80FF91F860120E030E00083118370
:100BD000228333838C010C5F1F4FEB89FC89E40F68
:100BE000F51F60817181A601C701800F911F0E94CE
:100BF0001525C601800F911FB394CACFDF91CF9105
:100C00001F910F91FF90EF90DF90CF90BF900895CC
:100C10000F931F93CF93DF93DC01FB0112968C910E
:100C20001297808313968C911397818314968C91DD
:100C30001497828315968C911597838316968C91C1
:100C40001697848317968C911797858318968C91A5
:100C50001897868319968C91199787831A968C9189
:100C60001A9780871B968C911B9781871C968C9175
:100C70001C9782871D968C911D9783871E968D9158
:100C80009C911F97EC0109900020E9F72197C81B60
:100C9000D90B8E0120E030E004871587268737873F
:100CA0001E966D917C911F97AE01CF0140960E94D8
:100CB0001525CE014096DF91CF911F910F91089598
:100CC0004F925F927F928F929F92AF92BF92CF92FC
:100CD000DF92EF92FF920F931F93CF93DF93EC017C
:100CE0008B01DB01FC908A818F1550F4B4E0FB9EF0
:100CF000B00111248F8198850E94312498878F83B9
:100D0000FA82F8013796F12C44E050E09E012D5F05
:100D10003F4F8A81BA016C5F7F4F6B01F81660F517
:100D2000408150E060E070E0742F6627552744272B
:100D3000DF0113978C91482B11968C91582B1196AB
:100D40008C91682B4B835C836D837E83A6016F81BE
:100D5000788584E0F89E600D711D1124D9018D9075
:100D60009D90AD90BC90DB018D929D92AD92BC9216
:100D70001397F3943496CDCFF801E40FF51FF0806C
:100D800089858F1550F484E0F89EB00111248E857A
:100D90009F850E9431249F878E879601F98680E087
:100DA000FE013A969985D801A20FB31FA9014C5FA5
:100DB0005F4F6A01891748F511969C911197129619
:100DC0004C91129750E060E070E0BA01552744273B
:100DD000592B9C91492B13969C91792B4A875B87C1
:100DE0006C877D879601AE85BF8594E0899FA00DB5
:100DF000B11D112440815181628173814D935D93B6
:100E00006D937C9313978F5FCDCFFC9088898F155E
:100E100050F46F2D70E0660F771F8B899C890E94BC
:100E200031249C8B8B8BC601F88A712C2E0151E1E9
:100E3000450E511C2889721608F044C0F801E80FCD
:100E4000F91FC080D180E280F3800496F801E80F9A
:100E5000F91FAC01662757FD6095762F4C0D5D1D7F
:100E60006E1D7F1D9F01201B310B4901A12CB12C50
:100E700084169506A606B70638F4B1909F01225055
:100E80003109D901BC92EECFC80ED91EF801EC0D84
:100E9000FD1D319710829C0121503109200F311F17
:100EA0003A8B298BC6013B892C89E32FF22FE70D62
:100EB000F11DE70DF11DD2012D913C91318320836D
:100EC0007394B8CFDF91CF911F910F91FF90EF9066
:100ED000DF90CF90BF90AF909F908F907F905F906A
:100EE0004F9008958F929F92AF92BF92CF92DF92D0
:100EF000EF92FF92CF93DF93EC010E94061D609367
:100F0000720B7093730B8093740B9093750B20E0AE
:100F100030E040E752E46C817D818E819F810E94A8
:100F200053232CED39ED47E35FE30E9404226B016C
:100F30007C0120E030E040E752E46A8D7B8D8C8DAF
:100F40009D8D0E94532323ED3DE442E95EE30E9420
:100F500053232CED39ED47E35FE30E9404224B015C
:100F60005C019B01AC01C701B6010E949B2160930B
:100F7000B40B7093B50B8093B60B9093B70BA50190
:100F80009401C701B6010E949C2160939E0B70934F
:100F90009F0B8093A00B9093A10BDF91CF91FF90BB
:100FA000EF90DF90CF90BF90AF909F908F9008957B
:100FB0008F929F92AF92BF92CF92DF92EF92FF9269
:100FC0000F931F93CF93DF93EC01CB01BA018B01F9
:100FD0009C01B7E13595279517950795BA95D1F7F7
:100FE000112722273327011511052105310521F08D
:100FF00000581C4F2F4F3F4F188219821A826B01E5
:101000007C01B5E0CC0CDD1CEE1CFF1CBA95D1F7C1
:10101000CB826B017C0143E0F594E794D794C794AD
:101020004A95D1F7CC826B017C015BE0F594E794A3
:10103000D794C7945A95D1F7CD8268017901E4E03D
:10104000CC0CDD1CEE1CFF1CEA95D1F74B015C01BA
:10105000F3E1B594A79497948794FA95D1F7482D26
:101060004F704C294E8368017901A4E0F594E79410
:10107000D794C794AA95D1F720E030E0A9010E9447
:10108000002287FD02C0CF8203C08C2D80688F8331
:1010900088E090E0DF91CF911F910F91FF90EF904A
:1010A000DF90CF90BF90AF909F908F900895EF9278
:1010B000FF920F931F93CF93DF938C01EB01FC0101
:1010C0004281538164817581CE0172DF7C01F80118
:1010D0004681578160857185CE018E0D9F1D68DF29
:1010E000E80EF91EF8014285538564857585CE01A9
:1010F0008E0D9F1D5DDF8E0D9F1DDF91CF911F9186
:101100000F91FF90EF900895EF92FF920F931F932E
:10111000CF93DF938C017B0102967ADDEC01B7015E
:10112000680F791FC8014296C2DF8C0F9D1FDF91A7
:10113000CF911F910F91FF90EF900895EF92FF9242
:101140000F931F93CF93DF938C017B010296AFDF48
:10115000EC01B701680F791FC8014096A8DF8C0F1A
:101160009D1FDF91CF911F910F91FF90EF900895F8
:10117000EF92FF920F931F93CF93DF93EC018B01BC
:10118000029646DDF801E80FF91F2A8920832B8992
:1011900021832C8922837C0123E0E20EF11CB8011B
:1011A0006E0D7F1DCE01459682DFE80EF91EB80157
:1011B0006E0D7F1DCE0183967ADFE80EF91EB80111
:1011C0006E0D7F1DCE01C19672DF8E0D9F1DDF91CA
:1011D000CF911F910F91FF90EF9008950F931F9360
:1011E000FC01DB01038102950695077010E020E009
:1011F00030E00D931D932D933C931397448150E061
:1012000060E070E083E0440F551F661F771F8A95EA
:10121000D1F7402B512B622B732B4D935D936D9324
:101220007C931397058110E020E030E09BE0000FF5
:10123000111F221F331F9A95D1F7042B152B262B34
:10124000372B0D931D932D933C93139746814F702D
:1012500050E060E070E083E1440F551F661F771F88
:101260008A95D1F7402B512B622B732B4D935D93B5
:101270006D937C931397868182958F7007810F778A
:1012800010E020E030E094E0000F111F221F331F18
:101290009A95D1F7082B0115110521053105A1F00B
:1012A000005813402109310997E1000F111F221F37
:1012B000331F9A95D1F7042B152B262B372B0D9323
:1012C0001D932D933C9313970781007810E020E045
:1012D00030E0302F2227112700274D915D916D912D
:1012E0007C911397402B512B622B732B4D935D9365
:1012F0006D937C93139788E090E01F910F91089570
:10130000EF92FF920F931F93CF93DF938C01EB012A
:10131000BC016E5F7F4FCE0161DF7C01B8016A5F67
:101320007F4FCE018E0D9F1D59DFE80EF91EB801CB
:10133000665F7F4FCE018E0D9F1D50DF8E0D9F1D6E
:10134000DF91CF911F910F91FF90EF900895EF9251
:10135000FF920F931F93CF93DF938C017B01029633
:101360004ED9EC01B701680F791FC8014296C8DF5A
:101370008C0F9D1FDF91CF911F910F91FF90EF90E8
:101380000895EF92FF920F931F93CF93DF938C01F9
:101390007B010296B5DFEC01B701680F791FC80128
:1013A0004096AEDF8C0F9D1FDF91CF911F910F9163
:1013B000FF90EF9008950F931F93CF93DF93EC016D
:1013C0008C010A5F1F4FC801DCDFECA1FDA1C80141
:1013D000DF91CF911F910F911994EF92FF920F938C
:1013E0001F93CF93DF93EC018B01029608D9F8018C
:1013F000E80FF91F20812A8B21812B8B22812C8BD6
:101400007C0123E0E20EF11CB8016E0D7F1DCE01C0
:10141000459676DFE80EF91EB8016E0D7F1DCE01F0
:1014200083966EDFE80EF91EB8016E0D7F1DCE01AA
:10143000C19666DF8E0D9F1DDF91CF911F910F9199
:10144000FF90EF900895CF93DF93AB01EC01AE8155
:10145000BF81ED91FC9111976C817D810190F081AC
:10146000E02DCD01DF91CF911994FC018EE595E03F
:1014700091838083128213821482158216821782CE
:101480001086118612861386148615860895DC014F
:10149000ED91FD918081ED91FD919081ED91FD9116
:1014A0006C9163708E2309F064609F2309F068607B
:1014B000E4E6FAE0E60FF11D659565956D936D9193
:1014C0007D918D919D91099423C01AC012C016C0C0
:1014D00010C01EC009C014C013C006C019C009C086
:1014E0000DC007C00DC014C06250704080409040D5
:1014F0000BC0615070408040904006C06E5F01C0DC
:101500006F5F7F4F8F4F9F4F9E938E937E936E930F
:101510000895823151F150F4823099F0833059F5B9
:101520007093FC0B6093FB0B81E01CC0843179F05D
:10153000A0F0853101F57093FE0B6093FD0B82E006
:1015400011C07093FA0B6093F90B80E00BC070939D
:10155000000C6093FF0B83E005C07093020C609356
:10156000010C84E07CD981E008957093040C6093B1
:10157000030C85E0F7CF80E008950F931F93CF937E
:10158000DF93EC01062F142F62E0802F0E94DD1EF6
:1015900062E0812F0E94DD1E202F30E0F901E85328
:1015A000FE4FE491F0E0EE0FFF1FE25FFD4F45912B
:1015B000549159834883F901EE57FE4F24912C83AF
:1015C000212F30E0F901E853FE4FE491F0E0EE0FF7
:1015D000FF1FE25FFD4FA591B491BB83AA83F90180
:1015E000EE57FE4F24912D831F82188619861A8686
:1015F00080ED97E00E945A1DE881F98190818C81ED
:10160000982381E009F480E0EA81FB8190812D81BB
:10161000922309F082608E83BE01802F7ADF8B8750
:10162000BE01812F76DF2B8590E0820F911D8B8785
:10163000DF91CF911F910F9108951F920F920FB6D6
:101640000F9211240BB60F922F933F934F935F93FA
:101650006F937F938F939F93AF93BF93EF93FF937A
:101660008091FD0B9091FE0B12DFFF91EF91BF91E6
:10167000AF919F918F917F916F915F914F913F912A
:101680002F910F900BBE0F900FBE0F901F901895CB
:101690001F920F920FB60F9211240BB60F922F9339
:1016A0003F934F935F936F937F938F939F93AF93EA
:1016B000BF93EF93FF938091FF0B9091000CE7DEB7
:1016C000FF91EF91BF91AF919F918F917F916F911A
:1016D0005F914F913F912F910F900BBE0F900FBED6
:1016E0000F901F9018951F920F920FB60F92112412
:1016F0000BB60F922F933F934F935F936F937F930C
:101700008F939F93AF93BF93EF93FF938091010CBF
:101710009091020CBCDEFF91EF91BF91AF919F9130
:101720008F917F916F915F914F913F912F910F908A
:101730000BBE0F900FBE0F901F9018951F920F9227
:101740000FB60F9211240BB60F922F933F934F9326
:101750005F936F937F938F939F93AF93BF93EF9319
:10176000FF938091030C9091040C91DEFF91EF9117
:10177000BF91AF919F918F917F916F915F914F91A9
:101780003F912F910F900BBE0F900FBE0F901F90A7
:1017900018951F920F920FB60F9211240BB60F924D
:1017A0002F933F934F935F936F937F938F939F9369
:1017B000AF93BF93EF93FF938091F90B9091FA0B46
:1017C00066DEFF91EF91BF91AF919F918F917F91D5
:1017D0006F915F914F913F912F910F900BBE0F90A2
:1017E0000FBE0F901F9018951F920F920FB60F9279
:1017F00011240BB60F922F933F934F935F936F93E8
:101800007F938F939F93AF93BF93EF93FF938091B9
:10181000FB0B9091FC0B3BDEFF91EF91BF91AF91E1
:101820009F918F917F916F915F914F913F912F91F8
:101830000F900BBE0F900FBE0F901F9018950F9337
:101840001F93CF93DF938C01EB0197FD02C061E002
:1018500001C060E087E00E94161FB80117FF03C0B7
:1018600071956195710988E00E94C71DD7FD02C07E
:1018700061E001C060E089E00E94161FBE01D7FF51
:1018800003C07195619571098AE0DF91CF911F9135
:101890000F910C94C71D4F925F926F927F928F921F
:1018A0009F92AF92BF92CF92DF92EF92FF920F93EF
:1018B0001F93CF93DF93EC016A017B01280139016B
:1018C000488559856A857B8597018601041B150B20
:1018D000260B370BC901B8010E949F2220E635EE86
:1018E0004DE053E40E9404224B015C0160E67AEE75
:1018F00080E090E0A30192010E94D823CA01B901BF
:101900000E949D229B01AC01C501B4010E9453239A
:101910006C877D878E879F87C886D986EA86FB86F7
:10192000DF91CF911F910F91FF90EF90DF90CF90BB
:10193000BF90AF909F908F907F906F905F904F90EF
:1019400008954F925F926F927F928F929F92AF9283
:10195000BF92CF92DF92EF92FF92CF93DF93EC0191
:101960002C853D854E855F85688979898A899B8923
:101970000E949B216B017C012C813D814E815F8106
:101980000E949C214B015C016C837D838E839F832D
:1019900020910A0230910B0240910C0250910D02ED
:1019A000C701B6010E9453232B013C012091620B19
:1019B0003091630B4091640B5091650BC501B401EC
:1019C0000E9453239B01AC01C301B2010E949C21E0
:1019D0004B015C01288139814A815B81C701B601D5
:1019E0000E949B212091060230910702409108023B
:1019F000509109020E9453239B01AC01C501B4011F
:101A00000E949C214B015C01C882D982EA82FB8240
:101A10006C897D89882777FD8095982F0E949F2269
:101A200020E030E045EA53E40E94532320E030E018
:101A30004FE753E40E940422A50194010E949C21D7
:101A40006B017C0120E030E045EA53EC0E9400226B
:101A500087FD11C020E030E045EA53E4C701B6013C
:101A60000E944F2318166CF4C12CD12C75EAE72E76
:101A700073E4F72E06C0C12CD12C65EAE62E63EC88
:101A8000F62E20E030E045EA53E4C701B6010E949B
:101A9000042220E030E04FE753E40E9453230E94E9
:101AA0006C227D8B6C8BDF91CF91FF90EF90DF905C
:101AB000CF90BF90AF909F908F907F906F905F90EE
:101AC0004F900895CF92DF92EF92FF920F931F9362
:101AD000CF93DF93CDB7DEB760970FB6F894DEBF34
:101AE0000FBECDBF8C010E94061D28EE33E040E002
:101AF00050E00E94D82369017A019B01AC01F801F2
:101B000084859585A685B7858C0D9D1DAE1DBF1D51
:101B100089879A87AB87BC8760E472E48FE090E0A6
:101B20000E94B6230089118922893389600F711FB1
:101B3000821F931F6D877E878F87988BBE01635F9F
:101B40007F4FCE0109960E948F1C88E0FE013996D6
:101B5000DE01119601900D928A95E1F729813A8173
:101B60004B815C816D817E818F81988560960FB6F7
:101B7000F894DEBF0FBECDBFDF91CF911F910F91C3
:101B8000FF90EF90DF90CF9008950F931F93CF9326
:101B9000DF93CDB7DEB72A970FB6F894DEBF0FBE3E
:101BA000CDBF8C0182E295E09A8389831B821C82DF
:101BB0001D821E821F82188619861A86D801ED9111
:101BC000FC910190F081E02DAE014F5F5F4F6AE024
:101BD00070E0C80119950E94061DF80160877187A1
:101BE000828793872A960FB6F894DEBF0FBECDBFCB
:101BF000DF91CF911F910F9108954F925F926F9255
:101C00007F928F929F92AF92BF92CF92DF92EF928C
:101C1000FF920F931F93CF93DF93CDB7DEB72E972D
:101C20000FB6F894DEBF0FBECDBF8C018EE295E0FB
:101C30009A8389831C821B8280EE94E09E838D832D
:101C400098878F839A8789871B861C861D861E86A8
:101C5000580182E3A80EB11C7801412CF2E05F2EFE
:101C6000612C712C6701ACEECA1AABEFDA0AD6010F
:101C7000ED91FC913097B9F1848195819C838B83A0
:101C8000808191819E838D8382819381DC01ED919E
:101C9000FC910480F581E02D199598878F83D601FA
:101CA000ED91FC9182819381DC01ED91FC910680A4
:101CB000F781E02D19959A8789874B865C866D861A
:101CC0007E86F80180819181F601A081B18118960C
:101CD0006D917C911997DC01ED91FC91AE014F5F04
:101CE0005F4FC8011995B2E0EB0EF11CEA14FB043A
:101CF00009F0B8CF7801412CE2E05E2E612C712C06
:101D00006701EAEBCE1AEBEFDE0AF601A081B181A2
:101D10001097E1F112968D919C9113979C838B8380
:101D200014968D919C9115979E838D83ED91FC91D6
:101D300011970480F581E02DCD01199598878F8347
:101D4000D6018D919C91DC01ED91FC910680F7818B
:101D5000E02D19959A8789874B865C866D867E86ED
:101D6000D801ED91FC9180809180F6018081918174
:101D7000DC01ED91FC910280F381E02D1995AE011B
:101D80004F5F5F4FBC01C801F4011995F2E0EF0EFF
:101D9000F11CEA14FB0409F0B3CFF801EE57FB4F36
:101DA00081E080832E960FB6F894DEBF0FBECDBFC4
:101DB000DF91CF911F910F91FF90EF90DF90CF9027
:101DC000BF90AF909F908F907F906F905F904F905B
:101DD00008958F929F92AF92BF92CF92DF92EF922F
:101DE000FF920F931F93CF93DF93CDB7DEB72A9760
:101DF0000FB6F894DEBF0FBECDBF8C015B0182E24F
:101E000095E09A8389831B821C821D821E821F8219
:101E1000188619861A860E94061D6B017C01F8013E
:101E200080859185A285B385C81AD90AEA0AFB0A7A
:101E3000B501CE0101960E948501A8EE8A2EA3E08D
:101E40009A2EA12CB12CC701B601A50194010E94C4
:101E5000D82369017A019B01AC018B819C81AD8102
:101E6000BE818C0D9D1DAE1DBF1D8B839C83AD83DC
:101E7000BE8360E472E48FE090E00E94B623CF80DE
:101E8000D884E984FA84C60ED71EE81EF91ECF82D4
:101E9000D886E986FA860E94061DCB80DC80ED801C
:101EA000FE80F1E0CF1AD108E108F108A501940104
:101EB0000E94D82349015A019B01AC01C818D908D6
:101EC000EA08FB08F801C486D586E686F786CF8047
:101ED000D884E984FA84F6E3DF1AF5E6EF0AF4EC35
:101EE000FF0A60E472E48FE090E00E94B623C61A15
:101EF000D70AE80AF90AF801C08AD18AE28AF38A85
:101F0000B801605F7F4FC8010C960E948F1C0E9431
:101F1000061DF801E957FB4F608371838283938329
:101F20002A960FB6F894DEBF0FBECDBFDF91CF91DA
:101F30001F910F91FF90EF90DF90CF90BF90AF90E7
:101F40009F908F9008952F923F924F925F926F9241
:101F50007F928F929F92AF92BF92CF92DF92EF9239
:101F6000FF920F931F93CF93DF93CDB7DEB76097A8
:101F70000FB6F894DEBF0FBECDBF4C010E94061D08
:101F80006B017C01940129573B4F3E832D83F9015E
:101F900080819181A281B381A7019601281B390B11
:101FA0004A0B5B0BDA01C901893F9A42A105B105D1
:101FB00010F035971082A40148585B4F588B4F871B
:101FC000DA018D919C91892B79F0F401E557FB4F53
:101FD00080819181A281B3818C159D05AE05BF05DD
:101FE00018F4FA01118210823401F0E86F1AFBEF45
:101FF0007F0A940124583B4F3A832983A4014E570A
:102000005B4F58874F832C5E3F4F3C872B87435F46
:102010005F4F5E874D87840106581B4F16012701CD
:1020200054E1250E311C411C511C540184E1A80EC1
:10203000B11C940122583B4F3C832B83A40145578C
:102040005B4F5A874987D40112968D919C911397C3
:10205000DC01ED91FC910680F781E02D19959C0142
:1020600097FD29C1F30180819181820F931F918394
:102070008083AF85B8894D915C9147305105E1F47B
:10208000EB81FC8180819181AC014F5F5F4F518377
:102090004083F401E80FF91F248BD8018D919C91A6
:1020A000119701978D939C93892B09F0BECF28E05F
:1020B00030E0EF85F88986C04115510519F52F3FAD
:1020C000310569F481E090E0AF85B8898D939C93E8
:1020D000E985FA852082318242825382B4CF0E9400
:1020E000061D6C197D098E099F09663071058105F1
:1020F000910508F49ACFF401EE57FB4F10828EEF52
:102100009FEFFEC04130510591F42E3F310519F487
:1021100082E090E02EC0EF85F88911821082AF81B5
:10212000B8858C91811181CFC4012FDD8CCF4230D5
:10213000510589F4F80131832083AB81BC811D9264
:102140001C9283E090E0EF85F88991838083D3012E
:102150002D933C9378CF4330510581F4322F2227C1
:10216000F80180819181820F931F9183808384E0A5
:1021700090E0AF85B8898D939C9365CF443051052D
:1021800099F460E071E00E94C5238F3F910539F416
:1021900085E090E0EF85F8899183808354CFAF8507
:1021A000B8891D921C924FCF4530510571F4E981D9
:1021B000FA813183208386E090E0AF85B8898D93E2
:1021C0009C93F301318320833ECF46305105D1F4F7
:1021D000322F2227A981BA818D919C911197820F6C
:1021E000931F8D939C9327E030E0EF85F88931832E
:1021F0002083D8018D919C91892B09F016CF28E07E
:1022000030E0E0CF4830510509F00FCFAF85B889F5
:102210001D921C9260E071E00E94C5238F3F9105E2
:1022200009F003CFA981BA81ED91FC913097A1F417
:10223000C401ABDCC401E1DCF401ED57FB4FC0820B
:10224000D182E282F382ED81FE81C082D182E2827C
:10225000F3828FEF9FEF54C0EA30F10521F4B5010E
:10226000C401B7DDF0CEE630F10551F4B5018B8540
:102270009C850E94600681E0AD85BE858C93E3CE8F
:10228000EB30F10521F4EF81F8851082DCCEE154CA
:10229000FE4FEE0FFF1FE80DF91D80819181009721
:1022A00009F4C3CEDC01ED91FC910190F081E02DA9
:1022B000B5011995C8CEF401EE57FB4F80818823F4
:1022C000E9F084010D571B4FF80180819181A281B3
:1022D000B381A7019601281B390B4A0B5B0BDA016E
:1022E000C901853C9940A105B10540F0C4014DDC10
:1022F000D801CD92DD92ED92FC92139780E090E0B0
:1023000060960FB6F894DEBF0FBECDBFDF91CF91C0
:102310001F910F91FF90EF90DF90CF90BF90AF9003
:102320009F908F907F906F905F904F903F902F90F5
:1023300008958F929F92AF92BF92CF92DF92EF92C9
:10234000FF92CF93DF936B017C0120919A0B309128
:102350009B0B40919C0B50919D0B6091B00B709129
:10236000B10B8091B20B9091B30B0E949C2120E0A5
:1023700030E040E05FE30E94532320E030E040E79C
:1023800052E40E9404222CED39ED47E35FE30E9402
:1023900053234B015C01CAEED5E08BE896E092DB5B
:1023A000288339834A835B836C837D838E839F83F9
:1023B0008092F6059092F705A092F805B092F90583
:1023C0001092FA051092FB051092FC051092FD0583
:1023D000C701B6010E949D2220E030E04AE754E4A4
:1023E0000E9404226093FE057093FF05809300060F
:1023F0009093010662EE75E088ED95E024D88BE8B5
:1024000096E0DF91CF91FF90EF90DF90CF90BF905B
:10241000AF909F908F9097CDCF93DF9300D01F9276
:102420001F92CDB7DEB72AE335E03A8329836B8369
:102430005D834C83DC01ED91FC910190F081E02DF6
:10244000AE014F5F5F4F67E070E019950F900F90FE
:102450000F900F900F90DF91CF910895CF92DF9260
:10246000EF92FF920F931F93CF93DF93FC01228192
:102470003381C481D581422F532F6C2F7D2F409300
:102480000A0250930B0260930C0270930D021681A6
:102490000781F084E184D801C7014B2F5A2F692F9F
:1024A000782F4093060250930702609308027093BE
:1024B000090242855385648575856A01C601A62F88
:1024C000B72F8093620B9093630BA093640BB09330
:1024D000650B7F936F935F934F93EF92FF920F93F0
:1024E0001F93DF93CF933F932F9383E194E09F93C8
:1024F0008F9380E39BE09F938F930E941E258DB75F
:102500009EB740960FB6F8949EBF0FBE8DBF40E3B6
:102510005BE061E08BE896E0DF91CF911F910F9136
:10252000FF90EF90DF90CF9077CFCF92DF92EF9236
:10253000FF920F931F93CF93DF93EC017B016436DF
:1025400071053CF0FC01EE57FB4F8081882309F4B4
:1025500062C0DA01ED91FC910190F081E02DBE01A5
:10256000655E7D4FCA0119958C016E01BCEECB1AD8
:10257000BDEFDB0A2FEFF60120832EEF319620838B
:102580003196808331969083890F80953196808330
:102590003196E0823196F08285E090E020E030E0F4
:1025A000A801495F5F4F8417950750F4FE01E80FBB
:1025B000F91FEC5EFD4F6081260F311D0196F3CFB0
:1025C000085F1F4F4C0F5D1FFA01EC5EFD4F209519
:1025D00020830130F2E01F07B0F47601C7018C19A7
:1025E0009D09801791076CF48A819B81D7016D91B9
:1025F0007D01DC01ED91FC910190F081E02D1995B8
:10260000EDCFC8010AC045E254E063E0CE0104DF2B
:102610008FEF9FEF02C080E090E0DF91CF911F919C
:102620000F91FF90EF90DF90CF90089561E088E0E8
:102630000E94DD1E61E087E00E94DD1E61E08AE00D
:102640000E94DD1E61E089E00E94DD1E60E070E016
:1026500080E090E0F4D840918F0650919006609110
:1026600091067091920626E080918D0690918E06DB
:102670000E945A201092040B1092030B1092060B2A
:102680001092050B10920A0B1092090B1092080B76
:102690001092070B80E091EEA0E0B0E080938F06EF
:1026A00090939006A0939106B0939206E1EDFAE024
:1026B00080E090E021913191232B81F4FC01EE0F19
:1026C000FF1FEF52F54F2BE436E0318320838C5906
:1026D0009F4F90934E0680934D0604C0019689311A
:1026E000910541F7E1EDFAE080E090E02191319130
:1026F000232B81F4FC01EE0FFF1FEF52F54F23E671
:1027000036E0318320838C599F4F909366068093E7
:10271000650604C001968931910541F7EFE9FAE0B9
:1027200080E090E021913191232BB1F4FC01EE0F78
:10273000FF1FE156F54F28ED35E0318320838358A4
:102740009F4F9093DD058093DC058BE896E0909396
:10275000DF058093DE0504C001968931910511F7EC
:10276000EFE9FAE080E090E021913191232BB1F480
:10277000FC01EE0FFF1FE156F54F22E036E03183FA
:10278000208383589F4F90930706809306068BE81B
:1027900096E0909309068093080604C0019689315B
:1027A000910511F780910D0B811104C08BE896E023
:1027B000CADBF8CF4EE554E061E08BE896E02CDE12
:1027C0004EE754E061E08BE896E026DE85E09CE091
:1027D0000AD665E070E080E090E00C94351D0F9320
:1027E0001F93CF93DF9384EE9BE00E94350A8FEC1A
:1027F0009BE00E94350A8AEB9BE00E94350A42E189
:1028000063E182E89BE00E94BD0A42E063E086E764
:102810009BE00E94BD0A8AE995E090938C06809324
:102820008B068EEC9CE090938E0680938D0680E064
:1028300091EEA0E0B0E080938F0690939006A09375
:102840009106B093920610920D0B86E495E090935A
:102850001C0B80931B0B10921D0B1092230B1092DC
:10286000220B1092240B10922A0B1092290B10921B
:102870002B0B10922F0B10922E0BEFE9FAE0119216
:1028800011928AE0E13DF807D1F7E1EDFAE011920B
:1028900011928BE0E330F807D1F7EFE9F6E01192FF
:1028A00088E0EF39F807D9F7EFE9F8E011928AE00C
:1028B000EF39F807D9F784EA95E09093640680939E
:1028C000630686E795E090936A06809369068BE637
:1028D00096E00E94350A89E796E00E94350A82E771
:1028E00097E0909388068093870681E090E090932C
:1028F0008A068093890627E934E03093680620939E
:10290000670620EB35E030934C0620934B0622E817
:1029100035E03093520620935106109253061092E0
:1029200054061092550610925606109257061092B1
:1029300058061092590610925A0610925B06109291
:102940005C0610925D0610925E062EE232E1309334
:10295000600620935F0690936206809361068FE97C
:1029600094E09093500680934F068EE895E0909304
:102970000D0680930C0602E515E010930F060093F8
:102980000E06109210061092110610921206109266
:102990001306109214061092150610921606109245
:1029A0001706109218061092190610921A06109225
:1029B0001B06C0EED4E0D0931D06C0931C061092F7
:1029C0001E0610921F061092200681E296E00E94D9
:1029D000350A8FE296E00E94350A8DE396E00E9468
:1029E000350A83EA94E090930306809302068CE014
:1029F00096E0909305068093040610920B061092C1
:102A00000A068AE695E09093E3058093E205109329
:102A1000E5050093E4051092E6051092E705109293
:102A2000E8051092E9051092EA051092EB05109264
:102A3000EC051092ED051092EE051092EF05109244
:102A4000F0051092F105D093F305C093F20584EFE1
:102A500095E00E94350A8BEA94E09093D905809323
:102A6000D80582EE95E09093DB058093DA0510920D
:102A7000E1051092E005DF91CF911F910F9108952C
:102A8000CF93C62FBC0185E09CE0C0D46C2F85E0BD
:102A90009CE06BD485E09CE0CF912AC51F93CF9337
:102AA000DF931F92CDB7DEB7162FBC0185E09CE007
:102AB0004983ACD4612F85E09CE057D44981642FD1
:102AC00085E09CE052D485E09CE00F90DF91CF91AF
:102AD0001F910EC540E261E08EE190E0DFDF65E02E
:102AE00070E080E090E0C1D748E160E08EE190E0E6
:102AF000D5DF65E070E080E090E0B7D741E062E0CC
:102B00008EE190E0CBDF65E070E080E090E0ADD753
:102B100081E008951F93CF93DF93EC01162FBC0142
:102B200085E09CE073D4612F85E09CE01ED485E0B5
:102B30009CE0DED464E170E080E090E096D741E074
:102B400050E0BE0185E09CE0D1D485E09CE0BED39E
:102B5000DF91CF911F91089560E083E590E0DADF87
:102B6000853E01F548E06DE283E590E097DF65E0A2
:102B700070E080E090E079D749E061E383E590E0A0
:102B80008DDF65E070E080E090E06FD749E06CE2B7
:102B900083E590E083DF65E070E080E090E065D75A
:102BA00081E0089580E0089560E088E690E0B2DF7B
:102BB0008E77883651F540E86EE388E690E06EDF68
:102BC00065E070E080E090E050D74BE166E188E698
:102BD00090E064DF65E070E080E090E046D743E19C
:102BE00065E188E690E05ADF65E070E080E090E023
:102BF0003CD743E06EE388E690E050DF6AE070E0A7
:102C000080E090E032D781E0089580E00895A4DF6D
:102C100080931E06C9DF80931F065CDF8093200629
:102C200080911E06811106C043EB54E063E08BE8FF
:102C300096E0F2DB80911F06811106C04CEC54E057
:102C400063E08BE896E0E8DB80912006811106C006
:102C500041EE54E063E08BE896E0DEDB10920E027A
:102C60000895CF93DF931092F80B62E383E590E031
:102C700007DF46E050E063E570E085E09CE036D495
:102C800085E09CE01BD3892B79F0C091F80BD0E054
:102C900085E09CE01BD3CE50D44F88838091F80B05
:102CA0008F5F8093F80BECCF6091F30B70E0762F81
:102CB00066278091F20B682B882777FD8095982FE7
:102CC0000E949F222DEC3CEC4CEC51E40E9404222B
:102CD0006093E60B7093E70B8093E80B9093E90BFE
:102CE0006091F50B70E0762F66278091F40B682BCE
:102CF000882777FD8095982F0E949F222DEC3CEC31
:102D00004CEC51E40E9404226093EA0B7093EB0BAD
:102D10008093EC0B9093ED0B6091F70B70E0762FA6
:102D200066278091F60B682B882777FD8095982F72
:102D30000E949F222DEC3CEC4CEC51E40E940422BA
:102D40006093EE0B7093EF0B8093F00B9093F10B6D
:102D5000DF91CF910895CF93DF931092E30B6DE154
:102D600088E690E08DDE46E050E068E670E085E0C1
:102D70009CE0BCD385E09CE0A1D2892B79F0C09186
:102D8000E30BD0E085E09CE0A1D2C352D44F88830E
:102D90008091E30B8F5F8093E30BECCF6091DD0BB1
:102DA00070E0762F66278091DE0B682B882777FDF1
:102DB0008095982F0E949F2229ED33E24FE95AE334
:102DC0000E9453236093D10B7093D20B8093D30B4B
:102DD0009093D40B6091DF0B70E0762F6627809183
:102DE000E00B682B882777FD8095982F0E949F2203
:102DF00029ED33E24FE95AE30E9453236093D50B48
:102E00007093D60B8093D70B9093D80B6091E10B06
:102E100070E0762F66278091E20B682B882777FD7C
:102E20008095982F0E949F2229ED33E24FE95AE3C3
:102E30000E9453236093D90B7093DA0B8093DB0BC2
:102E40009093DC0BDF91CF910895CF93DF93109295
:102E5000CE0B63E08EE190E013DE46E050E06EE1E1
:102E600070E085E09CE042D385E09CE027D2892B8E
:102E700079F0C091CE0BD0E085E09CE027D2C8531A
:102E8000D44F88838091CE0B8F5F8093CE0BECCF95
:102E90006091C80B70E0762F66278091C90B682B74
:102EA000882777FD8095982F0E949F222FE135E893
:102EB0004BE65FE30E9453236093BC0B7093BD0B02
:102EC0008093BE0B9093BF0B6091CC0B70E0762F7C
:102ED00066278091CD0B682B882777FD8095982FEA
:102EE0000E949F222FE135E84BE65FE30E945323C7
:102EF0006093C00B7093C10B8093C20B9093C30B74
:102F00006091CA0B70E0762F66278091CB0B682BFF
:102F1000882777FD8095982F0E949F222FE135E822
:102F20004BE65FE30E9453236093C40B7093C50B81
:102F30008093C60B9093C70B41E062E08EE190E076
:102F4000DF91CF91ABCD8BE896E00E94620D20938C
:102F50001406309315064093160650931706609397
:102F600018067093190680931A0690931B0689EF32
:102F700094E090931D0680931C0680911E06882382
:102F800089F16FDE8091E60B9091E70BA091E80B41
:102F9000B091E90B8093230690932406A093250615
:102FA000B09326068091EA0B9091EB0BA091EC0B6D
:102FB000B091ED0B8093270690932806A0932906E5
:102FC000B0932A068091EE0B9091EF0BA091F00B3D
:102FD000B091F10B80932B0690932C06A0932D06B5
:102FE000B0932E0680911F06882389F1B4DE80916C
:102FF000D10B9091D20BA091D30BB091D40B8093B5
:10300000310690933206A0933306B0933406809134
:10301000D50B9091D60BA091D70BB091D80B809384
:10302000350690933606A0933706B0933806809104
:10303000D90B9091DA0BA091DB0BB091DC0B809354
:10304000390690933A06A0933B06B0933C068091D4
:103050002006882389F1F9DE8091BC0B9091BD0B8D
:10306000A091BE0BB091BF0B80933F06909340069A
:10307000A0934106B09342068091C00B9091C10B82
:10308000A091C20BB091C30B80934306909344066A
:10309000A0934506B09346068091C40B9091C50B52
:1030A000A091C60BB091C70B80934706909348063A
:1030B000A0934906B0934A066CE076E082E096E081
:1030C0000C94230ACF92DF92EF92FF920F931F93FB
:1030D0009DD4C0906A0BD0906B0BE0906C0BF0907D
:1030E0006D0B6C197D098E099F0964367105810588
:1030F0009105B8F08BD4C0906A0BD0906B0BE09028
:103100006C0BF0906D0B6C197D098E099F0911D91C
:103110007DD460936A0B70936B0B80936C0B9093D0
:103120006D0B74D4C0906E0BD0906F0BE090700B51
:10313000F090710B6C197D098E099F096436710539
:103140008105910508F45EC061D46B017C0180911A
:103150006E0B90916F0BA091700BB091710BC81A10
:10316000D90AEA0AFB0A80918D0B823030F4F89478
:1031700082E89BE00E94470A01C0F8944091890BC5
:1031800050918A0B60918B0B70918C0B7894970106
:10319000860184EA9BE00E944B0C8091810B823077
:1031A00030F4F89486E79BE00E94470A01C0F89447
:1031B00040917D0B50917E0B60917F0B7091800B45
:1031C0007894970186018EE89BE00E944B0C84EA7C
:1031D0009BE00E94A10C8EE89BE00E94A10C6091F4
:1031E000A20B7091A30B8091B80B9091B90B0E9428
:1031F0001F0C0CD460936E0B70936F0B8093700B4D
:103200009093710B03D4C090720BD090730BE0902D
:10321000740BF090750B6C197D098E099F0960394C
:10322000714081059105F0F01092B40B1092B50B2E
:103230001092B60B1092B70B10929E0B10929F0B30
:103240001092A00B1092A10B1092A30B1092A20B44
:103250001092B90B1092B80B60E070E080E090E043
:103260000E941F0CD3D3C090660BD090670BE090E8
:10327000680BF090690B6C197D098E099F09643603
:1032800071058105910580F080910E02882311F06F
:10329000BEDC01C058DEBAD36093660B7093670B37
:1032A0008093680B9093690B8BE896E01F910F91C8
:1032B000FF90EF90DF90CF900C94A30F8091350C8E
:1032C00090E02091360C821B910908952091360CD4
:1032D0008091350C281750F4E22FF0E0E95CF34FB1
:1032E000808190E02F5F2093360C08958FEF9FEF41
:1032F0000895E091360C8091350CE81730F4F0E039
:10330000E95CF34F808190E008958FEF9FEF08957F
:103310000895CF92DF92EF92FF920F931F93CF9376
:10332000DF937C01CB018A012091110C222389F0CB
:10333000EB016B01C40ED51ECC15DD0561F0699162
:10334000D701ED91FC910190F081E02DC701199515
:10335000F3CF642F8DD1C801DF91CF911F910F91D1
:10336000FF90EF90DF90CF900895CF93DF931F925F
:10337000CDB7DEB769832091110C2223D1F02091C3
:10338000120C203240F021E030E0FC013383228334
:1033900080E090E014C08091130CE82FF0E0EC5E28
:1033A000F34F998190838F5F8093130C8093120C5D
:1033B00004C061E0CE0101965BD181E090E00F9006
:1033C000DF91CF910895FC011382128248EE53E001
:1033D00060E070E044835583668377838CEB95E0EF
:1033E0009183808308951092360C1092350C1092C0
:1033F000130C1092120C81C081E08093110C609329
:10340000340C1092130C1092120C0895F5CF0F93F8
:10341000062F21E04091120C64E17CE08091340C95
:10342000D0D01092130C1092120C1092110C0F911C
:1034300008958F929F92AF92BF92CF92DF92EF92B8
:10344000FF920F931F93CF93DF93EC01F62ED42EB0
:1034500048015901EE2009F1CFDF1E2D143008F08C
:1034600013E01150B8F0E881F98128E0129FB00113
:103470001124A501940104C05695479537952795C9
:103480006A95D2F7CA01B9010190F081E02DCE0111
:103490001995E7CF60E0CE01BADF4D2D413208F03B
:1034A00040E22C2D67E37CE08F2D43D01092360C48
:1034B0008093350CDF91CF911F910F91FF90EF908A
:1034C000DF90CF90BF90AF909F908F900895CF9254
:1034D000EF920F931F93C22EE12C00E010E09801B1
:1034E000A8DF1F910F91EF90CF90089521E0EFCFCB
:1034F00061E08DCF85E09CE066CF1092C40C81E046
:103500008093C20C1092C10C61E084E18FD461E021
:1035100085E18CD4E9EBF0E080818E7F808380812F
:103520008D7F808388E48093B80085E48093BC001D
:103530000895413208F043C09091C40C9111FCCF22
:1035400091E09093C40C2093C20C2FEF2093570C62
:1035500010929C0C240F20939B0C9093C30C909181
:10356000C30C880F892B8093C30C8091C10C8130D0
:1035700061F41092C10C8091C30C8093BB008091C8
:10358000BC0083FDF8CF85EC01C085EE8093BC00C4
:103590008091C40C8130E1F380919C0C841710F46D
:1035A00040919C0C2DE93CE0FB01D9018A2F821B44
:1035B000841718F48D918193F9CF842F089580E0BA
:1035C00008950F93413208F04AC09091C40C9111B4
:1035D000FCCF92E09093C40C0093C20C9FEF9093A9
:1035E000570C10929C0C40939B0CFB016DE97CE006
:1035F000DB019A2F961B941718F491919D93F9CFA4
:103600001092C30C9091C30C880F892B8093C30C2C
:103610008091C10C813061F41092C10C8091C30C77
:103620008093BB008091BC0083FDF8CF85EC01C086
:1036300085EE8093BC00222321F08091C40C82305F
:10364000E1F38091570C8F3F61F08091570C8032ED
:1036500051F08091570C803341F483E007C081E042
:1036600005C080E003C082E001C084E00F910895AE
:10367000613298F42091C40C243089F46093790C61
:10368000FC018BE79CE0DC012A2F281B261718F48D
:1036900021912D93F9CF80E0089581E0089582E093
:1036A000089585ED8093BC008091BC0084FDFCCF23
:1036B0001092C40C089585EC8093BC001092C40C49
:1036C00008951F920F920FB60F9211240BB60F920E
:1036D0002F933F934F935F936F937F938F939F931A
:1036E000AF93BF93EF93FF938091B900887F8036AB
:1036F00009F49DC070F5883209F45CC090F4803103
:1037000009F455C038F4882309F4F3C0883009F46B
:103710004EC0F2C0883109F44DC0803209F45EC059
:10372000EBC0803409F469C050F4803309F456C00A
:10373000883309F0E1C08093570CBDDFDDC08035D0
:1037400009F44FC0883509F45DC0883409F0D4C04D
:10375000D2C0883909F4C3C0A8F4883709F467C017
:1037600038F4883609F463C0803709F460C0C4C0F7
:10377000883809F4B4C0803909F45FC0803809F092
:10378000BBC05BC0803B09F482C038F4803A09F4C6
:1037900066C0883A09F47BC0AFC0803C09F4A3C07E
:1037A000883C09F4A0C0883B09F486C0A5C080917C
:1037B000C30C10C090919C0C80919B0C981770F5D5
:1037C000E0919C0C81E08E0F80939C0CF0E0E3561E
:1037D000F34F80818093BB0085EC82C08093570CAF
:1037E0008AC0E0919C0C81E08E0F80939C0C8091AC
:1037F000BB00F0E0E356F34F808390919C0C8091E6
:103800009B0C6AC0E0919C0C81E08E0F80939C0C15
:103810008091BB00F0E0E356F34F80838091C20CAF
:10382000811169C081E08093C10C84EA5DC083E0AE
:103830008093C40C1092580CCFCF8091580C8032DA
:1038400008F04DC0E091580C81E08E0F8093580C29
:103850008091BB00F0E0E75AF34F8083BDCF2BDFB0
:103860008091580C803230F4E091580CF0E0E75A27
:10387000F34F10826091580C70E0E091BD0CF09114
:10388000BE0C89E59CE019951092580C35C084E077
:103890008093C40C10927A0C1092790CE091BF0CBA
:1038A000F091C00C19958091790C811105C081E0CF
:1038B0008093790C10927B0CE0917A0C81E08E0F52
:1038C00080937A0CF0E0E558F34F80818093BB0041
:1038D00090917A0C8091790C981708F47DCF85E847
:1038E0008093BC0009C085EC8093BC001092C40C8E
:1038F00003C01092570CD5DEFF91EF91BF91AF91AD
:103900009F918F917F916F915F914F913F912F91F7
:103910000F900BBE0F900FBE0F901F901895CF9277
:10392000DF92EF92FF920F931F93CF93DF938C015F
:10393000EB01688179818A819B8120E03AEC4AE938
:103940005BE336D7F801C080D180E280F380C20EFD
:10395000D31EE41EF51EC082D182E282F382688308
:1039600079838A839B83DF91CF911F910F91FF9081
:10397000EF90DF90CF9008951F920F920FB60F92A5
:1039800011242F933F938F939F93AF93BF93809175
:10399000C60C9091C70CA091C80CB091C90C309185
:1039A000C50C23E0230F2D3720F40196A11DB11D76
:1039B00005C026E8230F0296A11DB11D2093C50C5A
:1039C0008093C60C9093C70CA093C80CB093C90CFD
:1039D0008091CA0C9091CB0CA091CC0CB091CD0CE5
:1039E0000196A11DB11D8093CA0C9093CB0CA0939E
:1039F000CC0CB093CD0CBF91AF919F918F913F9123
:103A00002F910F900FBE0F901F9018952FB7F8941D
:103A10006091C60C7091C70C8091C80C9091C90C34
:103A20002FBF08953FB7F8948091CA0C9091CB0CAA
:103A3000A091CC0CB091CD0C26B5A89B05C02F3F12
:103A400019F00196A11DB11D3FBF6627782F892F60
:103A50009A2F620F711D811D911D42E0660F771F25
:103A6000881F991F4A95D1F70895CF92DF92EF9260
:103A7000FF92CF93DF936B017C01D4DFEB01C11484
:103A8000D104E104F10479F055D4CCDF6C1B7D0B3B
:103A9000683E7340A0F381E0C81AD108E108F1083C
:103AA000C851DC4FECCFDF91CF91FF90EF90DF90CA
:103AB000CF9008958230910538F0880F991F880FB4
:103AC000991F05970197F1F70895789484B582605E
:103AD00084BD84B5816084BD85B5826085BD85B5B2
:103AE000816085BDEEE6F0E0808181608083E1E861
:103AF000F0E0108280818260808380818160808399
:103B0000E0E8F0E0808181608083E1EBF0E080819B
:103B100084608083E0EBF0E0808181608083E1E974
:103B2000F0E0808182608083808181608083E0E931
:103B3000F0E0808181608083E1EAF0E08081826052
:103B40008083808181608083E0EAF0E08081816011
:103B50008083E1E2F1E08081826080838081816006
:103B60008083E0E2F1E0808181608083EAE7F0E039
:103B70008081846080838081826080838081816095
:103B800080838081806880831092C10008951F9394
:103B9000CF93DF93182FEB0161E00FD1209711F441
:103BA00060E004C0CF3FD10531F461E0812FDF91A7
:103BB000CF911F913BC1E12FF0E0E45CFE4F4491B7
:103BC00050E0FA013197E231F10508F09AC0E65869
:103BD000FF4F10C684B5806884BDC7BD97C084B54B
:103BE000806284BDC8BD92C080918000806880934F
:103BF0008000D0938900C093880088C080918000A5
:103C0000806280938000D0938B00C0938A007EC036
:103C100080918000886080938000D0938D00C09355
:103C20008C0074C08091B00080688093B000C09315
:103C3000B3006CC08091B00080628093B000C093EC
:103C4000B40064C080919000806880939000D0930D
:103C50009900C09398005AC0809190008062809330
:103C60009000D0939B00C0939A0050C08091900028
:103C7000886080939000D0939D00C0939C0046C0C4
:103C80008091A00080688093A0008091A0008F7B2D
:103C90008093A000D093A900C093A80037C0809162
:103CA000A00080628093A000D093AB00C093AA00D4
:103CB0002DC08091A00088608093A000D093AD00BB
:103CC000C093AC0023C080912001806880932001C4
:103CD000D0932901C093280119C0809120018062EE
:103CE00080932001D0932B01C0932A010FC08091B3
:103CF0002001886080932001D0932D01C0932C0176
:103D000005C0C038D1050CF050CF4ACFDF91CF911C
:103D10001F91089590E0FC013197E231F10508F020
:103D20004BC0E457FF4F66C5809180008F7703C07A
:103D3000809180008F7D8093800008958091800025
:103D4000877FF9CF84B58F7702C084B58F7D84BD1E
:103D500008958091B0008F7703C08091B0008F7D6F
:103D60008093B0000895809190008F7707C0809174
:103D700090008F7D03C080919000877F809390009A
:103D800008958091A0008F7707C08091A0008F7D5B
:103D900003C08091A000877F8093A0000895809148
:103DA00020018F7707C0809120018F7D03C0809113
:103DB0002001877F809320010895CF93DF9390E0C7
:103DC000FC01EE57FE4F2491FC01E853FE4F849115
:103DD000882349F190E0880F991FFC01EE5BFD4FAD
:103DE000A591B491885D9D4FFC01C591D4919FB779
:103DF000611108C0F8948C91209582238C9388815E
:103E000082230AC0623051F4F8948C91322F30959D
:103E100083238C938881822B888304C0F8948C91AF
:103E2000822B8C939FBFDF91CF9108950F931F93A7
:103E3000CF93DF931F92CDB7DEB7282F30E0F90183
:103E4000E45CFE4F8491F901EE57FE4F1491F901A5
:103E5000E853FE4F04910023C1F0882319F06983D1
:103E600059DF6981E02FF0E0EE0FFF1FE85DFD4FA5
:103E7000A591B4919FB7F8948C91611103C01095EE
:103E8000812301C0812B8C939FBF0F90DF91CF9135
:103E90001F910F910895FC01818D228D90E0805C2F
:103EA0009F4F821B91098F7399270895FC01918D73
:103EB000828D981731F0828DE80FF11D858D90E08D
:103EC00008958FEF9FEF0895FC01918D828D9817D3
:103ED00061F0828DDF01A80FB11D5D968C91928DEE
:103EE0009F5F9F73928F90E008958FEF9FEF0895EB
:103EF00089E191E2892B39F080E090E0892B19F07B
:103F000098D1811125C080E090E0892B41F080E0BC
:103F100090E0892B21F00E94000081111CC080E0FC
:103F200090E0892B41F080E090E0892B21F00E9405
:103F30000000811113C080E090E0892BA1F080E0A7
:103F400090E0892B81F00E94000081110AC0089541
:103F50000E940000D8CF0E940000E1CF0E94000024
:103F6000EACF0C9400000895FC01848DDF01A80FB6
:103F7000B11DA35ABF4F2C91848D90E001968F7391
:103F80009927848FA689B7892C93A089B1898C91B0
:103F900080648C93938D848D981306C00288F38976
:103FA000E02D80818F7D80830895CF93DF93EC0196
:103FB000888D8823C1F0EA89FB89808185FD05C051
:103FC000A889B9898C9186FD0EC00FB607FCF5CF84
:103FD000808185FFF2CFA889B9898C9185FFEDCFCB
:103FE000CE01C2DFE8CFDF91CF910895CF92DF926B
:103FF000FF920F931F93CF93DF931F92CDB7DEB73E
:104000006C0181E0D60158968C9358975B969C91F1
:104010005B975C968C915C97981307C05096ED91D6
:10402000FC915197808185FD2DC0F601038D10E034
:104030000F5F1F4F0F731127F02EF601848DF812BA
:1040400010C00FB607FCF9CFD6015096ED91FC9148
:104050005197808185FFF1CFC601698385DF698132
:10406000ECCF838DE80FF11DE35AFF4F6083D6013B
:104070005B960C935B975296ED91FC9153978081E0
:1040800080620CC0D6015696ED91FC9157976083E3
:104090005096ED91FC91519780818064808381E0FE
:1040A00090E00F90DF91CF911F910F91FF90DF90E3
:1040B000CF900895BF92CF92DF92EF92FF92CF936D
:1040C000DF93EC016A017B01B22EE889F98982E075
:1040D0008083411581EE58076105710599F060E014
:1040E00079E08DE390E0A701960162D32150310978
:1040F000410951095695479537952795211580E136
:10410000380790F0E889F989108260E874E88EE158
:1041100090E0A70196014CD3215031094109510982
:104120005695479537952795EC85FD853083EE8527
:10413000FF852083188EEC89FD89B082EA89FB898E
:10414000808180618083EA89FB89808188608083A7
:10415000EA89FB89808180688083EA89FB89808184
:104160008F7D8083DF91CF91FF90EF90DF90CF9094
:10417000BF9008951F920F920FB60F9211240BB6A5
:104180000F922F938F939F93EF93FF93E091DE0C09
:10419000F091DF0C8081E091E40CF091E50C82FD60
:1041A00012C090818091E70C8F5F8F732091E80C93
:1041B000821751F0E091E70CF0E0E253F34F958F56
:1041C0008093E70C01C08081FF91EF919F918F91C7
:1041D0002F910F900BBE0F900FBE0F901F90189550
:1041E0001F920F920FB60F9211240BB60F922F93BE
:1041F0003F934F935F936F937F938F939F93AF936F
:10420000BF93EF93FF938EEC9CE0AEDEFF91EF91B6
:10421000BF91AF919F918F917F916F915F914F91DE
:104220003F912F910F900BBE0F900FBE0F901F90DC
:1042300018958EEC9CE02FDE21E0892B09F420E01C
:10424000822F08951092D10C1092D00C88EE93E03A
:10425000A0E0B0E08093D20C9093D30CA093D40C48
:10426000B093D50C8CEC95E09093CF0C8093CE0C52
:1042700085EC90E09093DB0C8093DA0C84EC90E07A
:104280009093DD0C8093DC0C80EC90E09093DF0C3D
:104290008093DE0C81EC90E09093E10C8093E00C35
:1042A00082EC90E09093E30C8093E20C86EC90E03B
:1042B0009093E50C8093E40C1092E70C1092E80CBC
:1042C0001092E90C1092EA0C0895CF92DF92EF92CF
:1042D000FF920F931F93CF93DF937C016A01EB0151
:1042E00000E010E00C151D0571F06991D701ED910A
:1042F000FC910190F081E02DC7011995892B19F0EF
:104300000F5F1F4FEFCFC801DF91CF911F910F912A
:10431000FF90EF90DF90CF9008950895D6DBFDDFFA
:104320000E941613C8E7DFE10E9462182097E1F3AC
:10433000DFDDFACF08955058BB27AA270ED075C1EC
:1043400066D130F06BD120F031F49F3F11F41EF4B0
:104350005BC10EF4E095E7FB51C1E92F77D180F303
:10436000BA17620773078407950718F071F49EF572
:104370008FC10EF4E0950B2EBA2FA02D0B01B901C1
:1043800090010C01CA01A0011124FF27591B99F0CB
:10439000593F50F4503E68F11A16F040A22F232FD7
:1043A000342F4427585FF3CF469537952795A79527
:1043B000F0405395C9F77EF41F16BA0B620B730BCE
:1043C000840BBAF09150A1F0FF0FBB1F661F771F3F
:1043D000881FC2F70EC0BA0F621F731F841F48F4F4
:1043E000879577956795B795F7959E3F08F0B3CF7A
:1043F0009395880F08F09927EE0F97958795089564
:10440000D9D008F481E008950CD00FC107D140F055
:10441000FED030F021F45F3F19F0F0C0511139C1E6
:10442000F3C014D198F39923C9F35523B1F3951B25
:10443000550BBB27AA2762177307840738F09F5FC5
:104440005F4F220F331F441FAA1FA9F333D00E2E34
:104450003AF0E0E830D091505040E695001CCAF7A1
:1044600029D0FE2F27D0660F771F881FBB1F261766
:1044700037074807AB07B0E809F0BB0B802DBF0139
:10448000FF2793585F4F2AF09E3F510568F0B6C052
:1044900000C15F3FECF3983EDCF386957795679516
:1044A000B795F7959F5FC9F7880F911D96958795EA
:1044B00097F90895E1E0660F771F881FBB1F621709
:1044C00073078407BA0720F0621B730B840BBA0BC7
:1044D000EE1F88F7E095089504D06894B111D9C013
:1044E0000895BCD088F09F5790F0B92F9927B75105
:1044F000A0F0D1F0660F771F881F991F1AF0BA95A8
:10450000C9F712C0B13081F0C3D0B1E00895C0C086
:10451000672F782F8827B85F39F0B93FCCF386959D
:1045200077956795B395D9F73EF4909580957095FA
:1045300061957F4F8F4F9F4F0895E89409C097FB77
:104540003EF490958095709561957F4F8F4F9F4F6A
:104550009923A9F0F92F96E9BB279395F6958795AE
:1045600077956795B795F111F8CFFAF4BB0F11F471
:1045700060FF1BC06F5F7F4F8F4F9F4F16C0882318
:1045800011F096E911C0772321F09EE8872F762F4E
:1045900005C0662371F096E8862F70E060E02AF08F
:1045A0009A95660F771F881FDAF7880F969587957B
:1045B00097F90895990F0008550FAA0BE0E8FEEF50
:1045C00016161706E807F907C0F012161306E407D7
:1045D000F50798F0621B730B840B950B39F40A26D0
:1045E00061F0232B242B252B21F408950A2609F4AE
:1045F000A140A6958FEF811D811D089597F99F67B2
:1046000080E870E060E008959FEF80EC089500245A
:104610000A941616170618060906089500240A9427
:1046200012161306140605060895092E0394000CAD
:1046300011F4882352F0BB0F40F4BF2B11F460FF3C
:1046400004C06F5F7F4F8F4F9F4F089557FD905865
:10465000440F551F59F05F3F71F04795880F97FB46
:10466000991F61F09F3F79F0879508951216130600
:104670001406551FF2CF4695F1DF08C0161617062F
:104680001806991FF1CF8695710561050894089564
:10469000E894BB2766277727CB0197F908958ADF2F
:1046A00008F48FEF08950BD0C0CFB1DF28F0B6DF4C
:1046B00018F0952309F0A2CFA7CF1124EACFC6DFC7
:1046C000A0F3959FD1F3950F50E0551F629FF00125
:1046D000729FBB27F00DB11D639FAA27F00DB11D7E
:1046E000AA1F649F6627B00DA11D661F829F222707
:1046F000B00DA11D621F739FB00DA11D621F839F8E
:10470000A00D611D221F749F3327A00D611D231F63
:10471000849F600D211D822F762F6A2F11249F57B1
:1047200050408AF0E1F088234AF0EE0FFF1FBB1FD4
:10473000661F771F881F91505040A9F79E3F510573
:1047400070F05CCFA6CF5F3FECF3983EDCF386952C
:1047500077956795B795F795E7959F5FC1F7FE2B1E
:10476000880F911D9695879597F90895DB018F9392
:104770009F9346D0BF91AF91A29F800D911DA39FA3
:10478000900DB29F900D1124089597FB072E16F4FB
:10479000009406D077FD08D041D007FC05D03EF448
:1047A000909581959F4F0895709561957F4F0895DD
:1047B000A1E21A2EAA1BBB1BFD010DC0AA1FBB1F25
:1047C000EE1FFF1FA217B307E407F50720F0A21B97
:1047D000B30BE40BF50B661F771F881F991F1A9404
:1047E00069F760957095809590959B01AC01BD012E
:1047F000CF010895EE0FFF1F0590F491E02D19945D
:1048000021D0A59F900DB49F900DA49F800D911D68
:10481000112408950790F691E02D1994AA1BBB1B53
:1048200051E107C0AA1FBB1FA617B70710F0A61BB0
:10483000B70B881F991F5A95A9F780959095BC01D1
:10484000CD010895A29FB001B39FC001A39F700D39
:10485000811D1124911DB29F700D811D1124911D88
:1048600008956F927F928F929F92AF92BF92CF9254
:10487000DF92EF92FF920F931F93CF93DF93EC01A0
:10488000CB01209779F4DF91CF911F910F91FF9089
:10489000EF90DF90CF90BF90AF909F908F907F90E0
:1048A0006F90E8C2FE01E60FF71F9E01225031090A
:1048B000E217F30708F4A8C0D9010D911C911197D4
:1048C00006171707B0F00530110508F49BC0A801C2
:1048D000445051094617570708F494C00250110973
:1048E000061B170B019311936D937C93CF015AD341
:1048F00089C05B01A01AB10A4E01800E911EA091E1
:104900006D0DB0916E0D612C712C60E070E0109710
:1049100009F449C0A815B905C9F5ED90FC901197A7
:10492000670142E0C40ED11CCA14DB0478F14701D0
:104930008A189B08640142E0C40ED11C1296BC90F8
:1049400012971396AC91B5E0CB16D10440F0B28229
:10495000A38391828082D9018D939C9309C00E5FBD
:104960001F4F0E0D1F1DF90111830083EB2DFA2F30
:104970006115710531F0DB011396FC93EE931297EC
:1049800041C0F0936E0DE0936D0D3CC06D917C9134
:1049900011976616770608F43B01BD0112960D903B
:1049A000BC91A02DB4CF60916B0D70916C0D68150A
:1049B0007905E9F468167906D0F440910002509127
:1049C00001024115510541F44DB75EB760910402F3
:1049D00070910502461B570BE417F507A8F4F093F6
:1049E0006C0DE0936B0DF901918380830BC042D273
:1049F0007C01009749F0A801BE0117D0CE01D2D2A8
:104A0000C70104C0CE0102C080E090E0DF91CF91E9
:104A10001F910F91FF90EF90DF90CF90BF90AF90DC
:104A20009F908F907F906F900895FB01DC0102C0F2
:104A300001900D9241505040D8F708950F931F9365
:104A4000CF93DF93CDB7DEB72E970FB6F894DEBFC6
:104A50000FBECDBF0E891F8986E08C831A83098320
:104A60008FEF9FE79E838D83AE01465E5F4F688D1B
:104A7000798DCE01019610D0EF81F885E00FF11FFE
:104A800010822E960FB6F894DEBF0FBECDBFDF9119
:104A9000CF911F910F9108952F923F924F925F9265
:104AA0006F927F928F929F92AF92BF92CF92DF923E
:104AB000EF92FF920F931F93CF93DF93CDB7DEB7A3
:104AC0002C970FB6F894DEBF0FBECDBF7C016B01F3
:104AD0008A01FC0117821682838181FFB0C1CE0159
:104AE00001964C01F7019381F60193FD859193FFA7
:104AF00081916F01882309F49EC1853239F493FDB9
:104B0000859193FF81916F01853221F4B70190E087
:104B1000EED2E8CF512C312C20E02032A0F48B32A1
:104B200069F030F4803259F0833269F420612CC08E
:104B30008D3239F0803339F4216026C02260246040
:104B400023C0286021C027FD27C030ED380F3A3040
:104B500078F426FF06C0FAE05F9E300D1124532E34
:104B600013C08AE0389E300D1124332E20620CC011
:104B70008E3221F426FD5FC1206406C08C3611F40C
:104B8000206802C0883641F4F60193FD859193FFB9
:104B900081916F018111C1CF982F9F7D95549330E2
:104BA00028F40C5F1F4FFFE3F9830DC0833631F00B
:104BB000833771F0833509F057C021C0F801808137
:104BC00089830E5F1F4F44244394512C540114C019
:104BD0003801F2E06F0E711CF801A080B18026FF51
:104BE00003C0652D70E002C06FEF7FEFC5012C8719
:104BF00073D22C0183012C852F77222E16C0380109
:104C0000F2E06F0E711CF801A080B18026FF03C096
:104C1000652D70E002C06FEF7FEFC5012C8751D288
:104C20002C012C852068222E830123FC19C0832DA2
:104C300090E048165906A0F4B70180E290E057D200
:104C40003A94F5CFF50127FC859127FE81915F010C
:104C5000B70190E04CD231103A94F1E04F1A51086C
:104C60004114510479F7DEC0843611F0893631F5EC
:104C7000F80127FF07C060817181828193810C5FF9
:104C80001F4F08C060817181882777FD8095982F1C
:104C90000E5F1F4F2F76B22E97FF09C0909580951B
:104CA000709561957F4F8F4F9F4F2068B22E2AE0FD
:104CB00030E0A4014ED2A82EA81843C0853729F4AD
:104CC0002F7EB22E2AE030E025C0F22FF97FBF2ED2
:104CD0008F36C1F018F4883579F0ADC0803719F0FF
:104CE000883721F0A8C02F2F2061B22EB4FE0DC04E
:104CF0008B2D8460B82E09C024FF0AC09F2F9660B8
:104D0000B92E06C028E030E005C020E130E002C046
:104D100020E132E0F801B7FE07C060817181828135
:104D200093810C5F1F4F06C06081718180E090E02D
:104D30000E5F1F4FA4010DD2A82EA818FB2DFF77E0
:104D4000BF2EB6FE0BC02B2D2E7FA51450F4B4FE43
:104D50000AC0B2FC08C02B2D2E7E05C07A2C2B2D4C
:104D600003C07A2C01C0752C24FF0DC0FE01EA0D92
:104D7000F11D8081803311F4297E09C022FF06C015
:104D80007394739404C0822F867809F0739423FD82
:104D900012C020FF06C05A2C731418F4530C571875
:104DA000732C731460F4B70180E290E02C879FD1DC
:104DB00073942C85F6CF731410F4371801C0312C7E
:104DC00024FF11C0B70180E390E02C8790D12C859F
:104DD00022FF16C021FF03C088E590E002C088E7EB
:104DE00090E0B7010CC0822F867851F021FD02C0FF
:104DF00080E201C08BE227FD8DE2B70190E077D120
:104E0000A51430F4B70180E390E071D15A94F8CF43
:104E1000AA94F401EA0DF11D8081B70190E067D1F9
:104E2000A110F6CF332009F45DCEB70180E290E007
:104E30005ED13A94F7CFF7018681978102C08FEF58
:104E40009FEF2C960FB6F894DEBF0FBECDBFDF915B
:104E5000CF911F910F91FF90EF90DF90CF90BF9077
:104E6000AF909F908F907F906F905F904F903F900A
:104E70002F900895CF93DF938230910510F482E054
:104E800090E0E0916D0DF0916E0D20E030E0A0E03B
:104E9000B0E0309739F14081518148175907B8F097
:104EA0004817590771F482819381109729F013965E
:104EB0009C938E9312972CC090936E0D80936D0DE2
:104EC00027C02115310531F04217530718F0A90109
:104ED000DB0101C0EF019A01BD01DF010280F38116
:104EE000E02DD7CF21153105F9F0281B390B2430DF
:104EF000310580F48A819B816115710521F0FB01E8
:104F00009383828304C090936E0D80936D0DFE0198
:104F1000329644C0FE01E20FF31F81939193225019
:104F20003109398328833AC020916B0D30916C0D83
:104F3000232B41F4209102023091030230936C0D37
:104F400020936B0D20910002309101022115310553
:104F500041F42DB73EB74091040250910502241B45
:104F6000350BE0916B0DF0916C0DE217F307A0F497
:104F70002E1B3F0B2817390778F0AC014E5F5F4FAF
:104F80002417350748F04E0F5F1F50936C0D409368
:104F90006B0D8193919302C0E0E0F0E0CF01DF91CF
:104FA000CF910895CF93DF93009709F487C0FC0158
:104FB000329713821282C0916D0DD0916E0D2097A1
:104FC00081F420813181280F391F80916B0D9091E0
:104FD0006C0D8217930779F5F0936C0DE0936B0DD0
:104FE0006DC0DE0120E030E0AE17BF0750F412962E
:104FF0004D915C9113979D014115510509F1DA011D
:10500000F3CFB383A28340815181840F951F8A1708
:105010009B0771F48D919C911197840F951F0296B7
:105020009183808312968D919C91139793838283B1
:105030002115310529F4F0936E0DE0936D0D3EC0FE
:10504000D9011396FC93EE9312974D915D91A40FA5
:10505000B51FEA17FB0779F480819181840F951FB2
:105060000296D90111969C938E9382819381139617
:105070009C938E931297E0E0F0E08A819B810097E9
:1050800019F0FE01EC01F9CFCE0102962881398199
:10509000820F931F20916B0D30916C0D28173907EB
:1050A00069F4309729F410926E0D10926D0D02C0C4
:1050B00013821282D0936C0DC0936B0DDF91CF9150
:1050C0000895FC010590615070400110D8F780955B
:1050D00090958E0F9F1F0895FC01615070400190C4
:1050E0000110D8F7809590958E0F9F1F08950F930C
:1050F0001F93CF93DF93182F092FEB018B8181FD35
:1051000003C08FEF9FEF20C082FF10C04E815F81F0
:105110002C813D81421753077CF4E881F9819F017E
:105120002F5F3F4F39832883108306C0E885F985B8
:10513000812F1995892B29F72E813F812F5F3F4FB2
:105140003F832E83812F902FDF91CF911F910F915D
:105150000895FA01AA27283051F1203181F1E8940D
:105160006F936E7F6E5F7F4F8F4F9F4FAF4FB1E05A
:105170003ED0B4E03CD0670F781F891F9A1FA11D55
:10518000680F791F8A1F911DA11D6A0F711D811D56
:10519000911DA11D20D009F468943F912AE0269F1B
:1051A00011243019305D3193DEF6CF010895462F7A
:1051B0004770405D4193B3E00FD0C9F7F6CF462F5B
:1051C0004F70405D4A3318F0495D31FD40524193C4
:1051D00002D0A9F7EACFB4E0A69597958795779581
:1051E0006795BA95C9F700976105710508959B0108
:1051F000AC010A2E06945795479537952795BA9591
:10520000C9F7620F731F841F951FA01D0895F8949E
:02521000FFCFCE
:1052120000006F0D80000000803FCDCCCC3E0173BA
:1052220074645F6D7367732F54696D6500636437CF
:105232003136366337346335353263333131666242
:105242006363326665356137626332383900726F83
:105252007373657269616C5F6D7367732F546F70DE
:105262006963496E666F003061643531663838664D
:105272006334343839326638633130363834303753
:105282003736343630303500726F73736572696148
:105292006C5F6D7367732F4C6F67003131616264AD
:1052A2003733316332353933333236316364363131
:1052B20038336264313264363239350039663065EA
:1052C2003938626461363539383139383664646662
:1052D2003533616661376134306534390073746423
:1052E2005F6D7367732F4865616465720032313791
:1052F200366465636165636263653738616263332F
:1053020062393665663034396661626564006765A4
:105312006F6D657472795F6D7367732F5665637411
:105322006F72330034613834326236356634313369
:1053320030383464633262313066623438346561E5
:10534200376631370067656F6D657472795F6D73AB
:1053520067732F566563746F72335374616D706532
:10536200640037623332346337333235653638336B
:1053720062663032613962313462303130393065DF
:1053820063370067656F6D657472795F6D736773FC
:105392002F5477697374003966313935663838317C
:1053A2003234366664666132373938643164336563
:1053B20065626361383461006C696E6F5F70696445
:1053C2002F6C696E6F50494400613535396466311E
:1053D2003837626466363366343236643566333063
:1053E20034623662323862623400726F735F6172A5
:1053F2006475696E6F5F6D7367732F526177496D64
:105402007500336263306561333737383164613533
:1054120031616434316136383638666636326661F7
:10542200613900503A20256620443A2025662044FE
:105432003A202566004D6573736167652066726F59
:105442006D206465766963652064726F707065644F
:105452003A206D657373616765206C61726765726E
:10546200207468616E206275666665722E00436FF5
:105472006E6E656374656420746F206D6963726F0C
:10548200636F6E74726F6C6C65722E2E2E00524FAB
:10549200532041726475696E6F20494D55207374B3
:1054A20061727465642E00636D645F76656C007072
:1054B2006964007261775F696D75007261775F760A
:1054C200656C00416363656C65726F6D65746572CE
:1054D200204E4F5420464F554E4421004779726F5B
:1054E20073636F7065204E4F5420464F554E4421D2
:1054F200004D61676E65746F6D65746572204E4F05
:105502005420464F554E442100696D755F6C696E9B
:105512006B00726F7373657269616C5F6D73677331
:105522002F52657175657374506172616D00000070
:10553200000063018501CB01CE0100000000AC0434
:10554200D101A902AC02000000003405AF02F3024F
:10555200F6020000000060056006F902FC0200008D
:1055620000000806FF028C038F03000000005708AA
:10557200800992039503000000008408A70998039C
:105582009B03000000009E08C1099E03A1030000C6
:105592000000A403D6032304260400000000B80878
:1055A200ED0929042C04000000009512A30F8104C8
:1055B20000000000DB09A204A604A9040000000008
:1055C200860498049C049F0400000000B519891900
:1055D2005E1966197919881900000000F61F652105
:0855E2004B1F641F561FD51F6B
:00000001FF
