:1000000031C100000C94130B0C943E0B0C94690B43
:100010000C94940B0C94BF0B0C94EA0B54C100008D
:1000200052C1000050C100004EC100004CC1000090
:100030004AC1000048C1000046C1000044C10000A0
:1000400042C1000040C100003EC100003CC10000B0
:100050003AC1000038C1000036C100000C943A1AC1
:1000600032C100000C94381E0C946E1E2CC100008E
:100070002AC1000028C1000026C1000024C10000E0
:1000800022C1000020C100001EC100001CC10000F0
:100090001AC1000018C1000016C100000C94DF183E
:1000A00012C1000010C100000EC100000CC1000010
:1000B0000AC1000008C1000006C1000004C1000020
:1000C00002C1000000C10000FEC00000FCC0000032
:1000D000FAC00000F8C00000F6C00000F4C0000044
:1000E000F2C0000034043C0444044C0454045C0496
:1000F00064046C04681B6D1B721B7C1B861BFF1B3E
:10010000901B981BA01BAA1BB41BBE1BCD1BD71B8F
:10011000FF1BE11BEB1BF51B201C231C121C161CD8
:100120001C1C5A1C271C2B1C311C351C391C3F1C49
:10013000431C471C5A1C4D1C511C551C00000A0B2B
:1001400002090C0D0E080703040100000000000066
:10015000000000000000000000000000000000009F
:10016000000000000000000012111000000000005C
:10017000000000000000000000000000000000007F
:1001800000000102102020080810204010204080AC
:10019000020102010804020101020408102040804B
:1001A00080402010080402018004020180402010D9
:1001B0000804020108040201010204081020408022
:1001C0000102040810204080050505050705080800
:1001D0000808020202020A0A0808040404040101D1
:1001E00001010101010103030303030303030407E6
:1001F00007070C0C0C0C0C0C0C0C0202020206067D
:100200000606060606060B0B0B0B0B0B0B0B000072
:1002100020002300260029002C002F0032000001BE
:10022000000003010601090100002200250028004A
:100230002B002E00310034000201000005010801EE
:100240000B0100002100240027002A002D003000AF
:10025000330001010000040107010A012E12F81702
:10026000A01E081311241FBECFEFD1E2DEBFCDBF09
:1002700000E00CBF15E0A0E0B2E0EAE7F7E400E040
:100280000BBF02C007900D92AE3BB107D9F72CE02F
:10029000AEEBB5E001C01D92AB3DB207E1F712E055
:1002A000C2E6D2E000E006C022970109FE010BBFC2
:1002B0000E946A21CC35D10780E00807A9F70E9487
:1002C000881F0C94AC239CCEFC01DB0182818C93B3
:1002D000838111968C931197848112968C93129737
:1002E000858113968C931397868114968C9314971B
:1002F000878115968C931597808516968C93169703
:10030000818517968C9388E090E00895FC01DB01CD
:100310004C9150E060E070E04283538364837583C6
:1003200011968C911197582B428353836483758364
:1003300012968C911297682B428353836483758342
:1003400013968C911397782B428353836483758320
:1003500014964C91149750E060E070E04683578308
:100360006087718715968C911597582B4683578314
:100370006087718716968C911697682B46835783F2
:100380006087718717968C91782B46835783608797
:10039000718788E090E0089587E092E0089585E114
:1003A00092E008956F927F928F929F92AF92BF9248
:1003B000CF92DF92EF92FF920F931F93CF93DF9331
:1003C000FC01DB018C9190E09383828311962C9148
:1003D0001197922B9383828312964D915D916D912B
:1003E0007C9115975D0186E0A80EB11C8A019B01E6
:1003F0000A5F1F4F2F4F3F4F6501CA1ADB0AE12CDE
:10040000F12CC016D106E206F30640F4E501F9909E
:100410005E01CE010297EC01F882EECFED01C40F30
:10042000D51F1D82CD01059695838483ED01C40FF0
:10043000D51FCE80DF80E884F984465F5F4F3D01A1
:10044000640E751E8A01222717FD2095322F0C0D90
:100450001D1D2E1D3F1D43018A1A9B0AA12CB12C84
:1004600080169106A206B30640F4E30169913E01AD
:10047000CE010297EC016883EECFC40ED51E9D011C
:100480002C0D3D1DC9010197EC0118824150510905
:100490004A0F5B1F57834683E901088119812A812E
:1004A0003B81D4E0CD0ED11C3D016C0C7D1CA6011E
:1004B000662757FD6095762F400F511F621F731FEF
:1004C00043018A1A9B0AA12CB12C84169506A60614
:1004D000B70640F4E301F9903E01CE010297EC012A
:1004E000F882EECF0C0D1D1D9D01200F311FC9019B
:1004F0000197EC011882D1E0CD1AD108CA0EDB1E9B
:10050000D186C086D90111968C91119712964C9183
:10051000129750E060E070E0BA0155274427582B4D
:100520008C91482B13968C91782B42875387648744
:100530007587C8010496DF91CF911F910F91FF90AD
:10054000EF90DF90CF90BF90AF909F908F907F9073
:100550006F90089586E392E008958FE492E0089505
:10056000AF92BF92CF92DF92EF92FF921F93CF9301
:10057000DF939C01FB018081D90112968C938181CC
:100580009281A381B4815B01C5E0AC0EB11CAC01CA
:10059000BD014B5F5F4F6F4F7F4F6501CE1ADF0A82
:1005A000E12CF12CC416D506E606F70650F4E50159
:1005B000D9905E017E01D2E0ED1AF108E701D88200
:1005C000ECCFEF01C80FD91F1C823496E901FC83E0
:1005D000EB830596DF91CF911F91FF90EF90DF9015
:1005E000CF90BF90AF90089580E792E0089583E8A0
:1005F00092E008958FEF94E0089584EA92E00895E0
:10060000CF92DF92EF92FF920F931F93CF93DF93DE
:100610008C01EB01888190E0A0E0B0E0F8018283DA
:100620009383A483B5832981922B82839383A483AC
:10063000B5832A81A22B82839383A483B5832B81E4
:10064000B22B82839383A483B5838C8190E0A0E056
:10065000B0E086839783A087B1872D81922B868314
:100660009783A087B1872E81A22B86839783A0874B
:10067000B1872F81B22B86839783A087B187488566
:1006800050E060E070E04287538764877587898512
:10069000582B42875387648775878A85682B4287E2
:1006A0005387648775878B85782B42875387648748
:1006B00075878C859D85AE85BF859E01205F3F4FE8
:1006C000AC01BD01405F5F4F6F4F7F4F6901CC1A96
:1006D000DD0AE12CF12CC416D506E606F70650F427
:1006E000F901D1909F017F01F2E0EF1AF108F701C3
:1006F000D082ECCF9E01280F391FF90117862F9663
:10070000F801D787C6874096DF91CF911F910F914F
:10071000FF90EF90DF90CF90089585EC92E00895E0
:1007200085ED92E008950F931F93CF93DF93EC0133
:100730008B01029665DFF801E80FF91F21814281E4
:1007400050E060E070E0BA0155274427522B208129
:10075000422B2381722B4A8B5B8B6C8B7D8B25818B
:10076000468150E060E070E0BA0155274427522BE3
:100770002481422B2781722B4E8B5F8B688F798F60
:100780000896DF91CF911F910F91089586EF92E027
:10079000089580E193E008950F931F93CF93DF9323
:1007A000EC018B0102962CDFF801E80FF91F218183
:1007B000428150E060E070E0BA0155274427522B97
:1007C0002081422B2381722B4A8B5B8B6C8B7D8B20
:1007D0002581468150E060E070E0BA01552744274A
:1007E000522B2481422B2781722B4E8B5F8B688F7B
:1007F000798F2185428550E060E070E0BA0155278D
:100800004427522B2085422B2385722B4A8F5B8FE6
:100810006C8F7D8F0C96DF91CF911F910F91089572
:1008200081E393E0089586E493E0089587E693E0FA
:1008300008958DE793E008958EE993E0089586EB9F
:1008400093E00895282F90E0223010F4049603C01E
:10085000263008F402978830910508F044C0FC0166
:10086000EE58FF4F0C945A21809169008C7F816073
:1008700080936900E89A089580916900837F84607D
:1008800080936900E99A0895809169008F7C806166
:1008900080936900EA9A0895809169008F7380645B
:1008A00080936900EB9A089580916A008C7F816043
:1008B00080936A00EC9A089580916A00837F846037
:1008C00080936A00ED9A089580916A008F7C806120
:1008D00080936A00EE9A089580916A008F73806415
:1008E00080936A00EF9A08958E579B4FFC01808198
:1008F00008950F931F93CF93DF93EC018C010A5F50
:100900001F4FC80149DFECA1FDA1C801DF91CF91C4
:100910001F910F911994FC0186A197A1089581E37D
:1009200093E0089586E493E00895AF92BF92CF924A
:10093000DF92EF92FF920F931F93CF93DF93EC011F
:100940007B018A81DB018C938B8111968C93EC81E6
:10095000FD81DF010D900020E9F7CD0101976C01C9
:10096000CE1ADF0AC601A0E0B0E0FB0182839383C8
:10097000A483B5836C817D81A601C70106960E9480
:100980009C23EE81FF81DF010D900020E9F7CD016E
:1009900001975C01AE1ABF0AF701EC0DFD1D850140
:1009A00020E030E006831783208731879AE0C90E64
:1009B000D11C6E817F81A501C7018C0D9D1D0E94F8
:1009C0009C23CA0CDB1CE885F985DF010D90002013
:1009D000E9F7CD0101975C01AE1ABF0AF701EC0DF2
:1009E000FD1D850120E030E00083118322833383E5
:1009F00094E0C90ED11C68857985A501C7018C0DCD
:100A00009D1D0E949C23AC0CBD1C3A852B859C85AA
:100A10008D85F701EA0DFB1D30832183928383834B
:100A2000C5010496DF91CF911F910F91FF90EF9038
:100A3000DF90CF90BF90AF9008950F931F93CF9307
:100A4000DF93DC01FB0112968C9112978083139641
:100A50008D919C911497EC0109900020E9F7219762
:100A6000C81BD90B8E0120E030E001831283238361
:100A7000348313966D917C911497AE01CF01059646
:100A80000E949C23CE010596DF91CF911F910F917B
:100A90000895BF92CF92DF92EF92FF920F931F9330
:100AA000CF93DF93EC017B018A81DB018C9311965C
:100AB0001C92119712961C92129713961C92FB018E
:100AC000379640E024E030E05A81C901049645178A
:100AD000E0F4AF81B88524E0429FA00DB11D112440
:100AE0006C9111965C91119712963C911297139606
:100AF0002C91DF0113976C9311965C9311963C93A4
:100B000020839C014F5F3496DFCF4985F701E20FC8
:100B1000F31F408311821282138220E03985F7018E
:100B2000E80FF91F04962317B0F4AE85BF8534E0B3
:100B3000239FA00DB11D11246C9111965C9111970A
:100B400012964C91129713963C9160835183428385
:100B500033832F5FE3CF288920831182128213828F
:100B6000B12C2889B21698F54B2D50E0440F551F33
:100B7000EB89FC89E40FF51F0190F081E02DDF0186
:100B80000D900020E9F79D01215031096901CE1A2D
:100B9000DF0AF701E80FF91F860120E030E000834B
:100BA0001183228333838C010C5F1F4FEB89FC89F7
:100BB000E40FF51F60817181A601C701800F911FAD
:100BC0000E949C23C601800F911FB394CACFDF916E
:100BD000CF911F910F91FF90EF90DF90CF90BF903A
:100BE00008950F931F93CF93DF93DC01FB011296BF
:100BF0008C911297808313968C911397818314960E
:100C00008C911497828315968C91159783831696F1
:100C10008C911697848317968C91179785831896D5
:100C20008C911897868319968C91199787831A96B9
:100C30008C911A9780871B968C911B9781871C96A5
:100C40008C911C9782871D968C911D9783871E9689
:100C50008D919C911F97EC0109900020E9F7219755
:100C6000C81BD90B8E0120E030E00487158726874A
:100C700037871E966D917C911F97AE01CF014096EC
:100C80000E949C23CE014096DF91CF911F910F913E
:100C900008950F931F93CF93DF93EC018B0102967E
:100CA000A0DF5A894B893C892D89F801E80FF91F8B
:100CB00050834183328323835E894F89388D298D08
:100CC00054834583368327830896DF91CF911F9104
:100CD0000F9108950F931F93CF93DF93EC018B0136
:100CE00002967FDF5A894B893C892D89F801E80FEC
:100CF000F91F50834183328323835E894F89388D66
:100D0000298D54834583368327835A8D4B8D3C8DA3
:100D10002D8D50874187328723870C96DF91CF91A5
:100D20001F910F9108954F925F927F928F929F92A1
:100D3000AF92BF92CF92DF92EF92FF920F931F93E9
:100D4000CF93DF93EC018B01DB01FC908A818F153F
:100D500050F4B4E0FB9EB00111248F8198850E946D
:100D6000B82298878F83FA82F8013796F12C44E0F5
:100D700050E09E012D5F3F4F8A81BA016C5F7F4F2B
:100D80006B01F81660F5408150E060E070E0742F70
:100D9000662755274427DF0113978C91482B11961E
:100DA0008C91582B11968C91682B4B835C836D83AF
:100DB0007E83A6016F81788584E0F89E600D711DA9
:100DC0001124D9018D909D90AD90BC90DB018D9246
:100DD0009D92AD92BC921397F3943496CDCFF801C7
:100DE000E40FF51FF08089858F1550F484E0F89E9C
:100DF000B00111248E859F850E94B8229F878E871F
:100E00009601F98680E0FE013A969985D801A20FF5
:100E1000B31FA9014C5F5F4F6A01891748F511960E
:100E20009C91119712964C91129750E060E070E0FF
:100E3000BA0155274427592B9C91492B13969C9115
:100E4000792B4A875B876C877D879601AE85BF8546
:100E500094E0899FA00DB11D1124408151816281D0
:100E600073814D935D936D937C9313978F5FCDCF7B
:100E7000FC9088898F1550F46F2D70E0660F771FF6
:100E80008B899C890E94B8229C8B8B8BC601F88A27
:100E9000712C2E0151E1450E511C2889721608F063
:100EA00044C0F801E80FF91FC080D180E280F380D0
:100EB0000496F801E80FF91FAC01662757FD60950D
:100EC000762F4C0D5D1D6E1D7F1D9F01201B310B6C
:100ED0004901A12CB12C84169506A606B70638F454
:100EE000B1909F0122503109D901BC92EECFC80EBA
:100EF000D91EF801EC0DFD1D319710829C01215087
:100F00003109200F311F3A8B298BC6013B892C896F
:100F1000E32FF22FE70DF11DE70DF11DD2012D9109
:100F20003C91318320837394B8CFDF91CF911F918F
:100F30000F91FF90EF90DF90CF90BF90AF909F9078
:100F40008F907F905F904F900895CF92DF92EF92B5
:100F5000FF920F931F93CF93DF93FC0102891389B4
:100F6000C689D789E28CF38C0E94841A6093040BA3
:100F70007093050B8093060B9093070B6701EE248B
:100F8000D7FCE094FE2CC60ED71EE81EF91EC092B8
:100F9000F80AD092F90AE092FA0AF092FB0A17FDD9
:100FA00008C00F3F110519F014F00FEF10E061E0D9
:100FB00007C001308FEF180714F401E01FEF60E065
:100FC00087E00E94941CB80117FF03C071956195DA
:100FD000710988E00E94451BD7FD08C0CF3FD105AD
:100FE00019F014F0CFEFD0E061E007C0C1308FEF0F
:100FF000D80714F4C1E0DFEF60E089E00E94941CA0
:10100000BE01D7FF03C07195619571098AE0DF9138
:10101000CF911F910F91FF90EF90DF90CF900C94A4
:10102000451B8F929F92AF92BF92CF92DF92EF9229
:10103000FF920F931F93CF93DF93EC01CB01BA0183
:101040008B019C01B7E13595279517950795BA95C2
:10105000D1F7112722273327011511052105310565
:1010600021F000581C4F2F4F3F4F188219821A82CF
:101070006B017C01B5E0CC0CDD1CEE1CFF1CBA95AD
:10108000D1F7CB826B017C0143E0F594E794D794D0
:10109000C7944A95D1F7CC826B017C015BE0F59453
:1010A000E794D794C7945A95D1F7CD826801790116
:1010B000E4E0CC0CDD1CEE1CFF1CEA95D1F74B01E3
:1010C0005C01F3E1B594A79497948794FA95D1F7CE
:1010D000482D4F704C294E8368017901A4E0F594A6
:1010E000E794D794C794AA95D1F720E030E0A901FE
:1010F0000E94951F87FD02C0CF8203C08C2D80689F
:101100008F8388E090E0DF91CF911F910F91FF9046
:10111000EF90DF90CF90BF90AF909F908F90089509
:10112000EF92FF920F931F93CF93DF938C01EB010C
:10113000FC014281538164817581CE0172DF7C01A3
:10114000F8014681578160857185CE018E0D9F1D06
:1011500068DFE80EF91EF8014285538564857585C0
:10116000CE018E0D9F1D5DDF8E0D9F1DDF91CF91F6
:101170001F910F91FF90EF900895EF92FF920F93C0
:101180001F93CF93DF93EC018B0102962ADDF801C8
:10119000E80FF91F2A8920832B8921832C89228338
:1011A0007C0123E0E20EF11CB8016E0D7F1DCE0123
:1011B0004596B6DFE80EF91EB8016E0D7F1DCE0113
:1011C0008396AEDFE80EF91EB8016E0D7F1DCE01CD
:1011D000C196A6DF8E0D9F1DDF91CF911F910F91BC
:1011E000FF90EF9008950F931F93FC01DB010381A3
:1011F00002950695077010E020E030E00D931D93F6
:101200002D933C931397448150E060E070E083E0BD
:10121000440F551F661F771F8A95D1F7402B512B1E
:10122000622B732B4D935D936D937C931397058184
:1012300010E020E030E09BE0000F111F221F331F61
:101240009A95D1F7042B152B262B372B0D931D9335
:101250002D933C93139746814F7050E060E070E00F
:1012600083E1440F551F661F771F8A95D1F7402BE6
:10127000512B622B732B4D935D936D937C9313973E
:10128000868182958F7007810F7710E020E030E033
:1012900094E0000F111F221F331F9A95D1F7082BDE
:1012A0000115110521053105A1F000581340210950
:1012B000310997E1000F111F221F331F9A95D1F7B3
:1012C000042B152B262B372B0D931D932D933C931D
:1012D00013970781007810E020E030E0302F2227BC
:1012E000112700274D915D916D917C911397402BB3
:1012F000512B622B732B4D935D936D937C931397BE
:1013000088E090E01F910F910895EF92FF920F9364
:101310001F93CF93DF938C01EB01BC016E5F7F4F76
:10132000CE0161DF7C01B8016A5F7F4FCE018E0D77
:101330009F1D59DFE80EF91EB801665F7F4FCE0191
:101340008E0D9F1D50DF8E0D9F1DDF91CF911F9140
:101350000F91FF90EF900895EF92FF920F931F93DC
:10136000CF93DF93EC018B0102964AD9F801E80F85
:10137000F91F20812A8B21812B8B22812C8B7C01D0
:1013800023E0E20EF11CB8016E0D7F1DCE014596E3
:10139000BCDFE80EF91EB8016E0D7F1DCE018396ED
:1013A000B4DFE80EF91EB8016E0D7F1DCE01C196A7
:1013B000ACDF8E0D9F1DDF91CF911F910F91FF909C
:1013C000EF900895CF93DF93AB01EC01AE81BF8125
:1013D000ED91FC9111976C817D810190F081E02D60
:1013E000CD01DF91CF911994FC0183E795E09183C2
:1013F00080831282138214821582168217821086CD
:10140000118612861386148615860895CF93DF936E
:10141000EC018FE795E0998388838FE495E09B83C7
:101420008A831C821D821E821F82188619861A8654
:101430001B861C861D861E861F868DED94E0998B6B
:10144000888B1A8A1B8A1C8ACE014596CDDFCE0175
:101450008396CADF83E795E09AAB89AB1BAA1CAAE7
:101460001DAA1EAA1FAA18AE19AE1AAE1BAE1CAE3C
:101470001DAE1EAEDF91CF910895DC01ED91FD917F
:101480008081ED91FD919081ED91FD916C91637062
:101490008E2309F064609F2309F06860EAE5FAE0B2
:1014A000E60FF11D659565956D936D917D918D911B
:1014B0009D91099423C01AC012C016C010C01EC04E
:1014C00009C014C013C006C019C009C00DC007C0B0
:1014D0000DC014C062507040804090400BC06150FD
:1014E00070408040904006C06E5F01C06F5F7F4FCC
:1014F0008F4F9F4F9E938E937E936E93089582316C
:1015000051F150F4823099F0833059F57093680BA3
:101510006093670B81E01CC0843179F0A0F08531C5
:1015200001F570936A0B6093690B82E011C07093B0
:10153000660B6093650B80E00BC070936C0B60933F
:101540006B0B83E005C070936E0B60936D0B84E0B2
:1015500079D981E008957093700B60936F0B85E0EB
:10156000F7CF80E008950F931F93CF93DF93EC01A3
:10157000062F142F62E0802F0E945B1C62E0812FF7
:101580000E945B1C202F30E0F901E853FE4FE491EC
:10159000F0E0EE0FFF1FE25FFD4F4591549159833C
:1015A0004883F901EE57FE4F24912C83212F30E020
:1015B000F901E853FE4FE491F0E0EE0FFF1FE25F08
:1015C000FD4FA591B491BB83AA83F901EE57FE4F5D
:1015D00024912D831F82188619861A8680ED97E044
:1015E0000E94D81AE881F98190818C81982381E04A
:1015F00009F480E0EA81FB8190812D81922309F03A
:1016000082608E83BE01802F7ADF8B87BE01812F9F
:1016100076DF2B8590E0820F911D8B87DF91CF9134
:101620001F910F9108951F920F920FB60F921124E0
:101630000BB60F922F933F934F935F936F937F93CC
:101640008F939F93AF93BF93EF93FF938091690B19
:1016500090916A0B12DFFF91EF91BF91AF919F9133
:101660008F917F916F915F914F913F912F910F904B
:101670000BBE0F900FBE0F901F9018951F920F92E8
:101680000FB60F9211240BB60F922F933F934F93E7
:101690005F936F937F938F939F93AF93BF93EF93DA
:1016A000FF9380916B0B90916C0BE7DEFF91EF91B4
:1016B000BF91AF919F918F917F916F915F914F916A
:1016C0003F912F910F900BBE0F900FBE0F901F9068
:1016D00018951F920F920FB60F9211240BB60F920E
:1016E0002F933F934F935F936F937F938F939F932A
:1016F000AF93BF93EF93FF9380916D0B90916E0B1F
:10170000BCDEFF91EF91BF91AF919F918F917F913F
:101710006F915F914F913F912F910F900BBE0F9062
:101720000FBE0F901F9018951F920F920FB60F9239
:1017300011240BB60F922F933F934F935F936F93A8
:101740007F938F939F93AF93BF93EF93FF9380917A
:101750006F0B9091700B91DEFF91EF91BF91AF9164
:101760009F918F917F916F915F914F913F912F91B9
:101770000F900BBE0F900FBE0F901F9018951F92E9
:101780000F920FB60F9211240BB60F922F933F9327
:101790004F935F936F937F938F939F93AF93BF9379
:1017A000EF93FF938091650B9091660B66DEFF913E
:1017B000EF91BF91AF919F918F917F916F915F91C9
:1017C0004F913F912F910F900BBE0F900FBE0F9036
:1017D0001F9018951F920F920FB60F9211240BB6FF
:1017E0000F922F933F934F935F936F937F938F93BA
:1017F0009F93AF93BF93EF93FF938091670B90916B
:10180000680B3BDEFF91EF91BF91AF919F918F915C
:101810007F916F915F914F913F912F910F900BBEF0
:101820000F900FBE0F901F901895FC018BE895E06C
:10183000918380838AE39CE09383828340E051EE2E
:1018400060E070E04483558366837783DF01AE57A1
:10185000BB4F1C921E9683E495E011969C938E9349
:1018600012961C92129718961C921E921797199610
:101870001C9219971F961C921E921E9750961C92AE
:10188000509754961C921E92539780E090E0DF018F
:10189000A80FB91FAC5EBB4F1D921C9202968233FB
:1018A0009105A9F780E090E0DF01A80FB91FAA5BBE
:1018B000BB4F1D921C92029682339105A9F780E0DE
:1018C00090E0DF01A80FB91F54961C920196811574
:1018D00022E09207B1F780E090E0DF01A80FB91F86
:1018E000AC5EBD4F1C920196811522E09207A9F7CC
:1018F0000895CF92DF92EF92FF920F931F93CF93B1
:10190000DF93CDB7DEB760970FB6F894DEBF0FBE9A
:10191000CDBF8C010E94841A28EE33E040E050E0F5
:101920000E94382169017A019B01AC01F80184858C
:101930009585A685B7858C0D9D1DAE1DBF1D89871C
:101940009A87AB87BC8760E472E48FE090E00E94E6
:1019500016210089118922893389600F711F821F26
:10196000931F6D877E878F87988BBE01635F7F4F44
:10197000CE0109960E940D1A88E0FE013996DE011B
:10198000119601900D928A95E1F729813A814B8158
:101990005C816D817E818F81988560960FB6F89409
:1019A000DEBF0FBECDBFDF91CF911F910F91FF9092
:1019B000EF90DF90CF9008950F931F93CF93DF9315
:1019C000CDB7DEB72A970FB6F894DEBF0FBECDBFF6
:1019D0008C018FE195E09A8389831B821C821D8292
:1019E0001E821F82188619861A86D801ED91FC91F5
:1019F0000190F081E02DAE014F5F5F4F6AE070E033
:101A0000C80119950E94841AF8016087718782873E
:101A100093872A960FB6F894DEBF0FBECDBFDF9135
:101A2000CF911F910F9108954F925F926F927F9285
:101A30008F929F92AF92BF92CF92DF92EF92FF92DE
:101A40000F931F93CF93DF93CDB7DEB72E970FB6CB
:101A5000F894DEBF0FBECDBF8C018BE295E09A8378
:101A600089831C821B828DED94E09E838D839887F1
:101A70008F839A8789871B861C861D861E86580140
:101A800082E3A80EB11C7801412C72E0572E612C24
:101A9000712C6701ACEECA1AABEFDA0AD601ED91F0
:101AA000FC913097B9F1848195819C838B838081EF
:101AB00091819E838D8382819381DC01ED91FC91E4
:101AC0000480F581E02D199598878F83D601ED91DB
:101AD000FC9182819381DC01ED91FC910680F7817C
:101AE000E02D19959A8789874B865C866D867E8660
:101AF000F80180819181F601A081B18118966D91E4
:101B00007C911997DC01ED91FC91AE014F5F5F4F25
:101B1000C8011995B2E0EB0EF11CEA14FB0409F0C0
:101B2000B8CF7801412C62E0562E612C712C6701F0
:101B3000EAEBCE1AEBEFDE0AF601A081B181109735
:101B4000E1F112968D919C9113979C838B8314964F
:101B50008D919C9115979E838D83ED91FC911197AA
:101B60000480F581E02DCD01199598878F83D601EA
:101B70008D919C91DC01ED91FC910680F781E02D27
:101B800019959A8789874B865C866D867E86D801F3
:101B9000ED91FC9180809180F60180819181DC0142
:101BA000ED91FC910280F381E02D1995AE014F5F1C
:101BB0005F4FBC01C801F4011995F2E0EF0EF11C72
:101BC000EA14FB0409F0B3CFF801EE57FB4F81E0B4
:101BD00080832E960FB6F894DEBF0FBECDBFDF9187
:101BE000CF911F910F91FF90EF90DF90CF90BF901A
:101BF000AF909F908F907F906F905F904F900895DF
:101C00008F929F92AF92BF92CF92DF92EF92FF920C
:101C10000F931F93CF93DF93CDB7DEB72A970FB6FD
:101C2000F894DEBF0FBECDBF8C015B018FE195E064
:101C30009A8389831B821C821D821E821F821886C2
:101C400019861A860E94841A6B017C01F80180852E
:101C50009185A285B385C81AD90AEA0AFB0AB5019B
:101C6000CE0101960E948601E8EE8E2EE3E09E2EC4
:101C7000A12CB12CC701B601A50194010E94382105
:101C800069017A019B01AC018B819C81AD81BE8190
:101C90008C0D9D1DAE1DBF1D8B839C83AD83BE83AC
:101CA00060E472E48FE090E00E941621CF80D88437
:101CB000E984FA84C60ED71EE81EF91ECF82D886A4
:101CC000E986FA860E94841ACB80DC80ED80FE8053
:101CD000F1E0CF1AD108E108F108A50194010E94B2
:101CE000382149015A019B01AC01C818D908EA08FA
:101CF000FB08F801C486D586E686F786CF80D884AF
:101D0000E984FA84F6E3DF1AF5E6EF0AF4ECFF0A59
:101D100060E472E48FE090E00E941621C61AD70AB0
:101D2000E80AF90AF801C08AD18AE28AF38AB8017E
:101D3000605F7F4FC8010C960E940D1A0E94841AA2
:101D4000F801E957FB4F60837183828393832A965E
:101D50000FB6F894DEBF0FBECDBFDF91CF911F91BC
:101D60000F91FF90EF90DF90CF90BF90AF909F903A
:101D70008F9008952F923F924F925F926F927F9231
:101D80008F929F92AF92BF92CF92DF92EF92FF928B
:101D90000F931F93CF93DF93CDB7DEB760970FB646
:101DA000F894DEBF0FBECDBF4C010E94841A6B01B8
:101DB0007C01940129573B4F3E832D83F90180819B
:101DC0009181A281B381A7019601281B390B4A0B8F
:101DD0005B0BDA01C901893F9A42A105B10510F0F8
:101DE00035971082A40148585B4F588B4F87DA0112
:101DF0008D919C91892B79F0F401E557FB4F8081FF
:101E00009181A281B3818C159D05AE05BF0518F4A3
:101E1000FA01118210823401F0E86F1AFBEF7F0A99
:101E2000940124583B4F3A832983A4014E575B4FBA
:101E300058874F832C5E3F4F3C872B87435F5F4F14
:101E40005E874D87840106581B4F1601270154E118
:101E5000250E311C411C511C540184E1A80EB11CFB
:101E6000940122583B4F3C832B83A40145575B4F81
:101E70005A874987D40112968D919C911397DC0162
:101E8000ED91FC910680F781E02D19959C0197FD5D
:101E900029C1F30180819181820F931F91838083F7
:101EA000AF85B8894D915C9147305105E1F4EB81E4
:101EB000FC8180819181AC014F5F5F4F51834083F2
:101EC000F401E80FF91F248BD8018D919C91119793
:101ED00001978D939C93892B09F0BECF28E030E0C9
:101EE000EF85F88986C04115510519F52F3F310559
:101EF00069F481E090E0AF85B8898D939C93E98582
:101F0000FA852082318242825382B4CF0E94841AA1
:101F10006C197D098E099F0966307105810591054F
:101F200008F49ACFF401EE57FB4F10828EEF9FEF2B
:101F3000FEC04130510591F42E3F310519F482E085
:101F400090E02EC0EF85F88911821082AF81B885AC
:101F50008C91811181CFC4012FDD8CCF423051058E
:101F600089F4F80131832083AB81BC811D921C92DE
:101F700083E090E0EF85F88991838083D3012D93EE
:101F80003C9378CF4330510581F4322F2227F8015A
:101F900080819181820F931F9183808384E090E000
:101FA000AF85B8898D939C9365CF4430510599F4E2
:101FB00060E071E00E9425218F3F910539F485E0B2
:101FC00090E0EF85F8899183808354CFAF85B889FD
:101FD0001D921C924FCF4530510571F4E981FA8171
:101FE0003183208386E090E0AF85B8898D939C9300
:101FF000F301318320833ECF46305105D1F4322F97
:102000002227A981BA818D919C911197820F931FEC
:102010008D939C9327E030E0EF85F889318320830E
:10202000D8018D919C91892B09F016CF28E030E0E2
:10203000E0CF4830510509F00FCFAF85B8891D9228
:102040001C9260E071E00E9425218F3F910509F00C
:1020500003CFA981BA81ED91FC913097A1F4C4011D
:10206000ABDCC401E1DCF401ED57FB4FC082D1824F
:10207000E282F382ED81FE81C082D182E282F3822C
:102080008FEF9FEF54C0EA30F10521F4B501C40190
:10209000B7DDF0CEE630F10551F4B5018B859C85B6
:1020A0000E94930681E0AD85BE858C93E3CEEB3034
:1020B000F10521F4EF81F8851082DCCEE154FE4F6A
:1020C000EE0FFF1FE80DF91D80819181009709F443
:1020D000C3CEDC01ED91FC910190F081E02DB501C2
:1020E0001995C8CEF401EE57FB4F80818823E9F0A3
:1020F00084010D571B4FF80180819181A281B3812A
:10210000A7019601281B390B4A0B5B0BDA01C901A9
:10211000853C9940A105B10540F0C4014DDCD801D2
:10212000CD92DD92ED92FC92139780E090E0609664
:102130000FB6F894DEBF0FBECDBFDF91CF911F91D8
:102140000F91FF90EF90DF90CF90BF90AF909F9056
:102150008F907F906F905F904F903F902F90089559
:10216000CF93DF9300D01F921F92CDB7DEB727E346
:1021700035E03A8329836B835D834C83DC01ED91E9
:10218000FC910190F081E02DAE014F5F5F4F67E061
:1021900070E019950F900F900F900F900F90DF91B6
:1021A000CF910895CF92DF92EF92FF920F931F93FA
:1021B000CF93DF93EC017B01643671053CF0FC01A9
:1021C000EE57FB4F8081882309F462C0DA01ED915C
:1021D000FC910190F081E02DBE01655E7D4FCA014A
:1021E00019958C016E01BCEECB1ABDEFDB0A2FEF07
:1021F000F60120832EEF319620833196808331962D
:102200009083890F8095319680833196E082319654
:10221000F08285E090E020E030E0A801495F5F4F68
:102220008417950750F4FE01E80FF91FEC5EFD4F8F
:102230006081260F311D0196F3CF085F1F4F4C0FB1
:102240005D1FFA01EC5EFD4F209520830130F2E026
:102250001F07B0F47601C7018C199D0980179107FB
:102260006CF48A819B81D7016D917D01DC01ED9138
:10227000FC910190F081E02D1995EDCFC8010AC0C5
:1022800047ED53E063E0CE016BDF8FEF9FEF02C0BD
:1022900080E090E0DF91CF911F910F91FF90EF9040
:1022A000DF90CF90089561E088E00E945B1C61E0C0
:1022B00087E00E945B1C61E08AE00E945B1C61E099
:1022C00089E00E945B1C60E070E08AE00E94451B90
:1022D00060E070E088E00E94451B409157065091F5
:1022E00058066091590670915A0626E0809155066D
:1022F000909156060E94D81D1092CC0A1092CB0ADB
:102300001092CE0A1092CD0A1092D20A1092D10ADF
:102310001092D00A1092CF0A80E091EEA0E0B0E0D7
:102320008093570690935806A0935906B0935A0687
:10233000E9E9FAE080E090E021913191232B81F4EA
:10234000FC01EE0FFF1FE756F54F2BE236E031831D
:1023500020838C599F4F90932E0680932D0604C0A6
:1023600001968931910541F7E7E6FAE080E090E0D7
:1023700021913191232BB1F4FC01EE0FFF1FE9599C
:10238000F54F22EE35E03183208383589F4F9093A1
:10239000E7058093E60583E596E09093E905809351
:1023A000E80504C001968931910511F780E194E0B8
:1023B0009093D9058093D805E7E6FAE080E090E0B5
:1023C00021913191232BB1F4FC01EE0FFF1FE9594C
:1023D000F54F2EEB35E03183208383589F4F909348
:1023E000C3058093C20583E596E09093C50580936D
:1023F000C40504C001968931910511F78091D50A71
:10240000811104C083E596E0B5DCF8CF43E254E0E7
:1024100061E083E596E0A4DE43E454E061E083E517
:1024200096E09EDE40915F0B5091600B61E083E58A
:1024300096E096DE81E79BE054D565E070E080E0B1
:1024400090E00E94B31A0E94841A6093F80A709375
:10245000F90A8093FA0A9093FB0A08950F931F9349
:10246000CF93DF936CE574E08FE59BE00E94721FD1
:102470008AE49BE00E94F40985E39BE00E94F40952
:1024800080E29BE00E94F40942E163E184E19BE089
:102490006AD842E063E088E09BE065D883E596E097
:1024A000C4D985E995E090932C0680932B0687E6A6
:1024B00095E090933206809331060FE415E0109377
:1024C00034060093330610923506109236061092A9
:1024D0003706109238061092390610923A0610927A
:1024E0003B0610923C0610923D0610923E0610925A
:1024F0003F0610924006CDEDD4E0D0934206C09343
:10250000410610924306109244061092450610921E
:1025100046061092470610924806109249061092FD
:102520004A0610924B0610924C0610924D061092DD
:102530004E0685EA97E09093500680934F0681E01F
:1025400090E0909352068093510680EA94E0909335
:10255000300680932F068CEE95E00E94060A88EAEA
:1025600094E09093E3058093E2058CEE95E09093E0
:10257000E5058093E4051092EB051092EA05E8EC7E
:10258000F5E08BE595E0918380831093CB05009374
:10259000CA051092CC051092CD051092CE0510926E
:1025A000CF051092D0051092D1051092D20510924D
:1025B000D3051092D4051092D5051092D60510922D
:1025C000D705D093D905C093D8051092DA0510929B
:1025D000DB051092DC051092DD051092DE051092ED
:1025E000DF051092E0051092E1058AE194E09093F6
:1025F000BF058093BE05F093C105E093C00510921E
:10260000C7051092C605DF91CF911F910F910895D4
:102610008FE59BE00C940B1FCF93C62FBC0181E785
:102620009BE072D46C2F81E79BE01DD481E79BE097
:10263000CF91DCC41F93CF93DF931F92CDB7DEB74A
:10264000162FBC0181E79BE049835ED4612F81E7AF
:102650009BE009D44981642F81E79BE004D481E7A2
:102660009BE00F90DF91CF911F91C0C440E261E0E9
:102670008EE190E0DFDF65E070E080E090E073D70E
:1026800048E160E08EE190E0D5DF65E070E080E059
:1026900090E069D741E062E08EE190E0CBDF65E059
:1026A00070E080E090E05FD781E008951F93CF93C2
:1026B000DF93EC01162FBC0181E79BE025D4612F4D
:1026C00081E79BE0D0D381E79BE090D464E170E0A8
:1026D00080E090E048D741E050E0BE0181E79BE018
:1026E00083D481E79BE070D3DF91CF911F91089550
:1026F00060E083E590E0DADF853E01F548E06DE2D9
:1027000083E590E097DF65E070E080E090E02BD714
:1027100049E061E383E590E08DDF65E070E080E013
:1027200090E021D749E06CE283E590E083DF65E04B
:1027300070E080E090E017D781E0089580E0089590
:1027400060E088E690E0B2DF8E77883651F540E8A9
:102750006EE388E690E06EDF65E070E080E090E098
:1027600002D74BE166E188E690E064DF65E070E067
:1027700080E090E0F8D643E165E188E690E05ADF3A
:1027800065E070E080E090E0EED643E06EE388E63E
:1027900090E050DF6AE070E080E090E0E4D681E015
:1027A000089580E00895A4DF8093FE05C9DF80933B
:1027B000FF055CDF809300068091FE05811106C055
:1027C00040EB54E063E083E596E0CADC8091FF05CE
:1027D000811106C049EC54E063E083E596E0C0DC7B
:1027E00080910006811106C04EED54E063E083E560
:1027F00096E0B6DC109206020895CF93DF93109214
:102800005E0B62E383E590E007DF46E050E063E5BE
:1028100070E081E79BE0E8D381E79BE0CDD2892B94
:1028200079F0C0915E0BD0E081E79BE0CDD2C85A31
:10283000D44F888380915E0B8F5F80935E0BECCFCB
:102840006091590B70E0762F66278091580B682BAA
:10285000882777FD8095982F0E9403202DEC3CEC73
:102860004CEC51E40E94991F60934C0B70934D0BFC
:1028700080934E0B90934F0B60915B0B70E0762F23
:10288000662780915A0B682B882777FD8095982FB3
:102890000E9403202DEC3CEC4CEC51E40E94991F6B
:1028A0006093500B7093510B8093520B9093530B8A
:1028B00060915D0B70E0762F662780915C0B682B32
:1028C000882777FD8095982F0E9403202DEC3CEC03
:1028D0004CEC51E40E94991F6093540B7093550B7C
:1028E0008093560B9093570BDF91CF910895CF9320
:1028F000DF931092490B6DE188E690E08DDE46E0B3
:1029000050E068E670E081E79BE06ED381E79BE0F2
:1029100053D2892B79F0C091490BD0E081E79BE03D
:1029200053D2CD5BD44F88838091490B8F5F8093C6
:10293000490BECCF6091430B70E0762F66278091B6
:10294000440B682B882777FD8095982F0E940320E1
:1029500029ED33E24FE95AE30E94B3206093370B2D
:102960007093380B8093390B90933A0B6091450B21
:1029700070E0762F66278091460B682B882777FDBD
:102980008095982F0E94032029ED33E24FE95AE306
:102990000E94B32060933B0B70933C0B80933D0BE4
:1029A00090933E0B6091470B70E0762F66278091E5
:1029B000480B682B882777FD8095982F0E9403206D
:1029C00029ED33E24FE95AE30E94B32060933F0BB5
:1029D0007093400B8093410B9093420BDF91CF910A
:1029E0000895CF93DF931092340B63E08EE190E073
:1029F00013DE46E050E06EE170E081E79BE0F4D248
:102A000081E79BE0D9D1892B79F0C091340BD0E0DC
:102A100081E79BE0D9D1C25DD44F88838091340B8C
:102A20008F5F8093340BECCF60912E0B70E0762F8C
:102A3000662780912F0B682B882777FD8095982F2C
:102A40000E9403202FE135E84BE65FE30E94B320AC
:102A50006093220B7093230B8093240B9093250B90
:102A60006091320B70E0762F66278091330B682BD4
:102A7000882777FD8095982F0E9403202FE135E865
:102A80004BE65FE30E94B3206093260B7093270B05
:102A90008093280B9093290B6091300B70E0762F78
:102AA00066278091310B682B882777FD8095982FBA
:102AB0000E9403202FE135E84BE65FE30E94B3203C
:102AC00060932A0B70932B0B80932C0B90932D0B00
:102AD00041E062E08EE190E0DF91CF91ABCD83E504
:102AE00096E00E94790C2093F4053093F50540930D
:102AF000F6055093F7056093F8057093F9058093F8
:102B0000FA059093FB0586EF94E09093FD05809382
:102B1000FC058091FE05882389F16FDE80914C0BC6
:102B200090914D0BA0914E0BB0914F0B80930306EB
:102B300090930406A0930506B09306068091500B6F
:102B40009091510BA091520BB091530B80930706BB
:102B500090930806A0930906B0930A068091540B3F
:102B60009091550BA091560BB091570B80930B068B
:102B700090930C06A0930D06B0930E068091FF056E
:102B8000882389F1B4DE8091370B9091380BA091A6
:102B9000390BB0913A0B8093110690931206A093D3
:102BA0001306B093140680913B0B90913C0BA091BF
:102BB0003D0BB0913E0B8093150690931606A093A3
:102BC0001706B093180680913F0B9091400BA0918F
:102BD000410BB091420B8093190690931A06A09373
:102BE0001B06B0931C0680910006882389F1F9DE4C
:102BF0008091220B9091230BA091240BB091250B77
:102C000080931F0690932006A0932106B09322067E
:102C10008091260B9091270BA091280BB091290B46
:102C20008093230690932406A0932506B09326064E
:102C300080912A0B90912B0BA0912C0BB0912D0B16
:102C40008093270690932806A0932906B0932A061E
:102C50006CEE75E082EE95E00C94E2090F931F9301
:102C600053D40091F80A1091F90A2091FA0A309190
:102C7000FB0A061717072807390740F460E070E0E1
:102C80008AE003D560E070E088E0FFD43DD4009195
:102C9000000B1091010B2091020B3091030B601B74
:102CA000710B820B930B643671058105910580F0E1
:102CB00080910602882311F076DD01C010DF24D454
:102CC0006093000B7093010B8093020B9093030BA6
:102CD0001BD40091FC0A1091FD0A2091FE0A30914C
:102CE000FF0A601B710B820B930B64367105810523
:102CF000910508F45BC080911F0B823030F4F8948A
:102D000084E19BE00E943D0A01C0F89480911B0B76
:102D100090911C0BA0911D0BB0911E0B7894809389
:102D2000DA059093DB05A093DC05B093DD05809177
:102D3000130B823030F4F89488E09BE00E943D0A47
:102D400001C0F89480910F0B9091100BA091110B82
:102D5000B091120B78948093DE059093DF05A093D9
:102D6000E005B093E10583E596E00E94790C20939D
:102D7000D0053093D1054093D2055093D30560938D
:102D8000D4057093D5058093D6059093D70568EC4C
:102D900075E08EEB95E00E94E209B6D36093FC0AE1
:102DA0007093FD0A8093FE0A9093FF0A83E596E0F4
:102DB0001F910F910C94BA0E8091A10B90E020917D
:102DC000A20B821B910908952091A20B8091A10B67
:102DD000281750F4E22FF0E0ED55F44F808190E099
:102DE0002F5F2093A20B08958FEF9FEF0895E0913E
:102DF000A20B8091A10BE81730F4F0E0ED55F44FF1
:102E0000808190E008958FEF9FEF08950895CF920D
:102E1000DF92EF92FF920F931F93CF93DF937C018A
:102E2000CB018A0120917D0B222389F0EB016B01FC
:102E3000C40ED51ECC15DD0561F06991D701ED9169
:102E4000FC910190F081E02DC7011995F3CF642F1B
:102E50008DD1C801DF91CF911F910F91FF90EF901D
:102E6000DF90CF900895CF93DF931F92CDB7DEB759
:102E7000698320917D0B2223D1F020917E0B20329B
:102E800040F021E030E0FC013383228380E090E0D9
:102E900014C080917F0BE82FF0E0E058F44F998147
:102EA00090838F5F80937F0B80937E0B04C061E0E3
:102EB000CE0101965BD181E090E00F90DF91CF9140
:102EC0000895FC011382128248EE53E060E070E046
:102ED000448355836683778381EA95E09183808379
:102EE00008951092A20B1092A10B10927F0B1092DA
:102EF0007E0B81C081E080937D0B6093A00B1092CC
:102F00007F0B10927E0B0895F5CF0F93062F21E0D3
:102F100040917E0B60E87BE08091A00BD0D01092B6
:102F20007F0B10927E0B10927D0B0F9108958F9264
:102F30009F92AF92BF92CF92DF92EF92FF920F9348
:102F40001F93CF93DF93EC01F62ED42E4801590145
:102F5000EE2009F1CFDF1E2D143008F013E01150E0
:102F6000B8F0E881F98128E0129FB0011124A50191
:102F7000940104C056954795379527956A95D2F7E1
:102F8000CA01B9010190F081E02DCE011995E7CF7A
:102F900060E0CE01BADF4D2D413208F040E22C2D29
:102FA00063EA7BE08F2D43D01092A20B8093A10B9C
:102FB000DF91CF911F910F91FF90EF90DF90CF9015
:102FC000BF90AF909F908F900895CF92EF920F9304
:102FD0001F93C22EE12C00E010E09801A8DF1F91A2
:102FE0000F91EF90CF90089521E0EFCF61E08DCF6A
:102FF00081E79BE066CF1092300C81E080932E0C2D
:1030000010922D0C61E084E18FD461E085E18CD4D5
:10301000E9EBF0E080818E7F808380818D7F8083EB
:1030200088E48093B80085E48093BC000895413221
:1030300008F043C09091300C9111FCCF91E0909337
:10304000300C20932E0C2FEF2093C30B1092080C02
:10305000240F2093070C90932F0C90912F0C880F26
:10306000892B80932F0C80912D0C813061F410926C
:103070002D0C80912F0C8093BB008091BC0083FDB0
:10308000F8CF85EC01C085EE8093BC008091300CB8
:103090008130E1F38091080C841710F44091080C02
:1030A00029E03CE0FB01D9018A2F821B841718F428
:1030B0008D918193F9CF842F089580E008950F9327
:1030C000413208F04AC09091300C9111FCCF92E04F
:1030D0009093300C00932E0C9FEF9093C30B1092A3
:1030E000080C4093070CFB0169E07CE0DB019A2FA0
:1030F000961B941718F491919D93F9CF10922F0C71
:1031000090912F0C880F892B80932F0C80912D0C80
:10311000813061F410922D0C80912F0C8093BB00B4
:103120008091BC0083FDF8CF85EC01C085EE8093D3
:10313000BC00222321F08091300C8230E1F3809199
:10314000C30B8F3F61F08091C30B803251F08091AF
:10315000C30B803341F483E007C081E005C080E009
:1031600003C082E001C084E00F910895613298F4B9
:103170002091300C243089F46093E50BFC0187EE3C
:103180009BE0DC012A2F281B261718F421912D9390
:10319000F9CF80E0089581E0089582E0089585EDFB
:1031A0008093BC008091BC0084FDFCCF1092300C59
:1031B000089585EC8093BC001092300C08951F9206
:1031C0000F920FB60F9211240BB60F922F933F93CD
:1031D0004F935F936F937F938F939F93AF93BF931F
:1031E000EF93FF938091B900887F803609F49DC0EA
:1031F00070F5883209F45CC090F4803109F455C050
:1032000038F4882309F4F3C0883009F44EC0F2C0C2
:10321000883109F44DC0803209F45EC0EBC08034BF
:1032200009F469C050F4803309F456C0883309F0BA
:10323000E1C08093C30BBDDFDDC0803509F44FC012
:10324000883509F45DC0883409F0D4C0D2C088390B
:1032500009F4C3C0A8F4883709F467C038F4883685
:1032600009F463C0803709F460C0C4C0883809F429
:10327000B4C0803909F45FC0803809F0BBC05BC0BE
:10328000803B09F482C038F4803A09F466C0883A79
:1032900009F47BC0AFC0803C09F4A3C0883C09F4AA
:1032A000A0C0883B09F486C0A5C080912F0C10C037
:1032B0009091080C8091070C981770F5E091080C1C
:1032C00081E08E0F8093080CF0E0E75FF34F808180
:1032D0008093BB0085EC82C08093C30B8AC0E091D1
:1032E000080C81E08E0F8093080C8091BB00F0E009
:1032F000E75FF34F80839091080C8091070C6AC0C0
:10330000E091080C81E08E0F8093080C8091BB0047
:10331000F0E0E75FF34F808380912E0C811169C04C
:1033200081E080932D0C84EA5DC083E08093300CB3
:103330001092C40BCFCF8091C40B803208F04DC0E7
:10334000E091C40B81E08E0F8093C40B8091BB0091
:10335000F0E0EB53F44F8083BDCF2BDF8091C40BA3
:10336000803230F4E091C40BF0E0EB53F44F108264
:103370006091C40B70E0E091290CF0912A0C85EC6F
:103380009BE019951092C40B35C084E08093300CFB
:103390001092E60B1092E50BE0912B0CF0912C0CA7
:1033A00019958091E50B811105C081E08093E50BB3
:1033B0001092E70BE091E60B81E08E0F8093E60B15
:1033C000F0E0E951F44F80818093BB009091E60BCF
:1033D0008091E50B981708F47DCF85E88093BC00B9
:1033E00009C085EC8093BC001092300C03C0109291
:1033F000C30BD5DEFF91EF91BF91AF919F918F915C
:103400007F916F915F914F913F912F910F900BBEE4
:103410000F900FBE0F901F901895CF92DF92EF92F2
:10342000FF920F931F93CF93DF938C01EB01688181
:1034300079818A819B8120E03AEC4AE95BE318D7E5
:10344000F801C080D180E280F380C20ED31EE41E5A
:10345000F51EC082D182E282F382688379838A83F7
:103460009B83DF91CF911F910F91FF90EF90DF90A1
:10347000CF9008951F920F920FB60F9211242F93A1
:103480003F938F939F93AF93BF938091320C909112
:10349000330CA091340CB091350C3091310C23E0F9
:1034A000230F2D3720F40196A11DB11D05C026E87C
:1034B000230F0296A11DB11D2093310C8093320C75
:1034C0009093330CA093340CB093350C8091360C50
:1034D0009091370CA091380CB091390C0196A11D38
:1034E000B11D8093360C9093370CA093380CB09399
:1034F000390CBF91AF919F918F913F912F910F9078
:103500000FBE0F901F9018952FB7F8946091320C52
:103510007091330C8091340C9091350C2FBF08952D
:103520003FB7F8948091360C9091370CA091380CED
:10353000B091390C26B5A89B05C02F3F19F0019614
:10354000A11DB11D3FBF6627782F892F9A2F620FCB
:10355000711D811D911D42E0660F771F881F991F05
:103560004A95D1F70895CF92DF92EF92FF92CF93D1
:10357000DF936B017C01D4DFEB01C114D104E104C2
:10358000F10479F0D1D4CCDF6C1B7D0B683E734025
:10359000A0F381E0C81AD108E108F108C851DC4F56
:1035A000ECCFDF91CF91FF90EF90DF90CF90089517
:1035B0008230910538F0880F991F880F991F059761
:1035C0000197F1F70895789484B5826084BD84B53D
:1035D000816084BD85B5826085BD85B5816085BD0E
:1035E000EEE6F0E0808181608083E1E8F0E0108227
:1035F000808182608083808181608083E0E8F0E068
:10360000808181608083E1EBF0E080818460808351
:10361000E0EBF0E0808181608083E1E9F0E080818F
:1036200082608083808181608083E0E9F0E0808136
:1036300081608083E1EAF0E0808182608083808124
:1036400081608083E0EAF0E0808181608083E1E254
:10365000F1E0808182608083808181608083E0E20C
:10366000F1E0808181608083EAE7F0E0808184601E
:10367000808380818260808380818160808380817B
:10368000806880831092C10008951F93CF93DF93C9
:10369000182FEB0161E00FD1209711F460E004C016
:1036A000CF3FD10531F461E0812FDF91CF911F91A0
:1036B0003BC1E12FF0E0E45CFE4F449150E0FA01A1
:1036C0003197E231F10508F09AC0E658FF4FF2C594
:1036D00084B5806884BDC7BD97C084B5806284BD51
:1036E000C8BD92C080918000806880938000D09394
:1036F0008900C093880088C0809180008062809398
:103700008000D0938B00C0938A007EC0809180009F
:10371000886080938000D0938D00C0938C0074C02B
:103720008091B00080688093B000C093B3006CC0FB
:103730008091B00080628093B000C093B40064C0F8
:1037400080919000806880939000D0939900C093FE
:1037500098005AC080919000806280939000D0932E
:103760009B00C0939A0050C0809190008860809325
:103770009000D0939D00C0939C0046C08091A00013
:1037800080688093A0008091A0008F7B8093A00030
:10379000D093A900C093A80037C08091A000806298
:1037A0008093A000D093AB00C093AA002DC080915D
:1037B000A00088608093A000D093AD00C093AC00BF
:1037C00023C080912001806880932001D09329013B
:1037D000C093280119C0809120018062809320014C
:1037E000D0932B01C0932A010FC0809120018860E3
:1037F00080932001D0932D01C0932C0105C0C038C7
:10380000D1050CF050CF4ACFDF91CF911F91089591
:1038100090E0FC013197E231F10508F04BC0E4572C
:10382000FF4F48C5809180008F7703C08091800052
:103830008F7D80938000089580918000877FF9CFED
:1038400084B58F7702C084B58F7D84BD0895809143
:10385000B0008F7703C08091B0008F7D8093B0005F
:103860000895809190008F7707C0809190008F7DA0
:1038700003C080919000877F80939000089580918D
:10388000A0008F7707C08091A0008F7D03C080913A
:10389000A000877F8093A0000895809120018F77FA
:1038A00007C0809120018F7D03C080912001877F18
:1038B000809320010895CF93DF9390E0FC01EE57B1
:1038C000FE4F2491FC01E853FE4F8491882349F177
:1038D00090E0880F991FFC01EE5BFD4FA591B4911C
:1038E000885D9D4FFC01C591D4919FB7611108C0BF
:1038F000F8948C91209582238C93888182230AC02E
:10390000623051F4F8948C91322F309583238C934C
:103910008881822B888304C0F8948C91822B8C93AD
:103920009FBFDF91CF9108950F931F93CF93DF93A4
:103930001F92CDB7DEB7282F30E0F901E45CFE4FCF
:103940008491F901EE57FE4F1491F901E853FE4FAF
:1039500004910023C1F0882319F0698359DF69813C
:10396000E02FF0E0EE0FFF1FE85DFD4FA591B49151
:103970009FB7F8948C91611103C01095812301C009
:10398000812B8C939FBF0F90DF91CF911F910F914F
:103990000895FC01818D228D90E0805C9F4F821BF9
:1039A00091098F7399270895FC01918D828D981745
:1039B00031F0828DE80FF11D858D90E008958FEF35
:1039C0009FEF0895FC01918D828D981761F0828D93
:1039D000DF01A80FB11D5D968C91928D9F5F9F7343
:1039E000928F90E008958FEF9FEF089587E99EE111
:1039F000892B39F080E090E0892B19F098D1811162
:103A000025C080E090E0892B41F080E090E0892B98
:103A100021F00E94000081111CC080E090E0892B01
:103A200041F080E090E0892B21F00E94000081119C
:103A300013C080E090E0892BA1F080E090E0892B1A
:103A400081F00E94000081110AC008950E940000C8
:103A5000D8CF0E940000E1CF0E940000EACF0C9472
:103A600000000895FC01848DDF01A80FB11DA35A49
:103A7000BF4F2C91848D90E001968F739927848F8E
:103A8000A689B7892C93A089B1898C9180648C9385
:103A9000938D848D981306C00288F389E02D808170
:103AA0008F7D80830895CF93DF93EC01888D8823E9
:103AB000C1F0EA89FB89808185FD05C0A889B989A3
:103AC0008C9186FD0EC00FB607FCF5CF808185FF77
:103AD000F2CFA889B9898C9185FFEDCFCE01C2DFE5
:103AE000E8CFDF91CF910895CF92DF92FF920F93AD
:103AF0001F93CF93DF931F92CDB7DEB76C0181E0A8
:103B0000D60158968C9358975B969C915B975C96E0
:103B10008C915C97981307C05096ED91FC9151974A
:103B2000808185FD2DC0F601038D10E00F5F1F4FD2
:103B30000F731127F02EF601848DF81210C00FB606
:103B400007FCF9CFD6015096ED91FC9151978081F9
:103B500085FFF1CFC601698385DF6981ECCF838D55
:103B6000E80FF11DE35AFF4F6083D6015B960C937B
:103B70005B975296ED91FC915397808180620CC0C7
:103B8000D6015696ED91FC91579760835096ED9132
:103B9000FC91519780818064808381E090E00F9058
:103BA000DF91CF911F910F91FF90DF90CF900895FB
:103BB000BF92CF92DF92EF92FF92CF93DF93EC010F
:103BC0006A017B01B22EE889F98982E08083411580
:103BD00081EE58076105710599F060E079E08DE3A9
:103BE00090E0A701960144D32150310941095109C0
:103BF0005695479537952795211580E1380790F020
:103C0000E889F989108260E874E88EE190E0A70104
:103C100096012ED3215031094109510956954795F6
:103C200037952795EC85FD853083EE85FF852083CC
:103C3000188EEC89FD89B082EA89FB8980818061D8
:103C40008083EA89FB89808188608083EA89FB8997
:103C5000808180688083EA89FB8980818F7D808371
:103C6000DF91CF91FF90EF90DF90CF90BF900895BC
:103C70001F920F920FB60F9211240BB60F922F9333
:103C80008F939F93EF93FF93E0914A0CF0914B0C2D
:103C90008081E091500CF091510C82FD12C0908116
:103CA0008091530C8F5F8F732091540C821751F0C9
:103CB000E091530CF0E0E65CF34F958F8093530C4A
:103CC00001C08081FF91EF919F918F912F910F9073
:103CD0000BBE0F900FBE0F901F9018951F920F9262
:103CE0000FB60F9211240BB60F922F933F934F9361
:103CF0005F936F937F938F939F93AF93BF93EF9354
:103D0000FF938AE39CE0AEDEFF91EF91BF91AF910C
:103D10009F918F917F916F915F914F913F912F91E3
:103D20000F900BBE0F900FBE0F901F9018958AE357
:103D30009CE02FDE21E0892B09F420E0822F0895FA
:103D400010923D0C10923C0C88EE93E0A0E0B0E0A5
:103D500080933E0C90933F0CA093400CB093410C89
:103D600081EB95E090933B0C80933A0C85EC90E0CE
:103D70009093470C8093460C84EC90E09093490C10
:103D80008093480C80EC90E090934B0C80934A0C0D
:103D900081EC90E090934D0C80934C0C82EC90E081
:103DA00090934F0C80934E0C86EC90E09093510CC6
:103DB0008093500C1092530C1092540C1092550C8E
:103DC0001092560C0895CF92DF92EF92FF920F93CC
:103DD0001F93CF93DF937C016A01EB0100E010E0B9
:103DE0000C151D0571F06991D701ED91FC910190C1
:103DF000F081E02DC7011995892B19F00F5F1F4F36
:103E0000EFCFC801DF91CF911F910F91FF90EF90FD
:103E1000DF90CF900895FC01808191811AC3CF93E8
:103E2000DF93EC0188819981009709F012D3198200
:103E300018821D821C821B821A82DF91CF91089505
:103E40000F931F93CF93DF93EC018B016F5F7F4F35
:103E5000888199818DD3009731F0998388831B8362
:103E60000A8381E001C080E0DF91CF911F910F9123
:103E70000895CF93DF93EC0188819981892B29F0F4
:103E80008A819B818617970758F4CE01D9DF882352
:103E900041F08C819D81892B19F4E881F981108290
:103EA00081E0DF91CF910895EF92FF920F931F93DE
:103EB000CF93DF93EC017B018A01BA01DADF811134
:103EC00003C0CE01ACDF06C01D830C83B70188811F
:103ED00099813BD4CE01DF91CF911F910F91FF903B
:103EE000EF900895FC0111821082138212821582D4
:103EF00014826115710551F0FB0101900020E9F772
:103F0000AF0141505109461B570BCECF089508957C
:103F10005ADBFDDF0E945311C6EFDCE10E942E1632
:103F20002097E1F363DDFACF0895A8D008F481E08B
:103F300008950CD0DEC0D6D040F0CDD030F021F4C2
:103F40005F3F19F0BFC0511108C1C2C0E3D098F360
:103F50009923C9F35523B1F3951B550BBB27AA270A
:103F600062177307840738F09F5F5F4F220F331F7C
:103F7000441FAA1FA9F333D00E2E3AF0E0E830D048
:103F800091505040E695001CCAF729D0FE2F27D04B
:103F9000660F771F881FBB1F261737074807AB0719
:103FA000B0E809F0BB0B802DBF01FF2793585F4F8E
:103FB0002AF09E3F510568F085C0CFC05F3FECF30B
:103FC000983EDCF3869577956795B795F7959F5F53
:103FD000C9F7880F911D9695879597F90895E1E0A7
:103FE000660F771F881FBB1F621773078407BA0706
:103FF00020F0621B730B840BBA0BEE1F88F7E09561
:104000000895E89409C097FB3EF4909580957095CB
:1040100061957F4F8F4F9F4F9923A9F0F92F96E914
:10402000BB279395F695879577956795B795F11189
:10403000F8CFFAF4BB0F11F460FF1BC06F5F7F4F26
:104040008F4F9F4F16C0882311F096E911C0772338
:1040500021F09EE8872F762F05C0662371F096E841
:10406000862F70E060E02AF09A95660F771F881F10
:10407000DAF7880F9695879597F90895990F0008B4
:10408000550FAA0BE0E8FEEF16161706E807F9072A
:10409000C0F012161306E407F50798F0621B730BC5
:1040A000840B950B39F40A2661F0232B242B252B46
:1040B00021F408950A2609F4A140A6958FEF811DE9
:1040C000811D089597F99F6780E870E060E008958A
:1040D0009FEF80EC089500240A9416161706180620
:1040E0000906089500240A941216130614060506FC
:1040F0000895092E0394000C11F4882352F0BB0F8D
:1041000040F4BF2B11F460FF04C06F5F7F4F8F4FEF
:104110009F4F089557FD9058440F551F59F05F3F2A
:1041200071F04795880F97FB991F61F09F3F79F0D9
:1041300087950895121613061406551FF2CF46955B
:10414000F1DF08C0161617061806991FF1CF8695DD
:104150007105610508940895E894BB2766277727C1
:10416000CB0197F908950BD0C4CFB5DF28F0BADFA3
:1041700018F0952309F0A6CFABCF1124EECFCADFFC
:10418000A0F3959FD1F3950F50E0551F629FF0016A
:10419000729FBB27F00DB11D639FAA27F00DB11DC3
:1041A000AA1F649F6627B00DA11D661F829F22274C
:1041B000B00DA11D621F739FB00DA11D621F839FD3
:1041C000A00D611D221F749F3327A00D611D231FA9
:1041D000849F600D211D822F762F6A2F11249F57F7
:1041E00050408AF0E1F088234AF0EE0FFF1FBB1F1A
:1041F000661F771F881F91505040A9F79E3F5105B9
:1042000070F060CFAACF5F3FECF3983EDCF3869569
:1042100077956795B795F795E7959F5FC1F7FE2B63
:10422000880F911D9695879597F90895DB018F93D7
:104230009F9346D0BF91AF91A29F800D911DA39FE8
:10424000900DB29F900D1124089597FB072E16F440
:10425000009406D077FD08D041D007FC05D03EF48D
:10426000909581959F4F0895709561957F4F089522
:10427000A1E21A2EAA1BBB1BFD010DC0AA1FBB1F6A
:10428000EE1FFF1FA217B307E407F50720F0A21BDC
:10429000B30BE40BF50B661F771F881F991F1A9449
:1042A00069F760957095809590959B01AC01BD0173
:1042B000CF010895EE0FFF1F0590F491E02D1994A2
:1042C00021D0A59F900DB49F900DA49F800D911DAE
:1042D000112408950790F691E02D1994AA1BBB1B99
:1042E00051E107C0AA1FBB1FA617B70710F0A61BF6
:1042F000B70B881F991F5A95A9F780959095BC0117
:10430000CD010895A29FB001B39FC001A39F700D7E
:10431000811D1124911DB29F700D811D1124911DCD
:104320000895CF93DF938230910510F482E090E0FE
:10433000E091D90CF091DA0C20E030E0A0E0B0E0A0
:10434000309739F14081518148175907B8F0481723
:10435000590771F482819381109729F013969C93E9
:104360008E9312972CC09093DA0C8093D90C27C0AF
:104370002115310531F04217530718F0A901DB016F
:1043800001C0EF019A01BD01DF010280F381E02D40
:10439000D7CF21153105F9F0281B390B2430310511
:1043A00080F48A819B816115710521F0FB01938363
:1043B000828304C09093DA0C8093D90CFE0132966C
:1043C00044C0FE01E20FF31F819391932250310903
:1043D000398328833AC02091D70C3091D80C232BF5
:1043E00041F420910202309103023093D80C2093C3
:1043F000D70C20910002309101022115310541F4C2
:104400002DB73EB74091040250910502241B350B95
:10441000E091D70CF091D80CE217F307A0F42E1B13
:104420003F0B2817390778F0AC014E5F5F4F241718
:10443000350748F04E0F5F1F5093D80C4093D70CB0
:104440008193919302C0E0E0F0E0CF01DF91CF9142
:104450000895CF93DF93009709F487C0FC0132974A
:1044600013821282C091D90CD091DA0C209781F47A
:1044700020813181280F391F8091D70C9091D80C61
:104480008217930779F5F093D80CE093D70C6DC0A1
:10449000DE0120E030E0AE17BF0750F412964D91D8
:1044A0005C9113979D014115510509F1DA01F3CF94
:1044B000B383A28340815181840F951F8A179B0784
:1044C00071F48D919C911197840F951F02969183A1
:1044D000808312968D919C911397938382832115EB
:1044E000310529F4F093DA0CE093D90C3EC0D901E0
:1044F0001396FC93EE9312974D915D91A40FB51F07
:10450000EA17FB0779F480819181840F951F029649
:10451000D90111969C938E938281938113969C93DB
:104520008E931297E0E0F0E08A819B81009719F06A
:10453000FE01EC01F9CFCE01029628813981820F6C
:10454000931F2091D70C3091D80C2817390769F4A4
:10455000309729F41092DA0C1092D90C02C0138211
:104560001282D093D80CC093D70CDF91CF910895CD
:104570006F927F928F929F92AF92BF92CF92DF9273
:10458000EF92FF920F931F93CF93DF93EC01CB0138
:10459000209779F4DF91CF911F910F91FF90EF90C9
:1045A000DF90CF90BF90AF909F908F907F906F9053
:1045B000B8CEFE01E60FF71F9E0122503109E21727
:1045C000F30708F4A8C0D9010D911C9111970617A3
:1045D0001707B0F00530110508F49BC0A80144503E
:1045E00051094617570708F494C002501109061BD9
:1045F000170B019311936D937C93CF012ADF89C030
:104600005B01A01AB10A4E01800E911EA091D90C37
:10461000B091DA0C612C712C60E070E0109709F415
:1046200049C0A815B905C9F5ED90FC90119767012F
:1046300042E0C40ED11CCA14DB0478F147018A1889
:104640009B08640142E0C40ED11C1296BC901297E4
:104650001396AC91B5E0CB16D10440F0B282A3839F
:1046600091828082D9018D939C9309C00E5F1F4F68
:104670000E0D1F1DF90111830083EB2DFA2F61151B
:10468000710531F0DB011396FC93EE93129741C054
:10469000F093DA0CE093D90C3CC06D917C911197AA
:1046A0006616770608F43B01BD0112960D90BC9189
:1046B000A02DB4CF6091D70C7091D80C68157905F6
:1046C000E9F468167906D0F4409100025091010295
:1046D0004115510541F44DB75EB7609104027091E8
:1046E0000502461B570BE417F507A8F4F093D80C06
:1046F000E093D70CF901918380830BC012DE7C011B
:10470000009749F0A801BE0117D0CE01A2DEC70173
:1047100004C0CE0102C080E090E0DF91CF911F91F4
:104720000F91FF90EF90DF90CF90BF90AF909F9050
:104730008F907F906F900895FB01DC0102C0019083
:104740000D9241505040D8F70895FB01DC010190D3
:104750000D920020E1F7089512E0C2E6D2E000E0F9
:1047600005C022970109FE010BBFB4DDC436D10795
:0A47700080E00807B1F7F894FFCFCE
:10477A000000DB0C8000017374645F6D7367732F34
:10478A0054696D650063643731363663373463358F
:10479A003532633331316662636332666535613758
:1047AA00626332383900726F7373657269616C5F64
:1047BA006D7367732F546F706963496E666F00304B
:1047CA00616435316638386663343438393266386C
:1047DA006331303638343037373634363030350096
:1047EA00726F7373657269616C5F6D7367732F4C57
:1047FA006F6700313161626437333163323539337F
:10480A003332363163643631383362643132643676
:10481A00323935003966306539386264613635397E
:10482A0038313938366464663533616661376134E4
:10483A0030653439007374645F6D7367732F48652C
:10484A00616465720032313736646563616563623B
:10485A006365373861626333623936656630343985
:10486A00666162656400726F735F61726475696E16
:10487A006F5F6D7367732F456E636F646572730044
:10488A0031623738613430323763303762643961C4
:10489A00386138393534333435353439346662322F
:1048AA00006A626F74325F6D7367732F6A626F7426
:1048BA00325F70776D00303834353865333461399A
:1048CA003265613632643335643264326364366524
:1048DA003061383235650067656F6D657472795F6E
:1048EA006D7367732F566563746F72330034613862
:1048FA003432623635663431333038346463326286
:10490A003130666234383465613766313700726F28
:10491A00735F61726475696E6F5F6D7367732F522F
:10492A006177496D750033626330656133373738B3
:10493A0031646135316164343161363836386666DE
:10494A00363266616139004D657373616765206649
:10495A00726F6D206465766963652064726F70702A
:10496A0065643A206D657373616765206C6172676F
:10497A006572207468616E206275666665722E00C3
:10498A006C696E6F5F776865656C656E636F646589
:10499A00727300436F6E6E656374656420746F2072
:1049AA006D6963726F636F6E74726F6C6C65722E71
:1049BA002E2E00524F532041726475696E6F204942
:1049CA004D5520737461727465642E00417264756A
:1049DA00696E6F204669726D7761726520566572DD
:1049EA0073696F6E3A206A617A7A795F6261736578
:1049FA005F61726475696E6F2D76322E782F323050
:104A0A0031372D30392D30332D76322E312E30007C
:104A1A007261775F70776D007261775F696D75009B
:104A2A00416363656C65726F6D65746572204E4F84
:104A3A005420464F554E4421004779726F73636F75
:104A4A007065204E4F5420464F554E4421004D610B
:104A5A00676E65746F6D65746572204E4F5420469B
:104A6A004F554E442100696D755F6C696E6B00721B
:104A7A006F7373657269616C5F6D7367732F5265CB
:104A8A007175657374506172616D00000000006495
:104A9A00018601CC01CF01000000009504D201AAD1
:104AAA0002AD02000000001D05B002F402F7020088
:104ABA0000000049059306FA02FD0200000000F119
:104ACA000500038D0390030000000049069303C606
:104ADA0003C903000000006A06CC03100413040093
:104AEA00000000900885091604190400000000BDA2
:104AFA0008AC091C041F0400000000D210BA0E748E
:104B0A00040000000079048B048F04920400000062
:104B1A000033170717DC16E416F71606170000000D
:0E4B2A0000741DE31EC91CE21CD41C531D00A8
:020000023000CC
:10E000000D9489F10D94B2F10D94B2F10D94B2F129
:10E010000D94B2F10D94B2F10D94B2F10D94B2F1F0
:10E020000D94B2F10D94B2F10D94B2F10D94B2F1E0
:10E030000D94B2F10D94B2F10D94B2F10D94B2F1D0
:10E040000D94B2F10D94B2F10D94B2F10D94B2F1C0
:10E050000D94B2F10D94B2F10D94B2F10D94B2F1B0
:10E060000D94B2F10D94B2F10D94B2F10D94B2F1A0
:10E070000D94B2F10D94B2F10D94B2F10D94B2F190
:10E080000D94B2F10D94B2F10D94B2F10D94B2F180
:10E090000D94B2F10D94B2F10D94B2F10D94B2F170
:10E0A0000D94B2F10D94B2F10D94B2F10D94B2F160
:10E0B0000D94B2F10D94B2F10D94B2F10D94B2F150
:10E0C0000D94B2F10D94B2F10D94B2F10D94B2F140
:10E0D0000D94B2F10D94B2F10D94B2F10D94B2F130
:10E0E0000D94B2F141546D656761323536300041AF
:10E0F000726475696E6F206578706C6F72657220DE
:10E1000073746B3530305632206279204D4C530099
:10E11000426F6F746C6F616465723E004875683F52
:10E1200000436F6D70696C6564206F6E203D200048
:10E130004350552054797065202020203D20005FF9
:10E140005F4156525F415243485F5F3D2000415658
:10E1500052204C696243205665723D20004743437C
:10E160002056657273696F6E203D20004350552024
:10E1700049442020202020203D20004C6F7720663D
:10E18000757365202020203D20004869676820665F
:10E190007573652020203D200045787420667573D6
:10E1A00065202020203D20004C6F636B2066757336
:10E1B000652020203D20004D617220203720323024
:10E1C000313300312E362E3800342E332E350056A2
:10E1D00023202020414444522020206F7020636F70
:10E1E00064652020202020696E73747275637469E1
:10E1F0006F6E2061646472202020496E74657272B3
:10E20000757074006E6F20766563746F7200726A49
:10E210006D702020006A6D70200057686174207056
:10E220006F72743A00506F7274206E6F7420737541
:10E2300070706F72746564004D7573742062652030
:10E2400061206C6574746572002000577269747483
:10E25000696E672045450052656164696E672045B7
:10E26000450045452065727220636E743D00504F35
:10E27000525400303D5A65726F2061646472003FF1
:10E280003D43505520737461747300403D454550C3
:10E29000524F4D207465737400423D426C696E6B41
:10E2A000204C454400453D44756D70204545505215
:10E2B0004F4D00463D44756D7020464C415348001B
:10E2C000483D48656C70004C3D4C69737420492F83
:10E2D0004F20506F72747300513D51756974005234
:10E2E0003D44756D702052414D00563D73686F7707
:10E2F00020696E7465727275707420566563746FF0
:10E30000727300593D506F727420626C696E6B00BD
:10E310002A0011241FBECFEFD1E2DEBFCDBF01E046
:10E320000CBF12E0A0E0B2E0EEE1FDEF03E00BBFB6
:10E3300002C007900D92A030B107D9F712E0A0E01B
:10E34000B2E001C01D92AE30B107E1F70F9460F367
:10E350000D948DFE01E20EBF0FEF0DBF11241FBE05
:10E360000D9460F30D9400F020E030E040ED57E0B4
:10E3700005C0FA013197F1F72F5F3F4F2817390792
:10E38000C0F308959C01260F311DC901A0E0B0E043
:10E390002F5F3F4FABBFFC018791882361F08093D3
:10E3A000C6008091C00086FFFCCF8091C0008064D1
:10E3B0008093C000EACF08958DE08093C6008091DD
:10E3C000C00086FFFCCF8091C00080648093C000B5
:10E3D0008AE08093C6008091C00086FFFCCF8091C8
:10E3E000C00080648093C00008950F94C2F10F9420
:10E3F000DCF10895FC019081992359F09093C600B7
:10E400008091C00086FFFCCF8091C0008064809323
:10E41000C0003196992379F70895282F982F929567
:10E420009F70892F805D8A3308F0895F8093C600D2
:10E430008091C00086FFFCCF8091C00080648093F3
:10E44000C000822F8F70982F905D9A3308F0995FEB
:10E450009093C6008091C00086FFFCCF8091C000E1
:10E4600080648093C00008959C01FB01853691056E
:10E470001CF46330710594F0C90164E670E00F94F8
:10E480002EFE605D7F4F6093C6008091C00086FFC6
:10E49000FCCF8091C00080648093C0002B30310598
:10E4A00014F43297B4F0C90164E670E00F942EFEC4
:10E4B0006AE070E00F942EFE605D7F4F6093C600AF
:10E4C0008091C00086FFFCCF8091C0008064809363
:10E4D000C000C9016AE070E00F942EFEC0968093E0
:10E4E000C6008091C00086FFFCCF8091C000806490
:10E4F0008093C00008951F93182F8EE692EE60E07F
:10E500000F94C2F11093C6008091C00086FFFCCF2B
:10E510008091C00080648093C0000F94DCF11F9153
:10E5200008952F923F924F925F926F927F928F92B7
:10E530009F92AF92BF92CF92DF92EF92FF920F9392
:10E540001F93DF93CF93CDB7DEB762970FB6F894E2
:10E55000DEBF0FBECDBF382E622ECA01DB015C01CB
:10E560006D01772420E2222E2E010894411C511CBB
:10E570008BC081E0A81680E0B80681E0C80680E084
:10E58000D80628F0C601AA27BB270F940DF2BB2797
:10E59000AD2D9C2D8B2D0F940DF28A2D0F940DF225
:10E5A0002092C6008091C00086FFFCCF8091C00001
:10E5B00080648093C0009DE29093C6008091C0006B
:10E5C00086FFFCCF8091C00080648093C0002092C1
:10E5D000C6008091C00086FFFCCF8091C00080649F
:10E5E0008093C00019828601750188249924A1E0D6
:10E5F0003A1651F03A1620F0B2E03B1661F409C029
:10E600000BBFF701779007C0C7010F9477FE782EF4
:10E6100002C0F7017080872D0F940DF22092C60082
:10E620008091C00086FFFCCF8091C0008064809301
:10E63000C000872D8052F401EF70F0708F3520F408
:10E64000E40DF51D708204C0E40DF51D8EE280839B
:10E650000894E11CF11C011D111D0894811C911CE2
:10E6600090E18916910409F0C2CF80E190E0A0E02A
:10E67000B0E0A80EB91ECA1EDB1E198AC2010F9493
:10E68000FAF10F94DCF16A94662009F072CF629679
:10E690000FB6F894DEBF0FBECDBFCF91DF911F91B3
:10E6A0000F91FF90EF90DF90CF90BF90AF909F9031
:10E6B0008F907F906F905F904F903F902F90089534
:10E6C0002F923F924F925F926F927F928F929F9282
:10E6D000AF92BF92CF92DF92EF92FF920F931F9370
:10E6E000DF93CF93CDB7DEB7CD53D1400FB6F894BB
:10E6F000DEBF0FBECDBF01E20EBF0FEF0DBF94B75F
:10E70000F894A89514BE80916000886180936000A1
:10E7100010926000789493FF05C0E0910002F091A0
:10E7200001021995279A2F9A8091C00082608093E8
:10E73000C00080E18093C40088E18093C1000000A4
:10E74000EE24FF24870144E0A42EB12CCC24DD2448
:10E7500024C0C5010197F1F70894E11CF11C011DCB
:10E76000111D21E2E2162EE4F20620E0020720E06D
:10E77000120718F031E0C32ED12CC801B70127ECE5
:10E780003BE140E050E00F9441FE611571058105C9
:10E79000910519F485B1805885B98091C00087FD35
:10E7A00003C0C114D104A9F2A6014F5F5F4FC25E3E
:10E7B000DE4F59834883CE51D140C25EDE4F8881FF
:10E7C0009981CE51D140019711F00D9410FEC05D9A
:10E7D000DE4F19821882C053D14060E0C15DDE4F28
:10E7E0001882CF52D14088249924C35DDE4F19820C
:10E7F0001882CD52D140C05EDE4F188219821A8233
:10E800001B82C052D140CE5CDE4F188219821A8220
:10E810001B82C253D140EE24FF2487010BBFF701B6
:10E8200007911691C45CDE4F19830883CC53D14005
:10E830000D940BFEC25EDE4F28813981CE51D1404E
:10E840002130310509F52091C600C25EDE4F1982E4
:10E850001882CE51D14022C02F5F3F4F4F4F5F4FA4
:10E86000213082E138078AE7480780E0580780F0C6
:10E87000C45CDE4FE881F981CC53D140EF5FFF4F9C
:10E8800019F0EE27FF27099420E030E040E050E047
:10E890008091C00087FFE0CF2091C600C35DDE4FAE
:10E8A00048815981CD52D1404F5F5F4FC35DDE4FEC
:10E8B00059834883CD52D140213209F063C64A3092
:10E8C000510508F05FC60894811C911C53E0851621
:10E8D000910409F059C600E010E018C081E280936D
:10E8E000C6008091C00086FFFCCF8091C00080648C
:10E8F0008093C0002F5F3F4F2931310579F70F9486
:10E90000DCF10F5F1F4F0530110519F020E030E0FA
:10E91000E5CF10920A0210920B0210920C02109294
:10E920000D02109206021092070210920802109235
:10E930000902109202021092030210920402109235
:10E9400005028FEE90EE60E00F94F5F180E191EE1C
:10E9500060E00F94C2F18091C00087FFFCCF9091DE
:10E96000C600903608F09F759032B8F09093C600BC
:10E970008091C00086FFFCCF8091C00080648093AE
:10E98000C000A0E2A093C6008091C00086FFFCCF2B
:10E990008091C00080648093C000983409F4D7C18E
:10E9A0009934B8F4923409F459C1933458F490333B
:10E9B00019F1903308F4E3C59F33A1F1903409F0C5
:10E9C000DEC5BDC0953409F470C1963409F0D7C5D1
:10E9D00098C1923509F42BC2933538F49C3409F46C
:10E9E000F5C1913509F0CBC518C2963509F445C279
:10E9F000993509F0C4C567C483E792EE62E00F94CD
:10EA0000F5F110920602109207021092080210927D
:10EA1000090210920A0210920B0210920C0210923C
:10EA20000D0213C18FE792EE62E00F94F5F18FEEC5
:10EA300090EE60E00F94F5F181E291EE60E00F94CA
:10EA4000C2F187EB91EE60E00F94F5F180E391EE77
:10EA500060E00F94C2F184EE90EE60E00F94F5F167
:10EA60008FE391EE60E00F94C2F186E090E061E008
:10EA700070E00F9434F20F94DCF18DE591EE60E0DC
:10EA80000F94C2F189EC91EE60E00F94F5F18EE401
:10EA900091EE60E00F94C2F183EC91EE60E00F9490
:10EAA000F5F18CE691EE60E00F94C2F18EE10F94E7
:10EAB0000DF288E90F940DF281E00F940DF20F949E
:10EAC000DCF18BE791EE60E00F94C2F119E0E0E039
:10EAD000F0E010935700E4918E2F0F940DF20F94F5
:10EAE000DCF18AE891EE60E00F94C2F1E3E0F0E03F
:10EAF00010935700E4918E2F0F940DF20F94DCF1D8
:10EB000089E991EE60E00F94C2F1E2E0F0E0109349
:10EB10005700E4918E2F0F940DF20F94DCF188EAE8
:10EB200091EE60E00F94C2F1E1E0F0E01093570045
:10EB30001491812F0F940DF20F94DCF107CF8BE825
:10EB400092EE62E00F94F5F18BE492EE60E00F94A8
:10EB5000F5F10F94DCF100E010E019C0C8016F2D51
:10EB60000F947FFEFF2031F489E492EE60E00F9471
:10EB7000C2F10BC0F092C6008091C00086FFFCCFAE
:10EB80008091C00080648093C0000F5F1F4FC80158
:10EB900081519F41A0E0B0E0ABBFFC01F790BAE229
:10EBA000FB1621F0E2E000301E07C1F60F94DCF105
:10EBB0000F94DCF187E592EE60E00F94F5F10F948D
:10EBC000DCF1CC24DD2400E010E01EC0C8010F946D
:10EBD00077FEF82E882331F489E492EE60E00F94FA
:10EBE000C2F10BC08093C6008091C00086FFFCCFAD
:10EBF0008091C00080648093C000FE1419F00894D6
:10EC0000C11CD11C0F5F1F4FC80181519F41A0E063
:10EC1000B0E0ABBFFC01E790FAE2EF1621F022E092
:10EC20000030120799F60F94DCF10F94DCF182E6C4
:10EC300092EE60E00F94C2F1C60161E070E00F94C3
:10EC400034F20F94DCF10F94DCF110920202109276
:10EC50000302109204021092050278CE89E992EE26
:10EC600062E00F94F5F1279A2F9A16C02F9880E052
:10EC700090E0E0EDF7E03197F1F7019684369105E9
:10EC8000C1F72F9A80E090E0E0EDF7E03197F1F7DF
:10EC9000019684369105C1F78091C00087FFE6CFC9
:10ECA0008091C00087FFFCCF64C485EA92EE62E0E9
:10ECB0000F94F5F140910202509103026091040219
:10ECC0007091050281E020E10F9491F2809102029F
:10ECD00090910302A0910402B091050280509F4FD1
:10ECE000AF4FBF4F8093020290930302A0930402A0
:10ECF000B093050280509041A040B04008F426CE69
:10ED0000A4CF83EB92EE62E00F94F5F140910602FE
:10ED100050910702609108027091090280E020E1A1
:10ED20000F9491F28091060290910702A09108023F
:10ED3000B091090280509F4FAF4FBF4F80930602A2
:10ED400090930702A0930802B0930902FFCD80ECD4
:10ED500092EE62E00F94F5F183E792EE60E00F949B
:10ED6000F5F18FE792EE60E00F94F5F18BE892EE0B
:10ED700060E00F94F5F189E992EE60E00F94F5F10F
:10ED800085EA92EE60E00F94F5F183EB92EE60E09D
:10ED90000F94F5F180EC92EE60E00F94F5F187ECC2
:10EDA00092EE60E00F94F5F188ED92EE60E00F9442
:10EDB000F5F18FED92EE60E00F94F5F18AEE92EEB0
:10EDC00060E00F94F5F183E093EEBDCD87EC92EE19
:10EDD00062E00F94F5F181E40F947BF282E40F94EA
:10EDE0007BF283E40F947BF284E40F947BF285E45E
:10EDF0000F947BF286E40F947BF287E40F947BF20E
:10EE000088E40F947BF28AE40F947BF28BE40F94F6
:10EE10007BF28CE40F947BF299CD88ED92EE62E068
:10EE20000F94F5F1772473948824992409C48FED05
:10EE300092EE62E00F94F5F140910A0250910B02BC
:10EE400060910C0270910D0282E020E10F9491F22A
:10EE500080910A0290910B02A0910C02B0910D02D8
:10EE600080509F4FAF4FBF4F80930A0290930B0289
:10EE7000A0930C02B0930D0269CD8AEE92EE62E08F
:10EE80000F94F5F184EE90EE60E00F94F5F18FECC5
:10EE900091EE60E00F94F5F1662477244301CC5D98
:10EEA000DE4F19821882C452D140D401C301B695F5
:10EEB000A79597958795CA5DDE4F88839983AA8326
:10EEC000BB83C652D140CC5DDE4FA881B981C4520C
:10EED000D1401196CC5DDE4FB983A883C452D14096
:10EEE000CD0162E070E00F9434F2B0E2B093C6005E
:10EEF0008091C00086FFFCCF8091C0008064809329
:10EF0000C000EDE2E093C6008091C00086FFFCCF18
:10EF10008091C00080648093C000F0E2F093C6004E
:10EF20008091C00086FFFCCF8091C00080648093F8
:10EF3000C000CA5DDE4FE880F9800A811B81C6529D
:10EF4000D140BB27A12F902F8F2D0F940DF2CA5DBA
:10EF5000DE4F8881C652D1400F940DF2B0E2FB2EF5
:10EF6000F092C6008091C00086FFFCCF8091C00067
:10EF700080648093C0000DE30093C6008091C000C0
:10EF800086FFFCCF8091C00080648093C00010E2B7
:10EF90001093C6008091C00086FFFCCF8091C00016
