:10000000AEC100000C941D0E0C94480E0C94730E9F
:100010000C949E0E0C94C90E0C94F40ED1C10000E9
:10002000CFC10000CDC10000CBC10000C9C100009C
:10003000C7C10000C5C10000C3C10000C1C10000AC
:10004000BFC10000BDC10000BBC10000B9C10000BC
:10005000B7C10000B5C10000B3C100000C94FB2182
:10006000AFC100000C94F9250C942F26A9C1000003
:10007000A7C10000A5C10000A3C10000A1C10000EC
:100080009FC100009DC100009BC1000099C10000FC
:1000900097C1000095C1000093C100000C94A020FE
:1000A0008FC100008DC100008BC1000089C100001C
:1000B00087C1000085C1000083C1000081C100002C
:1000C0007FC100007DC100007BC1000079C100003C
:1000D00077C1000075C1000073C1000071C100004C
:1000E0006FC10000FE0406050E0516051E05260557
:1000F0002E05360529232E2333233D234723C023F2
:100100005123592361236B2375237F238E23982347
:10011000C023A223AC23B623E123E423D323D72394
:10012000DD231B24E823EC23F223F623FA23002407
:10013000042408241B240E241224162400000A0B75
:1001400002090C0D0E080703040100000000000066
:10015000000000000000000000000000000000009F
:10016000000000000000000012111000000000005C
:10017000000000000000000000000000000000007F
:1001800000000102102020080810204010204080AC
:10019000020102010804020101020408102040804B
:1001A00080402010080402018004020180402010D9
:1001B0000804020108040201010204081020408022
:1001C0000102040810204080050505050705080800
:1001D0000808020202020A0A0808040404040101D1
:1001E00001010101010103030303030303030407E6
:1001F00007070C0C0C0C0C0C0C0C0202020206067D
:100200000606060606060B0B0B0B0B0B0B0B000072
:1002100020002300260029002C002F0032000001BE
:10022000000003010601090100002200250028004A
:100230002B002E00310034000201000005010801EE
:100240000B0100002100240027002A002D003000AF
:10025000330001010000040107010A0100407A1087
:10026000F35A00A0724E18090010A5D4E80000E867
:100270007648170000E40B54020000CA9A3B0000C5
:1002800000E1F505000080969800000040420F0054
:100290000000A08601000000102700000000E80315
:1002A000000000006400000000000A0000000000E0
:1002B0000100000000002C76D888DC674F0823DF9F
:1002C000C1DFAE59E1B1B796E5E3E453C63AE65172
:1002D000997696E8E6C28426EB898C9B62ED407C99
:1002E0006FFCEFBC9C9F40F2BAA56FA5F490055A35
:1002F0002AF75C936B6CF9676DC11BFCE0E40D475A
:10030000FEF520E6B500D0ED902E0300943577057C
:100310000080841E080000204E0A000000C80C3334
:100320003333330F986E12831141EF8D2114893BC3
:10033000E65516CFFEE6DB18D1844B381BF77C1D43
:10034000901DA4BBE424203284725E228100C9F196
:1003500024ECA1E53D27F517B91F61267619112474
:100360001FBECFEFD1E2DEBFCDBF00E00CBF17E074
:10037000A0E0B2E0EEE9F2E600E00BBF02C00790B9
:100380000D92AE32B107D9F72FE0AEE2B7E001C06F
:100390001D92A934B207E1F713E0CCE5D3E000E009
:1003A00006C022970109FE010BBF0E94C529C63570
:1003B000D10780E00807A9F70E9449270C943E3135
:1003C0001FCEFC01DB0182818C93838111968C937B
:1003D0001197848112968C931297858113968C9332
:1003E0001397868114968C931497878115968C9316
:1003F0001597808516968C931697818517968C9302
:1004000088E090E00895FC01DB014C9150E060E051
:1004100070E0428353836483758311968C911197A6
:10042000582B428353836483758312968C91129761
:10043000682B428353836483758313968C9113973F
:10044000782B428353836483758314964C9114975D
:1004500050E060E070E046835783608771871596AF
:100460008C911597582B4683578360877187169612
:100470008C911697682B46835783608771871796F0
:100480008C91782B468357836087718788E090E052
:10049000089587E192E0089585E292E008956F92D1
:1004A0007F928F929F92AF92BF92CF92DF92EF9204
:1004B000FF920F931F93CF93DF93FC01DB018C918D
:1004C00090E09383828311962C911197922B9383C2
:1004D000828312964D915D916D917C9115975D018E
:1004E00086E0A80EB11C8A019B010A5F1F4F2F4FA7
:1004F0003F4F6501CA1ADB0AE12CF12CC016D10668
:10050000E206F30640F4E501F9905E01CE010297A0
:10051000EC01F882EECFED01C40FD51F1D82CD0195
:10052000059695838483ED01C40FD51FCE80DF80AF
:10053000E884F984465F5F4F3D01640E751E8A01B1
:10054000222717FD2095322F0C0D1D1D2E1D3F1D3E
:1005500043018A1A9B0AA12CB12C80169106A2068F
:10056000B30640F4E30169913E01CE010297EC012C
:100570006883EECFC40ED51E9D012C0D3D1DC90113
:100580000197EC011882415051094A0F5B1F5783B4
:100590004683E901088119812A813B81D4E0CD0E8F
:1005A000D11C3D016C0C7D1CA601662757FD609592
:1005B000762F400F511F621F731F43018A1A9B0A37
:1005C000A12CB12C84169506A606B70640F4E301CB
:1005D000F9903E01CE010297EC01F882EECF0C0DAE
:1005E0001D1D9D01200F311FC9010197EC011882CB
:1005F000D1E0CD1AD108CA0EDB1ED186C086D90142
:1006000011968C91119712964C91129750E060E0E0
:1006100070E0BA0155274427582B8C91482B13962C
:100620008C91782B4287538764877587C80104961D
:10063000DF91CF911F910F91FF90EF90DF90CF90BE
:10064000BF90AF909F908F907F906F90089586E4B9
:1006500092E008958FE592E00895AF92BF92CF9215
:10066000DF92EF92FF921F93CF93DF939C01FB01E8
:100670008081D90112968C9381819281A381B4816A
:100680005B01C5E0AC0EB11CAC01BD014B5F5F4F1F
:100690006F4F7F4F6501CE1ADF0AE12CF12CC41693
:1006A000D506E606F70650F4E501D9905E017E0115
:1006B000D2E0ED1AF108E701D882ECCFEF01C80FC4
:1006C000D91F1C823496E901FC83EB830596DF91E8
:1006D000CF911F91FF90EF90DF90CF90BF90AF90A0
:1006E000089580E892E0089583E992E0089580E417
:1006F00096E0089584EB92E00895CF92DF92EF9216
:10070000FF920F931F93CF93DF938C01EB018881AE
:1007100090E0A0E0B0E0F80182839383A483B583E6
:100720002981922B82839383A483B5832A81A22B70
:1007300082839383A483B5832B81B22B828393839B
:10074000A483B5838C8190E0A0E0B0E0868397839A
:10075000A087B1872D81922B86839783A087B1874D
:100760002E81A22B86839783A087B1872F81B22BFE
:1007700086839783A087B187488550E060E070E06A
:1007800042875387648775878985582B42875387AB
:10079000648775878A85682B428753876487758746
:1007A0008B85782B42875387648775878C859D85D9
:1007B000AE85BF859E01205F3F4FAC01BD01405F0C
:1007C0005F4F6F4F7F4F6901CC1ADD0AE12CF12C8E
:1007D000C416D506E606F70650F4F901D1909F013C
:1007E0007F01F2E0EF1AF108F701D082ECCF9E0111
:1007F000280F391FF90117862F96F801D787C6876A
:100800004096DF91CF911F910F91FF90EF90DF9075
:10081000CF90089585ED92E0089585EE92E00895D9
:1008200086E093E008958CE193E008958DE393E0F2
:1008300008958AE593E008950F931F93CF93DF9374
:10084000EC018B01029659DFF801E80FF91F2181B5
:10085000428150E060E070E0BA0155274427522BF6
:100860002081422B2381722B4A8B5B8B6C8B7D8B7F
:100870002581468150E060E070E0BA0155274427A9
:10088000522B2481422B2781722B4E8B5F8B688FDA
:10089000798F0896DF91CF911F910F9108958BE783
:1008A00093E0089585E993E0089586EB93E0089539
:1008B0008DEC93E008958EEE93E0089582E094E04D
:1008C0000895FC01DB0132812381948185813C9371
:1008D00011962C93119712969C93129713968C93C2
:1008E0001397368127819085818514963C931497C0
:1008F00015962C93159716969C93169717968C938E
:100900001797328523859485858518963C9318978B
:1009100019962C9319971A969C931A971B968C9359
:100920008CE090E00895FC01DB0111968C91119709
:1009300012964C91129750E060E070E0BA01552792
:100940004427582B8C91482B13968C911397782B16
:10095000428353836483758315968C9115971696FD
:100960004C91169750E060E070E0BA01552744279B
:10097000582B14968C911497482B17968C91179797
:10098000782B468357836087718719968C911997C6
:100990001A964C911A9750E060E070E0BA01552722
:1009A0004427582B18968C911897482B1B968C919E
:1009B000782B42875387648775878CE090E0089591
:1009C00083E294E0089584E394E0089585E594E05B
:1009D00008958DE694E00895282F90E0223010F4D9
:1009E000049603C0263008F402978830910508F079
:1009F00044C0FC01EE58FF4F0C94B529809169006A
:100A00008C7F816080936900E89A089580916900E5
:100A1000837F846080936900E99A089580916900DA
:100A20008F7C806180936900EA9A089580916900C3
:100A30008F73806480936900EB9A089580916A00B7
:100A40008C7F816080936A00EC9A089580916A009F
:100A5000837F846080936A00ED9A089580916A0094
:100A60008F7C806180936A00EE9A089580916A007D
:100A70008F73806480936A00EF9A08958E579B4F1E
:100A8000FC01808108950F931F93CF93DF93EC01B6
:100A90008C010A5F1F4FC80146DFEC89FD89C80140
:100AA000DF91CF911F910F911994FC01868997894D
:100AB000089583E294E0089584E394E00895FC01AE
:100AC00086A197A108958EEE93E0089582E094E0C8
:100AD0000895AF92BF92CF92DF92EF92FF920F9361
:100AE0001F93CF93DF93EC017B018A81DB018C9311
:100AF0008B8111968C93EC81FD81DF010D9000209C
:100B0000E9F7CD0101976C01CE1ADF0AC601A0E01A
:100B1000B0E0FB0182839383A483B5836C817D81E4
:100B2000A601C70106960E94172CEE81FF81DF0106
:100B30000D900020E9F7CD0101975C01AE1ABF0AC4
:100B4000F701EC0DFD1D850120E030E006831783E1
:100B5000208731879AE0C90ED11C6E817F81A50163
:100B6000C7018C0D9D1D0E94172CCA0CDB1CE8854B
:100B7000F985DF010D900020E9F7CD0101975C01B7
:100B8000AE1ABF0AF701EC0DFD1D850120E030E033
:100B9000008311832283338394E0C90ED11C6885BE
:100BA0007985A501C7018C0D9D1D0E94172CAC0CE9
:100BB000BD1C3A852B859C858D85F701EA0DFB1DB3
:100BC0003083218392838383C5010496DF91CF9183
:100BD0001F910F91FF90EF90DF90CF90BF90AF905B
:100BE00008950F931F93CF93DF93DC01FB011296BF
:100BF0008C911297808313968D919C911497EC01A0
:100C000009900020E9F72197C81BD90B8E0120E03D
:100C100030E0018312832383348313966D917C919A
:100C20001497AE01CF0105960E94172CCE010596B0
:100C3000DF91CF911F910F910895BF92CF92DF92D4
:100C4000EF92FF920F931F93CF93DF93EC017B0101
:100C50008A81DB018C9311961C92119712961C923B
:100C6000129713961C92FB01379640E024E030E087
:100C70005A81C90104964517E0F4AF81B88524E094
:100C8000429FA00DB11D11246C9111965C9111979A
:100C900012963C91129713962C91DF0113976C9347
:100CA00011965C9311963C9320839C014F5F349680
:100CB000DFCF4985F701E20FF31F408311821282D3
:100CC000138220E03985F701E80FF91F04962317F6
:100CD000B0F4AE85BF8534E0239FA00DB11D112473
:100CE0006C9111965C91119712964C9112971396F4
:100CF0003C9160835183428333832F5FE3CF288904
:100D00002083118212821382B12C2889B21698F5A1
:100D10004B2D50E0440F551FEB89FC89E40FF51F64
:100D20000190F081E02DDF010D900020E9F79D0199
:100D3000215031096901CE1ADF0AF701E80FF91FC6
:100D4000860120E030E000831183228333838C010D
:100D50000C5F1F4FEB89FC89E40FF51F60817181E7
:100D6000A601C701800F911F0E94172CC601800F9A
:100D7000911FB394CACFDF91CF911F910F91FF9034
:100D8000EF90DF90CF90BF9008950F931F93CF9374
:100D9000DF93DC01FB0112968C91129780831396EE
:100DA0008C911397818314968C9114978283159656
:100DB0008C911597838316968C911697848317963A
:100DC0008C911797858318968C911897868319961E
:100DD0008C91199787831A968C911A9780871B9606
:100DE0008C911B9781871C968C911C9782871D96EE
:100DF0008C911D9783871E968D919C911F97EC0176
:100E000009900020E9F72197C81BD90B8E0120E03B
:100E100030E004871587268737871E966D917C9171
:100E20001F97AE01CF0140960E94172CCE0140962D
:100E3000DF91CF911F910F9108950F931F93CF933F
:100E4000DF93EC018B010296A0DF5A894B893C8924
:100E50002D89F801E80FF91F5083418332832383E2
:100E60005E894F89388D298D548345833683278346
:100E70000896DF91CF911F910F9108954F925F9245
:100E80007F928F929F92AF92BF92CF92DF92EF921A
:100E9000FF920F931F93CF93DF93EC018B01DB0144
:100EA000FC908A818F1550F4B4E0FB9EB0011124B0
:100EB0008F8198850E94332B98878F83FA82F8015F
:100EC0003796F12C44E050E09E012D5F3F4F8A8120
:100ED000BA016C5F7F4F6B01F81660F5408150E0FE
:100EE00060E070E0742F662755274427DF011397D1
:100EF0008C91482B11968C91582B11968C91682BC4
:100F00004B835C836D837E83A6016F81788584E04B
:100F1000F89E600D711D1124D9018D909D90AD90AA
:100F2000BC90DB018D929D92AD92BC921397F3948D
:100F30003496CDCFF801E40FF51FF08089858F1529
:100F400050F484E0F89EB00111248E859F850E94A4
:100F5000332B9F878E879601F98680E0FE013A96B3
:100F60009985D801A20FB31FA9014C5F5F4F6A0199
:100F7000891748F511969C91119712964C911297EA
:100F800050E060E070E0BA0155274427592B9C914E
:100F9000492B13969C91792B4A875B876C877D87B9
:100FA0009601AE85BF8594E0899FA00DB11D1124E7
:100FB00040815181628173814D935D936D937C93E8
:100FC00013978F5FCDCFFC9088898F1550F46F2DCC
:100FD00070E0660F771F8B899C890E94332B9C8B56
:100FE0008B8BC601F88A712C2E0151E1450E511CE4
:100FF0002889721608F044C0F801E80FF91FC08074
:10100000D180E280F3800496F801E80FF91FAC016B
:10101000662757FD6095762F4C0D5D1D6E1D7F1D5B
:101020009F01201B310B4901A12CB12C8416950680
:10103000A606B70638F4B1909F0122503109D901B4
:10104000BC92EECFC80ED91EF801EC0DFD1D3197F4
:1010500010829C0121503109200F311F3A8B298BBE
:10106000C6013B892C89E32FF22FE70DF11DE70D17
:10107000F11DD2012D913C91318320837394B8CF1F
:10108000DF91CF911F910F91FF90EF90DF90CF9064
:10109000BF90AF909F908F907F905F904F900895FA
:1010A0008F929F92AF92BF92CF92DF92EF92FF9278
:1010B000CF93DF93EC010E9445226093460D70931D
:1010C000470D8093480D9093490D20E030E040E7B4
:1010D00052E46C817D818E819F810E940E292CEDCE
:1010E00039ED47E35FE30E94BF276B017C0120E0FD
:1010F00030E040E752E46A8D7B8D8C8D9D8D0E949F
:101100000E2923ED3DE442E95EE30E940E292CED19
:1011100039ED47E35FE30E94BF274B015C019B0170
:10112000AC01C701B6010E9456276093880D7093E9
:10113000890D80938A0D90938B0DA5019401C701B1
:10114000B6010E9457276093720D7093730D8093C0
:10115000740D9093750DDF91CF91FF90EF90DF901C
:10116000CF90BF90AF909F908F9008958F929F9255
:10117000AF92BF92CF92DF92EF92FF920F931F93A5
:10118000CF93DF93EC01CB01BA018B019C01B7E156
:101190003595279517950795BA95D1F711272227E9
:1011A0003327011511052105310521F000581C4F89
:1011B0002F4F3F4F188219821A826B017C01B5E0D4
:1011C000CC0CDD1CEE1CFF1CBA95D1F7CB826B0159
:1011D0007C0143E0F594E794D794C7944A95D1F7FE
:1011E000CC826B017C015BE0F594E794D794C794C3
:1011F0005A95D1F7CD8268017901E4E0CC0CDD1C71
:10120000EE1CFF1CEA95D1F74B015C01F3E1B594AC
:10121000A79497948794FA95D1F7482D4F704C294D
:101220004E8368017901A4E0F594E794D794C794BC
:10123000AA95D1F720E030E0A9010E94BB2787FDE5
:1012400002C0CF8203C08C2D80688F8388E090E03D
:10125000DF91CF911F910F91FF90EF90DF90CF9092
:10126000BF90AF909F908F900895EF92FF920F9351
:101270001F93CF93DF938C01EB01FC0142815381DB
:1012800064817581CE0172DF7C01F801468157814E
:1012900060857185CE018E0D9F1D68DFE80EF91EF9
:1012A000F8014285538564857585CE018E0D9F1D9D
:1012B0005DDF8E0D9F1DDF91CF911F910F91FF90EC
:1012C000EF900895EF92FF920F931F93CF93DF93C8
:1012D0008C017B01029659DDEC01B701680F791F83
:1012E000C8014296C2DF8C0F9D1FDF91CF911F91E5
:1012F0000F91FF90EF900895EF92FF920F931F933D
:10130000CF93DF938C017B010296AFDFEC01B70135
:10131000680F791FC8014096A8DF8C0F9D1FDF91D1
:10132000CF911F910F91FF90EF900895EF92FF9250
:101330000F931F93CF93DF93EC018B01029625DD72
:10134000F801E80FF91F2A8920832B8921832C8932
:1013500022837C0123E0E20EF11CB8016E0D7F1D9B
:10136000CE01459682DFE80EF91EB8016E0D7F1D95
:10137000CE0183967ADFE80EF91EB8016E0D7F1D4F
:10138000CE01C19672DF8E0D9F1DDF91CF911F910F
:101390000F91FF90EF9008957F928F929F92AF925E
:1013A000BF92CF92DF92EF92FF920F931F93CF9352
:1013B000DF93EC018B010296E8DC2A89F801E80F43
:1013C000F91F2083118212829C012C5F3F4F1382F0
:1013D000712C8A89F801E20FF31FA9014C5F5F4F5E
:1013E0004A01781660F5872D90E0880F991FAD8926
:1013F000BE89A80FB91F4D915C91DA010D900020B4
:10140000E9F79D01215031095901A41AB50A650176
:10141000E12CF12CC082D182E282F382ED89FE8937
:10142000E80FF91F60817181A501C801880D991D20
:101430000E94172C9501280D391D7394CACF8F89EE
:101440008083118212825A011382F12C8F89F80154
:10145000EA0DFB1DF81688F4AC8DBD8D54E0F59EA9
:10146000A00DB11D11244D915D916D917C91CF0125
:101470007DDEA80EB91EF394E9CF8E8D8083118294
:10148000128284E0A80EB11C1382F12C8E8DF8011B
:10149000EA0DFB1DF81688F4ABA1BCA124E0F29E76
:1014A000A00DB11D11244D915D916D917C91CF01E5
:1014B0005DDEA80EB91EF394E9CF8DA18083118261
:1014C000128234E0A30EB11C1382F12C8DA1F81608
:1014D00098F4EAA5FBA544E0F49EE00DF11D11246B
:1014E0004081518162817381C8018A0D9B1D3EDE5E
:1014F000A80EB91EF394EACFC501DF91CF911F91D9
:101500000F91FF90EF90DF90CF90BF90AF909F90A2
:101510008F907F9008950F931F93FC01DB0103814F
:1015200002950695077010E020E030E00D931D93C2
:101530002D933C931397448150E060E070E093E07A
:10154000440F551F661F771F9A95D1F7402B512BDB
:10155000622B732B4D935D936D937C931397058151
:1015600010E020E030E08BE0000F111F221F331F3E
:101570008A95D1F7042B152B262B372B0D931D9312
:101580002D933C93139746814F7050E060E070E0DC
:1015900093E1440F551F661F771F9A95D1F7402B93
:1015A000512B622B732B4D935D936D937C9313970B
:1015B000868182958F7007810F7710E020E030E000
:1015C00094E0000F111F221F331F9A95D1F7082BAB
:1015D0000115110521053105A1F00058134021091D
:1015E000310987E1000F111F221F331F8A95D1F7A0
:1015F000042B152B262B372B0D931D932D933C93EA
:1016000013970781007810E020E030E0302F222788
:10161000112700274D915D916D917C911397402B7F
:10162000512B622B732B4D935D936D937C9313978A
:1016300088E090E01F910F910895EF92FF920F9331
:101640001F93CF93DF938C01EB01BC016E5F7F4F43
:10165000CE0161DF7C01B8016A5F7F4FCE018E0D44
:101660009F1D59DFE80EF91EB801665F7F4FCE015E
:101670008E0D9F1D50DF8E0D9F1DDF91CF911F910D
:101680000F91FF90EF900895EF92FF920F931F93A9
:10169000CF93DF938C017B0102962FD8EC01B70129
:1016A000680F791FC8014296C8DF8C0F9D1FDF911C
:1016B000CF911F910F91FF90EF900895EF92FF92BD
:1016C0000F931F93CF93DF938C017B010296B5DFBD
:1016D000EC01B701680F791FC8014096AEDF8C0F8F
:1016E0009D1FDF91CF911F910F91FF90EF90089573
:1016F0000F931F93CF93DF93EC018C010A5F1F4F71
:10170000C801DCDFECA1FDA1C801DF91CF911F91E1
:101710000F911994EF92FF920F931F93CF93DF9342
:10172000EC018B0102960E947D03F801E80FF91F7E
:1017300020812A8B21812B8B22812C8B7C0123E021
:10174000E20EF11CB8016E0D7F1DCE01459675DFCE
:10175000E80EF91EB8016E0D7F1DCE0183966DDF78
:10176000E80EF91EB8016E0D7F1DCE01C19665DF32
:101770008E0D9F1DDF91CF911F910F91FF90EF90E4
:1017800008954F925F926F927F928F929F92AF9245
:10179000BF92CF92DF92EF92FF920F931F93CF935E
:1017A000DF93EC018B0102960E947D034C01F8014E
:1017B000E80FF91FF0808A898F1550F46F2D70E0C3
:1017C000660F771F8D899E890E94332B9E8B8D8B90
:1017D000A4014C5F5F4FFA8A90E06E0123E1C20ED4
:1017E000D11C8A89F801E40FF51F9A012C5F3F4F45
:1017F0007901981708F040C080809180A280B38062
:10180000F801EE0DFF1DA701662757FD6095762FA5
:10181000480D591D6A1D7B1D9F01201B310B29019D
:10182000612C712C441655066606770638F48191B2
:101830009F0122503109D9018C93EECF8E0C9F1C51
:10184000F801E80DF91D31971082970121503109F7
:10185000200F311F3C8B2B8BA4012D898E89E22F09
:10186000F82FE90FF11DE90FF11DD6012D913C91E3
:10187000318320839F5FB5CFB0808F898B1550F463
:1018800034E0B39EB00111248C8D9D8D0E94332BCA
:101890009D8F8C8FBF8A912C5E0188E1A80EB11CB0
:1018A0002F89C8018E0D9F1D9216B0F4B50133DE4D
:1018B000E80EF91EEC8DFD8DA4E09A9EE00DF11D61
:1018C0001124D5014D915D916D917C91408351839F
:1018D000628373839394E4CFFC01B0808E8D8B156B
:1018E00050F4F4E0BF9EB00111248BA19CA10E9492
:1018F000332B9CA38BA324E0E20EF11CBE8E912C13
:101900005E013FE1A30EB11C2E8DC8018E0D9F1DFF
:101910009216B0F4B501FFDDE80EF91EEBA1FCA1B3
:1019200084E0989EE00DF11D1124D5014D915D914B
:101930006D917C9140835183628373839394E4CF50
:10194000FC01B0808DA18B1550F4F4E0BF9EB00176
:1019500011248AA59BA50E94332B9BA78AA724E06C
:10196000E20EF11CBDA2912C5E0136E2A30EB11C69
:101970008DA19816C8F4B501C8018E0D9F1DCBDD51
:10198000E80EF91EEAA5FBA584E0989EE00DF11D86
:101990001124D5014D915D916D917C9140835183CE
:1019A000628373839394E4CFC701DF91CF911F913A
:1019B0000F91FF90EF90DF90CF90BF90AF909F90EE
:1019C0008F907F906F905F904F900895CF93DF93AB
:1019D000AB01EC01AE81BF81ED91FC9111976C815F
:1019E0007D810190F081E02DCD01DF91CF9119949F
:1019F000FC018CE996E09183808312821382148229
:101A00001582168217821086118612861386148616
:101A100015860895CF93DF93EC0184EE96E09983C9
:101A2000888380E996E09B838A831C821D821E82C4
:101A30001F82188619861A861B861C861D861E869E
:101A40001F868BEF95E0998B888B1A8A1B8A1C8ADC
:101A5000CE014596CDDFCE018396CADFCE01C19679
:101A6000DF91CF91C5CFDC01ED91FD918081ED91AA
:101A7000FD919081ED91FD916C9163708E2309F041
:101A800064609F2309F06860E0E5FDE0E60FF11D6A
:101A9000659565956D936D917D918D919D9109945D
:101AA00023C01AC012C016C010C01EC009C014C086
:101AB00013C006C019C009C00DC007C00DC014C0B6
:101AC00062507040804090400BC061507040804038
:101AD000904006C06E5F01C06F5F7F4F8F4F9F4F7A
:101AE0009E938E937E936E930895CF93DF93EC0134
:101AF0008B85823020F4F894CE01B5DF01C0F894D4
:101B00006F81788589859A857894DF91CF91089542
:101B1000823159F150F4823099F0833061F570933D
:101B2000D60D6093D50D81E01CC0843179F0A0F012
:101B3000853109F57093D80D6093D70D82E011C0FF
:101B40007093D40D6093D30D80E00BC07093DA0DC9
:101B50006093D90D83E005C07093DC0D6093DB0DBD
:101B600084E00E94EC0481E008957093DE0D6093A0
:101B7000DD0D85E0F6CF80E008950F931F93CF939E
:101B8000DF93EC01062F142F62E0802F0E941C24AB
:101B900062E0812F0E941C24202F30E0F901E853DD
:101BA000FE4FE491F0E0EE0FFF1FE25FFD4F459125
:101BB000549159834883F901EE57FE4F24912C83A9
:101BC000212F30E0F901E853FE4FE491F0E0EE0FF1
:101BD000FF1FE25FFD4FA591B491BB83AA83F9017A
:101BE000EE57FE4F24912D831F82188619861A8680
:101BF00080ED97E00E949922E881F98190818C81A3
:101C0000982381E009F480E0EA81FB8190812D81B5
:101C1000922309F082608E83BE01802F79DF8B874B
:101C2000BE01812F75DF2B8590E0820F911D8B8780
:101C3000DF91CF911F910F9108951F920F920FB6D0
:101C40000F9211240BB60F922F933F934F935F93F4
:101C50006F937F938F939F93AF93BF93EF93FF9374
:101C60008091D70D9091D80DFEDEFF91EF91BF913D
:101C7000AF919F918F917F916F915F914F913F9124
:101C80002F910F900BBE0F900FBE0F901F901895C5
:101C90001F920F920FB60F9211240BB60F922F9333
:101CA0003F934F935F936F937F938F939F93AF93E4
:101CB000BF93EF93FF938091D90D9091DA0DD3DE0E
:101CC000FF91EF91BF91AF919F918F917F916F9114
:101CD0005F914F913F912F910F900BBE0F900FBED0
:101CE0000F901F9018951F920F920FB60F9211240C
:101CF0000BB60F922F933F934F935F936F937F9306
:101D00008F939F93AF93BF93EF93FF938091DB0DDE
:101D10009091DC0DA8DEFF91EF91BF91AF919F9163
:101D20008F917F916F915F914F913F912F910F9084
:101D30000BBE0F900FBE0F901F9018951F920F9221
:101D40000FB60F9211240BB60F922F933F934F9320
:101D50005F936F937F938F939F93AF93BF93EF9313
:101D6000FF938091DD0D9091DE0D7DDEFF91EF916F
:101D7000BF91AF919F918F917F916F915F914F91A3
:101D80003F912F910F900BBE0F900FBE0F901F90A1
:101D900018951F920F920FB60F9211240BB60F9247
:101DA0002F933F934F935F936F937F938F939F9363
:101DB000AF93BF93EF93FF938091D30D9091D40D88
:101DC00052DEFF91EF91BF91AF919F918F917F91E3
:101DD0006F915F914F913F912F910F900BBE0F909C
:101DE0000FBE0F901F9018951F920F920FB60F9273
:101DF00011240BB60F922F933F934F935F936F93E2
:101E00007F938F939F93AF93BF93EF93FF938091B3
:101E1000D50D9091D60D27DEFF91EF91BF91AF9137
:101E20009F918F917F916F915F914F913F912F91F2
:101E30000F900BBE0F900FBE0F901F9018950F9331
:101E40001F93CF93DF938C01EB0197FD02C061E0FC
:101E500001C060E087E00E945524B80117FF03C06D
:101E600071956195710988E00E940623D7FD02C033
:101E700061E001C060E089E00E945524BE01D7FF07
:101E800003C07195619571098AE0DF91CF911F912F
:101E90000F910C9406234F925F926F927F928F92D4
:101EA0009F92AF92BF92CF92DF92EF92FF920F93E9
:101EB0001F93CF93DF93EC016A017B012801390165
:101EC000488559856A857B8597018601041B150B1A
:101ED000260B370BC901B8010E945A2820E635EEBF
:101EE0004DE053E40E94BF274B015C0160E67AEEAF
:101EF00080E090E0A30192010E949329CA01B901F8
:101F00000E9458289B01AC01C501B4010E940E2912
:101F10006C877D878E879F87C886D986EA86FB86F1
:101F2000DF91CF911F910F91FF90EF90DF90CF90B5
:101F3000BF90AF909F908F907F906F905F904F90E9
:101F400008954F925F926F927F928F929F92AF927D
:101F5000BF92CF92DF92EF92FF92CF93DF93EC018B
:101F60002C853D854E855F85688979898A899B891D
:101F70000E9456276B017C012C813D814E815F813F
:101F80000E9457274B015C016C837D838E839F8366
:101F900020911202309113024091140250911502C7
:101FA000C701B6010E940E292B013C0120912E0D84
:101FB00030912F0D4091300D5091310DC501B4017C
:101FC0000E940E299B01AC01C301B2010E94572758
:101FD0004B015C01288139814A815B81C701B601CF
:101FE0000E94562720910E0230910F02409110025C
:101FF000509111020E940E299B01AC01C501B40150
:102000000E9457274B015C01C882D982EA82FB8279
:102010006C897D89882777FD8095982F0E945A28A2
:1020200020E030E045EA53E40E940E2920E030E051
:102030004FE753E40E94BF27A50194010E94572750
:102040006B017C0120E030E045EA53EC0E94BB27A5
:1020500087FD11C020E030E045EA53E4C701B60136
:102060000E940A2918166CF4C12CD12C75EAE72EAF
:1020700073E4F72E06C0C12CD12C65EAE62E63EC82
:10208000F62E20E030E045EA53E4C701B6010E9495
:10209000BF2720E030E04FE753E40E940E290E9462
:1020A00027287D8B6C8BDF91CF91FF90EF90DF9095
:1020B000CF90BF90AF909F908F907F906F905F90E8
:1020C0004F900895FC0180EF96E09183808388EA29
:1020D0009EE09383828340E051EE60E070E04483B1
:1020E000558366837783DF01AE57BB4F1C921E96E4
:1020F00084E896E011969C938E9312961C92129708
:1021000018961C921E92179719961C9219971F9653
:102110001C921E921E9750961C92509754961C9299
:102120001E92539780E090E0DF01A80FB91FAC5ECC
:10213000BB4F1D921C92029682339105A9F780E055
:1021400090E0DF01A80FB91FAA5BBB4F1D921C9244
:10215000029682339105A9F780E090E0DF01A80F95
:10216000B91F54961C920196811522E09207B1F78F
:1021700080E090E0DF01A80FB91FAC5EBD4F1C925C
:102180000196811522E09207A9F70895AC0120E09D
:1021900030E0FA01EC5EFB4F0190F081E02DEF2B77
:1021A00091F4F901E65FFD4FEE0FFF1FE80FF91FF5
:1021B0007183608323583F4FFB01358324839783CA
:1021C000868381E008952F5F3F4F4E5F5F4F293137
:1021D0003105F9F680E00895CF92DF92EF92FF92F9
:1021E0000F931F93CF93DF93CDB7DEB760970FB6F2
:1021F000F894DEBF0FBECDBF8C010E94452228EEB1
:1022000033E040E050E00E94932969017A019B018C
:10221000AC01F80184859585A685B7858C0D9D1D3B
:10222000AE1DBF1D89879A87AB87BC8760E472E4C7
:102230008FE090E00E9471290089118922893389F9
:10224000600F711F821F931F6D877E878F87988B0A
:10225000BE01635F7F4FCE0109960E94CE2188E0C8
:10226000FE013996DE01119601900D928A95E1F7F3
:1022700029813A814B815C816D817E818F81988536
:1022800060960FB6F894DEBF0FBECDBFDF91CF9141
:102290001F910F91FF90EF90DF90CF9008950F93D3
:1022A0001F93CF93DF93CDB7DEB72A970FB6F8947D
:1022B000DEBF0FBECDBF8C0180E696E09A83898396
:1022C0001B821C821D821E821F82188619861A8616
:1022D000D801ED91FC910190F081E02DAE014F5FAE
:1022E0005F4F6AE070E0C80119950E944522F8012D
:1022F00060877187828793872A960FB6F894DEBF2E
:102300000FBECDBFDF91CF911F910F9108954F92D6
:102310005F926F927F928F929F92AF92BF92CF9275
:10232000DF92EF92FF920F931F93CF93DF93CDB77E
:10233000DEB72E970FB6F894DEBF0FBECDBF8C016F
:102340008CE696E09A8389831C821B828BEF95E052
:102350009E838D8398878F839A8789871B861C86A7
:102360001D861E86580182E3A80EB11C7801412CFF
:1023700082E0582E612C712C6701ACEECA1AABEFCB
:10238000DA0AD601ED91FC913097B9F184819581FB
:102390009C838B83808191819E838D8382819381B5
:1023A000DC01ED91FC910480F581E02D1995988771
:1023B0008F83D601ED91FC9182819381DC01ED91B7
:1023C000FC910680F781E02D19959A8789874B86C5
:1023D0005C866D867E86F80180819181F601A08100
:1023E000B18118966D917C911997DC01ED91FC916A
:1023F000AE014F5F5F4FC8011995B2E0EB0EF11CC3
:10240000EA14FB0409F0B8CF7801412CB2E05B2E4E
:10241000612C712C6701EAEBCE1AEBEFDE0AF601B4
:10242000A081B1811097E1F112968D919C91139743
:102430009C838B8314968D919C9115979E838D839D
:10244000ED91FC9111970480F581E02DCD01199556
:1024500098878F83D6018D919C91DC01ED91FC9141
:102460000680F781E02D19959A8789874B865C86CF
:102470006D867E86D801ED91FC9180809180F60179
:1024800080819181DC01ED91FC910280F381E02D4E
:102490001995AE014F5F5F4FBC01C801F40119955A
:1024A000F2E0EF0EF11CEA14FB0409F0B3CFF801DF
:1024B000EE57FB4F81E080832E960FB6F894DEBF77
:1024C0000FBECDBFDF91CF911F910F91FF90EF9085
:1024D000DF90CF90BF90AF909F908F907F906F9044
:1024E0005F904F9008958F929F92AF92BF92CF923C
:1024F000DF92EF92FF920F931F93CF93DF93CDB7AD
:10250000DEB72A970FB6F894DEBF0FBECDBF8C01A1
:102510005B0180E696E09A8389831B821C821D8280
:102520001E821F82188619861A860E9445226B0118
:102530007C01F80180859185A285B385C81AD90AE6
:10254000EA0AFB0AB501CE0101960E94030298EE49
:10255000892E93E0992EA12CB12CC701B601A501BB
:1025600094010E94932969017A019B01AC018B813E
:102570009C81AD81BE818C0D9D1DAE1DBF1D8B83C9
:102580009C83AD83BE8360E472E48FE090E00E94A0
:102590007129CF80D884E984FA84C60ED71EE81E3C
:1025A000F91ECF82D886E986FA860E944522CB8022
:1025B000DC80ED80FE80F1E0CF1AD108E108F1085F
:1025C000A50194010E94932949015A019B01AC0184
:1025D000C818D908EA08FB08F801C486D586E6863B
:1025E000F786CF80D884E984FA84F6E3DF1AF5E62B
:1025F000EF0AF4ECFF0A60E472E48FE090E00E94DE
:102600007129C61AD70AE80AF90AF801C08AD18ADC
:10261000E28AF38AB801605F7F4FC8010C960E947E
:10262000CE210E944522F801E957FB4F6083718358
:10263000828393832A960FB6F894DEBF0FBECDBF78
:10264000DF91CF911F910F91FF90EF90DF90CF908E
:10265000BF90AF909F908F9008952F923F924F928E
:102660005F926F927F928F929F92AF92BF92CF9222
:10267000DF92EF92FF920F931F93CF93DF93CDB72B
:10268000DEB760970FB6F894DEBF0FBECDBF4C012A
:102690000E9445226B017C01940129573B4F3E83E8
:1026A0002D83F90180819181A281B381A7019601D7
:1026B000281B390B4A0B5B0BDA01C901893F9A428F
:1026C000A105B10510F035971082A40148585B4F61
:1026D000588B4F87DA018D919C91892B79F0F40109
:1026E000E557FB4F80819181A281B3818C159D05B7
:1026F000AE05BF0518F4FA01118210823401F0E82A
:102700006F1AFBEF7F0A940124583B4F3A832983C9
:10271000A4014E575B4F58874F832C5E3F4F3C8739
:102720002B87435F5F4F5E874D87840106581B4FA1
:102730001601270154E1250E311C411C511C540186
:1027400084E1A80EB11C940122583B4F3C832B839B
:10275000A40145575B4F5A874987D40112968D9142
:102760009C911397DC01ED91FC910680F781E02D9F
:1027700019959C0197FD29C1F30180819181820FF8
:10278000931F91838083AF85B8894D915C914730C9
:102790005105E1F4EB81FC8180819181AC014F5FB7
:1027A0005F4F51834083F401E80FF91F248BD80158
:1027B0008D919C91119701978D939C93892B09F092
:1027C000BECF28E030E0EF85F88986C0411551057D
:1027D00019F52F3F310569F481E090E0AF85B889A4
:1027E0008D939C93E985FA852082318242825382BF
:1027F000B4CF0E9445226C197D098E099F0966306D
:1028000071058105910508F49ACFF401EE57FB4F4D
:1028100010828EEF9FEFFEC04130510591F42E3FA4
:10282000310519F482E090E02EC0EF85F88911821D
:102830001082AF81B8858C91811181CFC4012FDDC9
:102840008CCF4230510589F4F80131832083AB816C
:10285000BC811D921C9283E090E0EF85F889918302
:102860008083D3012D933C9378CF4330510581F47D
:10287000322F2227F80180819181820F931F91834B
:10288000808384E090E0AF85B8898D939C9365CF79
:102890004430510599F460E071E00E9480298F3F37
:1028A000910539F485E090E0EF85F8899183808384
:1028B00054CFAF85B8891D921C924FCF453051053A
:1028C00071F4E981FA813183208386E090E0AF855D
:1028D000B8898D939C93F301318320833ECF46309A
:1028E0005105D1F4322F2227A981BA818D919C9173
:1028F0001197820F931F8D939C9327E030E0EF8513
:10290000F88931832083D8018D919C91892B09F01E
:1029100016CF28E030E0E0CF4830510509F00FCF66
:10292000AF85B8891D921C9260E071E00E948029F9
:102930008F3F910509F003CFA981BA81ED91FC91F8
:102940003097A1F4C401ABDCC401E1DCF401ED5724
:10295000FB4FC082D182E282F382ED81FE81C08290
:10296000D182E282F3828FEF9FEF54C0EA30F1050B
:1029700021F4B501C401B7DDF0CEE630F10551F424
:10298000B5018B859C850E943E0781E0AD85BE85A3
:102990008C93E3CEEB30F10521F4EF81F8851082C2
:1029A000DCCEE154FE4FEE0FFF1FE80DF91D8081D4
:1029B0009181009709F4C3CEDC01ED91FC91019067
:1029C000F081E02DB5011995C8CEF401EE57FB4F0B
:1029D00080818823E9F084010D571B4FF801808125
:1029E0009181A281B381A7019601281B390B4A0B63
:1029F0005B0BDA01C901853C9940A105B10540F0A6
:102A0000C4014DDCD801CD92DD92ED92FC9213977A
:102A100080E090E060960FB6F894DEBF0FBECDBFA9
:102A2000DF91CF911F910F91FF90EF90DF90CF90AA
:102A3000BF90AF909F908F907F906F905F904F90DE
:102A40003F902F9008958F929F92AF92BF92CF9216
:102A5000DF92EF92FF92CF93DF936B017C01209185
:102A60006E0D30916F0D4091700D5091710D609110
:102A7000840D7091850D8091860D9091870D0E9437
:102A8000572720E030E040E05FE30E940E2920E07D
:102A900030E040E752E40E94BF272CED39ED47E3D8
:102AA0005FE30E940E294B015C01C6EBD7E087E58E
:102AB00098E092DB288339834A835B836C837D8330
:102AC0008E839F838092C2079092C307A092C4070F
:102AD000B092C5071092C6071092C7071092C80798
:102AE0001092C907C701B6010E94582820E030E0C3
:102AF0004AE754E40E94BF276093CA077093CB074C
:102B00008093CC079093CD076EEA77E084EA97E054
:102B10000E94E60C87E598E0DF91CF91FF90EF905F
:102B2000DF90CF90BF90AF909F908F9096CDCF9336
:102B3000DF9300D01F921F92CDB7DEB728E736E0B3
:102B40003A8329836B835D834C83DC01ED91FC9197
:102B50000190F081E02DAE014F5F5F4F67E070E0C4
:102B600019950F900F900F900F900F90DF91CF91CC
:102B70000895CF92DF92EF92FF920F931F93CF931E
:102B8000DF93FC0122813381C481D581422F532FF1
:102B90006C2F7D2F40931202509313026093140206
:102BA0007093150216810781F084E184D801C70172
:102BB0004B2F5A2F692F782F40930E0250930F02FC
:102BC0006093100270931102428553856485758568
:102BD0006A01C601A62FB72F80932E0D90932F0D5B
:102BE000A093300DB093310D7F936F935F934F930C
:102BF000EF92FF920F931F93DF93CF933F932F9307
:102C00008EE894E09F938F938CEF9CE09F938F933B
:102C10000E94272C8DB79EB740960FB6F8949EBFA2
:102C20000FBE8DBF4CEF5CE061E087E598E0DF917F
:102C3000CF911F910F91FF90EF90DF90CF9077CFC2
:102C4000CF92DF92EF92FF920F931F93CF93DF9378
:102C5000EC017B01643671053CF0FC01EE57FB4F43
:102C60008081882309F462C0DA01ED91FC91019022
:102C7000F081E02DBE01655E7D4FCA0119958C0182
:102C80006E01BCEECB1ABDEFDB0A2FEFF6012083FD
:102C90002EEF319620833196808331969083890F71
:102CA0008095319680833196E0823196F08285E07E
:102CB00090E020E030E0A801495F5F4F841795075E
:102CC00050F4FE01E80FF91FEC5EFD4F6081260F06
:102CD000311D0196F3CF085F1F4F4C0F5D1FFA01A6
:102CE000EC5EFD4F209520830130F2E01F07B0F429
:102CF0007601C7018C199D09801791076CF48A81B0
:102D00009B81D7016D917D01DC01ED91FC910190DA
:102D1000F081E02D1995EDCFC8010AC040EA54E0DA
:102D200063E0CE0104DF8FEF9FEF02C080E090E010
:102D3000DF91CF911F910F91FF90EF90DF90CF9097
:102D40000895CF92DF92EF92FF920F931F93CF934C
:102D5000DF93CDB7DEB764970FB6F894DEBF0FBE32
:102D6000CDBF61E088E00E941C2461E087E00E9402
:102D70001C2461E08AE00E941C2461E089E00E943A
:102D80001C2460E070E080E090E059D840915B083E
:102D900050915C0860915D0870915E0826E080911A
:102DA000590890915A080E9499251092D00C1092BF
:102DB000CF0C1092D20C1092D10C1092D60C109213
:102DC000D50C1092D40C1092D30C80E091EEA0E0C0
:102DD000B0E080935B0890935C08A0935D08B0938B
:102DE0005E08EDE9FCE080E090E021913191232B39
:102DF00081F4FC01EE0FFF1FE356F34F27E138E0AB
:102E0000318320838C599F4F90931A08809319081F
:102E100004C001968931910541F7EDE9FCE080E0BD
:102E200090E021913191232B81F4FC01EE0FFF1FE3
:102E3000E356F34F2FE238E0318320838C599F4FC4
:102E4000909332088093310804C00196893191052E
:102E500041F789ED94E090939B0780939A0764EA89
:102E600077E087E598E092D96EEC77E087E598E027
:102E70008DD960E877E087E598E088D987E598E024
:102E8000ABD920935C0730935D0740935E07509366
:102E90005F07609360077093610780936207909368
:102EA000630782E08093660780936B0780937207C5
:102EB000809379078CEE94E0909365078093640784
:102EC0008AE092E090936A078093690782E497E032
:102ED00090937807809377078AE397E09093710740
:102EE0008093700782E397E090937F0780937E073B
:102EF0006AE477E087E598E049D98091D90C81119F
:102F000004C087E598E0A9DBF8CF49EF54E061E021
:102F100087E598E00CDE49E155E061E087E598E05F
:102F200006DE4091CD0D5091CE0D61E087E598E031
:102F3000FEDD609106027091070280910802909177
:102F400009029E012F5F3F4F7901890124E04AE089
:102F50000E94EC29FF92EF9282E395E09F938F937A
:102F60006CEFC62E6CE0D62EDF92CF920E94272CFB
:102F7000A60161E087E598E0DADD60912E077091A7
:102F80002F07809130079091310724E04AE00E949A
:102F9000EC29FF92EF9286E595E09F938F93DF9265
:102FA000CF920E94272CA60161E087E598E0BFDD63
:102FB0008FED9DE057D765E070E080E090E00E94E3
:102FC00074220FB6F894DEBF0FBECDBF64960FB665
:102FD000F894DEBF0FBECDBFDF91CF911F910F914F
:102FE000FF90EF90DF90CF900895EF92FF920F93B4
:102FF0001F93CF93DF9365E775E08DEC9DE00E9412
:10300000332788EB9DE00E94F80C83EA9DE00E9444
:10301000F80C8EE89DE00E94F80C42E163E186E541
:103020009DE00E94BD0D42E063E08AE49DE00E94C5
:10303000BD0D87E598E046D88AEF96E0909330087A
:1030400080932F088CEC96E0909336088093350897
:1030500087E398E00E94F80C85E498E00E94F80C61
:1030600080E598E0909354088093530881E090E0C5
:10307000909356088093550821EA35E03093340840
:103080002093330826E037E0309318082093170880
:1030900028ED36E030931E0820931D0810921F087B
:1030A00010922008109221081092220810922308F2
:1030B00010922408109225081092260810922708D2
:1030C000109228081092290810922A0829EB35E15D
:1030D00030932C0820932B0890932E0880932D0872
:1030E00089EA95E090931C0880931B0888ED97E08F
:1030F0000E940A0D8DEA95E09093CF078093CE074A
:1031000088ED97E09093D1078093D0071092D7076E
:103110001092D607BEEAEB2EB7E0FB2E88EA96E0C7
:10312000F7019183808300E916E01093B1070093C3
:10313000B0071092B2071092B3071092B407109222
:10314000B5071092B6071092B7071092B807109201
:10315000B9071092BA071092BB071092BC071092E1
:10316000BD07CBEFD5E0D093BF07C093BE0780EC7F
:1031700097E00E94F80C85EB95E09093A50780936B
:10318000A407F092A707E092A6071092AD0710924D
:10319000AC07EAE8F7E084EB96E091838083109334
:1031A0008D0700938C0710928E0710928F07109254
:1031B0009007109291071092920710929307109225
:1031C0009407109295071092960710929707109205
:1031D000980710929907D0939B07C0939A07109273
:1031E0009C0710929D0710929E0710929F071092C5
:1031F000A0071092A1071092A2071092A30783EED6
:1032000094E09093810780938007F0938307E09385
:1032100082071092890710928807E4E5F7E080ECB6
:1032200096E091838083109357070093560710927E
:1032300058071092590710925A0710925B07109284
:103240005C0710925D0710925E0710925F07109264
:103250006007109261071092620710926307D09383
:103260006507C09364071092660710926A07109270
:10327000690710926B0710927107109270071092F5
:1032800072071092780710927707109279071092C0
:103290007F0710927E078DEB95E090934B0780930C
:1032A0004A07F0934D07E0934C0710925307109292
:1032B0005207209106023091070240910802509176
:1032C00009026BED7FE089EC90E40E94BF276093D8
:1032D0002E0770932F078093300790933107DF916B
:1032E000CF911F910F91FF90EF9008958DEC9DE08D
:1032F0000C94CC26CF93C62FBC018FED9DE0C5D595
:103300006C2F8FED9DE070D58FED9DE0CF912FC696
:103310001F93CF93DF931F92CDB7DEB7162FBC015B
:103320008FED9DE04983B1D5612F8FED9DE05CD598
:103330004981642F8FED9DE057D58FED9DE00F9073
:10334000DF91CF911F9113C640E261E08EE190E0E2
:10335000DFDF65E070E080E090E00E94742248E1E9
:1033600060E08EE190E0D4DF65E070E080E090E026
:103370000E94742241E062E08EE190E0C9DF65E0E6
:1033800070E080E090E00E94742281E008951F9335
:10339000CF93DF93EC01162FBC018FED9DE075D527
:1033A000612F8FED9DE020D58FED9DE0E0D564E1AC
:1033B00070E080E090E00E94742241E050E0BE01A5
:1033C0008FED9DE0D2D58FED9DE0BFD4DF91CF9101
:1033D0001F91089560E083E590E0D9DF853E19F5FF
:1033E00048E06DE283E590E093DF65E070E080E027
:1033F00090E00E94742249E061E383E590E088DF79
:1034000065E070E080E090E00E94742249E06CE2A8
:1034100083E590E07DDF65E070E080E090E00E9471
:10342000742281E0089580E0089560E088E690E0ED
:10343000AEDF8E77883671F540E86EE388E690E07F
:1034400067DF65E070E080E090E00E9474224BE16D
:1034500066E188E690E05CDF65E070E080E090E0A7
:103460000E94742243E165E188E690E051DF65E067
:1034700070E080E090E00E94742243E06EE388E612
:1034800090E046DF6AE070E080E090E00E94742205
:1034900081E0089580E008959DDF8093EA07C5DF0D
:1034A0008093EB0751DF8093EC078091EA0781114D
:1034B00006C04EEC55E063E087E598E038DB80918C
:1034C000EB07811106C047EE55E063E087E598E021
:1034D0002EDB8091EC07811106C04CEF55E063E0D4
:1034E00087E598E024DB109216020895CF93DF93CE
:1034F0001092CC0D62E383E590E0FCDE46E050E004
:1035000063E570E08FED9DE030D58FED9DE015D443
:10351000892B79F0C091CC0DD0E08FED9DE015D4D2
:10352000CA53D24F88838091CC0D8F5F8093CC0D8E
:10353000ECCF6091C70D70E0762F66278091C60DA5
:10354000682B882777FD8095982F0E945A282DECAC
:103550003CEC4CEC51E40E94BF276093BA0D709391
:10356000BB0D8093BC0D9093BD0D6091C90D70E0B3
:10357000762F66278091C80D682B882777FD809568
:10358000982F0E945A282DEC3CEC4CEC51E40E9400
:10359000BF276093BE0D7093BF0D8093C00D9093B5
:1035A000C10D6091CB0D70E0762F66278091CA0D1A
:1035B000682B882777FD8095982F0E945A282DEC3C
:1035C0003CEC4CEC51E40E94BF276093C20D709319
:1035D000C30D8093C40D9093C50DDF91CF910895D5
:1035E000CF93DF931092B70D6DE188E690E082DE15
:1035F00046E050E068E670E08FED9DE0B6D48FEDD8
:103600009DE09BD3892B79F0C091B70DD0E08FED71
:103610009DE09BD3CF54D24F88838091B70D8F5FAD
:103620008093B70DECCF6091B10D70E0762F6627D7
:103630008091B20D682B882777FD8095982F0E9486
:103640005A2829ED33E24FE95AE30E940E2960938C
:10365000A50D7093A60D8093A70D9093A80D609172
:10366000B30D70E0762F66278091B40D682B882704
:1036700077FD8095982F0E945A2829ED33E24FE973
:103680005AE30E940E296093A90D7093AA0D8093AE
:10369000AB0D9093AC0D6091B50D70E0762F662761
:1036A0008091B60D682B882777FD8095982F0E9412
:1036B0005A2829ED33E24FE95AE30E940E2960931C
:1036C000AD0D7093AE0D8093AF0D9093B00DDF9163
:1036D000CF910895CF93DF931092A20D63E08EE116
:1036E00090E008DE46E050E06EE170E08FED9DE096
:1036F0003CD48FED9DE021D3892B79F0C091A20DB0
:10370000D0E08FED9DE021D3C456D24F88838091C5
:10371000A20D8F5F8093A20DECCF60919C0D70E0A5
:10372000762F662780919D0D682B882777FD8095E1
:10373000982F0E945A282FE135E84BE65FE30E945C
:103740000E296093900D7093910D8093920D90933C
:10375000930D6091A00D70E0762F66278091A10DEA
:10376000682B882777FD8095982F0E945A282FE193
:1037700035E84BE65FE30E940E296093940D709349
:10378000950D8093960D9093970D60919E0D70E02E
:10379000762F662780919F0D682B882777FD80956F
:1037A000982F0E945A282FE135E84BE65FE30E94EC
:1037B0000E296093980D7093990D80939A0D9093B4
:1037C0009B0D41E062E08EE190E0DF91CF91A0CDD2
:1037D00087E598E00E94EC102093E0073093E10722
:1037E0004093E2075093E3076093E4077093E50783
:1037F0008093E6079093E70784E196E09093E907CA
:103800008093E8078091EA07882389F16FDE809131
:10381000BA0D9091BB0DA091BC0DB091BD0D8093E0
:10382000EF079093F007A093F107B093F207809110
:10383000BE0D9091BF0DA091C00DB091C10D8093B0
:10384000F3079093F407A093F507B093F6078091E0
:10385000C20D9091C30DA091C40DB091C50D809380
:10386000F7079093F807A093F907B093FA078091B0
:10387000EB07882389F1B4DE8091A50D9091A60D08
:10388000A091A70DB091A80D8093FD079093FE071E
:10389000A093FF07B09300088091A90D9091AA0D05
:1038A000A091AB0DB091AC0D8093010890930208EC
:1038B000A0930308B09304088091AD0D9091AE0DD4
:1038C000A091AF0DB091B00D8093050890930608BC
:1038D000A0930708B09308088091EC07882389F12A
:1038E000F9DE8091900D9091910DA091920DB09183
:1038F000930D80930B0890930C08A0930D08B09340
:103900000E088091940D9091950DA091960DB09117
:10391000970D80930F0890931008A0931108B0930F
:1039200012088091980D9091990DA0919A0DB091E7
:103930009B0D8093130890931408A0931508B093DF
:10394000160868ED77E08EEC97E00C94E60C4F9249
:103950005F926F927F928F929F92AF92BF92CF921F
:10396000DF92EF92FF920F931F93CF93DF9300D0DC
:103970001F92CDB7DEB789D5C0903E0DD0903F0DD8
:10398000E090400DF090410D6C197D098E099F0962
:103990006436710581059105B8F077D5C0903E0D6C
:1039A000D0903F0DE090400DF090410D6C197D09D5
:1039B0008E099F0948D869D560933E0D70933F0DDD
:1039C0008093400D9093410D60D5C090420DD090F2
:1039D000430DE090440DF090450D6C197D098E0962
:1039E0009F09643671058105910508F442C04DD5E3
:1039F0006B017C018091420D9091430DA091440D8B
:103A0000B091450DC81AD90AEA0AFB0A86E59DE07D
:103A10000E94750DAB01BC019701860188E79DE00E
:103A20000E944B0F8AE49DE00E94750DAB01BC0122
:103A30009701860182E69DE00E944B0F88E79DE09A
:103A40000E94A10F82E69DE00E94A10F6091760D79
:103A50007091770D80918C0D90918D0D0E941F0FAC
:103A600014D56093420D7093430D8093440D909351
:103A7000450D0BD5C090460DD090470DE090480DF8
:103A8000F090490D6C197D098E099F0960397140CC
:103A900081059105F0F01092880D1092890D109219
:103AA0008A0D10928B0D1092720D1092730D109260
:103AB000740D1092750D1092770D1092760D109274
:103AC0008D0D10928C0D60E070E080E090E00E941F
:103AD0001F0FDBD4C0903A0DD0903B0DE0903C0D11
:103AE000F0903D0D6C197D098E099F0964367105B2
:103AF0008105910580F080911602882311F0CCDCBD
:103B000001C066DEC2D460933A0D70933B0D809382
:103B10003C0D90933D0DB9D4C090360DD090370D2B
:103B2000E090380DF090390D6C197D098E099F09D0
:103B30006436710581059105D8F186E59DE00E9406
:103B4000750D60939C0770939D0780939E079093DB
:103B50009F078AE49DE00E94750D6093A007709313
:103B6000A1078093A2079093A30787E598E00E949E
:103B7000EC1020939207309393074093940750934F
:103B80009507609396077093970780939807909393
:103B900099076AE877E080E897E00E94E60C75D420
:103BA0006093360D7093370D8093380D9093390DD7
:103BB0006CD4C090320DD090330DE090340DF09065
:103BC000350D6C197D098E099F09643671058105D3
:103BD000910508F49AC086E59DE00E94750D2B01C1
:103BE0003C018AE49DE00E94750D4B015C01C09090
:103BF0000602D0900702E0900802F09009020091BE
:103C0000700710917107B201882777FD8095982F72
:103C10000E945A2869837A838B839C83C301B201F3
:103C20000E945A28A70196010E94BF270E942728B8
:103C3000882777FD8095982F0E945A28A701960122
:103C40000E940E299B01AC0169817A818B819C8144
:103C50000E9456270E942728882777FD8095982F55
:103C60000E945A289B01AC0160912E0770912F078A
:103C700080913007909131070E940E29F8016083EE
:103C8000718382839383B401882777FD8095982F71
:103C90000E945A282B013C01C501B4010E945A28F8
:103CA000A70196010E94BF270E942728882777FD39
:103CB0008095982F0E945A28A70196010E940E29EC
:103CC0009B01AC01C301B2010E9456270E94272824
:103CD000882777FD8095982F0E945A289B01AC0178
:103CE00060912E0770912F078091300790913107D6
:103CF0000E940E29F801648375838683978364E5A7
:103D000077E08AE497E00E94E60C87E598E00F9060
:103D10000F900F900F90DF91CF911F910F91FF9017
:103D2000EF90DF90CF90BF90AF909F908F907F905B
:103D30006F905F904F900C942D1380910F0E90E038
:103D40002091100E821B910908952091100E8091F0
:103D50000F0E281750F4E22FF0E0EF5EF14F808154
:103D600090E02F5F2093100E08958FEF9FEF08953E
:103D7000E091100E80910F0EE81730F4F0E0EF5E46
:103D8000F14F808190E008958FEF9FEF089508959F
:103D9000CF92DF92EF92FF920F931F93CF93DF9317
:103DA0007C01CB018A012091EB0D222389F0EB01EC
:103DB0006B01C40ED51ECC15DD0561F06991D701EC
:103DC000ED91FC910190F081E02DC7011995F3CFA1
:103DD000642F8DD1C801DF91CF911F910F91FF907A
:103DE000EF90DF90CF900895CF93DF931F92CDB7E0
:103DF000DEB769832091EB0D2223D1F02091EC0DE9
:103E0000203240F021E030E0FC013383228380E067
:103E100090E014C08091ED0DE82FF0E0E251F24FF8
:103E2000998190838F5F8093ED0D8093EC0D04C09A
:103E300061E0CE0101965BD181E090E00F90DF91CF
:103E4000CF910895FC011382128248EE53E060E0A6
:103E500070E0448355836683778382E197E09183A2
:103E6000808308951092100E10920F0E1092ED0D97
:103E70001092EC0D81C081E08093EB0D60930E0EEB
:103E80001092ED0D1092EC0D0895F5CF0F93062FC3
:103E900021E04091EC0D6EEE7DE080910E0ED0D0D1
:103EA0001092ED0D1092EC0D1092EB0D0F91089504
:103EB0008F929F92AF92BF92CF92DF92EF92FF923A
:103EC0000F931F93CF93DF93EC01F62ED42E48016E
:103ED0005901EE2009F1CFDF1E2D143008F013E058
:103EE0001150B8F0E881F98128E0129FB001112447
:103EF000A501940104C056954795379527956A9575
:103F0000D2F7CA01B9010190F081E02DCE011995D7
:103F1000E7CF60E0CE01BADF4D2D413208F040E23C
:103F20002C2D61E17EE08F2D43D01092100E8093F6
:103F30000F0EDF91CF911F910F91FF90EF90DF90C7
:103F4000CF90BF90AF909F908F900895CF92EF92B7
:103F50000F931F93C22EE12C00E010E09801A8DF20
:103F60001F910F91EF90CF90089521E0EFCF61E086
:103F70008DCF8FED9DE066CF10929E0E81E08093F5
:103F80009C0E10929B0E61E084E18FD461E085E18C
:103F90008CD4E9EBF0E080818E7F808380818D7FFF
:103FA000808388E48093B80085E48093BC00089502
:103FB000413208F043C090919E0E9111FCCF91E0E8
:103FC00090939E0E20939C0E2FEF2093310E109213
:103FD000760E240F2093750E90939D0E90919D0E5A
:103FE000880F892B80939D0E80919B0E813061F408
:103FF00010929B0E80919D0E8093BB008091BC001F
:1040000083FDF8CF85EC01C085EE8093BC008091E4
:104010009E0E8130E1F38091760E841710F440916A
:10402000760E27E73EE0FB01D9018A2F821B841719
:1040300018F48D918193F9CF842F089580E008952D
:104040000F93413208F04AC090919E0E9111FCCF1F
:1040500092E090939E0E00939C0E9FEF9093310EF2
:104060001092760E4093750EFB0167E77EE0DB0150
:104070009A2F961B941718F491919D93F9CF109253
:104080009D0E90919D0E880F892B80939D0E80919F
:104090009B0E813061F410929B0E80919D0E809357
:1040A000BB008091BC0083FDF8CF85EC01C085EE9C
:1040B0008093BC00222321F080919E0E8230E1F398
:1040C0008091310E8F3F61F08091310E803251F03E
:1040D0008091310E803341F483E007C081E005C058
:1040E00080E003C082E001C084E00F910895613256
:1040F00098F420919E0E243089F46093530EFC01B5
:1041000085E59EE0DC012A2F281B261718F4219153
:104110002D93F9CF80E0089581E0089582E008951D
:1041200085ED8093BC008091BC0084FDFCCF109293
:104130009E0E089585EC8093BC0010929E0E08950B
:104140001F920F920FB60F9211240BB60F922F935E
:104150003F934F935F936F937F938F939F93AF930F
:10416000BF93EF93FF938091B900887F803609F465
:104170009DC070F5883209F45CC090F4803109F478
:1041800055C038F4882309F4F3C0883009F44EC0D0
:10419000F2C0883109F44DC0803209F45EC0EBC032
:1041A000803409F469C050F4803309F456C0883370
:1041B00009F0E1C08093310EBDDFDDC0803509F428
:1041C0004FC0883509F45DC0883409F0D4C0D2C02E
:1041D000883909F4C3C0A8F4883709F467C038F4F3
:1041E000883609F463C0803709F460C0C4C08838D9
:1041F00009F4B4C0803909F45FC0803809F0BBC04D
:104200005BC0803B09F482C038F4803A09F466C090
:10421000883A09F47BC0AFC0803C09F4A3C0883C55
:1042200009F4A0C0883B09F486C0A5C080919D0E0A
:1042300010C09091760E8091750E981770F5E091F0
:10424000760E81E08E0F8093760EF0E0E958F14F04
:1042500080818093BB0085EC82C08093310E8AC040
:10426000E091760E81E08E0F8093760E8091BB00F8
:10427000F0E0E958F14F80839091760E8091750EB1
:104280006AC0E091760E81E08E0F8093760E809169
:10429000BB00F0E0E958F14F808380919C0E8111C2
:1042A00069C081E080939B0E84EA5DC083E08093C7
:1042B0009E0E1092320ECFCF8091320E803208F0D7
:1042C0004DC0E091320E81E08E0F8093320E8091CE
:1042D000BB00F0E0ED5CF14F8083BDCF2BDF809120
:1042E000320E803230F4E091320EF0E0ED5CF14FAE
:1042F00010826091320E70E0E091970EF091980E6E
:1043000083E39EE019951092320E35C084E08093CD
:104310009E0E1092540E1092530EE091990EF09151
:104320009A0E19958091530E811105C081E08093FA
:10433000530E1092550EE091540E81E08E0F809333
:10434000540EF0E0EB5AF14F80818093BB009091C6
:10435000540E8091530E981708F47DCF85E8809312
:10436000BC0009C085EC8093BC0010929E0E03C077
:104370001092310ED5DEFF91EF91BF91AF919F91D9
:104380008F917F916F915F914F913F912F910F90FE
:104390000BBE0F900FBE0F901F901895CF92DF921B
:1043A000EF92FF920F931F93CF93DF938C01EB015A
:1043B000688179818A819B8120E03AEC4AE95BE35C
:1043C000B2D7F801C080D180E280F380C20ED31E44
:1043D000E41EF51EC082D182E282F3826883798373
:1043E0008A839B83DF91CF911F910F91FF90EF9074
:1043F000DF90CF9008951F920F920FB60F92112465
:104400002F933F938F939F93AF93BF938091A00E71
:104410009091A10EA091A20EB091A30E30919F0E8B
:1044200023E0230F2D3720F40196A11DB11D05C0F7
:1044300026E8230F0296A11DB11D20939F0E8093A5
:10444000A00E9093A10EA093A20EB093A30E809104
:10445000A40E9091A50EA091A60EB091A70E019664
:10446000A11DB11D8093A40E9093A50EA093A60E3E
:10447000B093A70EBF91AF919F918F913F912F91D4
:104480000F900FBE0F901F9018952FB7F894609162
:10449000A00E7091A10E8091A20E9091A30E2FBF3D
:1044A00008953FB7F8948091A40E9091A50EA09125
:1044B000A60EB091A70E26B5A89B05C02F3F19F0F8
:1044C0000196A11DB11D3FBF6627782F892F9A2F16
:1044D000620F711D811D911D42E0660F771F881FBD
:1044E000991F4A95D1F70895CF92DF92EF92FF92EC
:1044F000CF93DF936B017C01D4DFEB01C114D104B6
:10450000E104F10479F0D1D4CCDF6C1B7D0B683E63
:104510007340A0F381E0C81AD108E108F108C8513E
:10452000DC4FECCFDF91CF91FF90EF90DF90CF90F9
:1045300008958230910538F0880F991F880F991FD0
:1045400005970197F1F70895789484B5826084BD4A
:1045500084B5816084BD85B5826085BD85B5816087
:1045600085BDEEE6F0E0808181608083E1E8F0E0E7
:104570001082808182608083808181608083E0E816
:10458000F0E0808181608083E1EBF0E080818460F5
:104590008083E0EBF0E0808181608083E1E9F0E0FE
:1045A000808182608083808181608083E0E9F0E0A7
:1045B000808181608083E1EAF0E080818260808395
:1045C000808181608083E0EAF0E080818160808387
:1045D000E1E2F1E08081826080838081816080837C
:1045E000E0E2F1E0808181608083EAE7F0E08081B1
:1045F0008460808380818260808380818160808309
:104600008081806880831092C10008951F93CF93AA
:10461000DF93182FEB0161E00FD1209711F460E0D8
:1046200004C0CF3FD10531F461E0812FDF91CF91FC
:104630001F913BC1E12FF0E0E45CFE4F449150E05C
:10464000FA013197E231F10508F09AC0E658FF4FC0
:104650008CC684B5806884BDC7BD97C084B58062B0
:1046600084BDC8BD92C08091800080688093800026
:10467000D0938900C093880088C0809180008062B8
:1046800080938000D0938B00C0938A007EC080917D
:104690008000886080938000D0938D00C0938C0050
:1046A00074C08091B00080688093B000C093B30064
:1046B0006CC08091B00080628093B000C093B40061
:1046C00064C080919000806880939000D09399009E
:1046D000C09398005AC080919000806280939000AF
:1046E000D0939B00C0939A0050C080919000886046
:1046F00080939000D0939D00C0939C0046C0809111
:10470000A00080688093A0008091A0008F7B8093A0
:10471000A000D093A900C093A80037C08091A0004A
:1047200080628093A000D093AB00C093AA002DC0FC
:104730008091A00088608093A000D093AD00C093CA
:10474000AC0023C080912001806880932001D09329
:104750002901C093280119C08091200180628093B3
:104760002001D0932B01C0932A010FC0809120011A
:10477000886080932001D0932D01C0932C0105C047
:10478000C038D1050CF050CF4ACFDF91CF911F91A7
:10479000089590E0FC013197E231F10508F04BC03B
:1047A000E457FF4FE2C5809180008F7703C080916E
:1047B00080008F7D80938000089580918000877FA6
:1047C000F9CF84B58F7702C084B58F7D84BD0895FD
:1047D0008091B0008F7703C08091B0008F7D80936F
:1047E000B0000895809190008F7707C0809190006D
:1047F0008F7D03C080919000877F80939000089503
:104800008091A0008F7707C08091A0008F7D03C0AA
:104810008091A000877F8093A0000895809120015F
:104820008F7707C0809120018F7D03C08091200188
:10483000877F809320010895CF93DF9390E0FC0160
:10484000EE57FE4F2491FC01E853FE4F84918823DC
:1048500049F190E0880F991FFC01EE5BFD4FA59197
:10486000B491885D9D4FFC01C591D4919FB76111B2
:1048700008C0F8948C91209582238C9388818223A0
:104880000AC0623051F4F8948C91322F3095832312
:104890008C938881822B888304C0F8948C91822B1E
:1048A0008C939FBFDF91CF9108950F931F93CF9368
:1048B000DF931F92CDB7DEB7282F30E0F901E45C1B
:1048C000FE4F8491F901EE57FE4F1491F901E85320
:1048D000FE4F04910023C1F0882319F0698359DF4A
:1048E0006981E02FF0E0EE0FFF1FE85DFD4FA5911D
:1048F000B4919FB7F8948C91611103C010958123F6
:1049000001C0812B8C939FBF0F90DF91CF911F919E
:104910000F910895FC01818D228D90E0805C9F4F66
:10492000821B91098F7399270895FC01918D828DC7
:10493000981731F0828DE80FF11D858D90E0089574
:104940008FEF9FEF0895FC01918D828D981761F094
:10495000828DDF01A80FB11D5D968C91928D9F5FB6
:104960009F73928F90E008958FEF9FEF089588E5F1
:1049700096E2892B39F080E090E0892B19F098D1EC
:10498000811125C080E090E0892B41F080E090E02B
:10499000892B21F00E94000081111CC080E090E072
:1049A000892B41F080E090E0892B21F00E940000EB
:1049B000811113C080E090E0892BA1F080E090E0AD
:1049C000892B81F00E94000081110AC008950E9485
:1049D0000000D8CF0E940000E1CF0E940000EACF83
:1049E0000C9400000895FC01848DDF01A80FB11D17
:1049F000A35ABF4F2C91848D90E001968F73992715
:104A0000848FA689B7892C93A089B1898C91806401
:104A10008C93938D848D981306C00288F389E02DC2
:104A200080818F7D80830895CF93DF93EC01888D03
:104A30008823C1F0EA89FB89808185FD05C0A889AA
:104A4000B9898C9186FD0EC00FB607FCF5CF808129
:104A500085FFF2CFA889B9898C9185FFEDCFCE0172
:104A6000C2DFE8CFDF91CF910895CF92DF92FF921E
:104A70000F931F93CF93DF931F92CDB7DEB76C01D7
:104A800081E0D60158968C9358975B969C915B97E2
:104A90005C968C915C97981307C05096ED91FC91B1
:104AA0005197808185FD2DC0F601038D10E00F5FC9
:104AB0001F4F0F731127F02EF601848DF81210C0CE
:104AC0000FB607FCF9CFD6015096ED91FC915197A6
:104AD000808185FFF1CFC601698385DF6981ECCFD5
:104AE000838DE80FF11DE35AFF4F6083D6015B967B
:104AF0000C935B975296ED91FC9153978081806265
:104B00000CC0D6015696ED91FC9157976083509654
:104B1000ED91FC91519780818064808381E090E0E9
:104B20000F90DF91CF911F910F91FF90DF90CF9069
:104B30000895BF92CF92DF92EF92FF92CF93DF93CF
:104B4000EC016A017B01B22EE889F98982E0808359
:104B5000411581EE58076105710599F060E079E033
:104B60008DE390E0A7019601DED321503109410980
:104B700051095695479537952795211580E13807B6
:104B800090F0E889F989108260E874E88EE190E09D
:104B9000A7019601C8D32150310941095109569501
:104BA000479537952795EC85FD853083EE85FF8504
:104BB0002083188EEC89FD89B082EA89FB89808187
:104BC00080618083EA89FB89808188608083EA89AB
:104BD000FB89808180688083EA89FB8980818F7D61
:104BE0008083DF91CF91FF90EF90DF90CF90BF90C7
:104BF00008951F920F920FB60F9211240BB60F92C9
:104C00002F938F939F93EF93FF93E091B80EF091C2
:104C1000B90E8081E091BE0EF091BF0E82FD12C0F0
:104C200090818091C10E8F5F8F732091C20E821789
:104C300051F0E091C10EF0E0E855F14F958F80936F
:104C4000C10E01C08081FF91EF919F918F912F91B3
:104C50000F900BBE0F900FBE0F901F9018951F92D4
:104C60000F920FB60F9211240BB60F922F933F9312
:104C70004F935F936F937F938F939F93AF93BF9364
:104C8000EF93FF9388EA9EE0AEDEFF91EF91BF9134
:104C9000AF919F918F917F916F915F914F913F91D4
:104CA0002F910F900BBE0F900FBE0F901F90189575
:104CB00088EA9EE02FDE21E0892B09F420E0822F94
:104CC00008951092AB0E1092AA0E88EE93E0A0E029
:104CD000B0E08093AC0E9093AD0EA093AE0EB09367
:104CE000AF0E82E297E09093A90E8093A80E85EC18
:104CF00090E09093B50E8093B40E84EC90E0909386
:104D0000B70E8093B60E80EC90E09093B90E80932E
:104D1000B80E81EC90E09093BB0E8093BA0E82ECBB
:104D200090E09093BD0E8093BC0E86EC90E0909343
:104D3000BF0E8093BE0E1092C10E1092C20E109242
:104D4000C30E1092C40E0895CF92DF92EF92FF929D
:104D50000F931F93CF93DF937C016A01EB0100E077
:104D600010E00C151D0571F06991D701ED91FC91D2
:104D70000190F081E02DC7011995892B19F00F5F83
:104D80001F4FEFCFC801DF91CF911F910F91FF907F
:104D9000EF90DF90CF900895FC0180819181D4C382
:104DA000CF93DF93EC0188819981009709F0CCD3F0
:104DB000198218821D821C821B821A82DF91CF9178
:104DC00008950F931F93CF93DF93EC018B016F5FD7
:104DD0007F4F8881998147D4009731F099838883E8
:104DE0001B830A8381E001C080E0DF91CF911F9196
:104DF0000F910895CF93DF93EC0188819981892BDE
:104E000029F08A819B818617970758F4CE01D9DF54
:104E1000882341F08C819D81892B19F4E881F981E7
:104E2000108281E0DF91CF910895EF92FF920F936E
:104E30001F93CF93DF93EC017B018A01BA01DADF84
:104E4000811103C0CE01ACDF06C01D830C83B70106
:104E500088819981F5D4CE01DF91CF911F910F9177
:104E6000FF90EF900895FC0111821082138212824C
:104E7000158214826115710551F0FB01019000202B
:104E8000E9F7AF0141505109461B570BCECF0895AA
:104E900008955ADBFDDF0E94A116C7EBD4E20E9401
:104EA000A71C2097E1F363DDFACF08955058BB2784
:104EB000AA270ED075C166D130F06BD120F031F445
:104EC0009F3F11F41EF45BC10EF4E095E7FB51C166
:104ED000E92F77D180F3BA17620773078407950724
:104EE00018F071F49EF58FC10EF4E0950B2EBA2FD9
:104EF000A02D0B01B90190010C01CA01A0011124E0
:104F0000FF27591B99F0593F50F4503E68F11A168B
:104F1000F040A22F232F342F4427585FF3CF46951C
:104F200037952795A795F0405395C9F77EF41F163E
:104F3000BA0B620B730B840BBAF09150A1F0FF0F08
:104F4000BB1F661F771F881FC2F70EC0BA0F621FF4
:104F5000731F841F48F4879577956795B795F795E4
:104F60009E3F08F0B3CF9395880F08F09927EE0F76
:104F7000979587950895D9D008F481E008950CD0CD
:104F80000FC107D140F0FED030F021F45F3F19F09F
:104F9000F0C0511139C1F3C014D198F39923C9F36A
:104FA0005523B1F3951B550BBB27AA27621773072F
:104FB000840738F09F5F5F4F220F331F441FAA1FE3
:104FC000A9F333D00E2E3AF0E0E830D091505040A3
:104FD000E695001CCAF729D0FE2F27D0660F771F51
:104FE000881FBB1F261737074807AB07B0E809F033
:104FF000BB0B802DBF01FF2793585F4F2AF09E3FC8
:10500000510568F0B6C000C15F3FECF3983EDCF399
:10501000869577956795B795F7959F5FC9F7880F40
:10502000911D9695879597F90895E1E0660F771F92
:10503000881FBB1F621773078407BA0720F0621B23
:10504000730B840BBA0BEE1F88F7E095089504D01C
:105050006894B111D9C00895BCD088F09F5790F0E2
:10506000B92F9927B751A0F0D1F0660F771F881F8D
:10507000991F1AF0BA95C9F712C0B13081F0C3D0A8
:10508000B1E00895C0C0672F782F8827B85F39F046
:10509000B93FCCF3869577956795B395D9F73EF4EC
:1050A00090958095709561957F4F8F4F9F4F089594
:1050B000E89409C097FB3EF49095809570956195B2
:1050C0007F4F8F4F9F4F9923A9F0F92F96E9BB2768
:1050D0009395F695879577956795B795F111F8CFE4
:1050E000FAF4BB0F11F460FF1BC06F5F7F4F8F4F4F
:1050F0009F4F16C0882311F096E911C0772321F045
:105100009EE8872F762F05C0662371F096E8862FDC
:1051100070E060E02AF09A95660F771F881FDAF733
:10512000880F9695879597F90895990F0008550F60
:10513000AA0BE0E8FEEF16161706E807F907C0F01D
:1051400012161306E407F50798F0621B730B840B25
:10515000950B39F40A2661F0232B242B252B21F4FF
:1051600008950A2609F4A140A6958FEF811D811D9F
:10517000089597F99F6780E870E060E008959FEFD9
:1051800080EC089500240A941616170618060906DE
:10519000089500240A9412161306140605060895AD
:1051A000092E0394000C11F4882352F0BB0F40F435
:1051B000BF2B11F460FF04C06F5F7F4F8F4F9F4F75
:1051C000089557FD9058440F551F59F05F3F71F0F7
:1051D0004795880F97FB991F61F09F3F79F087955E
:1051E0000895121613061406551FF2CF4695F1DFE7
:1051F00008C0161617061806991FF1CF8695710577
:10520000610508940895E894BB2766277727CB01AA
:1052100097F908958ADF08F48FEF08950BD0C0CF77
:10522000B1DF28F0B6DF18F0952309F0A2CFA7CFA1
:105230001124EACFC6DFA0F3959FD1F3950F50E07C
:10524000551F629FF001729FBB27F00DB11D639F38
:10525000AA27F00DB11DAA1F649F6627B00DA11DDE
:10526000661F829F2227B00DA11D621F739FB00D84
:10527000A11D621F839FA00D611D221F749F3327F4
:10528000A00D611D231F849F600D211D822F762F8D
:105290006A2F11249F5750408AF0E1F088234AF08A
:1052A000EE0FFF1FBB1F661F771F881F91505040D6
:1052B000A9F79E3F510570F05CCFA6CF5F3FECF39E
:1052C000983EDCF3869577956795B795F795E795C2
:1052D0009F5FC1F7FE2B880F911D9695879597F9D3
:1052E0000895DB018F939F9346D0BF91AF91A29F0A
:1052F000800D911DA39F900DB29F900D11240895D4
:1053000097FB072E16F4009406D077FD08D041D005
:1053100007FC05D03EF4909581959F4F08957095B8
:1053200061957F4F0895A1E21A2EAA1BBB1BFD01B8
:105330000DC0AA1FBB1FEE1FFF1FA217B307E40774
:10534000F50720F0A21BB30BE40BF50B661F771FCC
:10535000881F991F1A9469F76095709580959095AC
:105360009B01AC01BD01CF010895EE0FFF1F059019
:10537000F491E02D199421D0A59F900DB49F900D2C
:10538000A49F800D911D112408950790F691E02DA2
:105390001994AA1BBB1B51E107C0AA1FBB1FA6176C
:1053A000B70710F0A61BB70B881F991F5A95A9F7CE
:1053B00080959095BC01CD010895A29FB001B39F47
:1053C000C001A39F700D811D1124911DB29F700D0E
:1053D000811D1124911D0895EF920F931F93CF9378
:1053E000DF93E80147FF02C034E101C034E0E42F5D
:1053F000FF27E7FDF095F7FF03C0F195E195F1096F
:10540000E32E022F2E2FAE013ED4CE01DF91CF919D
:105410001F910F91EF900895CF93DF938230910504
:1054200010F482E090E0E091470FF091480F20E007
:1054300030E0A0E0B0E0309739F140815181481769
:105440005907B8F04817590771F482819381109772
:1054500029F013969C938E9312972CC09093480F2B
:105460008093470F27C02115310531F042175307AC
:1054700018F0A901DB0101C0EF019A01BD01DF01B4
:105480000280F381E02DD7CF21153105F9F0281BDB
:10549000390B2430310580F48A819B8161157105B7
:1054A00021F0FB019383828304C09093480F809383
:1054B000470FFE01329644C0FE01E20FF31F8193B5
:1054C000919322503109398328833AC02091450FA6
:1054D0003091460F232B41F42091020230910302B8
:1054E0003093460F2093450F209100023091010226
:1054F0002115310541F42DB73EB74091040250917A
:105500000502241B350BE091450FF091460FE21781
:10551000F307A0F42E1B3F0B2817390778F0AC01D6
:105520004E5F5F4F2417350748F04E0F5F1F5093B3
:10553000460F4093450F8193919302C0E0E0F0E065
:10554000CF01DF91CF910895CF93DF93009709F4B6
:1055500087C0FC01329713821282C091470FD0910D
:10556000480F209781F420813181280F391F8091C5
:10557000450F9091460F8217930779F5F093460FE8
:10558000E093450F6DC0DE0120E030E0AE17BF07AD
:1055900050F412964D915C9113979D014115510560
:1055A00009F1DA01F3CFB383A28340815181840FE3
:1055B000951F8A179B0771F48D919C911197840F09
:1055C000951F02969183808312968D919C911397DB
:1055D000938382832115310529F4F093480FE093DA
:1055E000470F3EC0D9011396FC93EE9312974D914D
:1055F0005D91A40FB51FEA17FB0779F480819181B3
:10560000840F951F0296D90111969C938E938281E7
:10561000938113969C938E931297E0E0F0E08A8139
:105620009B81009719F0FE01EC01F9CFCE010296A3
:1056300028813981820F931F2091450F3091460FA9
:105640002817390769F4309729F41092480F1092FF
:10565000470F02C013821282D093460FC093450FAA
:10566000DF91CF9108956F927F928F929F92AF9228
:10567000BF92CF92DF92EF92FF920F931F93CF933F
:10568000DF93EC01CB01209779F4DF91CF911F914B
:105690000F91FF90EF90DF90CF90BF90AF909F90D1
:1056A0008F907F906F90B8CEFE01E60FF71F9E019E
:1056B00022503109E217F30708F4A8C0D9010D916F
:1056C0001C91119706171707B0F00530110508F463
:1056D0009BC0A801445051094617570708F494C0CD
:1056E00002501109061B170B019311936D937C93C4
:1056F000CF012ADF89C05B01A01AB10A4E01800EDA
:10570000911EA091470FB091480F612C712C60E061
:1057100070E0109709F449C0A815B905C9F5ED90D6
:10572000FC901197670142E0C40ED11CCA14DB043F
:1057300078F147018A189B08640142E0C40ED11C2D
:105740001296BC9012971396AC91B5E0CB16D1048B
:1057500040F0B282A38391828082D9018D939C9381
:1057600009C00E5F1F4F0E0D1F1DF901118300832D
:10577000EB2DFA2F6115710531F0DB011396FC93C7
:10578000EE93129741C0F093480FE093470F3CC04F
:105790006D917C9111976616770608F43B01BD0167
:1057A00012960D90BC91A02DB4CF6091450F7091D1
:1057B000460F68157905E9F468167906D0F440912A
:1057C0000002509101024115510541F44DB75EB7F9
:1057D0006091040270910502461B570BE417F50710
:1057E000A8F4F093460FE093450FF901918380836D
:1057F0000BC012DE7C01009749F0A801BE0117D052
:10580000CE01A2DEC70104C0CE0102C080E090E05C
:10581000DF91CF911F910F91FF90EF90DF90CF908C
:10582000BF90AF909F908F907F906F900895FB01F5
:10583000DC0102C001900D9241505040D8F708950C
:10584000FB01DC0101900D920020E1F708950F9318
:105850001F93CF93DF93CDB7DEB72E970FB6F89493
:10586000DEBF0FBECDBF0E891F8986E08C831A83F1
:1058700009838FEF9FE79E838D83AE01465E5F4F66
:10588000688D798DCE01019610D0EF81F885E00FFB
:10589000F11F10822E960FB6F894DEBF0FBECDBF5B
:1058A000DF91CF911F910F9108952F923F924F92C8
:1058B0005F926F927F928F929F92AF92BF92CF92A0
:1058C000DF92EF92FF920F931F93CF93DF93CDB7A9
:1058D000DEB72C970FB6F894DEBF0FBECDBF7C01AC
:1058E0006B018A01FC0117821682838181FFB0C19E
:1058F000CE0101964C01F7019381F60193FD85914C
:1059000093FF81916F01882309F49EC1853239F498
:1059100093FD859193FF81916F01853221F4B70149
:1059200090E01CD4E8CF512C312C20E02032A0F4A0
:105930008B3269F030F4803259F0833269F420619F
:105940002CC08D3239F0803339F4216026C02260BA
:10595000246023C0286021C027FD27C030ED380F08
:105960003A3078F426FF06C0FAE05F9E300D11242D
:10597000532E13C08AE0389E300D1124332E20623E
:105980000CC08E3221F426FD5FC1206406C08C3627
:1059900011F4206802C0883641F4F60193FD859128
:1059A00093FF81916F018111C1CF982F9F7D9554F5
:1059B000933028F40C5F1F4FFFE3F9830DC083364B
:1059C00031F0833771F0833509F057C021C0F801F9
:1059D000808189830E5F1F4F44244394512C5401CE
:1059E00014C03801F2E06F0E711CF801A080B18084
:1059F00026FF03C0652D70E002C06FEF7FEFC50189
:105A00002C87A1D32C0183012C852F77222E16C041
:105A10003801F2E06F0E711CF801A080B18026FF02
:105A200003C0652D70E002C06FEF7FEFC5012C87CA
:105A30007FD32C012C852068222E830123FC19C0E2
:105A4000832D90E048165906A0F4B70180E290E05B
:105A500085D33A94F5CFF50127FC859127FE8191F6
:105A60005F01B70190E07AD331103A94F1E04F1A18
:105A700051084114510479F7DEC0843611F089369B
:105A800031F5F80127FF07C0608171818281938120
:105A90000C5F1F4F08C060817181882777FD80955A
:105AA000982F0E5F1F4F2F76B22E97FF09C090954B
:105AB0008095709561957F4F8F4F9F4F2068B22ED4
:105AC0002AE030E0A4017CD3A82EA81843C0853773
:105AD00029F42F7EB22E2AE030E025C0F22FF97F84
