:10000000AEC100000C941D0E0C94480E0C94730E9F
:100010000C949E0E0C94C90E0C94F40ED1C10000E9
:10002000CFC10000CDC10000CBC10000C9C100009C
:10003000C7C10000C5C10000C3C10000C1C10000AC
:10004000BFC10000BDC10000BBC10000B9C10000BC
:10005000B7C10000B5C10000B3C100000C944A2232
:10006000AFC100000C9448260C947E26A9C1000064
:10007000A7C10000A5C10000A3C10000A1C10000EC
:100080009FC100009DC100009BC1000099C10000FC
:1000900097C1000095C1000093C100000C94EF20AF
:1000A0008FC100008DC100008BC1000089C100001C
:1000B00087C1000085C1000083C1000081C100002C
:1000C0007FC100007DC100007BC1000079C100003C
:1000D00077C1000075C1000073C1000071C100004C
:1000E0006FC10000FE0406050E0516051E05260557
:1000F0002E05360578237D2382238C2396230F2417
:10010000A023A823B023BA23C423CE23DD23E723CF
:100110000F24F123FB230524302433242224262416
:100120002C246A2437243B244124452449244F2489
:10013000532457246A245D246124652400000A0B9B
:1001400002090C0D0E080703040100000000000066
:10015000000000000000000000000000000000009F
:10016000000000000000000012111000000000005C
:10017000000000000000000000000000000000007F
:1001800000000102102020080810204010204080AC
:10019000020102010804020101020408102040804B
:1001A00080402010080402018004020180402010D9
:1001B0000804020108040201010204081020408022
:1001C0000102040810204080050505050705080800
:1001D0000808020202020A0A0808040404040101D1
:1001E00001010101010103030303030303030407E6
:1001F00007070C0C0C0C0C0C0C0C0202020206067D
:100200000606060606060B0B0B0B0B0B0B0B000072
:1002100020002300260029002C002F0032000001BE
:10022000000003010601090100002200250028004A
:100230002B002E00310034000201000005010801EE
:100240000B0100002100240027002A002D003000AF
:10025000330001010000040107010A0100407A1087
:10026000F35A00A0724E18090010A5D4E80000E867
:100270007648170000E40B54020000CA9A3B0000C5
:1002800000E1F505000080969800000040420F0054
:100290000000A08601000000102700000000E80315
:1002A000000000006400000000000A0000000000E0
:1002B0000100000000002C76D888DC674F0823DF9F
:1002C000C1DFAE59E1B1B796E5E3E453C63AE65172
:1002D000997696E8E6C28426EB898C9B62ED407C99
:1002E0006FFCEFBC9C9F40F2BAA56FA5F490055A35
:1002F0002AF75C936B6CF9676DC11BFCE0E40D475A
:10030000FEF520E6B500D0ED902E0300943577057C
:100310000080841E080000204E0A000000C80C3334
:100320003333330F986E12831141EF8D2114893BC3
:10033000E65516CFFEE6DB18D1844B381BF77C1D43
:10034000901DA4BBE424203284725E228100C9F196
:1003500024ECA1E53D2705180820B02686191124B4
:100360001FBECFEFD1E2DEBFCDBF00E00CBF17E074
:10037000A0E0B2E0ECE3F3E600E00BBF02C00790C0
:100380000D92AE32B107D9F72FE0AEE2B7E001C06F
:100390001D92A135B207E1F713E0CCE5D3E000E010
:1003A00006C022970109FE010BBF0E94142AC63520
:1003B000D10780E00807A9F70E9498270C948D3197
:1003C0001FCEFC01DB0182818C93838111968C937B
:1003D0001197848112968C931297858113968C9332
:1003E0001397868114968C931497878115968C9316
:1003F0001597808516968C931697818517968C9302
:1004000088E090E00895FC01DB014C9150E060E051
:1004100070E0428353836483758311968C911197A6
:10042000582B428353836483758312968C91129761
:10043000682B428353836483758313968C9113973F
:10044000782B428353836483758314964C9114975D
:1004500050E060E070E046835783608771871596AF
:100460008C911597582B4683578360877187169612
:100470008C911697682B46835783608771871796F0
:100480008C91782B468357836087718788E090E052
:10049000089587E192E0089585E292E008956F92D1
:1004A0007F928F929F92AF92BF92CF92DF92EF9204
:1004B000FF920F931F93CF93DF93FC01DB018C918D
:1004C00090E09383828311962C911197922B9383C2
:1004D000828312964D915D916D917C9115975D018E
:1004E00086E0A80EB11C8A019B010A5F1F4F2F4FA7
:1004F0003F4F6501CA1ADB0AE12CF12CC016D10668
:10050000E206F30640F4E501F9905E01CE010297A0
:10051000EC01F882EECFED01C40FD51F1D82CD0195
:10052000059695838483ED01C40FD51FCE80DF80AF
:10053000E884F984465F5F4F3D01640E751E8A01B1
:10054000222717FD2095322F0C0D1D1D2E1D3F1D3E
:1005500043018A1A9B0AA12CB12C80169106A2068F
:10056000B30640F4E30169913E01CE010297EC012C
:100570006883EECFC40ED51E9D012C0D3D1DC90113
:100580000197EC011882415051094A0F5B1F5783B4
:100590004683E901088119812A813B81D4E0CD0E8F
:1005A000D11C3D016C0C7D1CA601662757FD609592
:1005B000762F400F511F621F731F43018A1A9B0A37
:1005C000A12CB12C84169506A606B70640F4E301CB
:1005D000F9903E01CE010297EC01F882EECF0C0DAE
:1005E0001D1D9D01200F311FC9010197EC011882CB
:1005F000D1E0CD1AD108CA0EDB1ED186C086D90142
:1006000011968C91119712964C91129750E060E0E0
:1006100070E0BA0155274427582B8C91482B13962C
:100620008C91782B4287538764877587C80104961D
:10063000DF91CF911F910F91FF90EF90DF90CF90BE
:10064000BF90AF909F908F907F906F90089586E4B9
:1006500092E008958FE592E00895AF92BF92CF9215
:10066000DF92EF92FF921F93CF93DF939C01FB01E8
:100670008081D90112968C9381819281A381B4816A
:100680005B01C5E0AC0EB11CAC01BD014B5F5F4F1F
:100690006F4F7F4F6501CE1ADF0AE12CF12CC41693
:1006A000D506E606F70650F4E501D9905E017E0115
:1006B000D2E0ED1AF108E701D882ECCFEF01C80FC4
:1006C000D91F1C823496E901FC83EB830596DF91E8
:1006D000CF911F91FF90EF90DF90CF90BF90AF90A0
:1006E000089580E892E0089583E992E0089580E417
:1006F00096E0089584EB92E00895CF92DF92EF9216
:10070000FF920F931F93CF93DF938C01EB018881AE
:1007100090E0A0E0B0E0F80182839383A483B583E6
:100720002981922B82839383A483B5832A81A22B70
:1007300082839383A483B5832B81B22B828393839B
:10074000A483B5838C8190E0A0E0B0E0868397839A
:10075000A087B1872D81922B86839783A087B1874D
:100760002E81A22B86839783A087B1872F81B22BFE
:1007700086839783A087B187488550E060E070E06A
:1007800042875387648775878985582B42875387AB
:10079000648775878A85682B428753876487758746
:1007A0008B85782B42875387648775878C859D85D9
:1007B000AE85BF859E01205F3F4FAC01BD01405F0C
:1007C0005F4F6F4F7F4F6901CC1ADD0AE12CF12C8E
:1007D000C416D506E606F70650F4F901D1909F013C
:1007E0007F01F2E0EF1AF108F701D082ECCF9E0111
:1007F000280F391FF90117862F96F801D787C6876A
:100800004096DF91CF911F910F91FF90EF90DF9075
:10081000CF90089585ED92E0089585EE92E00895D9
:1008200086E093E008958CE193E008958DE393E0F2
:1008300008958AE593E008950F931F93CF93DF9374
:10084000EC018B01029659DFF801E80FF91F2181B5
:10085000428150E060E070E0BA0155274427522BF6
:100860002081422B2381722B4A8B5B8B6C8B7D8B7F
:100870002581468150E060E070E0BA0155274427A9
:10088000522B2481422B2781722B4E8B5F8B688FDA
:10089000798F0896DF91CF911F910F9108958BE783
:1008A00093E0089585E993E0089586EB93E0089539
:1008B0008DEC93E008958EEE93E0089582E094E04D
:1008C0000895FC01DB0132812381948185813C9371
:1008D00011962C93119712969C93129713968C93C2
:1008E0001397368127819085818514963C931497C0
:1008F00015962C93159716969C93169717968C938E
:100900001797328523859485858518963C9318978B
:1009100019962C9319971A969C931A971B968C9359
:100920008CE090E00895FC01DB0111968C91119709
:1009300012964C91129750E060E070E0BA01552792
:100940004427582B8C91482B13968C911397782B16
:10095000428353836483758315968C9115971696FD
:100960004C91169750E060E070E0BA01552744279B
:10097000582B14968C911497482B17968C91179797
:10098000782B468357836087718719968C911997C6
:100990001A964C911A9750E060E070E0BA01552722
:1009A0004427582B18968C911897482B1B968C919E
:1009B000782B42875387648775878CE090E0089591
:1009C00083E294E0089584E394E0089585E594E05B
:1009D00008958DE694E00895282F90E0223010F4D9
:1009E000049603C0263008F402978830910508F079
:1009F00044C0FC01EE58FF4F0C94042A809169001A
:100A00008C7F816080936900E89A089580916900E5
:100A1000837F846080936900E99A089580916900DA
:100A20008F7C806180936900EA9A089580916900C3
:100A30008F73806480936900EB9A089580916A00B7
:100A40008C7F816080936A00EC9A089580916A009F
:100A5000837F846080936A00ED9A089580916A0094
:100A60008F7C806180936A00EE9A089580916A007D
:100A70008F73806480936A00EF9A08958E579B4F1E
:100A8000FC01808108950F931F93CF93DF93EC01B6
:100A90008C010A5F1F4FC80146DFEC89FD89C80140
:100AA000DF91CF911F910F911994FC01868997894D
:100AB000089583E294E0089584E394E00895FC01AE
:100AC00086A197A108958EEE93E0089582E094E0C8
:100AD0000895AF92BF92CF92DF92EF92FF920F9361
:100AE0001F93CF93DF93EC017B018A81DB018C9311
:100AF0008B8111968C93EC81FD81DF010D9000209C
:100B0000E9F7CD0101976C01CE1ADF0AC601A0E01A
:100B1000B0E0FB0182839383A483B5836C817D81E4
:100B2000A601C70106960E94662CEE81FF81DF01B7
:100B30000D900020E9F7CD0101975C01AE1ABF0AC4
:100B4000F701EC0DFD1D850120E030E006831783E1
:100B5000208731879AE0C90ED11C6E817F81A50163
:100B6000C7018C0D9D1D0E94662CCA0CDB1CE885FC
:100B7000F985DF010D900020E9F7CD0101975C01B7
:100B8000AE1ABF0AF701EC0DFD1D850120E030E033
:100B9000008311832283338394E0C90ED11C6885BE
:100BA0007985A501C7018C0D9D1D0E94662CAC0C9A
:100BB000BD1C3A852B859C858D85F701EA0DFB1DB3
:100BC0003083218392838383C5010496DF91CF9183
:100BD0001F910F91FF90EF90DF90CF90BF90AF905B
:100BE00008950F931F93CF93DF93DC01FB011296BF
:100BF0008C911297808313968D919C911497EC01A0
:100C000009900020E9F72197C81BD90B8E0120E03D
:100C100030E0018312832383348313966D917C919A
:100C20001497AE01CF0105960E94662CCE01059661
:100C3000DF91CF911F910F910895BF92CF92DF92D4
:100C4000EF92FF920F931F93CF93DF93EC017B0101
:100C50008A81DB018C9311961C92119712961C923B
:100C6000129713961C92FB01379640E024E030E087
:100C70005A81C90104964517E0F4AF81B88524E094
:100C8000429FA00DB11D11246C9111965C9111979A
:100C900012963C91129713962C91DF0113976C9347
:100CA00011965C9311963C9320839C014F5F349680
:100CB000DFCF4985F701E20FF31F408311821282D3
:100CC000138220E03985F701E80FF91F04962317F6
:100CD000B0F4AE85BF8534E0239FA00DB11D112473
:100CE0006C9111965C91119712964C9112971396F4
:100CF0003C9160835183428333832F5FE3CF288904
:100D00002083118212821382B12C2889B21698F5A1
:100D10004B2D50E0440F551FEB89FC89E40FF51F64
:100D20000190F081E02DDF010D900020E9F79D0199
:100D3000215031096901CE1ADF0AF701E80FF91FC6
:100D4000860120E030E000831183228333838C010D
:100D50000C5F1F4FEB89FC89E40FF51F60817181E7
:100D6000A601C701800F911F0E94662CC601800F4B
:100D7000911FB394CACFDF91CF911F910F91FF9034
:100D8000EF90DF90CF90BF9008950F931F93CF9374
:100D9000DF93DC01FB0112968C91129780831396EE
:100DA0008C911397818314968C9114978283159656
:100DB0008C911597838316968C911697848317963A
:100DC0008C911797858318968C911897868319961E
:100DD0008C91199787831A968C911A9780871B9606
:100DE0008C911B9781871C968C911C9782871D96EE
:100DF0008C911D9783871E968D919C911F97EC0176
:100E000009900020E9F72197C81BD90B8E0120E03B
:100E100030E004871587268737871E966D917C9171
:100E20001F97AE01CF0140960E94662CCE014096DE
:100E3000DF91CF911F910F9108950F931F93CF933F
:100E4000DF93EC018B010296A0DF5A894B893C8924
:100E50002D89F801E80FF91F5083418332832383E2
:100E60005E894F89388D298D548345833683278346
:100E70000896DF91CF911F910F9108954F925F9245
:100E80007F928F929F92AF92BF92CF92DF92EF921A
:100E9000FF920F931F93CF93DF93EC018B01DB0144
:100EA000FC908A818F1550F4B4E0FB9EB0011124B0
:100EB0008F8198850E94822B98878F83FA82F80110
:100EC0003796F12C44E050E09E012D5F3F4F8A8120
:100ED000BA016C5F7F4F6B01F81660F5408150E0FE
:100EE00060E070E0742F662755274427DF011397D1
:100EF0008C91482B11968C91582B11968C91682BC4
:100F00004B835C836D837E83A6016F81788584E04B
:100F1000F89E600D711D1124D9018D909D90AD90AA
:100F2000BC90DB018D929D92AD92BC921397F3948D
:100F30003496CDCFF801E40FF51FF08089858F1529
:100F400050F484E0F89EB00111248E859F850E94A4
:100F5000822B9F878E879601F98680E0FE013A9664
:100F60009985D801A20FB31FA9014C5F5F4F6A0199
:100F7000891748F511969C91119712964C911297EA
:100F800050E060E070E0BA0155274427592B9C914E
:100F9000492B13969C91792B4A875B876C877D87B9
:100FA0009601AE85BF8594E0899FA00DB11D1124E7
:100FB00040815181628173814D935D936D937C93E8
:100FC00013978F5FCDCFFC9088898F1550F46F2DCC
:100FD00070E0660F771F8B899C890E94822B9C8B07
:100FE0008B8BC601F88A712C2E0151E1450E511CE4
:100FF0002889721608F044C0F801E80FF91FC08074
:10100000D180E280F3800496F801E80FF91FAC016B
:10101000662757FD6095762F4C0D5D1D6E1D7F1D5B
:101020009F01201B310B4901A12CB12C8416950680
:10103000A606B70638F4B1909F0122503109D901B4
:10104000BC92EECFC80ED91EF801EC0DFD1D3197F4
:1010500010829C0121503109200F311F3A8B298BBE
:10106000C6013B892C89E32FF22FE70DF11DE70D17
:10107000F11DD2012D913C91318320837394B8CF1F
:10108000DF91CF911F910F91FF90EF90DF90CF9064
:10109000BF90AF909F908F907F905F904F900895FA
:1010A0008F929F92AF92BF92CF92DF92EF92FF9278
:1010B000CF93DF93EC010E9494226093460D7093CE
:1010C000470D8093480D9093490D20E030E040E7B4
:1010D00052E46C817D818E819F810E945D292CED7F
:1010E00039ED47E35FE30E940E286B017C0120E0AD
:1010F00030E040E752E46A8D7B8D8C8D9D8D0E949F
:101100005D2923ED3DE442E95EE30E945D292CED7B
:1011100039ED47E35FE30E940E284B015C019B0120
:10112000AC01C701B6010E94A52760938C0D709396
:101130008D0D80938E0D90938F0DA5019401C701A5
:10114000B6010E94A6276093720D7093730D809371
:10115000740D9093750DDF91CF91FF90EF90DF901C
:10116000CF90BF90AF909F908F9008958F929F9255
:10117000AF92BF92CF92DF92EF92FF920F931F93A5
:10118000CF93DF93EC01CB01BA018B019C01B7E156
:101190003595279517950795BA95D1F711272227E9
:1011A0003327011511052105310521F000581C4F89
:1011B0002F4F3F4F188219821A826B017C01B5E0D4
:1011C000CC0CDD1CEE1CFF1CBA95D1F7CB826B0159
:1011D0007C0143E0F594E794D794C7944A95D1F7FE
:1011E000CC826B017C015BE0F594E794D794C794C3
:1011F0005A95D1F7CD8268017901E4E0CC0CDD1C71
:10120000EE1CFF1CEA95D1F74B015C01F3E1B594AC
:10121000A79497948794FA95D1F7482D4F704C294D
:101220004E8368017901A4E0F594E794D794C794BC
:10123000AA95D1F720E030E0A9010E940A2887FD95
:1012400002C0CF8203C08C2D80688F8388E090E03D
:10125000DF91CF911F910F91FF90EF90DF90CF9092
:10126000BF90AF909F908F900895EF92FF920F9351
:101270001F93CF93DF938C01EB01FC0142815381DB
:1012800064817581CE0172DF7C01F801468157814E
:1012900060857185CE018E0D9F1D68DFE80EF91EF9
:1012A000F8014285538564857585CE018E0D9F1D9D
:1012B0005DDF8E0D9F1DDF91CF911F910F91FF90EC
:1012C000EF900895EF92FF920F931F93CF93DF93C8
:1012D0008C017B01029659DDEC01B701680F791F83
:1012E000C8014296C2DF8C0F9D1FDF91CF911F91E5
:1012F0000F91FF90EF900895EF92FF920F931F933D
:10130000CF93DF938C017B010296AFDFEC01B70135
:10131000680F791FC8014096A8DF8C0F9D1FDF91D1
:10132000CF911F910F91FF90EF900895EF92FF9250
:101330000F931F93CF93DF93EC018B01029625DD72
:10134000F801E80FF91F2A8920832B8921832C8932
:1013500022837C0123E0E20EF11CB8016E0D7F1D9B
:10136000CE01459682DFE80EF91EB8016E0D7F1D95
:10137000CE0183967ADFE80EF91EB8016E0D7F1D4F
:10138000CE01C19672DF8E0D9F1DDF91CF911F910F
:101390000F91FF90EF9008957F928F929F92AF925E
:1013A000BF92CF92DF92EF92FF920F931F93CF9352
:1013B000DF93EC018B010296E8DC2A89F801E80F43
:1013C000F91F2083118212829C012C5F3F4F1382F0
:1013D000712C8A89F801E20FF31FA9014C5F5F4F5E
:1013E0004A01781660F5872D90E0880F991FAD8926
:1013F000BE89A80FB91F4D915C91DA010D900020B4
:10140000E9F79D01215031095901A41AB50A650176
:10141000E12CF12CC082D182E282F382ED89FE8937
:10142000E80FF91F60817181A501C801880D991D20
:101430000E94662C9501280D391D7394CACF8F899F
:101440008083118212825A011382F12C8F89F80154
:10145000EA0DFB1DF81688F4AC8DBD8D54E0F59EA9
:10146000A00DB11D11244D915D916D917C91CF0125
:101470007DDEA80EB91EF394E9CF8E8D8083118294
:10148000128284E0A80EB11C1382F12C8E8DF8011B
:10149000EA0DFB1DF81688F4ABA1BCA124E0F29E76
:1014A000A00DB11D11244D915D916D917C91CF01E5
:1014B0005DDEA80EB91EF394E9CF8DA18083118261
:1014C000128234E0A30EB11C1382F12C8DA1F81608
:1014D00098F4EAA5FBA544E0F49EE00DF11D11246B
:1014E0004081518162817381C8018A0D9B1D3EDE5E
:1014F000A80EB91EF394EACFC501DF91CF911F91D9
:101500000F91FF90EF90DF90CF90BF90AF909F90A2
:101510008F907F9008950F931F93FC01DB0103814F
:1015200002950695077010E020E030E00D931D93C2
:101530002D933C931397448150E060E070E093E07A
:10154000440F551F661F771F9A95D1F7402B512BDB
:10155000622B732B4D935D936D937C931397058151
:1015600010E020E030E08BE0000F111F221F331F3E
:101570008A95D1F7042B152B262B372B0D931D9312
:101580002D933C93139746814F7050E060E070E0DC
:1015900093E1440F551F661F771F9A95D1F7402B93
:1015A000512B622B732B4D935D936D937C9313970B
:1015B000868182958F7007810F7710E020E030E000
:1015C00094E0000F111F221F331F9A95D1F7082BAB
:1015D0000115110521053105A1F00058134021091D
:1015E000310987E1000F111F221F331F8A95D1F7A0
:1015F000042B152B262B372B0D931D932D933C93EA
:1016000013970781007810E020E030E0302F222788
:10161000112700274D915D916D917C911397402B7F
:10162000512B622B732B4D935D936D937C9313978A
:1016300088E090E01F910F910895EF92FF920F9331
:101640001F93CF93DF938C01EB01BC016E5F7F4F43
:10165000CE0161DF7C01B8016A5F7F4FCE018E0D44
:101660009F1D59DFE80EF91EB801665F7F4FCE015E
:101670008E0D9F1D50DF8E0D9F1DDF91CF911F910D
:101680000F91FF90EF900895EF92FF920F931F93A9
:10169000CF93DF938C017B0102962FD8EC01B70129
:1016A000680F791FC8014296C8DF8C0F9D1FDF911C
:1016B000CF911F910F91FF90EF900895EF92FF92BD
:1016C0000F931F93CF93DF938C017B010296B5DFBD
:1016D000EC01B701680F791FC8014096AEDF8C0F8F
:1016E0009D1FDF91CF911F910F91FF90EF90089573
:1016F0000F931F93CF93DF93EC018C010A5F1F4F71
:10170000C801DCDFECA1FDA1C801DF91CF911F91E1
:101710000F911994EF92FF920F931F93CF93DF9342
:10172000EC018B0102960E947D03F801E80FF91F7E
:1017300020812A8B21812B8B22812C8B7C0123E021
:10174000E20EF11CB8016E0D7F1DCE01459675DFCE
:10175000E80EF91EB8016E0D7F1DCE0183966DDF78
:10176000E80EF91EB8016E0D7F1DCE01C19665DF32
:101770008E0D9F1DDF91CF911F910F91FF90EF90E4
:1017800008954F925F926F927F928F929F92AF9245
:10179000BF92CF92DF92EF92FF920F931F93CF935E
:1017A000DF93EC018B0102960E947D034C01F8014E
:1017B000E80FF91FF0808A898F1550F46F2D70E0C3
:1017C000660F771F8D899E890E94822B9E8B8D8B41
:1017D000A4014C5F5F4FFA8A90E06E0123E1C20ED4
:1017E000D11C8A89F801E40FF51F9A012C5F3F4F45
:1017F0007901981708F040C080809180A280B38062
:10180000F801EE0DFF1DA701662757FD6095762FA5
:10181000480D591D6A1D7B1D9F01201B310B29019D
:10182000612C712C441655066606770638F48191B2
:101830009F0122503109D9018C93EECF8E0C9F1C51
:10184000F801E80DF91D31971082970121503109F7
:10185000200F311F3C8B2B8BA4012D898E89E22F09
:10186000F82FE90FF11DE90FF11DD6012D913C91E3
:10187000318320839F5FB5CFB0808F898B1550F463
:1018800034E0B39EB00111248C8D9D8D0E94822B7B
:101890009D8F8C8FBF8A912C5E0188E1A80EB11CB0
:1018A0002F89C8018E0D9F1D9216B0F4B50133DE4D
:1018B000E80EF91EEC8DFD8DA4E09A9EE00DF11D61
:1018C0001124D5014D915D916D917C91408351839F
:1018D000628373839394E4CFFC01B0808E8D8B156B
:1018E00050F4F4E0BF9EB00111248BA19CA10E9492
:1018F000822B9CA38BA324E0E20EF11CBE8E912CC4
:101900005E013FE1A30EB11C2E8DC8018E0D9F1DFF
:101910009216B0F4B501FFDDE80EF91EEBA1FCA1B3
:1019200084E0989EE00DF11D1124D5014D915D914B
:101930006D917C9140835183628373839394E4CF50
:10194000FC01B0808DA18B1550F4F4E0BF9EB00176
:1019500011248AA59BA50E94822B9BA78AA724E01D
:10196000E20EF11CBDA2912C5E0136E2A30EB11C69
:101970008DA19816C8F4B501C8018E0D9F1DCBDD51
:10198000E80EF91EEAA5FBA584E0989EE00DF11D86
:101990001124D5014D915D916D917C9140835183CE
:1019A000628373839394E4CFC701DF91CF911F913A
:1019B0000F91FF90EF90DF90CF90BF90AF909F90EE
:1019C0008F907F906F905F904F900895CF93DF93AB
:1019D000AB01EC01AE81BF81ED91FC9111976C815F
:1019E0007D810190F081E02DCD01DF91CF9119949F
:1019F000FC018CE996E09183808312821382148229
:101A00001582168217821086118612861386148616
:101A100015860895CF93DF93EC0184EE96E09983C9
:101A2000888380E996E09B838A831C821D821E82C4
:101A30001F82188619861A861B861C861D861E869E
:101A40001F868BEF95E0998B888B1A8A1B8A1C8ADC
:101A5000CE014596CDDFCE018396CADFCE01C19679
:101A6000DF91CF91C5CFDC01ED91FD918081ED91AA
:101A7000FD919081ED91FD916C9163708E2309F041
:101A800064609F2309F06860E0E5FDE0E60FF11D6A
:101A9000659565956D936D917D918D919D9109945D
:101AA00023C01AC012C016C010C01EC009C014C086
:101AB00013C006C019C009C00DC007C00DC014C0B6
:101AC00062507040804090400BC061507040804038
:101AD000904006C06E5F01C06F5F7F4F8F4F9F4F7A
:101AE0009E938E937E936E930895CF93DF93EC0134
:101AF0008B85823020F4F894CE01B5DF01C0F894D4
:101B00006F81788589859A857894DF91CF91089542
:101B1000823159F150F4823099F0833061F570933D
:101B2000DE0D6093DD0D81E01CC0843179F0A0F002
:101B3000853109F57093E00D6093DF0D82E011C0EF
:101B40007093DC0D6093DB0D80E00BC07093E20DB1
:101B50006093E10D83E005C07093E40D6093E30DA5
:101B600084E00E94EC0481E008957093E60D609398
:101B7000E50D85E0F6CF80E008950F931F93CF9396
:101B8000DF93EC01062F142F62E0802F0E946B245C
:101B900062E0812F0E946B24202F30E0F901E8538E
:101BA000FE4FE491F0E0EE0FFF1FE25FFD4F459125
:101BB000549159834883F901EE57FE4F24912C83A9
:101BC000212F30E0F901E853FE4FE491F0E0EE0FF1
:101BD000FF1FE25FFD4FA591B491BB83AA83F9017A
:101BE000EE57FE4F24912D831F82188619861A8680
:101BF00080ED97E00E94E822E881F98190818C8154
:101C0000982381E009F480E0EA81FB8190812D81B5
:101C1000922309F082608E83BE01802F79DF8B874B
:101C2000BE01812F75DF2B8590E0820F911D8B8780
:101C3000DF91CF911F910F9108951F920F920FB6D0
:101C40000F9211240BB60F922F933F934F935F93F4
:101C50006F937F938F939F93AF93BF93EF93FF9374
:101C60008091DF0D9091E00DFEDEFF91EF91BF912D
:101C7000AF919F918F917F916F915F914F913F9124
:101C80002F910F900BBE0F900FBE0F901F901895C5
:101C90001F920F920FB60F9211240BB60F922F9333
:101CA0003F934F935F936F937F938F939F93AF93E4
:101CB000BF93EF93FF938091E10D9091E20DD3DEFE
:101CC000FF91EF91BF91AF919F918F917F916F9114
:101CD0005F914F913F912F910F900BBE0F900FBED0
:101CE0000F901F9018951F920F920FB60F9211240C
:101CF0000BB60F922F933F934F935F936F937F9306
:101D00008F939F93AF93BF93EF93FF938091E30DD6
:101D10009091E40DA8DEFF91EF91BF91AF919F915B
:101D20008F917F916F915F914F913F912F910F9084
:101D30000BBE0F900FBE0F901F9018951F920F9221
:101D40000FB60F9211240BB60F922F933F934F9320
:101D50005F936F937F938F939F93AF93BF93EF9313
:101D6000FF938091E50D9091E60D7DDEFF91EF915F
:101D7000BF91AF919F918F917F916F915F914F91A3
:101D80003F912F910F900BBE0F900FBE0F901F90A1
:101D900018951F920F920FB60F9211240BB60F9247
:101DA0002F933F934F935F936F937F938F939F9363
:101DB000AF93BF93EF93FF938091DB0D9091DC0D78
:101DC00052DEFF91EF91BF91AF919F918F917F91E3
:101DD0006F915F914F913F912F910F900BBE0F909C
:101DE0000FBE0F901F9018951F920F920FB60F9273
:101DF00011240BB60F922F933F934F935F936F93E2
:101E00007F938F939F93AF93BF93EF93FF938091B3
:101E1000DD0D9091DE0D27DEFF91EF91BF91AF9127
:101E20009F918F917F916F915F914F913F912F91F2
:101E30000F900BBE0F900FBE0F901F9018950F9331
:101E40001F93CF93DF938C01EB0197FD02C061E0FC
:101E500001C060E087E00E94A424B80117FF03C01E
:101E600071956195710988E00E945523D7FD02C0E4
:101E700061E001C060E089E00E94A424BE01D7FFB8
:101E800003C07195619571098AE0DF91CF911F912F
:101E90000F910C9455234F925F926F927F928F9285
:101EA0009F92AF92BF92CF92DF92EF92FF920F93E9
:101EB0001F93CF93DF93EC016A017B012801390165
:101EC000488559856A857B8597018601041B150B1A
:101ED000260B370BC901B8010E94A92820E635EE70
:101EE0004DE053E40E940E284B015C0160E67AEE5F
:101EF00080E090E0A30192010E94E229CA01B901A9
:101F00000E94A7289B01AC01C501B4010E945D2974
:101F10006C877D878E879F872BED3FE049EC50E4EF
:101F20000E945D2920E030E040E752E40E940E2844
:101F30006E8B7F8B888F998FC886D986EA86FB86C1
:101F4000DF91CF911F910F91FF90EF90DF90CF9095
:101F5000BF90AF909F908F907F906F905F904F90C9
:101F600008954F925F926F927F928F929F92AF925D
:101F7000BF92CF92DF92EF92FF92CF93DF93EC016B
:101F80002C853D854E855F85688979898A899B89FD
:101F90000E94A5276B017C012C813D814E815F81D0
:101FA0000E94A6274B015C016C837D838E839F83F7
:101FB00020911202309113024091140250911502A7
:101FC000C701B6010E945D292B013C0120912E0D15
:101FD00030912F0D4091300D5091310DC501B4015C
:101FE0000E945D299B01AC01C301B2010E94A6279A
:101FF0004B015C01288139814A815B81C701B601AF
:102000000E94A52720910E0230910F0240911002EC
:10201000509111020E945D299B01AC01C501B401E0
:102020000E94A6274B015C01C882D982EA82FB820A
:102030006C897D89882777FD8095982F0E94A92833
:1020400020E030E045EA53E40E945D2920E030E0E2
:102050004FE753E40E940E28A50194010E94A62791
:102060006B017C0120E030E045EA53EC0E940A2835
:1020700087FD11C020E030E045EA53E4C701B60116
:102080000E94592918166CF4C12CD12C75EAE72E40
:1020900073E4F72E06C0C12CD12C65EAE62E63EC62
:1020A000F62E20E030E045EA53E4C701B6010E9475
:1020B0000E2820E030E04FE753E40E945D290E94A3
:1020C00076287D8B6C8BDF91CF91FF90EF90DF9026
:1020D000CF90BF90AF909F908F907F906F905F90C8
:1020E0004F900895FC0180EF96E09183808380EB10
:1020F0009EE09383828340E051EE60E070E0448391
:10210000558366837783DF01AE57BB4F1C921E96C3
:1021100084E896E011969C938E9312961C921297E7
:1021200018961C921E92179719961C9219971F9633
:102130001C921E921E9750961C92509754961C9279
:102140001E92539780E090E0DF01A80FB91FAC5EAC
:10215000BB4F1D921C92029682339105A9F780E035
:1021600090E0DF01A80FB91FAA5BBB4F1D921C9224
:10217000029682339105A9F780E090E0DF01A80F75
:10218000B91F54961C920196811522E09207B1F76F
:1021900080E090E0DF01A80FB91FAC5EBD4F1C923C
:1021A0000196811522E09207A9F70895AC0120E07D
:1021B00030E0FA01EC5EFB4F0190F081E02DEF2B57
:1021C00091F4F901E65FFD4FEE0FFF1FE80FF91FD5
:1021D0007183608323583F4FFB01358324839783AA
:1021E000868381E008952F5F3F4F4E5F5F4F293117
:1021F0003105F9F680E00895CF92DF92EF92FF92D9
:102200000F931F93CF93DF93CDB7DEB760970FB6D1
:10221000F894DEBF0FBECDBF8C010E94942228EE41
:1022200033E040E050E00E94E22969017A019B011D
:10223000AC01F80184859585A685B7858C0D9D1D1B
:10224000AE1DBF1D89879A87AB87BC8760E472E4A7
:102250008FE090E00E94C02900891189228933898A
:10226000600F711F821F931F6D877E878F87988BEA
:10227000BE01635F7F4FCE0109960E941D2288E058
:10228000FE013996DE01119601900D928A95E1F7D3
:1022900029813A814B815C816D817E818F81988516
:1022A00060960FB6F894DEBF0FBECDBFDF91CF9121
:1022B0001F910F91FF90EF90DF90CF9008950F93B3
:1022C0001F93CF93DF93CDB7DEB72A970FB6F8945D
:1022D000DEBF0FBECDBF8C0180E696E09A83898376
:1022E0001B821C821D821E821F82188619861A86F6
:1022F000D801ED91FC910190F081E02DAE014F5F8E
:102300005F4F6AE070E0C80119950E949422F801BD
:1023100060877187828793872A960FB6F894DEBF0D
:102320000FBECDBFDF91CF911F910F9108954F92B6
:102330005F926F927F928F929F92AF92BF92CF9255
:10234000DF92EF92FF920F931F93CF93DF93CDB75E
:10235000DEB72E970FB6F894DEBF0FBECDBF8C014F
:102360008CE696E09A8389831C821B828BEF95E032
:102370009E838D8398878F839A8789871B861C8687
:102380001D861E86580182E3A80EB11C7801412CDF
:1023900082E0582E612C712C6701ACEECA1AABEFAB
:1023A000DA0AD601ED91FC913097B9F184819581DB
:1023B0009C838B83808191819E838D838281938195
:1023C000DC01ED91FC910480F581E02D1995988751
:1023D0008F83D601ED91FC9182819381DC01ED9197
:1023E000FC910680F781E02D19959A8789874B86A5
:1023F0005C866D867E86F80180819181F601A081E0
:10240000B18118966D917C911997DC01ED91FC9149
:10241000AE014F5F5F4FC8011995B2E0EB0EF11CA2
:10242000EA14FB0409F0B8CF7801412CB2E05B2E2E
:10243000612C712C6701EAEBCE1AEBEFDE0AF60194
:10244000A081B1811097E1F112968D919C91139723
:102450009C838B8314968D919C9115979E838D837D
:10246000ED91FC9111970480F581E02DCD01199536
:1024700098878F83D6018D919C91DC01ED91FC9121
:102480000680F781E02D19959A8789874B865C86AF
:102490006D867E86D801ED91FC9180809180F60159
:1024A00080819181DC01ED91FC910280F381E02D2E
:1024B0001995AE014F5F5F4FBC01C801F40119953A
:1024C000F2E0EF0EF11CEA14FB0409F0B3CFF801BF
:1024D000EE57FB4F81E080832E960FB6F894DEBF57
:1024E0000FBECDBFDF91CF911F910F91FF90EF9065
:1024F000DF90CF90BF90AF909F908F907F906F9024
:102500005F904F9008958F929F92AF92BF92CF921B
:10251000DF92EF92FF920F931F93CF93DF93CDB78C
:10252000DEB72A970FB6F894DEBF0FBECDBF8C0181
:102530005B0180E696E09A8389831B821C821D8260
:102540001E821F82188619861A860E9494226B01A9
:102550007C01F80180859185A285B385C81AD90AC6
:10256000EA0AFB0AB501CE0101960E94030298EE29
:10257000892E93E0992EA12CB12CC701B601A5019B
:1025800094010E94E22969017A019B01AC018B81CF
:102590009C81AD81BE818C0D9D1DAE1DBF1D8B83A9
:1025A0009C83AD83BE8360E472E48FE090E00E9480
:1025B000C029CF80D884E984FA84C60ED71EE81ECD
:1025C000F91ECF82D886E986FA860E949422CB80B3
:1025D000DC80ED80FE80F1E0CF1AD108E108F1083F
:1025E000A50194010E94E22949015A019B01AC0115
:1025F000C818D908EA08FB08F801C486D586E6861B
:10260000F786CF80D884E984FA84F6E3DF1AF5E60A
:10261000EF0AF4ECFF0A60E472E48FE090E00E94BD
:10262000C029C61AD70AE80AF90AF801C08AD18A6D
:10263000E28AF38AB801605F7F4FC8010C960E945E
:102640001D220E949422F801E957FB4F6083718399
:10265000828393832A960FB6F894DEBF0FBECDBF58
:10266000DF91CF911F910F91FF90EF90DF90CF906E
:10267000BF90AF909F908F9008952F923F924F926E
:102680005F926F927F928F929F92AF92BF92CF9202
:10269000DF92EF92FF920F931F93CF93DF93CDB70B
:1026A000DEB760970FB6F894DEBF0FBECDBF4C010A
:1026B0000E9494226B017C01940129573B4F3E8379
:1026C0002D83F90180819181A281B381A7019601B7
:1026D000281B390B4A0B5B0BDA01C901893F9A426F
:1026E000A105B10510F035971082A40148585B4F41
:1026F000588B4F87DA018D919C91892B79F0F401E9
:10270000E557FB4F80819181A281B3818C159D0596
:10271000AE05BF0518F4FA01118210823401F0E809
:102720006F1AFBEF7F0A940124583B4F3A832983A9
:10273000A4014E575B4F58874F832C5E3F4F3C8719
:102740002B87435F5F4F5E874D87840106581B4F81
:102750001601270154E1250E311C411C511C540166
:1027600084E1A80EB11C940122583B4F3C832B837B
:10277000A40145575B4F5A874987D40112968D9122
:102780009C911397DC01ED91FC910680F781E02D7F
:1027900019959C0197FD29C1F30180819181820FD8
:1027A000931F91838083AF85B8894D915C914730A9
:1027B0005105E1F4EB81FC8180819181AC014F5F97
:1027C0005F4F51834083F401E80FF91F248BD80138
:1027D0008D919C91119701978D939C93892B09F072
:1027E000BECF28E030E0EF85F88986C0411551055D
:1027F00019F52F3F310569F481E090E0AF85B88984
:102800008D939C93E985FA8520823182428253829E
:10281000B4CF0E9494226C197D098E099F096630FD
:1028200071058105910508F49ACFF401EE57FB4F2D
:1028300010828EEF9FEFFEC04130510591F42E3F84
:10284000310519F482E090E02EC0EF85F8891182FD
:102850001082AF81B8858C91811181CFC4012FDDA9
:102860008CCF4230510589F4F80131832083AB814C
:10287000BC811D921C9283E090E0EF85F8899183E2
:102880008083D3012D933C9378CF4330510581F45D
:10289000322F2227F80180819181820F931F91832B
:1028A000808384E090E0AF85B8898D939C9365CF59
:1028B0004430510599F460E071E00E94CF298F3FC8
:1028C000910539F485E090E0EF85F8899183808364
:1028D00054CFAF85B8891D921C924FCF453051051A
:1028E00071F4E981FA813183208386E090E0AF853D
:1028F000B8898D939C93F301318320833ECF46307A
:102900005105D1F4322F2227A981BA818D919C9152
:102910001197820F931F8D939C9327E030E0EF85F2
:10292000F88931832083D8018D919C91892B09F0FE
:1029300016CF28E030E0E0CF4830510509F00FCF46
:10294000AF85B8891D921C9260E071E00E94CF298A
:102950008F3F910509F003CFA981BA81ED91FC91D8
:102960003097A1F4C401ABDCC401E1DCF401ED5704
:10297000FB4FC082D182E282F382ED81FE81C08270
:10298000D182E282F3828FEF9FEF54C0EA30F105EB
:1029900021F4B501C401B7DDF0CEE630F10551F404
:1029A000B5018B859C850E943E0781E0AD85BE8583
:1029B0008C93E3CEEB30F10521F4EF81F8851082A2
:1029C000DCCEE154FE4FEE0FFF1FE80DF91D8081B4
:1029D0009181009709F4C3CEDC01ED91FC91019047
:1029E000F081E02DB5011995C8CEF401EE57FB4FEB
:1029F00080818823E9F084010D571B4FF801808105
:102A00009181A281B381A7019601281B390B4A0B42
:102A10005B0BDA01C901853C9940A105B10540F085
:102A2000C4014DDCD801CD92DD92ED92FC9213975A
:102A300080E090E060960FB6F894DEBF0FBECDBF89
:102A4000DF91CF911F910F91FF90EF90DF90CF908A
:102A5000BF90AF909F908F907F906F905F904F90BE
:102A60003F902F9008958F929F92AF92BF92CF92F6
:102A7000DF92EF92FF92CF93DF936B017C01209165
:102A80006E0D30916F0D4091700D5091710D6091F0
:102A9000880D7091890D80918A0D90918B0D0E9407
:102AA000A62720E030E040E05FE30E945D2920E0BF
:102AB00030E040E752E40E940E282CED39ED47E368
:102AC0005FE30E945D294B015C01C6EBD7E087E51F
:102AD00098E092DB288339834A835B836C837D8310
:102AE0008E839F838092C2079092C307A092C407EF
:102AF000B092C5071092C6071092C7071092C80778
:102B00001092C907C701B6010E94A72820E030E053
:102B10004AE754E40E940E286093CA077093CB07DB
:102B20008093CC079093CD076EEA77E084EA97E034
:102B30000E94E60C87E598E0DF91CF91FF90EF903F
:102B4000DF90CF90BF90AF909F908F9096CDCF9316
:102B5000DF9300D01F921F92CDB7DEB728E736E093
:102B60003A8329836B835D834C83DC01ED91FC9177
:102B70000190F081E02DAE014F5F5F4F67E070E0A4
:102B800019950F900F900F900F900F90DF91CF91AC
:102B90000895CF92DF92EF92FF920F931F93CF93FE
:102BA000DF93FC0122813381C481D581422F532FD1
:102BB0006C2F7D2F409312025093130260931402E6
:102BC0007093150216810781F084E184D801C70152
:102BD0004B2F5A2F692F782F40930E0250930F02DC
:102BE0006093100270931102428553856485758548
:102BF0006A01C601A62FB72F80932E0D90932F0D3B
:102C0000A093300DB093310D7F936F935F934F93EB
:102C1000EF92FF920F931F93DF93CF933F932F93E6
:102C20008EE894E09F938F938CEF9CE09F938F931B
:102C30000E94762C8DB79EB740960FB6F8949EBF33
:102C40000FBE8DBF4CEF5CE061E087E598E0DF915F
:102C5000CF911F910F91FF90EF90DF90CF9077CFA2
:102C6000CF92DF92EF92FF920F931F93CF93DF9358
:102C7000EC017B01643671053CF0FC01EE57FB4F23
:102C80008081882309F462C0DA01ED91FC91019002
:102C9000F081E02DBE01655E7D4FCA0119958C0162
:102CA0006E01BCEECB1ABDEFDB0A2FEFF6012083DD
:102CB0002EEF319620833196808331969083890F51
:102CC0008095319680833196E0823196F08285E05E
:102CD00090E020E030E0A801495F5F4F841795073E
:102CE00050F4FE01E80FF91FEC5EFD4F6081260FE6
:102CF000311D0196F3CF085F1F4F4C0F5D1FFA0186
:102D0000EC5EFD4F209520830130F2E01F07B0F408
:102D10007601C7018C199D09801791076CF48A818F
:102D20009B81D7016D917D01DC01ED91FC910190BA
:102D3000F081E02D1995EDCFC8010AC040EA54E0BA
:102D400063E0CE0104DF8FEF9FEF02C080E090E0F0
:102D5000DF91CF911F910F91FF90EF90DF90CF9077
:102D60000895CF92DF92EF92FF920F931F93CF932C
:102D7000DF93CDB7DEB764970FB6F894DEBF0FBE12
:102D8000CDBF61E088E00E946B2461E087E00E9493
:102D90006B2461E08AE00E946B2461E089E00E947C
:102DA0006B2460E070E080E090E049D840915B08DF
:102DB00050915C0860915D0870915E0826E08091FA
:102DC000590890915A080E94E8251092D00C109250
:102DD000CF0C1092D20C1092D10C1092D60C1092F3
:102DE000D50C1092D40C1092D30C80E091EEA0E0A0
:102DF000B0E080935B0890935C08A0935D08B0936B
:102E00005E08EDE9FCE080E090E021913191232B18
:102E100081F4FC01EE0FFF1FE356F34F27E138E08A
:102E2000318320838C599F4F90931A0880931908FF
:102E300004C001968931910541F7EDE9FCE080E09D
:102E400090E021913191232B81F4FC01EE0FFF1FC3
:102E5000E356F34F2FE238E0318320838C599F4FA4
:102E6000909332088093310804C00196893191050E
:102E700041F789ED94E090939B0780939A0764EA69
:102E800077E087E598E092D96EEC77E087E598E007
:102E90008DD960E877E087E598E088D987E598E004
:102EA000ABD920935C0730935D0740935E07509346
:102EB0005F07609360077093610780936207909348
:102EC000630782E08093660780936B0780937207A5
:102ED000809379078CEE94E0909365078093640764
:102EE0008AE092E090936A078093690782E497E012
:102EF00090937807809377078AE397E09093710720
:102F00008093700782E397E090937F0780937E071A
:102F10006AE477E087E598E049D98091D90C81117E
:102F200004C087E598E0A9DBF8CF49EF54E061E001
:102F300087E598E00CDE49E155E061E087E598E03F
:102F400006DE4091D50D5091D60D61E087E598E001
:102F5000FEDD609106027091070280910802909157
:102F600009029E012F5F3F4F7901890124E04AE069
:102F70000E943B2AFF92EF9282E395E09F938F930A
:102F80006CEFC62E6CE0D62EDF92CF920E94762C8C
:102F9000A60161E087E598E0DADD60912E07709187
:102FA0002F07809130079091310724E04AE00E947A
:102FB0003B2AFF92EF9286E595E09F938F93DF92F5
:102FC000CF920E94762CA60161E087E598E0BFDDF4
:102FD00087EE9DE096D765E070E080E090E00E948B
:102FE000C3220FB6F894DEBF0FBECDBF64960FB6F6
:102FF000F894DEBF0FBECDBFDF91CF911F910F912F
:10300000FF90EF90DF90CF900895EF92FF920F9393
:103010001F93CF93DF9365E775E085ED9DE00E94F8
:10302000822780EC9DE00E94F80C8BEA9DE00E94D4
:10303000F80C86E99DE00E94F80C42E163E186E528
:103040009DE00E94BD0D42E063E08AE49DE00E94A5
:10305000BD0D87E598E046D88AEF96E0909330085A
:1030600080932F088CEC96E0909336088093350877
:1030700087E398E00E94F80C85E498E00E94F80C41
:1030800080E598E0909354088093530881E090E0A5
:10309000909356088093550821EA35E03093340820
:1030A0002093330826E037E0309318082093170860
:1030B00028ED36E030931E0820931D0810921F085B
:1030C00010922008109221081092220810922308D2
:1030D00010922408109225081092260810922708B2
:1030E000109228081092290810922A0829EC35E13C
:1030F00030932C0820932B0890932E0880932D0852
:1031000089EA95E090931C0880931B0888ED97E06E
:103110000E940A0D8DEA95E09093CF078093CE0729
:1031200088ED97E09093D1078093D0071092D7074E
:103130001092D607BEEAEB2EB7E0FB2E88EA96E0A7
:10314000F7019183808300E916E01093B1070093A3
:10315000B0071092B2071092B3071092B407109202
:10316000B5071092B6071092B7071092B8071092E1
:10317000B9071092BA071092BB071092BC071092C1
:10318000BD07CBEFD5E0D093BF07C093BE0780EC5F
:1031900097E00E94F80C85EB95E09093A50780934B
:1031A000A407F092A707E092A6071092AD0710922D
:1031B000AC07EAE8F7E084EB96E091838083109314
:1031C0008D0700938C0710928E0710928F07109234
:1031D0009007109291071092920710929307109205
:1031E00094071092950710929607109297071092E5
:1031F000980710929907D0939B07C0939A07109253
:103200009C0710929D0710929E0710929F071092A4
:10321000A0071092A1071092A2071092A30783EEB5
:1032200094E09093810780938007F0938307E09365
:1032300082071092890710928807E4E5F7E080EC96
:1032400096E091838083109357070093560710925E
:1032500058071092590710925A0710925B07109264
:103260005C0710925D0710925E0710925F07109244
:103270006007109261071092620710926307D09363
:103280006507C09364071092660710926A07109250
:10329000690710926B0710927107109270071092D5
:1032A00072071092780710927707109279071092A0
:1032B0007F0710927E078DEB95E090934B078093EC
:1032C0004A07F0934D07E0934C0710925307109272
:1032D0005207209106023091070240910802509156
:1032E00009026BED7FE089EC90E40E940E28609368
:1032F0002E0770932F078093300790933107DF914B
:10330000CF911F910F91FF90EF90089585ED9DE073
:103310000C941B27CF93C62FBC0187EE9DE004D6EB
:103320006C2F87EE9DE0AFD587EE9DE0CF916EC606
:103330001F93CF93DF931F92CDB7DEB7162FBC013B
:1033400087EE9DE04983F0D5612F87EE9DE09BD508
:103350004981642F87EE9DE096D587EE9DE00F9022
:10336000DF91CF911F9152C640E261E08EE190E083
:10337000DFDF65E070E080E090E00E94C32248E17A
:1033800060E08EE190E0D4DF65E070E080E090E006
:103390000E94C32241E062E08EE190E0C9DF65E077
:1033A00070E080E090E00E94C32281E008951F93C6
:1033B000CF93DF93EC01162FBC0187EE9DE0B4D5CF
:1033C000612F87EE9DE05FD587EE9DE01FD664E11B
:1033D00070E080E090E00E94C32241E050E0BE0136
:1033E00087EE9DE011D687EE9DE0FED4DF91CF9170
:1033F0001F91089560E083E590E0D9DF853E19F5DF
:1034000048E06DE283E590E093DF65E070E080E006
:1034100090E00E94C32249E061E383E590E088DF09
:1034200065E070E080E090E00E94C32249E06CE239
:1034300083E590E07DDF65E070E080E090E00E9451
:10344000C32281E0089580E0089560E088E690E07E
:10345000AEDF8E77883671F540E86EE388E690E05F
:1034600067DF65E070E080E090E00E94C3224BE1FE
:1034700066E188E690E05CDF65E070E080E090E087
:103480000E94C32243E165E188E690E051DF65E0F8
:1034900070E080E090E00E94C32243E06EE388E6A3
:1034A00090E046DF6AE070E080E090E00E94C32296
:1034B00081E0089580E008959DDF8093EA07C5DFED
:1034C0008093EB0751DF8093EC078091EA0781112D
:1034D00006C04EEC55E063E087E598E038DB80916C
:1034E000EB07811106C047EE55E063E087E598E001
:1034F0002EDB8091EC07811106C04CEF55E063E0B4
:1035000087E598E024DB109216020895CF93DF93AD
:103510001092D40D62E383E590E0FCDE46E050E0DB
:1035200063E570E087EE9DE06FD587EE9DE054D4B3
:10353000892B79F0C091D40DD0E087EE9DE054D472
:10354000C253D24F88838091D40D8F5F8093D40D66
:10355000ECCF6091CF0D70E0762F66278091CE0D75
:10356000682B882777FD8095982F0E94A9282DEC3D
:103570003CEC4CEC51E40E940E286093C20D709319
:10358000C30D8093C40D9093C50D6091D10D70E073
:10359000762F66278091D00D682B882777FD809540
:1035A000982F0E94A9282DEC3CEC4CEC51E40E9491
:1035B0000E286093C60D7093C70D8093C80D90932D
:1035C000C90D6091D30D70E0762F66278091D20DE2
:1035D000682B882777FD8095982F0E94A9282DECCD
:1035E0003CEC4CEC51E40E940E286093CA0D7093A1
:1035F000CB0D8093CC0D9093CD0DDF91CF9108959D
:10360000CF93DF931092BF0D6DE188E690E082DEEC
:1036100046E050E068E670E087EE9DE0F5D487EE86
:103620009DE0DAD3892B79F0C091BF0DD0E087EE11
:103630009DE0DAD3C754D24F88838091BF0D8F5F4E
:103640008093BF0DECCF6091B90D70E0762F6627A7
:103650008091BA0D682B882777FD8095982F0E945E
:10366000A92829ED33E24FE95AE30E945D296093CE
:10367000AD0D7093AE0D8093AF0D9093B00D609132
:10368000BB0D70E0762F66278091BC0D682B8827D4
:1036900077FD8095982F0E94A92829ED33E24FE904
:1036A0005AE30E945D296093B10D7093B20D80932F
:1036B000B30D9093B40D6091BD0D70E0762F662729
:1036C0008091BE0D682B882777FD8095982F0E94EA
:1036D000A92829ED33E24FE95AE30E945D2960935E
:1036E000B50D7093B60D8093B70D9093B80DDF9123
:1036F000CF910895CF93DF931092AA0D63E08EE1EE
:1037000090E008DE46E050E06EE170E087EE9DE07C
:103710007BD487EE9DE060D3892B79F0C091AA0D10
:10372000D0E087EE9DE060D3CC55D24F8883809166
:10373000AA0D8F5F8093AA0DECCF6091A40D70E06D
:10374000762F66278091A50D682B882777FD8095B9
:10375000982F0E94A9282FE135E84BE65FE30E94ED
:103760005D296093980D7093990D80939A0D9093B5
:103770009B0D6091A80D70E0762F66278091A90DB2
:10378000682B882777FD8095982F0E94A9282FE124
:1037900035E84BE65FE30E945D2960939C0D7093D2
:1037A0009D0D80939E0D90939F0D6091A60D70E0EE
:1037B000762F66278091A70D682B882777FD809547
:1037C000982F0E94A9282FE135E84BE65FE30E947D
:1037D0005D296093A00D7093A10D8093A20D90932D
:1037E000A30D41E062E08EE190E0DF91CF91A0CDAA
:1037F00087E598E00E94FC102093E0073093E107F2
:103800004093E2075093E3076093E4077093E50762
:103810008093E6079093E70784E196E09093E907A9
:103820008093E8078091EA07882389F16FDE809111
:10383000C20D9091C30DA091C40DB091C50D8093A0
:10384000EF079093F007A093F107B093F2078091F0
:10385000C60D9091C70DA091C80DB091C90D809370
:10386000F3079093F407A093F507B093F6078091C0
:10387000CA0D9091CB0DA091CC0DB091CD0D809340
:10388000F7079093F807A093F907B093FA07809190
:10389000EB07882389F1B4DE8091AD0D9091AE0DD8
:1038A000A091AF0DB091B00D8093FD079093FE07EE
:1038B000A093FF07B09300088091B10D9091B20DD5
:1038C000A091B30DB091B40D8093010890930208BC
:1038D000A0930308B09304088091B50D9091B60DA4
:1038E000A091B70DB091B80D80930508909306088C
:1038F000A0930708B09308088091EC07882389F10A
:10390000F9DE8091980D9091990DA0919A0DB0914A
:103910009B0D80930B0890930C08A0930D08B09317
:103920000E0880919C0D90919D0DA0919E0DB091DF
:103930009F0D80930F0890931008A0931108B093E7
:1039400012088091A00D9091A10DA091A20DB091AF
:10395000A30D8093130890931408A0931508B093B7
:10396000160868ED77E08EEC97E00C94E60C4F9229
:103970005F926F927F928F929F92AF92BF92CF92FF
:10398000DF92EF92FF920F931F93CF93DF9300D0BC
:103990001F92CDB7DEB7C8D5C0903E0DD0903F0D79
:1039A000E090400DF090410D6C197D098E099F0942
:1039B0006436710581059105B8F0B6D5C0903E0D0D
:1039C000D0903F0DE090400DF090410D6C197D09B5
:1039D0008E099F0948D8A8D560933E0D70933F0D7E
:1039E0008093400D9093410D9FD5C090420DD09093
:1039F000430DE090440DF090450D6C197D098E0942
:103A00009F09643671058105910508F442C08CD583
:103A10006B017C018091420D9091430DA091440D6A
:103A2000B091450DC81AD90AEA0AFB0A86E59DE05D
:103A30000E94750DAB01BC01970186018CE79DE0EA
:103A40000E944B0F8AE49DE00E94750DAB01BC0102
:103A50009701860182E69DE00E944B0F8CE79DE076
:103A60000E94B10F82E69DE00E94B10F6091760D39
:103A70007091770D8091900D9091910D0E941F0F84
:103A800053D56093420D7093430D8093440D9093F2
:103A9000450D4AD5C090460DD090470DE090480D99
:103AA000F090490D6C197D098E099F0960397140AC
:103AB00081059105F0F010928C0D10928D0D1092F1
:103AC0008E0D10928F0D1092720D1092730D109238
:103AD000740D1092750D1092770D1092760D109254
:103AE000910D1092900D60E070E080E090E00E94F7
:103AF0001F0F1AD5C0903A0DD0903B0DE0903C0DB1
:103B0000F0903D0D6C197D098E099F096436710591
:103B10008105910580F080911602882311F0CCDC9C
:103B200001C066DE01D560933A0D70933B0D809322
:103B30003C0D90933D0DF8D4C090360DD090370DCC
:103B4000E090380DF090390D6C197D098E099F09B0
:103B50006436710581059105D8F186E59DE00E94E6
:103B6000750D60939C0770939D0780939E079093BB
:103B70009F078AE49DE00E94750D6093A0077093F3
:103B8000A1078093A2079093A30787E598E00E947E
:103B9000FC1020939207309393074093940750931F
:103BA0009507609396077093970780939807909373
:103BB00099076AE877E080E897E00E94E60CB4D4C1
:103BC0006093360D7093370D8093380D9093390DB7
:103BD000ABD4C090320DD090330DE090340DF09006
:103BE000350D6C197D098E099F09643671058105B3
:103BF000910508F4D9C086E59DE00E94750D2B0162
:103C00003C018AE49DE00E94750D4B015C01C0906F
:103C10000602D0900702E0900802F090090200919D
:103C2000700710917107B201882777FD8095982F52
:103C30000E94A92869837A838B839C83C301B20184
:103C40000E94A928A70196010E940E280E947628AA
:103C5000882777FD8095982F0E94A928A7019601B3
:103C60000E945D299B01AC0169817A818B819C81D5
:103C70000E94A5270E947628882777FD8095982F97
:103C80000E94A9289B01AC0160912E0770912F071B
:103C900080913007909131070E945D29F80160837F
:103CA000718382839383B401882777FD8095982F51
:103CB0000E94A9282B013C01C501B4010E94A9283A
:103CC000A70196010E940E280E947628882777FD7A
:103CD0008095982F0E94A928A70196010E945D292E
:103CE0009B01AC01C301B2010E94A5270E94762866
:103CF000882777FD8095982F0E94A9289B01AC0109
:103D000060912E0770912F078091300790913107B5
:103D10000E945D29F8016483758386839783E0910F
:103D20007707F09178078091920D9091930DA09173
:103D3000940DB091950D80839183A283B38380917C
:103D4000780D9091790DA0917A0DB0917B0D8483BF
:103D50009583A683B78387E598E00E94FC102093A3
:103D60005C0730935D0740935E0750935F07609355
:103D7000600770936107809362079093630764E51F
:103D800077E08AE497E00E94E60C64E577E08AE455
:103D900097E00E94E60CC8D36093320D7093330D08
:103DA0008093340D9093350D87E598E00F900F9038
:103DB0000F900F90DF91CF911F910F91FF90EF9097
:103DC000DF90CF90BF90AF909F908F907F906F903B
:103DD0005F904F900C943D138091170E90E02091CE
:103DE000180E821B910908952091180E8091170ECC
:103DF000281750F4E22FF0E0E75EF14F808190E069
:103E00002F5F2093180E08958FEF9FEF0895E09194
:103E1000180E8091170EE81730F4F0E0E75EF14FCE
:103E2000808190E008958FEF9FEF08950895CF92DD
:103E3000DF92EF92FF920F931F93CF93DF937C015A
:103E4000CB018A012091F30D222389F0EB016B0154
:103E5000C40ED51ECC15DD0561F06991D701ED9139
:103E6000FC910190F081E02DC7011995F3CF642FEB
:103E70008DD1C801DF91CF911F910F91FF90EF90ED
:103E8000DF90CF900895CF93DF931F92CDB7DEB729
:103E900069832091F30D2223D1F02091F40D20327B
:103EA00040F021E030E0FC013383228380E090E0A9
:103EB00014C08091F50DE82FF0E0EA50F24F99819F
:103EC00090838F5F8093F50D8093F40D04C061E0C3
:103ED000CE0101965BD181E090E00F90DF91CF9110
:103EE0000895FC011382128248EE53E060E070E016
:103EF000448355836683778382E197E0918380834F
:103F000008951092180E1092170E1092F50D10923F
:103F1000F40D81C081E08093F30D6093160E109232
:103F2000F50D1092F40D0895F5CF0F93062F21E0B3
:103F30004091F40D66EF7DE08091160ED0D0109286
:103F4000F50D1092F40D1092F30D0F9108958F92CC
:103F50009F92AF92BF92CF92DF92EF92FF920F9318
:103F60001F93CF93DF93EC01F62ED42E4801590115
:103F7000EE2009F1CFDF1E2D143008F013E01150B0
:103F8000B8F0E881F98128E0129FB0011124A50161
:103F9000940104C056954795379527956A95D2F7B1
:103FA000CA01B9010190F081E02DCE011995E7CF4A
:103FB00060E0CE01BADF4D2D413208F040E22C2DF9
:103FC00069E17EE08F2D43D01092180E8093170E7A
:103FD000DF91CF911F910F91FF90EF90DF90CF90E5
:103FE000BF90AF909F908F900895CF92EF920F93D4
:103FF0001F93C22EE12C00E010E09801A8DF1F9172
:104000000F91EF90CF90089521E0EFCF61E08DCF39
:1040100087EE9DE066CF1092A60E81E08093A40EFD
:104020001092A30E61E084E18FD461E085E18CD42D
:10403000E9EBF0E080818E7F808380818D7F8083BB
:1040400088E48093B80085E48093BC0008954132F1
:1040500008F043C09091A60E9111FCCF91E090938F
:10406000A60E2093A40E2FEF2093390E10927E0EF1
:10407000240F20937D0E9093A50E9091A50E880F8E
:10408000892B8093A50E8091A30E813061F410924C
:10409000A30E8091A50E8093BB008091BC0083FD90
:1040A000F8CF85EC01C085EE8093BC008091A60E10
:1040B0008130E1F380917E0E841710F440917E0EE2
:1040C0002FE73EE0FB01D9018A2F821B841718F4E9
:1040D0008D918193F9CF842F089580E008950F93F7
:1040E000413208F04AC09091A60E9111FCCF92E0A7
:1040F0009093A60E0093A40E9FEF9093390E10920A
:104100007E0E40937D0EFB016FE77EE0DB019A2F70
:10411000961B941718F491919D93F9CF1092A50EC8
:104120009091A50E880F892B8093A50E8091A30EE8
:10413000813061F41092A30E8091A50E8093BB0094
:104140008091BC0083FDF8CF85EC01C085EE8093A3
:10415000BC00222321F08091A60E8230E1F38091F1
:10416000390E8F3F61F08091390E803251F080918D
:10417000390E803341F483E007C081E005C080E060
:1041800003C082E001C084E00F910895613298F489
:104190002091A60E243089F460935B0EFC018DE51E
:1041A0009EE0DC012A2F281B261718F421912D935D
:1041B000F9CF80E0089581E0089582E0089585EDCB
:1041C0008093BC008091BC0084FDFCCF1092A60EB1
:1041D000089585EC8093BC001092A60E08951F925E
:1041E0000F920FB60F9211240BB60F922F933F939D
:1041F0004F935F936F937F938F939F93AF93BF93EF
:10420000EF93FF938091B900887F803609F49DC0B9
:1042100070F5883209F45CC090F4803109F455C01F
:1042200038F4882309F4F3C0883009F44EC0F2C092
:10423000883109F44DC0803209F45EC0EBC080348F
:1042400009F469C050F4803309F456C0883309F08A
:10425000E1C08093390EBDDFDDC0803509F44FC069
:10426000883509F45DC0883409F0D4C0D2C08839DB
:1042700009F4C3C0A8F4883709F467C038F4883655
:1042800009F463C0803709F460C0C4C0883809F4F9
:10429000B4C0803909F45FC0803809F0BBC05BC08E
:1042A000803B09F482C038F4803A09F466C0883A49
:1042B00009F47BC0AFC0803C09F4A3C0883C09F47A
:1042C000A0C0883B09F486C0A5C08091A50E10C08F
:1042D00090917E0E80917D0E981770F5E0917E0E84
:1042E00081E08E0F80937E0EF0E0E158F14F8081E7
:1042F0008093BB0085EC82C08093390E8AC0E09128
:104300007E0E81E08E0F80937E0E8091BB00F0E0E8
:10431000E158F14F808390917E0E80917D0E6AC0AE
:10432000E0917E0E81E08E0F80937E0E8091BB0027
:10433000F0E0E158F14F80838091A40E811169C0B3
:1043400081E08093A30E84EA5DC083E08093A60E93
:1043500010923A0ECFCF80913A0E803208F04DC0C5
:10436000E0913A0E81E08E0F80933A0E8091BB006F
:10437000F0E0E55CF14F8083BDCF2BDF80913A0EFA
:10438000803230F4E0913A0EF0E0E55CF14F1082BB
:1043900060913A0E70E0E0919F0EF091A00E8BE3D9
:1043A0009EE0199510923A0E35C084E08093A60ED7
:1043B00010925C0E10925B0EE091A10EF091A20E95
:1043C000199580915B0E811105C081E080935B0E91
:1043D00010925D0EE0915C0E81E08E0F80935C0E7A
:1043E000F0E0E35AF14F80818093BB0090915C0E26
:1043F00080915B0E981708F47DCF85E88093BC0010
:1044000009C085EC8093BC001092A60E03C01092E8
:10441000390ED5DEFF91EF91BF91AF919F918F91B2
:104420007F916F915F914F913F912F910F900BBEB4
:104430000F900FBE0F901F901895CF92DF92EF92C2
:10444000FF920F931F93CF93DF938C01EB01688151
:1044500079818A819B8120E03AEC4AE95BE3B2D71B
:10446000F801C080D180E280F380C20ED31EE41E2A
:10447000F51EC082D182E282F382688379838A83C7
:104480009B83DF91CF911F910F91FF90EF90DF9071
:10449000CF9008951F920F920FB60F9211242F9371
:1044A0003F938F939F93AF93BF938091A80E90916A
:1044B000A90EA091AA0EB091AB0E3091A70E23E0E9
:1044C000230F2D3720F40196A11DB11D05C026E84C
:1044D000230F0296A11DB11D2093A70E8093A80E55
:1044E0009093A90EA093AA0EB093AB0E8091AC0E40
:1044F0009091AD0EA091AE0EB091AF0E0196A11DA0
:10450000B11D8093AC0E9093AD0EA093AE0EB09300
:10451000AF0EBF91AF919F918F913F912F910F90CF
:104520000FBE0F901F9018952FB7F8946091A80EAA
:104530007091A90E8091AA0E9091AB0E2FBF089595
:104540003FB7F8948091AC0E9091AD0EA091AE0E55
:10455000B091AF0E26B5A89B05C02F3F19F001966C
:10456000A11DB11D3FBF6627782F892F9A2F620F9B
:10457000711D811D911D42E0660F771F881F991FD5
:104580004A95D1F70895CF92DF92EF92FF92CF93A1
:10459000DF936B017C01D4DFEB01C114D104E10492
:1045A000F10479F0D1D4CCDF6C1B7D0B683E7340F5
:1045B000A0F381E0C81AD108E108F108C851DC4F26
:1045C000ECCFDF91CF91FF90EF90DF90CF900895E7
:1045D0008230910538F0880F991F880F991F059731
:1045E0000197F1F70895789484B5826084BD84B50D
:1045F000816084BD85B5826085BD85B5816085BDDE
:10460000EEE6F0E0808181608083E1E8F0E01082F6
:10461000808182608083808181608083E0E8F0E037
:10462000808181608083E1EBF0E080818460808321
:10463000E0EBF0E0808181608083E1E9F0E080815F
:1046400082608083808181608083E0E9F0E0808106
:1046500081608083E1EAF0E08081826080838081F4
:1046600081608083E0EAF0E0808181608083E1E224
:10467000F1E0808182608083808181608083E0E2DC
:10468000F1E0808181608083EAE7F0E080818460EE
:10469000808380818260808380818160808380814B
:1046A000806880831092C10008951F93CF93DF9399
:1046B000182FEB0161E00FD1209711F460E004C0E6
:1046C000CF3FD10531F461E0812FDF91CF911F9170
:1046D0003BC1E12FF0E0E45CFE4F449150E0FA0171
:1046E0003197E231F10508F09AC0E658FF4F8CC6C9
:1046F00084B5806884BDC7BD97C084B5806284BD21
:10470000C8BD92C080918000806880938000D09363
:104710008900C093880088C0809180008062809367
:104720008000D0938B00C0938A007EC0809180006F
:10473000886080938000D0938D00C0938C0074C0FB
:104740008091B00080688093B000C093B3006CC0CB
:104750008091B00080628093B000C093B40064C0C8
:1047600080919000806880939000D0939900C093CE
:1047700098005AC080919000806280939000D093FE
:104780009B00C0939A0050C08091900088608093F5
:104790009000D0939D00C0939C0046C08091A000E3
:1047A00080688093A0008091A0008F7B8093A00000
:1047B000D093A900C093A80037C08091A000806268
:1047C0008093A000D093AB00C093AA002DC080912D
:1047D000A00088608093A000D093AD00C093AC008F
:1047E00023C080912001806880932001D09329010B
:1047F000C093280119C0809120018062809320011C
:10480000D0932B01C0932A010FC0809120018860B2
:1048100080932001D0932D01C0932C0105C0C03896
:10482000D1050CF050CF4ACFDF91CF911F91089561
:1048300090E0FC013197E231F10508F04BC0E457FC
:10484000FF4FE2C5809180008F7703C08091800088
:104850008F7D80938000089580918000877FF9CFBD
:1048600084B58F7702C084B58F7D84BD0895809113
:10487000B0008F7703C08091B0008F7D8093B0002F
:104880000895809190008F7707C0809190008F7D70
:1048900003C080919000877F80939000089580915D
:1048A000A0008F7707C08091A0008F7D03C080910A
:1048B000A000877F8093A0000895809120018F77CA
:1048C00007C0809120018F7D03C080912001877FE8
:1048D000809320010895CF93DF9390E0FC01EE5781
:1048E000FE4F2491FC01E853FE4F8491882349F147
:1048F00090E0880F991FFC01EE5BFD4FA591B491EC
:10490000885D9D4FFC01C591D4919FB7611108C08E
:10491000F8948C91209582238C93888182230AC0FD
:10492000623051F4F8948C91322F309583238C931C
:104930008881822B888304C0F8948C91822B8C937D
:104940009FBFDF91CF9108950F931F93CF93DF9374
:104950001F92CDB7DEB7282F30E0F901E45CFE4F9F
:104960008491F901EE57FE4F1491F901E853FE4F7F
:1049700004910023C1F0882319F0698359DF69810C
:10498000E02FF0E0EE0FFF1FE85DFD4FA591B49121
:104990009FB7F8948C91611103C01095812301C0D9
:1049A000812B8C939FBF0F90DF91CF911F910F911F
:1049B0000895FC01818D228D90E0805C9F4F821BC9
:1049C00091098F7399270895FC01918D828D981715
:1049D00031F0828DE80FF11D858D90E008958FEF05
:1049E0009FEF0895FC01918D828D981761F0828D63
:1049F000DF01A80FB11D5D968C91928D9F5F9F7313
:104A0000928F90E008958FEF9FEF089587EA96E2E6
:104A1000892B39F080E090E0892B19F098D1811131
:104A200025C080E090E0892B41F080E090E0892B68
:104A300021F00E94000081111CC080E090E0892BD1
:104A400041F080E090E0892B21F00E94000081116C
:104A500013C080E090E0892BA1F080E090E0892BEA
:104A600081F00E94000081110AC008950E94000098
:104A7000D8CF0E940000E1CF0E940000EACF0C9442
:104A800000000895FC01848DDF01A80FB11DA35A19
:104A9000BF4F2C91848D90E001968F739927848F5E
:104AA000A689B7892C93A089B1898C9180648C9355
:104AB000938D848D981306C00288F389E02D808140
:104AC0008F7D80830895CF93DF93EC01888D8823B9
:104AD000C1F0EA89FB89808185FD05C0A889B98973
:104AE0008C9186FD0EC00FB607FCF5CF808185FF47
:104AF000F2CFA889B9898C9185FFEDCFCE01C2DFB5
:104B0000E8CFDF91CF910895CF92DF92FF920F937C
:104B10001F93CF93DF931F92CDB7DEB76C0181E077
:104B2000D60158968C9358975B969C915B975C96B0
:104B30008C915C97981307C05096ED91FC9151971A
:104B4000808185FD2DC0F601038D10E00F5F1F4FA2
:104B50000F731127F02EF601848DF81210C00FB6D6
:104B600007FCF9CFD6015096ED91FC9151978081C9
:104B700085FFF1CFC601698385DF6981ECCF838D25
:104B8000E80FF11DE35AFF4F6083D6015B960C934B
:104B90005B975296ED91FC915397808180620CC097
:104BA000D6015696ED91FC91579760835096ED9102
:104BB000FC91519780818064808381E090E00F9028
:104BC000DF91CF911F910F91FF90DF90CF900895CB
:104BD000BF92CF92DF92EF92FF92CF93DF93EC01DF
:104BE0006A017B01B22EE889F98982E08083411550
:104BF00081EE58076105710599F060E079E08DE379
:104C000090E0A7019601DED32150310941095109F5
:104C10005695479537952795211580E1380790F0EF
:104C2000E889F989108260E874E88EE190E0A701D4
:104C30009601C8D32150310941095109569547952C
:104C400037952795EC85FD853083EE85FF8520839C
:104C5000188EEC89FD89B082EA89FB8980818061A8
:104C60008083EA89FB89808188608083EA89FB8967
:104C7000808180688083EA89FB8980818F7D808341
:104C8000DF91CF91FF90EF90DF90CF90BF9008958C
:104C90001F920F920FB60F9211240BB60F922F9303
:104CA0008F939F93EF93FF93E091C00EF091C10E0D
:104CB0008081E091C60EF091C70E82FD12C09081F6
:104CC0008091C90E8F5F8F732091CA0E821751F0A9
:104CD000E091C90EF0E0E055F14F958F8093C90E39
:104CE00001C08081FF91EF919F918F912F910F9043
:104CF0000BBE0F900FBE0F901F9018951F920F9232
:104D00000FB60F9211240BB60F922F933F934F9330
:104D10005F936F937F938F939F93AF93BF93EF9323
:104D2000FF9380EB9EE0AEDEFF91EF91BF91AF91DC
:104D30009F918F917F916F915F914F913F912F91B3
:104D40000F900BBE0F900FBE0F901F90189580EB29
:104D50009EE02FDE21E0892B09F420E0822F0895C8
:104D60001092B30E1092B20E88EE93E0A0E0B0E085
:104D70008093B40E9093B50EA093B60EB093B70E79
:104D800082E297E09093B10E8093B00E85EC90E0B4
:104D90009093BD0E8093BC0E84EC90E09093BF0E78
:104DA0008093BE0E80EC90E09093C10E8093C00E75
:104DB00081EC90E09093C30E8093C20E82EC90E061
:104DC0009093C50E8093C40E86EC90E09093C70E2E
:104DD0008093C60E1092C90E1092CA0E1092CB0E7E
:104DE0001092CC0E0895CF92DF92EF92FF920F9324
:104DF0001F93CF93DF937C016A01EB0100E010E089
:104E00000C151D0571F06991D701ED91FC91019090
:104E1000F081E02DC7011995892B19F00F5F1F4F05
:104E2000EFCFC801DF91CF911F910F91FF90EF90CD
:104E3000DF90CF900895FC0180819181D4C3CF93FE
:104E4000DF93EC0188819981009709F0CCD3198216
:104E500018821D821C821B821A82DF91CF910895D5
:104E60000F931F93CF93DF93EC018B016F5F7F4F05
:104E70008881998147D4009731F0998388831B8377
:104E80000A8381E001C080E0DF91CF911F910F91F3
:104E90000895CF93DF93EC0188819981892B29F0C4
:104EA0008A819B818617970758F4CE01D9DF882322
:104EB00041F08C819D81892B19F4E881F981108260
:104EC00081E0DF91CF910895EF92FF920F931F93AE
:104ED000CF93DF93EC017B018A01BA01DADF811104
:104EE00003C0CE01ACDF06C01D830C83B7018881EF
:104EF0009981F5D4CE01DF91CF911F910F91FF9051
:104F0000EF900895FC0111821082138212821582A3
:104F100014826115710551F0FB0101900020E9F741
:104F2000AF0141505109461B570BCECF089508954C
:104F30005ADBFDDF0E94B116C6E0D5E20E94B71C25
:104F40002097E1F363DDFACF08955058BB27AA27D5
:104F50000ED075C166D130F06BD120F031F49F3F97
:104F600011F41EF45BC10EF4E095E7FB51C1E92F8B
:104F700077D180F3BA17620773078407950718F093
:104F800071F49EF58FC10EF4E0950B2EBA2FA02D73
:104F90000B01B90190010C01CA01A0011124FF27E6
:104FA000591B99F0593F50F4503E68F11A16F040E1
:104FB000A22F232F342F4427585FF3CF46953795E0
:104FC0002795A795F0405395C9F77EF41F16BA0BA5
:104FD000620B730B840BBAF09150A1F0FF0FBB1F53
:104FE000661F771F881FC2F70EC0BA0F621F731F9C
:104FF000841F48F4879577956795B795F7959E3FF9
:1050000008F0B3CF9395880F08F09927EE0F979586
:1050100087950895D9D008F481E008950CD00FC188
:1050200007D140F0FED030F021F45F3F19F0F0C01E
:10503000511139C1F3C014D198F39923C9F3552301
:10504000B1F3951B550BBB27AA276217730784077B
:1050500038F09F5F5F4F220F331F441FAA1FA9F331
:1050600033D00E2E3AF0E0E830D091505040E69523
:10507000001CCAF729D0FE2F27D0660F771F881F84
:10508000BB1F261737074807AB07B0E809F0BB0B73
:10509000802DBF01FF2793585F4F2AF09E3F510597
:1050A00068F0B6C000C15F3FECF3983EDCF3869534
:1050B00077956795B795F7959F5FC9F7880F911D0D
:1050C0009695879597F90895E1E0660F771F881FF9
:1050D000BB1F621773078407BA0720F0621B730BAC
:1050E000840BBA0BEE1F88F7E095089504D06894FE
:1050F000B111D9C00895BCD088F09F5790F0B92F56
:105100009927B751A0F0D1F0660F771F881F991F1C
:105110001AF0BA95C9F712C0B13081F0C3D0B1E02E
:105120000895C0C0672F782F8827B85F39F0B93F3E
:10513000CCF3869577956795B395D9F73EF490951E
:105140008095709561957F4F8F4F9F4F0895E8949C
:1051500009C097FB3EF490958095709561957F4FBF
:105160008F4F9F4F9923A9F0F92F96E9BB2793956D
:10517000F695879577956795B795F111F8CFFAF47D
:10518000BB0F11F460FF1BC06F5F7F4F8F4F9F4FAE
:1051900016C0882311F096E911C0772321F09EE80C
:1051A000872F762F05C0662371F096E8862F70E072
:1051B00060E02AF09A95660F771F881FDAF7880F4C
:1051C0009695879597F90895990F0008550FAA0BA2
:1051D000E0E8FEEF16161706E807F907C0F012160A
:1051E0001306E407F50798F0621B730B840B950B0D
:1051F00039F40A2661F0232B242B252B21F4089562
:105200000A2609F4A140A6958FEF811D811D0895FE
:1052100097F99F6780E870E060E008959FEF80EC69
:10522000089500240A94161617061806090608950C
:1052300000240A9412161306140605060895092E72
:105240000394000C11F4882352F0BB0F40F4BF2BE1
:1052500011F460FF04C06F5F7F4F8F4F9F4F089521
:1052600057FD9058440F551F59F05F3F71F0479517
:10527000880F97FB991F61F09F3F79F087950895FC
:10528000121613061406551FF2CF4695F1DF08C01B
:10529000161617061806991FF1CF86957105610538
:1052A00008940895E894BB2766277727CB0197F9E0
:1052B00008958ADF08F48FEF08950BD0C0CFB1DFD7
:1052C00028F0B6DF18F0952309F0A2CFA7CF11245C
:1052D000EACFC6DFA0F3959FD1F3950F50E0551F9D
:1052E000629FF001729FBB27F00DB11D639FAA273B
:1052F000F00DB11DAA1F649F6627B00DA11D661F8A
:10530000829F2227B00DA11D621F739FB00DA11DAA
:10531000621F839FA00D611D221F749F3327A00D64
:10532000611D231F849F600D211D822F762F6A2F00
:1053300011249F5750408AF0E1F088234AF0EE0F85
:10534000FF1FBB1F661F771F881F91505040A9F792
:105350009E3F510570F05CCFA6CF5F3FECF3983EC7
:10536000DCF3869577956795B795F795E7959F5FF9
:10537000C1F7FE2B880F911D9695879597F9089593
:10538000DB018F939F9346D0BF91AF91A29F800D79
:10539000911DA39F900DB29F900D1124089597FB2E
:1053A000072E16F4009406D077FD08D041D007FCF4
:1053B00005D03EF4909581959F4F08957095619525
:1053C0007F4F0895A1E21A2EAA1BBB1BFD010DC041
:1053D000AA1FBB1FEE1FFF1FA217B307E407F507A5
:1053E00020F0A21BB30BE40BF50B661F771F881F81
:1053F000991F1A9469F760957095809590959B0117
:10540000AC01BD01CF010895EE0FFF1F0590F4918F
:10541000E02D199421D0A59F900DB49F900DA49FCD
:10542000800D911D112408950790F691E02D199497
:10543000AA1BBB1B51E107C0AA1FBB1FA617B707BA
:1054400010F0A61BB70B881F991F5A95A9F78095D6
:105450009095BC01CD010895A29FB001B39FC001FA
:10546000A39F700D811D1124911DB29F700D811D90
:105470001124911D0895EF920F931F93CF93DF9303
:10548000E80147FF02C034E101C034E0E42FFF2708
:10549000E7FDF095F7FF03C0F195E195F109E32EE3
:1054A000022F2E2FAE013ED4CE01DF91CF911F915E
:1054B0000F91EF900895CF93DF938230910510F410
:1054C00082E090E0E0914F0FF091500F20E030E04B
:1054D000A0E0B0E0309739F1408151814817590779
:1054E000B8F04817590771F482819381109729F019
:1054F00013969C938E9312972CC09093500F809389
:105500004F0F27C02115310531F04217530718F00E
:10551000A901DB0101C0EF019A01BD01DF01028099
:10552000F381E02DD7CF21153105F9F0281B390B78
:105530002430310580F48A819B816115710521F049
:10554000FB019383828304C09093500F80934F0F8D
:10555000FE01329644C0FE01E20FF31F8193919346
:1055600022503109398328833AC020914D0F309160
:105570004E0F232B41F4209102023091030230930D
:105580004E0F20934D0F2091000230910102211502
:10559000310541F42DB73EB7409104025091050208
:1055A000241B350BE0914D0FF0914E0FE217F307DE
:1055B000A0F42E1B3F0B2817390778F0AC014E5F83
:1055C0005F4F2417350748F04E0F5F1F50934E0F63
:1055D00040934D0F8193919302C0E0E0F0E0CF0142
:1055E000DF91CF910895CF93DF93009709F487C09F
:1055F000FC01329713821282C0914F0FD091500F4D
:10560000209781F420813181280F391F80914D0F1F
:1056100090914E0F8217930779F5F0934E0FE09318
:105620004D0F6DC0DE0120E030E0AE17BF0750F433
:1056300012964D915C9113979D014115510509F109
:10564000DA01F3CFB383A28340815181840F951F88
:105650008A179B0771F48D919C911197840F951F68
:1056600002969183808312968D919C9113979383D8
:1056700082832115310529F4F093500FE0934F0FE9
:105680003EC0D9011396FC93EE9312974D915D9114
:10569000A40FB51FEA17FB0779F480819181840F6D
:1056A000951F0296D90111969C938E9382819381C6
:1056B00013969C938E931297E0E0F0E08A819B8191
:1056C000009719F0FE01EC01F9CFCE010296288176
:1056D0003981820F931F20914D0F30914E0F281763
:1056E000390769F4309729F41092500F10924F0F38
:1056F00002C013821282D0934E0FC0934D0FDF91E0
:10570000CF9108956F927F928F929F92AF92BF92A6
:10571000CF92DF92EF92FF920F931F93CF93DF937D
:10572000EC01CB01209779F4DF91CF911F910F917C
:10573000FF90EF90DF90CF90BF90AF909F908F90B1
:105740007F906F90B8CEFE01E60FF71F9E012250AA
:105750003109E217F30708F4A8C0D9010D911C9193
:10576000119706171707B0F00530110508F49BC014
:10577000A801445051094617570708F494C0025035
:105780001109061B170B019311936D937C93CF01A5
:105790002ADF89C05B01A01AB10A4E01800E911E5A
:1057A000A0914F0FB091500F612C712C60E070E010
:1057B000109709F449C0A815B905C9F5ED90FC90FA
:1057C0001197670142E0C40ED11CCA14DB0478F1C2
:1057D00047018A189B08640142E0C40ED11C12964E
:1057E000BC9012971396AC91B5E0CB16D10440F063
:1057F000B282A38391828082D9018D939C9309C048
:105800000E5F1F4F0E0D1F1DF90111830083EB2D3D
:10581000FA2F6115710531F0DB011396FC93EE93BD
:10582000129741C0F093500FE0934F0F3CC06D9121
:105830007C9111976616770608F43B01BD0112961C
:105840000D90BC91A02DB4CF60914D0F70914E0F73
:1058500068157905E9F468167906D0F440910002DC
:10586000509101024115510541F44DB75EB7609169
:10587000040270910502461B570BE417F507A8F4C4
:10588000F0934E0FE0934D0FF901918380830BC08D
:1058900012DE7C01009749F0A801BE0117D0CE01AD
:1058A000A2DEC70104C0CE0102C080E090E0DF911B
:1058B000CF911F910F91FF90EF90DF90CF90BF900D
:1058C000AF909F908F907F906F900895FB01DC01C7
:1058D00002C001900D9241505040D8F70895FB014D
:1058E000DC0101900D920020E1F708950F931F93C2
:1058F000CF93DF93CDB7DEB72E970FB6F894DEBF08
:105900000FBECDBF0E891F8986E08C831A83098361
:105910008FEF9FE79E838D83AE01465E5F4F688D5C
:10592000798DCE01019610D0EF81F885E00FF11F3F
:1059300010822E960FB6F894DEBF0FBECDBFDF915A
:10594000CF911F910F9108952F923F924F925F92A6
:105950006F927F928F929F92AF92BF92CF92DF927F
:10596000EF92FF920F931F93CF93DF93CDB7DEB7E4
:105970002C970FB6F894DEBF0FBECDBF7C016B0134
:105980008A01FC0117821682838181FFB0C1CE019A
:1059900001964C01F7019381F60193FD859193FFE8
:1059A00081916F01882309F49EC1853239F493FDFA
:1059B000859193FF81916F01853221F4B70190E0C9
:1059C0001CD4E8CF512C312C20E02032A0F48B32B3
:1059D00069F030F4803259F0833269F420612CC0D0
:1059E0008D3239F0803339F4216026C02260246082
:1059F00023C0286021C027FD27C030ED380F3A3082
:105A000078F426FF06C0FAE05F9E300D1124532E75
:105A100013C08AE0389E300D1124332E20620CC052
:105A20008E3221F426FD5FC1206406C08C3611F44D
:105A3000206802C0883641F4F60193FD859193FFFA
:105A400081916F018111C1CF982F9F7D9554933023
:105A500028F40C5F1F4FFFE3F9830DC0833631F04C
:105A6000833771F0833509F057C021C0F801808178
:105A700089830E5F1F4F44244394512C540114C05A
:105A80003801F2E06F0E711CF801A080B18026FF92
:105A900003C0652D70E002C06FEF7FEFC5012C875A
:105AA000A1D32C0183012C852F77222E16C038011B
:105AB000F2E06F0E711CF801A080B18026FF03C0D8
:105AC000652D70E002C06FEF7FEFC5012C877FD39B
:105AD0002C012C852068222E830123FC19C0832DE4
