:10000000AEC100000C94FF0E0C942A0F0C94550FF7
:100010000C94800F0C94AB0F0C94D60FD1C1000040
:10002000CFC10000CDC10000CBC10000C9C100009C
:10003000C7C10000C5C10000C3C10000C1C10000AC
:10004000BFC10000BDC10000BBC10000B9C10000BC
:10005000B7C10000B5C10000B3C100000C94A523D6
:10006000AFC100000C94A3270C94D927A9C10000AC
:10007000A7C10000A5C10000A3C10000A1C10000EC
:100080009FC100009DC100009BC1000099C10000FC
:1000900097C1000095C1000093C100000C944A2252
:1000A0008FC100008DC100008BC1000089C100001C
:1000B00087C1000085C1000083C1000081C100002C
:1000C0007FC100007DC100007BC1000079C100003C
:1000D00077C1000075C1000073C1000071C100004C
:1000E0006FC1000059056105690571057905810534
:1000F00089059105D324D824DD24E724F1246A2539
:10010000FB2403250B2515251F25292538254225E8
:100110006A254C25562560258B258E257D25812534
:100120008725C525922596259C25A025A425AA25A9
:10013000AE25B225C525B825BC25C02500000A0B73
:1001400002090C0D0E080703040100000000000066
:10015000000000000000000000000000000000009F
:10016000000000000000000012111000000000005C
:10017000000000000000000000000000000000007F
:1001800000000102102020080810204010204080AC
:10019000020102010804020101020408102040804B
:1001A00080402010080402018004020180402010D9
:1001B0000804020108040201010204081020408022
:1001C0000102040810204080050505050705080800
:1001D0000808020202020A0A0808040404040101D1
:1001E00001010101010103030303030303030407E6
:1001F00007070C0C0C0C0C0C0C0C0202020206067D
:100200000606060606060B0B0B0B0B0B0B0B000072
:1002100020002300260029002C002F0032000001BE
:10022000000003010601090100002200250028004A
:100230002B002E00310034000201000005010801EE
:100240000B0100002100240027002A002D003000AF
:10025000330001010000040107010A0100407A1087
:10026000F35A00A0724E18090010A5D4E80000E867
:100270007648170000E40B54020000CA9A3B0000C5
:1002800000E1F505000080969800000040420F0054
:100290000000A08601000000102700000000E80315
:1002A000000000006400000000000A0000000000E0
:1002B0000100000000002C76D888DC674F0823DF9F
:1002C000C1DFAE59E1B1B796E5E3E453C63AE65172
:1002D000997696E8E6C28426EB898C9B62ED407C99
:1002E0006FFCEFBC9C9F40F2BAA56FA5F490055A35
:1002F0002AF75C936B6CF9676DC11BFCE0E40D475A
:10030000FEF520E6B500D0ED902E0300943577057C
:100310000080841E080000204E0A000000C80C3334
:100320003333330F986E12831141EF8D2114893BC3
:10033000E65516CFFEE6DB18D1844B381BF77C1D43
:10034000901DA4BBE424203284725E228100C9F196
:1003500024ECA1E53D27031963210B28E01A1124A1
:100360001FBECFEFD1E2DEBFCDBF00E00CBF17E074
:10037000A0E0B2E0E2EFF5E600E00BBF02C00790BC
:100380000D92AE39B107D9F72FE0AEE9B7E001C061
:100390001D92A13FB207E1F713E0CCE5D3E000E006
:1003A00006C022970109FE010BBF0E946F2BC635C4
:1003B000D10780E00807A9F70E94F3280C94E832DF
:1003C0001FCEFC01DB0182818C93838111968C937B
:1003D0001197848112968C931297858113968C9332
:1003E0001397868114968C931497878115968C9316
:1003F0001597808516968C931697818517968C9302
:1004000088E090E00895FC01DB014C9150E060E051
:1004100070E0428353836483758311968C911197A6
:10042000582B428353836483758312968C91129761
:10043000682B428353836483758313968C9113973F
:10044000782B428353836483758314964C9114975D
:1004500050E060E070E046835783608771871596AF
:100460008C911597582B4683578360877187169612
:100470008C911697682B46835783608771871796F0
:100480008C91782B468357836087718788E090E052
:10049000089587E192E0089585E292E008956F92D1
:1004A0007F928F929F92AF92BF92CF92DF92EF9204
:1004B000FF920F931F93CF93DF93FC01DB018C918D
:1004C00090E09383828311962C911197922B9383C2
:1004D000828312964D915D916D917C9115975D018E
:1004E00086E0A80EB11C8A019B010A5F1F4F2F4FA7
:1004F0003F4F6501CA1ADB0AE12CF12CC016D10668
:10050000E206F30640F4E501F9905E01CE010297A0
:10051000EC01F882EECFED01C40FD51F1D82CD0195
:10052000059695838483ED01C40FD51FCE80DF80AF
:10053000E884F984465F5F4F3D01640E751E8A01B1
:10054000222717FD2095322F0C0D1D1D2E1D3F1D3E
:1005500043018A1A9B0AA12CB12C80169106A2068F
:10056000B30640F4E30169913E01CE010297EC012C
:100570006883EECFC40ED51E9D012C0D3D1DC90113
:100580000197EC011882415051094A0F5B1F5783B4
:100590004683E901088119812A813B81D4E0CD0E8F
:1005A000D11C3D016C0C7D1CA601662757FD609592
:1005B000762F400F511F621F731F43018A1A9B0A37
:1005C000A12CB12C84169506A606B70640F4E301CB
:1005D000F9903E01CE010297EC01F882EECF0C0DAE
:1005E0001D1D9D01200F311FC9010197EC011882CB
:1005F000D1E0CD1AD108CA0EDB1ED186C086D90142
:1006000011968C91119712964C91129750E060E0E0
:1006100070E0BA0155274427582B8C91482B13962C
:100620008C91782B4287538764877587C80104961D
:10063000DF91CF911F910F91FF90EF90DF90CF90BE
:10064000BF90AF909F908F907F906F90089586E4B9
:1006500092E008958FE592E00895AF92BF92CF9215
:10066000DF92EF92FF921F93CF93DF939C01FB01E8
:100670008081D90112968C9381819281A381B4816A
:100680005B01C5E0AC0EB11CAC01BD014B5F5F4F1F
:100690006F4F7F4F6501CE1ADF0AE12CF12CC41693
:1006A000D506E606F70650F4E501D9905E017E0115
:1006B000D2E0ED1AF108E701D882ECCFEF01C80FC4
:1006C000D91F1C823496E901FC83EB830596DF91E8
:1006D000CF911F91FF90EF90DF90CF90BF90AF90A0
:1006E000089580E892E0089583E992E0089587E90B
:1006F00096E0089584EB92E00895CF92DF92EF9216
:10070000FF920F931F93CF93DF938C01EB018881AE
:1007100090E0A0E0B0E0F80182839383A483B583E6
:100720002981922B82839383A483B5832A81A22B70
:1007300082839383A483B5832B81B22B828393839B
:10074000A483B5838C8190E0A0E0B0E0868397839A
:10075000A087B1872D81922B86839783A087B1874D
:100760002E81A22B86839783A087B1872F81B22BFE
:1007700086839783A087B187488550E060E070E06A
:1007800042875387648775878985582B42875387AB
:10079000648775878A85682B428753876487758746
:1007A0008B85782B42875387648775878C859D85D9
:1007B000AE85BF859E01205F3F4FAC01BD01405F0C
:1007C0005F4F6F4F7F4F6901CC1ADD0AE12CF12C8E
:1007D000C416D506E606F70650F4F901D1909F013C
:1007E0007F01F2E0EF1AF108F701D082ECCF9E0111
:1007F000280F391FF90117862F96F801D787C6876A
:100800004096DF91CF911F910F91FF90EF90DF9075
:10081000CF90089585ED92E0089585EE92E00895D9
:1008200086E093E008958CE193E008958DE393E0F2
:1008300008958AE593E008950F931F93CF93DF9374
:10084000EC018B01029659DFF801E80FF91F2181B5
:10085000428150E060E070E0BA0155274427522BF6
:100860002081422B2381722B4A8B5B8B6C8B7D8B7F
:100870002581468150E060E070E0BA0155274427A9
:10088000522B2481422B2781722B4E8B5F8B688FDA
:10089000798F0896DF91CF911F910F9108958BE783
:1008A00093E0089585E993E0089586EB93E0089539
:1008B0008DEC93E008958EEE93E0089582E094E04D
:1008C0000895FC01DB0132812381948185813C9371
:1008D00011962C93119712969C93129713968C93C2
:1008E0001397368127819085818514963C931497C0
:1008F00015962C93159716969C93169717968C938E
:100900001797328523859485858518963C9318978B
:1009100019962C9319971A969C931A971B968C9359
:100920008CE090E00895FC01DB0111968C91119709
:1009300012964C91129750E060E070E0BA01552792
:100940004427582B8C91482B13968C911397782B16
:10095000428353836483758315968C9115971696FD
:100960004C91169750E060E070E0BA01552744279B
:10097000582B14968C911497482B17968C91179797
:10098000782B468357836087718719968C911997C6
:100990001A964C911A9750E060E070E0BA01552722
:1009A0004427582B18968C911897482B1B968C919E
:1009B000782B42875387648775878CE090E0089591
:1009C00083E294E0089584E394E008950F931F93E5
:1009D000CF93DF93EC018B0102968FDEF801E80FD5
:1009E000F91F2181428150E060E070E0BA01552793
:1009F0004427522B2081422B2381722B4A8B5B8B05
:100A00006C8B7D8B2581468150E060E070E0BA01FF
:100A100055274427522B2481422B2781722B4E8B42
:100A20005F8B688F798F2185428550E060E070E0B0
:100A3000BA0155274427522B2085422B2385722B40
:100A40004A8F5B8F6C8F7D8F2585468550E060E0F7
:100A500070E0BA0155274427522B2485422B278565
:100A6000722B4E8F5F8F68A379A34096DF91CF9151
:100A70001F910F91089585E594E008958AE694E02A
:100A800008958BE894E0089583EA94E00895282F70
:100A900090E0223010F4049603C0263008F4029748
:100AA0008830910508F044C0FC01EE58FF4F0C94CB
:100AB0005F2B809169008C7F816080936900E89A48
:100AC000089580916900837F846080936900E99A2A
:100AD0000895809169008F7C806180936900EA9A13
:100AE0000895809169008F73806480936900EB9A08
:100AF000089580916A008C7F816080936A00EC9AEF
:100B0000089580916A00837F846080936A00ED9AE3
:100B1000089580916A008F7C806180936A00EE9ACC
:100B2000089580916A008F73806480936A00EF9AC1
:100B300008958E579B4FFC01808108950F931F935A
:100B4000CF93DF93EC018C010A5F1F4FC8013EDF9A
:100B5000E8A5F9A5C801DF91CF911F910F911994D4
:100B6000FC0182A593A5089585E594E008958AE6A1
:100B700094E008950F931F93CF93DF93EC018C01C2
:100B80000A5F1F4FC801CFDEEC89FD89C801DF91E4
:100B9000CF911F910F911994FC018689978908952F
:100BA00083E294E0089584E394E00895FC0186A133
:100BB00097A108958EEE93E0089582E094E0089561
:100BC000AF92BF92CF92DF92EF92FF920F931F935B
:100BD000CF93DF93EC017B018A81DB018C938B81C6
:100BE00011968C93EC81FD81DF010D900020E9F7D7
:100BF000CD0101976C01CE1ADF0AC601A0E0B0E07A
:100C0000FB0182839383A483B5836C817D81A601DC
:100C1000C70106960E94C12DEE81FF81DF010D9074
:100C20000020E9F7CD0101975C01AE1ABF0AF70178
:100C3000EC0DFD1D850120E030E006831783208741
:100C400031879AE0C90ED11C6E817F81A501C70151
:100C50008C0D9D1D0E94C12DCA0CDB1CE885F985F9
:100C6000DF010D900020E9F7CD0101975C01AE1A7C
:100C7000BF0AF701EC0DFD1D850120E030E0008387
:100C800011832283338394E0C90ED11C6885798552
:100C9000A501C7018C0D9D1D0E94C12DAC0CBD1C72
:100CA0003A852B859C858D85F701EA0DFB1D3083E8
:100CB000218392838383C5010496DF91CF911F9195
:100CC0000F91FF90EF90DF90CF90BF90AF9008957D
:100CD0000F931F93CF93DF93DC01FB0112968C914E
:100CE0001297808313968D919C911497EC01099033
:100CF0000020E9F72197C81BD90B8E0120E030E0D6
:100D0000018312832383348313966D917C9114970E
:100D1000AE01CF0105960E94C12DCE010596DF914F
:100D2000CF911F910F910895BF92CF92DF92EF92D2
:100D3000FF920F931F93CF93DF93EC017B018A8186
:100D4000DB018C9311961C92119712961C921297AC
:100D500013961C92FB01379640E024E030E05A8164
:100D6000C90104964517E0F4AF81B88524E0429F9D
:100D7000A00DB11D11246C9111965C9111971296E2
:100D80003C91129713962C91DF0113976C93119657
:100D90005C9311963C9320839C014F5F3496DFCF88
:100DA0004985F701E20FF31F4083118212821382FB
:100DB00020E03985F701E80FF91F04962317B0F4F6
:100DC000AE85BF8534E0239FA00DB11D11246C9129
:100DD00011965C91119712964C91129713963C9133
:100DE00060835183428333832F5FE3CF288920833D
:100DF000118212821382B12C2889B21698F54B2DDC
:100E000050E0440F551FEB89FC89E40FF51F01905A
:100E1000F081E02DDF010D900020E9F79D012150C8
:100E200031096901CE1ADF0AF701E80FF91F8601BF
:100E300020E030E000831183228333838C010C5F38
:100E40001F4FEB89FC89E40FF51F60817181A601BA
:100E5000C701800F911F0E94C12DC601800F911FF5
:100E6000B394CACFDF91CF911F910F91FF90EF9074
:100E7000DF90CF90BF9008950F931F93CF93DF9390
:100E8000DC01FB0112968C911297808313968C9152
:100E90001397818314968C911497828315968C9165
:100EA0001597838316968C911697848317968C9149
:100EB0001797858318968C911897868319968C912D
:100EC000199787831A968C911A9780871B968C9115
:100ED0001B9781871C968C911C9782871D968C91FD
:100EE0001D9783871E968D919C911F97EC01099009
:100EF0000020E9F72197C81BD90B8E0120E030E0D4
:100F000004871587268737871E966D917C911F97DA
:100F1000AE01CF0140960E94C12DCE014096DF91D7
:100F2000CF911F910F9108950F931F93CF93DF934C
:100F3000EC018B010296A0DF5A894B893C892D89EF
:100F4000F801E80FF91F50834183328323835E89C0
:100F50004F89388D298D548345833683278308969E
:100F6000DF91CF911F910F9108950F931F93CF930E
:100F7000DF93EC018B0102967FDF5A894B893C8914
:100F80002D89F801E80FF91F5083418332832383B1
:100F90005E894F89388D298D548345833683278315
:100FA0005A8D4B8D3C8D2D8D5087418732872387FD
:100FB0005E8D4F8D38A129A15487458736872787B5
:100FC0004096DF91CF911F910F9108954F925F92BC
:100FD0007F928F929F92AF92BF92CF92DF92EF92C9
:100FE000FF920F931F93CF93DF93EC018B01DB01F3
:100FF000FC908A818F1550F4B4E0FB9EB00111245F
:101000008F8198850E94DD2C98878F83FA82F80162
:101010003796F12C44E050E09E012D5F3F4F8A81CE
:10102000BA016C5F7F4F6B01F81660F5408150E0AC
:1010300060E070E0742F662755274427DF0113977F
:101040008C91482B11968C91582B11968C91682B72
:101050004B835C836D837E83A6016F81788584E0FA
:10106000F89E600D711D1124D9018D909D90AD9059
:10107000BC90DB018D929D92AD92BC921397F3943C
:101080003496CDCFF801E40FF51FF08089858F15D8
:1010900050F484E0F89EB00111248E859F850E9453
:1010A000DD2C9F878E879601F98680E0FE013A96B7
:1010B0009985D801A20FB31FA9014C5F5F4F6A0148
:1010C000891748F511969C91119712964C91129799
:1010D00050E060E070E0BA0155274427592B9C91FD
:1010E000492B13969C91792B4A875B876C877D8768
:1010F0009601AE85BF8594E0899FA00DB11D112496
:1011000040815181628173814D935D936D937C9396
:1011100013978F5FCDCFFC9088898F1550F46F2D7A
:1011200070E0660F771F8B899C890E94DD2C9C8B59
:101130008B8BC601F88A712C2E0151E1450E511C92
:101140002889721608F044C0F801E80FF91FC08022
:10115000D180E280F3800496F801E80FF91FAC011A
:10116000662757FD6095762F4C0D5D1D6E1D7F1D0A
:101170009F01201B310B4901A12CB12C841695062F
:10118000A606B70638F4B1909F0122503109D90163
:10119000BC92EECFC80ED91EF801EC0DFD1D3197A3
:1011A00010829C0121503109200F311F3A8B298B6D
:1011B000C6013B892C89E32FF22FE70DF11DE70DC6
:1011C000F11DD2012D913C91318320837394B8CFCE
:1011D000DF91CF911F910F91FF90EF90DF90CF9013
:1011E000BF90AF909F908F907F905F904F900895A9
:1011F0008F929F92AF92BF92CF92DF92EF92FF9227
:10120000CF93DF93EC010E94EF236093E60D709380
:10121000E70D8093E80D9093E90D20E030E040E782
:1012200052E46C817D818E819F810E94B82A2CEDD1
:1012300039ED47E35FE30E9469296B017C0120E0FF
:1012400030E040E752E46A8D7B8D8C8D9D8D0E944D
:10125000B82A23ED3DE442E95EE30E94B82A2CED72
:1012600039ED47E35FE30E9469294B015C019B0173
:10127000AC01C701B6010E94002960932C0E709347
:101280002D0E80932E0E90932F0EA5019401C70171
:10129000B6010E9401296093120E7093130E809381
:1012A000140E9093150EDF91CF91FF90EF90DF9089
:1012B000CF90BF90AF909F908F9008950F931F9302
:1012C000CF93DF93FC0102891389C28DD38D0E94D5
:1012D000EF236093E20D7093E30D8093E40D909300
:1012E000E50D17FD02C061E001C060E087E00E94EB
:1012F000FF25B80117FF03C071956195710988E05A
:101300000E94B024D7FD02C061E001C060E089E026
:101310000E94FF25BE01D7FF03C071956195710939
:101320008AE0DF91CF911F910F910C94B0248F929E
:101330009F92AF92BF92CF92DF92EF92FF920F9364
:101340001F93CF93DF93EC01CB01BA018B019C017A
:10135000B7E13595279517950795BA95D1F71127D8
:1013600022273327011511052105310521F00058E9
:101370001C4F2F4F3F4F188219821A826B017C013C
:10138000B5E0CC0CDD1CEE1CFF1CBA95D1F7CB826E
:101390006B017C0143E0F594E794D794C7944A9598
:1013A000D1F7CC826B017C015BE0F594E794D79494
:1013B000C7945A95D1F7CD8268017901E4E0CC0C4D
:1013C000DD1CEE1CFF1CEA95D1F74B015C01F3E13B
:1013D000B594A79497948794FA95D1F7482D4F70B8
:1013E0004C294E8368017901A4E0F594E794D794E1
:1013F000C794AA95D1F720E030E0A9010E946529A1
:1014000087FD02C0CF8203C08C2D80688F8388E067
:1014100090E0DF91CF911F910F91FF90EF90DF90BF
:10142000CF90BF90AF909F908F900895EF92FF92D2
:101430000F931F93CF93DF938C01EB01FC0142814B
:10144000538164817581CE0172DF7C01F801468190
:10145000578160857185CE018E0D9F1D68DFE80E76
:10146000F91EF8014285538564857585CE018E0D80
:101470009F1D5DDF8E0D9F1DDF91CF911F910F91FD
:10148000FF90EF900895EF92FF920F931F93CF93E9
:10149000DF938C017B010296EFDCEC01B701680F52
:1014A000791FC8014296C2DF8C0F9D1FDF91CF913B
:1014B0001F910F91FF90EF900895EF92FF920F937D
:1014C0001F93CF93DF938C017B010296AFDFEC017A
:1014D000B701680F791FC8014096A8DF8C0F9D1FC8
:1014E000DF91CF911F910F91FF90EF900895EF92B0
:1014F000FF920F931F93CF93DF93EC018B01029622
:10150000BBDCF801E80FF91F2A8920832B8921838E
:101510002C8922837C0123E0E20EF11CB8016E0DC0
:101520007F1DCE01459682DFE80EF91EB8016E0DD3
:101530007F1DCE0183967ADFE80EF91EB8016E0D8D
:101540007F1DCE01C19672DF8E0D9F1DDF91CF9161
:101550001F910F91FF90EF9008957F928F929F922D
:10156000AF92BF92CF92DF92EF92FF920F931F93B1
:10157000CF93DF93EC018B0102967EDC2A89F80180
:10158000E80FF91F2083118212829C012C5F3F4FCC
:101590001382712C8A89F801E20FF31FA9014C5FB5
:1015A0005F4F4A01781660F5872D90E0880F991FEC
:1015B000AD89BE89A80FB91F4D915C91DA010D90DC
:1015C0000020E9F79D01215031095901A41AB50AFB
:1015D0006501E12CF12CC082D182E282F382ED8997
:1015E000FE89E80FF91F60817181A501C801880D8E
:1015F000991D0E94C12D9501280D391D7394CACFE4
:101600008F898083118212825A011382F12C8F8973
:10161000F801EA0DFB1DF81688F4AC8DBD8D54E081
:10162000F59EA00DB11D11244D915D916D917C91A0
:10163000CF017DDEA80EB91EF394E9CF8E8D808395
:101640001182128284E0A80EB11C1382F12C8E8DBF
:10165000F801EA0DFB1DF81688F4ABA1BCA124E04B
:10166000F29EA00DB11D11244D915D916D917C9163
:10167000CF015DDEA80EB91EF394E9CF8DA1808362
:101680001182128234E0A30EB11C1382F12C8DA1C1
:10169000F81698F4EAA5FBA544E0F49EE00DF11DD0
:1016A00011244081518162817381C8018A0D9B1D83
:1016B0003EDEA80EB91EF394EACFC501DF91CF91AB
:1016C0001F910F91FF90EF90DF90CF90BF90AF9060
:1016D0009F908F907F9008950F931F93FC01DB01E3
:1016E000038102950695077010E020E030E00D932D
:1016F0001D932D933C931397448150E060E070E07C
:1017000093E0440F551F661F771F9A95D1F7402B22
:10171000512B622B732B4D935D936D937C93139799
:10172000058110E020E030E08BE0000F111F221F48
:10173000331F8A95D1F7042B152B262B372B0D93AE
:101740001D932D933C93139746814F7050E060E0BA
:1017500070E093E1440F551F661F771F9A95D1F7EC
:10176000402B512B622B732B4D935D936D937C9388
:101770001397868182958F7007810F7710E020E0A4
:1017800030E094E0000F111F221F331F9A95D1F70C
:10179000082B0115110521053105A1F00058134052
:1017A0002109310987E1000F111F221F331F8A957C
:1017B000D1F7042B152B262B372B0D931D932D932F
:1017C0003C9313970781007810E020E030E0302F41
:1017D0002227112700274D915D916D917C911397E0
:1017E000402B512B622B732B4D935D936D937C9308
:1017F000139788E090E01F910F910895EF92FF9268
:101800000F931F93CF93DF938C01EB01BC016E5FAD
:101810007F4FCE0161DF7C01B8016A5F7F4FCE014F
:101820008E0D9F1D59DFE80EF91EB801665F7F4FD0
:10183000CE018E0D9F1D50DF8E0D9F1DDF91CF912C
:101840001F910F91FF90EF900895EF92FF920F93E9
:101850001F93CF93DF938C017B0102960E947D033F
:10186000EC01B701680F791FC8014296C7DF8C0FE2
:101870009D1FDF91CF911F910F91FF90EF900895E1
:10188000EF92FF920F931F93CF93DF938C017B0115
:101890000296B4DFEC01B701680F791FC8014096CA
:1018A000ADDF8C0F9D1FDF91CF911F910F91FF90A6
:1018B000EF9008950F931F93CF93DF93EC018C016A
:1018C0000A5F1F4FC801DCDFECA1FDA1C801DF9159
:1018D000CF911F910F911994EF92FF920F931F9345
:1018E000CF93DF93EC018B0102960E947D03F801F8
:1018F000E80FF91F20812A8B21812B8B22812C8BD1
:101900007C0123E0E20EF11CB8016E0D7F1DCE01BB
:10191000459674DFE80EF91EB8016E0D7F1DCE01ED
:1019200083966CDFE80EF91EB8016E0D7F1DCE01A7
:10193000C19664DF8E0D9F1DDF91CF911F910F9196
:10194000FF90EF9008954F925F926F927F928F92E7
:101950009F92AF92BF92CF92DF92EF92FF920F933E
:101960001F93CF93DF93EC018B0102960E947D03BE
:101970004C01F801E80FF91FF0808A898F1550F4A7
:101980006F2D70E0660F771F8D899E890E94DD2C78
:101990009E8B8D8BA4014C5F5F4FFA8A90E06E01A5
:1019A00023E1C20ED11C8A89F801E40FF51F9A01C8
:1019B0002C5F3F4F7901981708F040C080809180DC
:1019C000A280B380F801EE0DFF1DA701662757FD29
:1019D0006095762F480D591D6A1D7B1D9F01201BA8
:1019E000310B2901612C712C4416550666067706C9
:1019F00038F481919F0122503109D9018C93EECFA7
:101A00008E0C9F1CF801E80DF91D3197108297018B
:101A100021503109200F311F3C8B2B8BA4012D89C4
:101A20008E89E22FF82FE90FF11DE90FF11DD60184
:101A30002D913C91318320839F5FB5CFB0808F89FA
:101A40008B1550F434E0B39EB00111248C8D9D8D24
:101A50000E94DD2C9D8F8C8FBF8A912C5E0188E1C6
:101A6000A80EB11C2F89C8018E0D9F1D9216B0F4CF
:101A7000B50132DEE80EF91EEC8DFD8DA4E09A9ED4
:101A8000E00DF11D1124D5014D915D916D917C9179
:101A900040835183628373839394E4CFFC01B080CD
:101AA0008E8D8B1550F4F4E0BF9EB00111248BA1F4
:101AB0009CA10E94DD2C9CA38BA324E0E20EF11CD0
:101AC000BE8E912C5E013FE1A30EB11C2E8DC8018C
:101AD0008E0D9F1D9216B0F4B501FEDDE80EF91EC5
:101AE000EBA1FCA184E0989EE00DF11D1124D5012D
:101AF0004D915D916D917C9140835183628373839D
:101B00009394E4CFFC01B0808DA18B1550F4F4E0E8
:101B1000BF9EB00111248AA59BA50E94DD2C9BA726
:101B20008AA724E0E20EF11CBDA2912C5E0136E2F0
:101B3000A30EB11C8DA19816C8F4B501C8018E0D75
:101B40009F1DCADDE80EF91EEAA5FBA584E0989E5C
:101B5000E00DF11D1124D5014D915D916D917C91A8
:101B600040835183628373839394E4CFC701DF91F1
:101B7000CF911F910F91FF90EF90DF90CF90BF908A
:101B8000AF909F908F907F906F905F904F9008954F
:101B9000CF93DF93AB01EC01AE81BF81ED91FC915E
:101BA00011976C817D810190F081E02DCD01DF9155
:101BB000CF911994FC0183EF96E091838083128288
:101BC000138214821582168217821086118612865D
:101BD0001386148615860895CF93DF93EC0187E46E
:101BE00097E09983888387EE96E09B838A831C82A3
:101BF0001D821E821F82188619861A861B861C86E5
:101C00001D861E861F8682E596E0998B888B1A8A30
:101C10001B8A1C8ACE014596CDDFCE018396CADF92
:101C2000CE01C196DF91CF91C5CFDC01ED91FD9141
:101C30008081ED91FD919081ED91FD916C916370AA
:101C40008E2309F064609F2309F06860E2E3FEE000
:101C5000E60FF11D659565956D936D917D918D9163
:101C60009D91099423C01AC012C016C010C01EC096
:101C700009C014C013C006C019C009C00DC007C0F8
:101C80000DC014C062507040804090400BC0615045
:101C900070408040904006C06E5F01C06F5F7F4F14
:101CA0008F4F9F4F9E938E937E936E930895CF9305
:101CB000DF93EC018B85823020F4F894CE01B5DF00
:101CC00001C0F8946F81788589859A857894DF9131
:101CD000CF910895823159F150F4823099F08330D8
:101CE00061F570937E0E60937D0E81E01CC084319F
:101CF00079F0A0F0853109F57093800E60937F0E26
:101D000082E011C070937C0E60937B0E80E00BC06C
:101D10007093820E6093810E83E005C07093840EF1
:101D20006093830E84E00E94470581E008957093DC
:101D3000860E6093850E85E0F6CF80E008950F93C0
:101D40001F93CF93DF93EC01062F142F62E0802FB7
:101D50000E94C62562E0812F0E94C625202F30E018
:101D6000F901E853FE4FE491F0E0EE0FFF1FE25F50
:101D7000FD4F4591549159834883F901EE57FE4F29
:101D800024912C83212F30E0F901E853FE4FE49198
:101D9000F0E0EE0FFF1FE25FFD4FA591B491BB8312
:101DA000AA83F901EE57FE4F24912D831F821886D6
:101DB00019861A8680ED97E00E944324E881F98114
:101DC00090818C81982381E009F480E0EA81FB8195
:101DD00090812D81922309F082608E83BE01802F35
:101DE00079DF8B87BE01812F75DF2B8590E0820F15
:101DF000911D8B87DF91CF911F910F9108951F92B5
:101E00000F920FB60F9211240BB60F922F933F93A0
:101E10004F935F936F937F938F939F93AF93BF93F2
:101E2000EF93FF9380917F0E9091800EFEDEFF91E5
:101E3000EF91BF91AF919F918F917F916F915F9142
:101E40004F913F912F910F900BBE0F900FBE0F90AF
:101E50001F9018951F920F920FB60F9211240BB678
:101E60000F922F933F934F935F936F937F938F9333
:101E70009F93AF93BF93EF93FF938091810E9091C7
:101E8000820ED3DEFF91EF91BF91AF919F918F9121
:101E90007F916F915F914F913F912F910F900BBE6A
:101EA0000F900FBE0F901F9018951F920F920FB6B4
:101EB0000F9211240BB60F922F933F934F935F9382
:101EC0006F937F938F939F93AF93BF93EF93FF9302
:101ED0008091830E9091840EA8DEFF91EF91BF91C7
:101EE000AF919F918F917F916F915F914F913F91B2
:101EF0002F910F900BBE0F900FBE0F901F90189553
:101F00001F920F920FB60F9211240BB60F922F93C0
:101F10003F934F935F936F937F938F939F93AF9371
:101F2000BF93EF93FF938091850E9091860E7DDE97
:101F3000FF91EF91BF91AF919F918F917F916F91A1
:101F40005F914F913F912F910F900BBE0F900FBE5D
:101F50000F901F9018951F920F920FB60F92112499
:101F60000BB60F922F933F934F935F936F937F9393
:101F70008F939F93AF93BF93EF93FF9380917B0ECB
:101F800090917C0E52DEFF91EF91BF91AF919F91A6
:101F90008F917F916F915F914F913F912F910F9012
:101FA0000BBE0F900FBE0F901F9018951F920F92AF
:101FB0000FB60F9211240BB60F922F933F934F93AE
:101FC0005F936F937F938F939F93AF93BF93EF93A1
:101FD000FF9380917D0E90917E0E27DEFF91EF9111
:101FE000BF91AF919F918F917F916F915F914F9131
:101FF0003F912F910F900BBE0F900FBE0F901F902F
:1020000018950F931F93CF93DF938C01EB0197FDEE
:1020100002C061E001C060E087E00E94FF25B801D6
:1020200017FF03C071956195710988E00E94B02483
:10203000D7FD02C061E001C060E089E00E94FF2599
:10204000BE01D7FF03C07195619571098AE0DF91E8
:10205000CF911F910F910C94B0244F925F926F9289
:102060007F928F929F92AF92BF92CF92DF92EF9228
:10207000FF920F931F93CF93DF93EC016A017B01D3
:1020800028013901488559856A857B859701860134
:10209000041B150B260B370BC901B8010E94042A3B
:1020A00020E635EE4DE053E40E9469294B015C01C6
:1020B00060E67AEE80E090E0A30192010E943D2B61
:1020C000CA01B9010E94022A9B01AC01C501B401F9
:1020D0000E94B82A6C877D878E879F872BED3FE013
:1020E00049EC50E40E94B82A20E030E040E752E496
:1020F0000E9469296E8B7F8B888F998FC886D986BD
:10210000EA86FB86DF91CF911F910F91FF90EF90B0
:10211000DF90CF90BF90AF909F908F907F906F9007
:102120005F904F9008954F925F926F927F928F923F
:102130009F92AF92BF92CF92DF92EF92FF92CF9396
:10214000DF93EC012C853D854E855F856889798913
:102150008A899B890E9400296B017C012C813D8129
:102160004E815F810E9401294B015C016C837D835C
:102170008E839F83209112023091130240911402AA
:1021800050911502C701B6010E94B82A2B013C01EB
:102190002091CA0D3091CB0D4091CC0D5091CD0DB9
:1021A000C501B4010E94B82A9B01AC01C301B20170
:1021B0000E9401294B015C01288139814A815B81A0
:1021C000C701B6010E94002920910E0230910F0232
:1021D00040911002509111020E94B82A9B01AC015B
:1021E000C501B4010E9401294B015C01C882D9825A
:1021F000EA82FB826C897D89882777FD8095982FFC
:102200000E94042A20E030E045EA53E40E94B82A04
:1022100020E030E04FE753E40E946929A5019401D2
:102220000E9401296B017C0120E030E045EA53EC7B
:102230000E94652987FD11C020E030E045EA53E4A3
:10224000C701B6010E94B42A18166CF4C12CD12C17
:1022500075EAE72E73E4F72E06C0C12CD12C65EA8F
:10226000E62E63ECF62E20E030E045EA53E4C701A9
:10227000B6010E94692920E030E04FE753E40E9454
:10228000B82A0E94D1297D8B6C8BDF91CF91FF9072
:10229000EF90DF90CF90BF90AF909F908F907F9006
:1022A0006F905F904F900895FC0183E597E09183D4
:1022B000808380E59FE09383828340E051EE60E07D
:1022C00070E04483558366837783DF01AE57BB4F4D
:1022D0001C921E968BED96E011969C938E9312960F
:1022E0001C92129718961C921E92179719961C9280
:1022F00019971F961C921E921E9750961C925097EB
:1023000054961C921E92539780E090E0DF01A80F34
:10231000B91FAC5EBB4F1D921C9202968233910591
:10232000A9F780E090E0DF01A80FB91FAA5BBB4FBF
:102330001D921C92029682339105A9F780E090E0ED
:10234000DF01A80FB91F54961C920196811522E057
:102350009207B1F780E090E0DF01A80FB91FAC5EF3
:10236000BD4F1C920196811522E09207A9F70895AE
:10237000AC0120E030E0FA01EC5EFB4F0190F0810F
:10238000E02DEF2B91F4F901E65FFD4FEE0FFF1FFB
:10239000E80FF91F7183608323583F4FFB0135839A
:1023A00024839783868381E008952F5F3F4F4E5F9C
:1023B0005F4F29313105F9F680E00895CF92DF9221
:1023C000EF92FF920F931F93CF93DF93CDB7DEB7BA
:1023D00060970FB6F894DEBF0FBECDBF8C010E9490
:1023E000EF2328EE33E040E050E00E943D2B6901EE
:1023F0007A019B01AC01F80184859585A685B78596
:102400008C0D9D1DAE1DBF1D89879A87AB87BC872C
:1024100060E472E48FE090E00E941B2B0089118938
:1024200022893389600F711F821F931F6D877E87FA
:102430008F87988BBE01635F7F4FCE0109960E9404
:10244000782388E0FE013996DE01119601900D9205
:102450008A95E1F729813A814B815C816D817E818A
:102460008F81988560960FB6F894DEBF0FBECDBF02
:10247000DF91CF911F910F91FF90EF90DF90CF9060
:1024800008950F931F93CF93DF93CDB7DEB72A97AD
:102490000FB6F894DEBF0FBECDBF8C0187EB96E080
:1024A0009A8389831B821C821D821E821F8218864A
:1024B00019861A86D801ED91FC910190F081E02DEA
:1024C000AE014F5F5F4F6AE070E0C80119950E944E
:1024D000EF23F80160877187828793872A960FB66A
:1024E000F894DEBF0FBECDBFDF91CF911F910F914A
:1024F00008954F925F926F927F928F929F92AF92C8
:10250000BF92CF92DF92EF92FF920F931F93CF93E0
:10251000DF93CDB7DEB72E970FB6F894DEBF0FBEB0
:10252000CDBF8C0183EC96E09A8389831C821B8249
:1025300082E596E09E838D8398878F839A8789872B
:102540001B861C861D861E86580182E3A80EB11CC0
:102550007801412C82E0582E612C712C6701ACEE81
:10256000CA1AABEFDA0AD601ED91FC913097B9F1B6
:10257000848195819C838B83808191819E838D83CF
:1025800082819381DC01ED91FC910480F581E02D45
:10259000199598878F83D601ED91FC918281938163
:1025A000DC01ED91FC910680F781E02D19959A8769
:1025B00089874B865C866D867E86F8018081918155
:1025C000F601A081B18118966D917C911997DC017B
:1025D000ED91FC91AE014F5F5F4FC8011995B2E0DC
:1025E000EB0EF11CEA14FB0409F0B8CF7801412C82
:1025F000B2E05B2E612C712C6701EAEBCE1AEBEF97
:10260000DE0AF601A081B1811097E1F112968D9159
:102610009C9113979C838B8314968D919C91159715
:102620009E838D83ED91FC9111970480F581E02DBF
:10263000CD01199598878F83D6018D919C91DC01EE
:10264000ED91FC910680F781E02D19959A87898795
:102650004B865C866D867E86D801ED91FC918080EC
:102660009180F60180819181DC01ED91FC910280E5
:10267000F381E02D1995AE014F5F5F4FBC01C8019A
:10268000F4011995F2E0EF0EF11CEA14FB0409F0D5
:10269000B3CFF801EE57FB4F81E080832E960FB643
:1026A000F894DEBF0FBECDBFDF91CF911F910F9188
:1026B000FF90EF90DF90CF90BF90AF909F908F9062
:1026C0007F906F905F904F9008958F929F92AF92FE
:1026D000BF92CF92DF92EF92FF920F931F93CF930F
:1026E000DF93CDB7DEB72A970FB6F894DEBF0FBEE3
:1026F000CDBF8C015B0187EB96E09A8389831B82B7
:102700001C821D821E821F82188619861A860E94CC
:10271000EF236B017C01F80180859185A285B3854B
:10272000C81AD90AEA0AFB0AB501CE0101960E942D
:10273000030298EE892E93E0992EA12CB12CC701AB
:10274000B601A50194010E943D2B69017A019B010C
:10275000AC018B819C81AD81BE818C0D9D1DAE1D18
:10276000BF1D8B839C83AD83BE8360E472E48FE0E6
:1027700090E00E941B2BCF80D884E984FA84C60E97
:10278000D71EE81EF91ECF82D886E986FA860E94F7
:10279000EF23CB80DC80ED80FE80F1E0CF1AD10802
:1027A000E108F108A50194010E943D2B49015A015D
:1027B0009B01AC01C818D908EA08FB08F801C486D7
:1027C000D586E686F786CF80D884E984FA84F6E356
:1027D000DF1AF5E6EF0AF4ECFF0A60E472E48FE03A
:1027E00090E00E941B2BC61AD70AE80AF90AF801E2
:1027F000C08AD18AE28AF38AB801605F7F4FC8013C
:102800000C960E9478230E94EF23F801E957FB4FB2
:1028100060837183828393832A960FB6F894DEBF18
:102820000FBECDBFDF91CF911F910F91FF90EF9021
:10283000DF90CF90BF90AF909F908F9008952F9290
:102840003F924F925F926F927F928F929F92AF9240
:10285000BF92CF92DF92EF92FF920F931F93CF938D
:10286000DF93CDB7DEB760970FB6F894DEBF0FBE2B
:10287000CDBF4C010E94EF236B017C0194012957CD
:102880003B4F3E832D83F90180819181A281B381E9
:10289000A7019601281B390B4A0B5B0BDA01C90112
:1028A000893F9A42A105B10510F035971082A40125
:1028B00048585B4F588B4F87DA018D919C91892B3B
:1028C00079F0F401E557FB4F80819181A281B381BA
:1028D0008C159D05AE05BF0518F4FA011182108212
:1028E0003401F0E86F1AFBEF7F0A940124583B4F44
:1028F0003A832983A4014E575B4F58874F832C5E40
:102900003F4F3C872B87435F5F4F5E874D87840136
:1029100006581B4F1601270154E1250E311C411C9E
:10292000511C540184E1A80EB11C940122583B4F64
:102930003C832B83A40145575B4F5A874987D401B9
:1029400012968D919C911397DC01ED91FC9106807C
:10295000F781E02D19959C0197FD29C1F301808134
:102960009181820F931F91838083AF85B8894D91A8
:102970005C9147305105E1F4EB81FC8180819181CC
:10298000AC014F5F5F4F51834083F401E80FF91FA3
:10299000248BD8018D919C91119701978D939C93D5
:1029A000892B09F0BECF28E030E0EF85F88986C09A
:1029B0004115510519F52F3F310569F481E090E08B
:1029C000AF85B8898D939C93E985FA852082318201
:1029D00042825382B4CF0E94EF236C197D098E0985
:1029E0009F09663071058105910508F49ACFF401BD
:1029F000EE57FB4F10828EEF9FEFFEC04130510526
:102A000091F42E3F310519F482E090E02EC0EF855D
:102A1000F88911821082AF81B8858C91811181CFA4
:102A2000C4012FDD8CCF4230510589F4F801318388
:102A30002083AB81BC811D921C9283E090E0EF85E6
:102A4000F88991838083D3012D933C9378CF4330D1
:102A5000510581F4322F2227F80180819181820F64
:102A6000931F9183808384E090E0AF85B8898D9334
:102A70009C9365CF4430510599F460E071E00E9469
:102A80002A2B8F3F910539F485E090E0EF85F88996
:102A90009183808354CFAF85B8891D921C924FCF0C
:102AA0004530510571F4E981FA813183208386E054
:102AB00090E0AF85B8898D939C93F3013183208397
:102AC0003ECF46305105D1F4322F2227A981BA8159
:102AD0008D919C911197820F931F8D939C9327E06A
:102AE00030E0EF85F88931832083D8018D919C9166
:102AF000892B09F016CF28E030E0E0CF48305105AF
:102B000009F00FCFAF85B8891D921C9260E071E08B
:102B10000E942A2B8F3F910509F003CFA981BA812A
:102B2000ED91FC913097A1F4C401ABDCC401E1DC70
:102B3000F401ED57FB4FC082D182E282F382ED8136
:102B4000FE81C082D182E282F3828FEF9FEF54C078
:102B5000EA30F10521F4B501C401B7DDF0CEE6306D
:102B6000F10551F4B5018B859C850E94E60781E053
:102B7000AD85BE858C93E3CEEB30F10521F4EF817A
:102B8000F8851082DCCEE154FE4FEE0FFF1FE80DFA
:102B9000F91D80819181009709F4C3CEDC01ED918C
:102BA000FC910190F081E02DB5011995C8CEF4019A
:102BB000EE57FB4F80818823E9F084010D571B4FAE
:102BC000F80180819181A281B381A7019601281B20
:102BD000390B4A0B5B0BDA01C901853C9940A10511
:102BE000B10540F0C4014DDCD801CD92DD92ED92EB
:102BF000FC92139780E090E060960FB6F894DEBFE9
:102C00000FBECDBFDF91CF911F910F91FF90EF903D
:102C1000DF90CF90BF90AF909F908F907F906F90FC
:102C20005F904F903F902F9008958F929F92AF9218
:102C3000BF92CF92DF92EF92FF92CF93DF936B011F
:102C40007C0120910E0E30910F0E4091100E50918C
:102C5000110E6091280E7091290E80912A0E90918C
:102C60002B0E0E94012920E030E040E05FE30E944B
:102C7000B82A20E030E040E752E40E9469292CEDB8
:102C800039ED47E35FE30E94B82A4B015C01C6E2DD
:102C9000D8E083EF98E092DB288339834A835B8313
:102CA0006C837D838E839F83809232089092330859
:102CB000A0923408B0923508109236081092370866
:102CC0001092380810923908C701B6010E94022AF2
:102CD00020E030E04AE754E40E94692960933A0812
:102CE00070933B0880933C0890933D086EE178E038
:102CF00084E198E00E94C80D83EF98E0DF91CF91C6
:102D0000FF90EF90DF90CF90BF90AF909F908F900B
:102D100096CDCF93DF9300D01F921F92CDB7DEB731
:102D20002FEC36E03A8329836B835D834C83DC018F
:102D3000ED91FC910190F081E02DAE014F5F5F4F6E
:102D400067E070E019950F900F900F900F900F9023
:102D5000DF91CF910895CF92DF92EF92FF920F9380
:102D60001F93CF93DF93FC0122813381C481D581EE
:102D7000422F532F6C2F7D2F40931202509313023A
:102D8000609314027093150216810781F084E18428
:102D9000D801C7014B2F5A2F692F782F40930E026D
:102DA00050930F0260931002709311024285538575
:102DB000648575856A01C601A62FB72F8093CA0D59
:102DC0009093CB0DA093CC0DB093CD0D7F936F93CB
:102DD0005F934F93EF92FF920F931F93DF93CF93E5
:102DE0003F932F9384EC94E09F938F9388E99DE029
:102DF0009F938F930E94D12D8DB79EB740960FB6AB
:102E0000F8949EBF0FBE8DBF48E95DE061E083EF9F
:102E100098E0DF91CF911F910F91FF90EF90DF909D
:102E2000CF9077CFCF92DF92EF92FF920F931F93C5
:102E3000CF93DF93EC017B01643671053CF0FC011C
:102E4000EE57FB4F8081882309F462C0DA01ED91CF
:102E5000FC910190F081E02DBE01655E7D4FCA01BD
:102E600019958C016E01BCEECB1ABDEFDB0A2FEF7A
:102E7000F60120832EEF31962083319680833196A0
:102E80009083890F8095319680833196E0823196C8
:102E9000F08285E090E020E030E0A801495F5F4FDC
:102EA0008417950750F4FE01E80FF91FEC5EFD4F03
:102EB0006081260F311D0196F3CF085F1F4F4C0F25
:102EC0005D1FFA01EC5EFD4F209520830130F2E09A
:102ED0001F07B0F47601C7018C199D09801791076F
:102EE0006CF48A819B81D7016D917D01DC01ED91AC
:102EF000FC910190F081E02D1995EDCFC8010AC039
:102F000046ED54E063E0CE0104DF8FEF9FEF02C097
:102F100080E090E0DF91CF911F910F91FF90EF90B3
:102F2000DF90CF900895CF92DF92EF92FF920F93B0
:102F30001F93CF93DF93CDB7DEB764970FB6F894A6
:102F4000DEBF0FBECDBF61E088E00E94C62561E014
:102F500087E00E94C62561E08AE00E94C62561E004
:102F600089E00E94C62560E070E080E090E049D8EA
:102F70004091F7085091F8086091F9087091FA08AB
:102F800026E08091F5089091F6080E944327109260
:102F90006C0D10926B0D10926E0D10926D0D1092C3
:102FA000720D1092710D1092700D10926F0D80E0E5
:102FB00091EEA0E0B0E08093F7089093F808A0931A
:102FC000F908B093FA08E9E3FDE080E090E0219190
:102FD0003191232B81F4FC01EE0FFF1FE75CF24FD0
:102FE00023EB38E0318320838C599F4F9093B608B0
:102FF0008093B50804C001968931910541F7E9E352
:10300000FDE080E090E021913191232B81F4FC01DF
:10301000EE0FFF1FE75CF24F2BEC38E0318320838B
:103020008C599F4F9093CE088093CD0804C0019691
:103030008931910541F7E9E3FDE080E090E02191DD
:103040003191232B81F4FC01EE0FFF1FE75CF24F5F
:1030500027E838E0318320838C599F4F90938A086A
:103060008093890804C001968931910541F764E194
:1030700078E083EF98E07CD96EE378E083EF98E026
:1030800077D98FE095E090930B0880930A0860EF62
:1030900077E083EF98E06CD982E295E09093D507D2
:1030A0008093D4078AE092E09093DA078093D9075F
:1030B00083EF98E083D92093CC073093CD074093DA
:1030C000CE075093CF076093D0077093D1078093BA
:1030D000D2079093D30782E08093D6078093DB07D3
:1030E0008093E2078093E90782EB97E09093E807EB
:1030F0008093E7078AEA97E09093E1078093E007DF
:1031000082EA97E09093EF078093EE076AEB77E00F
:1031100083EF98E02DD98091750D811104C083EF64
:1031200098E08DDBF8CF4FE255E061E083EF98E067
:10313000F0DD4FE455E061E083EF98E0EADD409197
:10314000750E5091760E61E083EF98E0E2DD6091BC
:1031500006027091070280910802909109029E0177
:103160002F5F3F4F7901890124E04AE00E94962BAE
:10317000FF92EF9288E695E09F938F9368E9C62EC1
:103180006DE0D62EDF92CF920E94D12DA60161E094
:1031900083EF98E0BEDD60919E0770919F0780915C
:1031A000A0079091A10724E04AE00E94962BFF928D
:1031B000EF928CE895E09F938F93DF92CF920E94DD
:1031C000D12DA60161E083EF98E0A3DD87E89EE0C2
:1031D000F3D765E070E080E090E00E941E240FB617
:1031E000F894DEBF0FBECDBF64960FB6F894DEBF75
:1031F0000FBECDBFDF91CF911F910F91FF90EF9048
:10320000DF90CF900895EF92FF920F931F93CF938B
:10321000DF936BEA75E085E79EE00E94DD2880E69B
:103220009EE00E94DA0D8BE49EE00E94DA0D86E3B8
:103230009EE00E94DA0D42E163E186EF9DE00E948C
:103240009F0E42E063E08AEE9DE00E949F0E83EFB6
:1032500098E02AD88DE597E09093CC088093CB082E
:1032600083E297E09093D2088093D10883ED98E0B1
:103270000E94DA0D81EE98E00E94DA0D88EF98E066
:103280009093F0088093EF0881E090E09093F2082B
:103290008093F10820EF35E03093D0082093CF08D9
:1032A00029E637E03093B4082093B3082FE237E0E3
:1032B0003093BA082093B9081092BB081092BC084A
:1032C0001092BD081092BE081092BF081092C0085C
:1032D0001092C1081092C2081092C3081092C4083C
:1032E0001092C5081092C6082BEA36E13093C80840
:1032F0002093C7089093CA088093C90828EF35E047
:103300003093B8082093B70825E737E03093880852
:10331000209387082BE337E030938E0820938D08A5
:1033200007EE16E01093900800938F081092910812
:103330001092920810929308109294081092950897
:103340001092960810929708109298081092990877
:1033500010929A0810929B0810929C08C2E5D6E041
:10336000D0939E08C0939D0810929F081092A008C9
:103370001092A1081092A2081092A3081092A4081B
:103380001092A5081092A6081092A7081092A808FB
:103390001092A9081092AA081092AB081092AC08DB
:1033A0001092AD081092AE082EE539E03093B008C7
:1033B0002093AF089093B2088093B1088CEF95E00A
:1033C00090938C0880938B0888E498E00E94EC0D21
:1033D00084E096E090933F0880933E0888E498E06C
:1033E0009093410880934008109247081092460835
:1033F0008EE1E82E88E0F82E8FEF96E0F7019183BA
:1034000080831093210800932008109222081092C4
:103410002308109224081092250810922608109272
:103420002708109228081092290810922A08109252
:103430002B0810922C0810922D08D0932F08C093BF
:103440002E0880E398E00E94DA0D8CE096E09093DD
:10345000150880931408F0921708E092160810924D
:103460001D0810921C08EAEFF7E08BE097E09183CB
:1034700080831093FD070093FC071092FE071092C3
:10348000FF07109200081092010810920208109293
:103490000308109204081092050810920608109272
:1034A00007081092080810920908D0930B08C093DF
:1034B0000A0810920C0810920D0810920E08109233
:1034C0000F08109210081092110810921208109212
:1034D000130889E195E09093F1078093F007F0934A
:1034E000F307E093F2071092F9071092F807E4EC63
:1034F000F7E087E197E0918380831093C7070093FB
:10350000C6071092C8071092C9071092CA071092F6
:10351000CB071092CC071092CD071092CE071092D5
:10352000CF071092D0071092D1071092D2071092B5
:10353000D307D093D507C093D4071092D607109223
:10354000DA071092D9071092DB071092E107109268
:10355000E0071092E2071092E8071092E707109236
:10356000E9071092EF071092EE0784E196E090933E
:10357000BB078093BA07F093BD07E093BC07109296
:10358000C3071092C20720910602309107024091B2
:103590000802509109026BED7FE089EC90E40E94F3
:1035A000692960939E0770939F078093A00790936B
:1035B000A107DF91CF911F910F91FF90EF90089598
:1035C00085E79EE00C947628CF93C62FBC0187E850
:1035D0009EE005D66C2F87E89EE0B0D587E89EE098
:1035E000CF916FC61F93CF93DF931F92CDB7DEB7F6
:1035F000162FBC0187E89EE04983F1D5612F87E84B
:103600009EE09CD54981642F87E89EE097D587E8A6
:103610009EE00F90DF91CF911F9153C640E261E091
:103620008EE190E0DFDF65E070E080E090E00E94F6
:103630001E2448E160E08EE190E0D4DF65E070E0B8
:1036400080E090E00E941E2441E062E08EE190E084
:10365000C9DF65E070E080E090E00E941E2481E018
:1036600008951F93CF93DF93EC01162FBC0187E8D9
:103670009EE0B5D5612F87E89EE060D587E89EE0A3
:1036800020D664E170E080E090E00E941E2441E0DA
:1036900050E0BE0187E89EE012D687E89EE0FFD4A6
:1036A000DF91CF911F91089560E083E590E0D9DF2D
:1036B000853E19F548E06DE283E590E093DF65E033
:1036C00070E080E090E00E941E2449E061E383E521
:1036D00090E088DF65E070E080E090E00E941E24CA
:1036E00049E06CE283E590E07DDF65E070E080E03A
:1036F00090E00E941E2481E0089580E0089560E03B
:1037000088E690E0AEDF8E77883671F540E86EE3AC
:1037100088E690E067DF65E070E080E090E00E947E
:103720001E244BE166E188E690E05CDF65E070E036
:1037300080E090E00E941E2443E165E188E690E08D
:1037400051DF65E070E080E090E00E941E2443E0DD
:103750006EE388E690E046DF6AE070E080E090E0AB
:103760000E941E2481E0089580E008959DDF8093EB
:103770005A08C5DF80935B0851DF80935C08809115
:103780005A08811106C045E256E063E083EF98E0F5
:10379000C0DA80915B08811106C04EE356E063E019
:1037A00083EF98E0B6DA80915C08811106C043E5AA
:1037B00056E063E083EF98E0ACDA109216020895C9
:1037C000CF93DF931092740E62E383E590E0FCDE0A
:1037D00046E050E063E570E087E89EE070D587E85A
:1037E0009EE055D4892B79F0C091740ED0E087E823
:1037F0009EE055D4C259D14F88838091740E8F5F5B
:103800008093740EECCF60916F0E70E0762F662778
:1038100080916E0E682B882777FD8095982F0E94E7
:10382000042A2DEC3CEC4CEC51E40E946929609395
:10383000620E7093630E8093640E9093650E609198
:10384000710E70E0762F66278091700E682B8827A6
:1038500077FD8095982F0E94042A2DEC3CEC4CECCF
:1038600051E40E9469296093660E7093670E8093FD
:10387000680E9093690E6091730E70E0762F662744
:103880008091720E682B882777FD8095982F0E9473
:10389000042A2DEC3CEC4CEC51E40E946929609325
:1038A0006A0E70936B0E80936C0E90936D0EDF9189
:1038B000CF910895CF93DF9310925F0E6DE188E66C
:1038C00090E082DE46E050E068E670E087E89EE047
:1038D000F6D487E89EE0DBD3892B79F0C0915F0EA8
:1038E000D0E087E89EE0DBD3C75AD14F8883809130
:1038F0005F0E8F5F80935F0EECCF6091590E70E08A
:10390000762F662780915A0E682B882777FD809541
:10391000982F0E94042A29ED33E24FE95AE30E94CE
:10392000B82A60934D0E70934E0E80934F0E909375
:10393000500E60915B0E70E0762F662780915C0ED2
:10394000682B882777FD8095982F0E94042A29EDFF
:1039500033E24FE95AE30E94B82A6093510E709304
:10396000520E8093530E9093540E60915D0E70E052
:10397000762F662780915E0E682B882777FD8095CD
:10398000982F0E94042A29ED33E24FE95AE30E945E
:10399000B82A6093550E7093560E8093570E9093ED
:1039A000580EDF91CF910895CF93DF9310924A0E76
:1039B00063E08EE190E008DE46E050E06EE170E00A
:1039C00087E89EE07CD487E89EE061D3892B79F07C
:1039D000C0914A0ED0E087E89EE061D3CC5BD14F26
:1039E000888380914A0E8F5F80934A0EECCF60915E
:1039F000440E70E0762F66278091450E682B88274D
:103A000077FD8095982F0E94042A2FE135E84BE638
:103A10005FE30E94B82A6093380E7093390E80934A
:103A20003A0E90933B0E6091480E70E0762F662719
:103A30008091490E682B882777FD8095982F0E94EA
:103A4000042A2FE135E84BE65FE30E94B82A609331
:103A50003C0E70933D0E80933E0E90933F0E60910E
:103A6000460E70E0762F66278091470E682B8827D8
:103A700077FD8095982F0E94042A2FE135E84BE6C8
:103A80005FE30E94B82A6093400E7093410E8093CA
:103A9000420E9093430E41E062E08EE190E0DF91B0
:103AA000CF91A0CD83EF98E00E94DE1120935008C3
:103AB0003093510840935208509353086093540830
:103AC0007093550880935608909357088BE696E0BC
:103AD000909359088093580880915A08882389F157
:103AE0006FDE8091620E9091630EA091640EB09192
:103AF000650E80935F0890936008A0936108B0936F
:103B000062088091660E9091670EA091680EB09148
:103B1000690E8093630890936408A0936508B0933E
:103B2000660880916A0E90916B0EA0916C0EB09118
:103B30006D0E8093670890936808A0936908B0930E
:103B40006A0880915B08882389F1B4DE80914D0E6C
:103B500090914E0EA0914F0EB091500E80936D0833
:103B600090936E08A0936F08B09370088091510EE7
:103B70009091520EA091530EB091540E8093710803
:103B800090937208A0937308B09374088091550EB7
:103B90009091560EA091570EB091580E80937508D3
:103BA00090937608A0937708B093780880915C088A
:103BB000882389F1F9DE8091380E9091390EA09119
:103BC0003A0EB0913B0E80937B0890937C08A093B3
:103BD0007D08B0937E0880913C0E90913D0EA0919F
:103BE0003E0EB0913F0E80937F0890938008A09383
:103BF0008108B09382088091400E9091410EA0916F
:103C0000420EB091430E8093830890938408A09352
:103C10008508B093860868E478E08EE398E00C9419
:103C2000C80D4F925F926F927F928F929F92AF9248
:103C3000BF92CF92DF92EF92FF920F931F93CF9399
:103C4000DF9300D01F92CDB7DEB7C9D5C090DA0D93
:103C5000D090DB0DE090DC0DF090DD0D6C197D094E
:103C60008E099F096436710581059105C0F0B7D5AD
:103C7000C090DA0DD090DB0DE090DC0DF090DD0D02
:103C80006C197D098E099F090E941516A8D56093AD
:103C9000DA0D7093DB0D8093DC0D9093DD0D9FD5D5
:103CA000C090DE0DD090DF0DE090E00DF090E10DC2
:103CB0006C197D098E099F0964367105810591058E
:103CC00008F442C08CD56B017C018091DE0D90918F
:103CD000DF0DA091E00DB091E10DC81AD90AEA0AF2
:103CE000FB0A86EF9DE00E94570EAB01BC019701D5
:103CF00086018CE19EE00E942D108AEE9DE00E94DC
:103D0000570EAB01BC019701860182E09EE00E9444
:103D10002D108CE19EE00E94931082E09EE00E94B4
:103D200093106091160E7091170E8091300E909145
:103D3000310E0E94011053D56093DE0D7093DF0D9C
:103D40008093E00D9093E10D4AD5C090E60DD090A0
:103D5000E70DE090E80DF090E90D6C197D098E09F2
:103D60009F096039714081059105F0F010922C0E89
:103D700010922D0E10922E0E10922F0E1092120EE7
:103D80001092130E1092140E1092150E1092170E20
:103D90001092160E1092310E1092300E60E070E00C
:103DA00080E090E00E9401101AD5C090D60DD0900E
:103DB000D70DE090D80DF090D90D6C197D098E09C2
:103DC0009F09643671058105910580F08091160286
:103DD000882311F0CBDC01C065DE01D56093D60DE0
:103DE0007093D70D8093D80D9093D90DF8D4C090CF
:103DF000D20DD090D30DE090D40DF090D50D6C196C
:103E00007D098E099F096436710581059105D8F1F8
:103E100086EF9DE00E94570E60930C0870930D088A
:103E200080930E0890930F088AEE9DE00E94570E33
:103E300060931008709311088093120890931308F0
:103E400083EF98E00E94DE1120930208309303086C
:103E50004093040850930508609306087093070880
:103E600080930808909309086AEF77E080EF97E065
:103E70000E94C80DB4D46093D20D7093D30D80937B
:103E8000D40D9093D50DABD4C090CE0DD090CF0D66
:103E9000E090D00DF090D10D6C197D098E099F092D
:103EA000643671058105910508F4D9C086EF9DE05F
:103EB0000E94570E2B013C018AEE9DE00E94570E96
:103EC0004B015C01C0900602D0900702E09008020E
:103ED000F09009020091E0071091E107B2018827F4
:103EE00077FD8095982F0E94042A69837A838B83BB
:103EF0009C83C301B2010E94042AA70196010E947B
:103F000069290E94D129882777FD8095982F0E94E2
:103F1000042AA70196010E94B82A9B01AC0169817D
:103F20007A818B819C810E9400290E94D129882757
:103F300077FD8095982F0E94042A9B01AC01609127
:103F40009E0770919F078091A0079091A1070E9402
:103F5000B82AF8016083718382839383B401882730
:103F600077FD8095982F0E94042A2B013C01C50102
:103F7000B4010E94042AA70196010E9469290E94A7
:103F8000D129882777FD8095982F0E94042AA701C0
:103F900096010E94B82A9B01AC01C301B2010E94A4
:103FA00000290E94D129882777FD8095982F0E94AB
:103FB000042A9B01AC0160919E0770919F0780913C
:103FC000A0079091A1070E94B82AF8016483758325
:103FD00086839783E091E707F091E8078091320E9E
:103FE0009091330EA091340EB091350E8083918361
:103FF000A283B3838091180E9091190EA0911A0E8E
:10400000B0911B0E84839583A683B78383EF98E0DA
:104010000E94DE112093CC073093CD074093CE074A
:104020005093CF076093D0077093D1078093D20746
:104030009093D30764EC77E08AEB97E00E94C80D79
:1040400064EC77E08AEB97E00E94C80DC8D36093D8
:10405000CE0D7093CF0D8093D00D9093D10D83EF43
:1040600098E00F900F900F900F90DF91CF911F91DC
:104070000F91FF90EF90DF90CF90BF90AF909F9007
:104080008F907F906F905F904F900C941F14809151
:10409000B70E90E02091B80E821B910908952091EF
:1040A000B80E8091B70E281750F4E22FF0E0E754D5
:1040B000F14F808190E02F5F2093B80E08958FEF2D
:1040C0009FEF0895E091B80E8091B70EE81730F495
:1040D000F0E0E754F14F808190E008958FEF9FEF7B
:1040E00008950895CF92DF92EF92FF920F931F935E
:1040F000CF93DF937C01CB018A012091930E222381
:1041000089F0EB016B01C40ED51ECC15DD0561F005
:104110006991D701ED91FC910190F081E02DC701EB
:104120001995F3CF642F8DD1C801DF91CF911F91E5
:104130000F91FF90EF90DF90CF900895CF93DF9392
:104140001F92CDB7DEB769832091930E2223D1F061
:104150002091940E203240F021E030E0FC013383C6
:10416000228380E090E014C08091950EE82FF0E06B
:10417000EA56F14F998190838F5F8093950E8093DB
:10418000940E04C061E0CE0101965BD181E090E025
:104190000F90DF91CF910895FC011382128248EEB7
:1041A00053E060E070E0448355836683778381E861
:1041B00097E09183808308951092B80E1092B70E05
:1041C0001092950E1092940E81C081E08093930E10
:1041D0006093B60E1092950E1092940E0895F5CF3E
:1041E0000F93062F21E04091940E66E97EE08091C6
:1041F000B60ED0D01092950E1092940E1092930E8F
:104200000F9108958F929F92AF92BF92CF92DF92BB
:10421000EF92FF920F931F93CF93DF93EC01F62E53
:10422000D42E48015901EE2009F1CFDF1E2D1430A4
:1042300008F013E01150B8F0E881F98128E0129FEE
:10424000B0011124A501940104C0569547953795F6
:1042500027956A95D2F7CA01B9010190F081E02D46
:10426000CE011995E7CF60E0CE01BADF4D2D413286
:1042700008F040E22C2D69EB7EE08F2D43D01092A8
:10428000B80E8093B70EDF91CF911F910F91FF90E1
:10429000EF90DF90CF90BF90AF909F908F90089558
:1042A000CF92EF920F931F93C22EE12C00E010E00B
:1042B0009801A8DF1F910F91EF90CF90089521E012
:1042C000EFCF61E08DCF87E89EE066CF1092460F7A
:1042D00081E08093440F1092430F61E084E18FD41A
:1042E00061E085E18CD4E9EBF0E080818E7F808312
:1042F00080818D7F808388E48093B80085E48093FB
:10430000BC000895413208F043C09091460F9111CE
:10431000FCCF91E09093460F2093440F2FEF209312
:10432000D90E10921E0F240F20931D0F9093450F4E
:104330009091450F880F892B8093450F8091430FF3
:10434000813061F41092430F8091450F8093BB0040
:104350008091BC0083FDF8CF85EC01C085EE809391
:10436000BC008091460F8130E1F380911E0F8417CD
:1043700010F440911E0F2FE13FE0FB01D9018A2F7D
:10438000821B841718F48D918193F9CF842F08959F
:1043900080E008950F93413208F04AC09091460F93
:1043A0009111FCCF92E09093460F0093440F9FEF42
:1043B0009093D90E10921E0F40931D0FFB016FE1D9
:1043C0007FE0DB019A2F961B941718F491919D932F
:1043D000F9CF1092450F9091450F880F892B80934C
:1043E000450F8091430F813061F41092430F80910B
:1043F000450F8093BB008091BC0083FDF8CF85EC16
:1044000001C085EE8093BC00222321F08091460FED
:104410008230E1F38091D90E8F3F61F08091D90E07
:10442000803251F08091D90E803341F483E007C08F
:1044300081E005C080E003C082E001C084E00F910C
:104440000895613298F42091460F243089F46093E6
:10445000FB0EFC018DEF9EE0DC012A2F281B2617A6
:1044600018F421912D93F9CF80E0089581E008950B
:1044700082E0089585ED8093BC008091BC0084FDAE
:10448000FCCF1092460F089585EC8093BC001092EB
:10449000460F08951F920F920FB60F9211240BB67C
:1044A0000F922F933F934F935F936F937F938F93CD
:1044B0009F93AF93BF93EF93FF938091B900887F51
:1044C000803609F49DC070F5883209F45CC090F420
:1044D000803109F455C038F4882309F4F3C08830DA
:1044E00009F44EC0F2C0883109F44DC0803209F49D
:1044F0005EC0EBC0803409F469C050F4803309F425
:1045000056C0883309F0E1C08093D90EBDDFDDC00D
:10451000803509F44FC0883509F45DC0883409F04E
:10452000D4C0D2C0883909F4C3C0A8F4883709F4CC
:1045300067C038F4883609F463C0803709F460C076
:10454000C4C0883809F4B4C0803909F45FC0803829
:1045500009F0BBC05BC0803B09F482C038F4803AEC
:1045600009F466C0883A09F47BC0AFC0803C09F406
:10457000A3C0883C09F4A0C0883B09F486C0A5C04C
:104580008091450F10C090911E0F80911D0F9817BC
:1045900070F5E0911E0F81E08E0F80931E0FF0E00A
:1045A000E15EF04F80818093BB0085EC82C08093F8
:1045B000D90E8AC0E0911E0F81E08E0F80931E0FEE
:1045C0008091BB00F0E0E15EF04F808390911E0F80
:1045D00080911D0F6AC0E0911E0F81E08E0F8093C5
:1045E0001E0F8091BB00F0E0E15EF04F8083809170
:1045F000440F811169C081E08093430F84EA5DC05C
:1046000083E08093460F1092DA0ECFCF8091DA0EBE
:10461000803208F04DC0E091DA0E81E08E0F809379
:10462000DA0E8091BB00F0E0E552F14F8083BDCF00
:104630002BDF8091DA0E803230F4E091DA0EF0E078
:10464000E552F14F10826091DA0E70E0E0913F0F79
:10465000F091400F8BED9EE019951092DA0E35C067
:1046600084E08093460F1092FC0E1092FB0EE091B6
:10467000410FF091420F19958091FB0E811105C0F9
:1046800081E08093FB0E1092FD0EE091FC0E81E024
:104690008E0F8093FC0EF0E0E350F14F8081809309
:1046A000BB009091FC0E8091FB0E981708F47DCF13
:1046B00085E88093BC0009C085EC8093BC00109213
:1046C000460F03C01092D90ED5DEFF91EF91BF9136
:1046D000AF919F918F917F916F915F914F913F919A
:1046E0002F910F900BBE0F900FBE0F901F9018953B
:1046F000CF92DF92EF92FF920F931F93CF93DF93AE
:104700008C01EB01688179818A819B8120E03AEC00
:104710004AE95BE3B2D7F801C080D180E280F38040
:10472000C20ED31EE41EF51EC082D182E282F38245
:10473000688379838A839B83DF91CF911F910F9147
:10474000FF90EF90DF90CF9008951F920F920FB6D9
:104750000F9211242F933F938F939F93AF93BF9307
:104760008091480F9091490FA0914A0FB0914B0F43
:104770003091470F23E0230F2D3720F40196A11D20
:10478000B11D05C026E8230F0296A11DB11D20937F
:10479000470F8093480F9093490FA0934A0FB0930F
:1047A0004B0F80914C0F90914D0FA0914E0FB091F7
:1047B0004F0F0196A11DB11D80934C0F90934D0F8B
:1047C000A0934E0FB0934F0FBF91AF919F918F91D8
:1047D0003F912F910F900FBE0F901F9018952FB7FC
:1047E000F8946091480F7091490F80914A0F909111
:1047F0004B0F2FBF08953FB7F89480914C0F9091C5
:104800004D0FA0914E0FB0914F0F26B5A89B05C03C
:104810002F3F19F00196A11DB11D3FBF6627782FCC
:10482000892F9A2F620F711D811D911D42E0660F25
:10483000771F881F991F4A95D1F70895CF92DF926D
:10484000EF92FF92CF93DF936B017C01D4DFEB01FA
:10485000C114D104E104F10479F0D1D4CCDF6C1B94
:104860007D0B683E7340A0F381E0C81AD108E108CF
:10487000F108C851DC4FECCFDF91CF91FF90EF9062
:10488000DF90CF9008958230910538F0880F991FFE
:10489000880F991F05970197F1F70895789484B5CB
:1048A000826084BD84B5816084BD85B5826085BD2C
:1048B00085B5816085BDEEE6F0E080818160808312
:1048C000E1E8F0E0108280818260808380818160F5
:1048D0008083E0E8F0E0808181608083E1EBF0E0BC
:1048E000808184608083E0EBF0E080818160808360
:1048F000E1E9F0E080818260808380818160808353
:10490000E0E9F0E0808181608083E1EAF0E080818D
:1049100082608083808181608083E0EAF0E0808132
:1049200081608083E1E2F1E0808182608083808128
:1049300081608083E0E2F1E0808181608083EAE74A
:10494000F0E08081846080838081826080838081C8
:10495000816080838081806880831092C100089587
:104960001F93CF93DF93182FEB0161E00FD12097B6
:1049700011F460E004C0CF3FD10531F461E0812F34
:10498000DF91CF911F913BC1E12FF0E0E45CFE4F3E
:10499000449150E0FA013197E231F10508F09AC0F4
:1049A000E658FF4F8CC684B5806884BDC7BD97C0EC
:1049B00084B5806284BDC8BD92C08091800080684B
:1049C00080938000D0938900C093880088C0809134
:1049D0008000806280938000D0938B00C0938A0017
:1049E0007EC080918000886080938000D0938D008D
:1049F000C0938C0074C08091B00080688093B00038
:104A0000C093B3006CC08091B00080628093B0000E
:104A1000C093B40064C0809190008068809390003F
:104A2000D0939900C09398005AC080919000806202
:104A300080939000D0939B00C0939A0050C08091C7
:104A40009000886080939000D0939D00C0939C005C
:104A500046C08091A00080688093A0008091A00053
:104A60008F7B8093A000D093A900C093A80037C08B
:104A70008091A00080628093A000D093AB00C0938F
:104A8000AA002DC08091A00088608093A000D093E0
:104A9000AD00C093AC0023C080912001806880935A
:104AA0002001D0932901C093280119C080912001D1
:104AB000806280932001D0932B01C0932A010FC004
:104AC00080912001886080932001D0932D01C093B4
:104AD0002C0105C0C038D1050CF050CF4ACFDF9172
:104AE000CF911F91089590E0FC013197E231F105DB
:104AF00008F04BC0E457FF4FE2C5809180008F77EC
:104B000003C0809180008F7D809380000895809104
:104B10008000877FF9CF84B58F7702C084B58F7D01
:104B200084BD08958091B0008F7703C08091B0005C
:104B30008F7D8093B0000895809190008F7707C09B
:104B4000809190008F7D03C080919000877F80933B
:104B5000900008958091A0008F7707C08091A000F9
:104B60008F7D03C08091A000877F8093A00008956F
:104B7000809120018F7707C0809120018F7D03C035
:104B800080912001877F809320010895CF93DF9348
:104B900090E0FC01EE57FE4F2491FC01E853FE4FDC
:104BA0008491882349F190E0880F991FFC01EE5B06
:104BB000FD4FA591B491885D9D4FFC01C591D491A5
:104BC0009FB7611108C0F8948C91209582238C9333
:104BD000888182230AC0623051F4F8948C91322F7C
:104BE000309583238C938881822B888304C0F8942A
:104BF0008C91822B8C939FBFDF91CF9108950F935F
:104C00001F93CF93DF931F92CDB7DEB7282F30E0ED
:104C1000F901E45CFE4F8491F901EE57FE4F1491C7
:104C2000F901E853FE4F04910023C1F0882319F0E5
:104C3000698359DF6981E02FF0E0EE0FFF1FE85D27
:104C4000FD4FA591B4919FB7F8948C91611103C069
:104C50001095812301C0812B8C939FBF0F90DF9112
:104C6000CF911F910F910895FC01818D228D90E0CD
:104C7000805C9F4F821B91098F7399270895FC01D7
:104C8000918D828D981731F0828DE80FF11D858D01
:104C900090E008958FEF9FEF0895FC01918D828D34
:104CA000981761F0828DDF01A80FB11D5D968C9180
:104CB000928D9F5F9F73928F90E008958FEF9FEF8B
:104CC000089582E098E2892B39F080E090E0892B0A
:104CD00019F098D1811125C080E090E0892B41F036
:104CE00080E090E0892B21F00E94000081111CC01F
:104CF00080E090E0892B41F080E090E0892B21F06A
:104D00000E940000811113C080E090E0892BA1F087
:104D100080E090E0892B81F00E94000081110AC0A0
:104D200008950E940000D8CF0E940000E1CF0E94A9
:104D30000000EACF0C9400000895FC01848DDF018F
:104D4000A80FB11DA35ABF4F2C91848D90E00196FE
:104D50008F739927848FA689B7892C93A089B189ED
:104D60008C9180648C93938D848D981306C00288F7
:104D7000F389E02D80818F7D80830895CF93DF9329
:104D8000EC01888D8823C1F0EA89FB89808185FD4B
:104D900005C0A889B9898C9186FD0EC00FB607FCA5
:104DA000F5CF808185FFF2CFA889B9898C9185FFE5
:104DB000EDCFCE01C2DFE8CFDF91CF910895CF9242
:104DC000DF92FF920F931F93CF93DF931F92CDB784
:104DD000DEB76C0181E0D60158968C9358975B96AC
:104DE0009C915B975C968C915C97981307C050964A
:104DF000ED91FC915197808185FD2DC0F601038DC9
:104E000010E00F5F1F4F0F731127F02EF601848DF6
:104E1000F81210C00FB607FCF9CFD6015096ED91ED
:104E2000FC915197808185FFF1CFC601698385DFB1
:104E30006981ECCF838DE80FF11DE35AFF4F60834A
:104E4000D6015B960C935B975296ED91FC9153972C
:104E5000808180620CC0D6015696ED91FC915797E7
:104E600060835096ED91FC9151978081806480839E
:104E700081E090E00F90DF91CF911F910F91FF9013
:104E8000DF90CF900895BF92CF92DF92EF92FF9282
:104E9000CF93DF93EC016A017B01B22EE889F98997
:104EA00082E08083411581EE58076105710599F014
:104EB00060E079E08DE390E0A7019601DED3215018
:104EC000310941095109569547953795279521157F
:104ED00080E1380790F0E889F989108260E874E889
:104EE0008EE190E0A7019601C8D321503109410914
:104EF00051095695479537952795EC85FD85308363
:104F0000EE85FF852083188EEC89FD89B082EA89C1
:104F1000FB89808180618083EA89FB898081886048
:104F20008083EA89FB89808180688083EA89FB89A4
:104F300080818F7D8083DF91CF91FF90EF90DF9014
:104F4000CF90BF9008951F920F920FB60F92112429
:104F50000BB60F922F938F939F93EF93FF93E09154
:104F6000600FF091610F8081E091660FF091670F03
:104F700082FD12C090818091690F8F5F8F732091A5
:104F80006A0F821751F0E091690FF0E0E05BF04F9B
:104F9000958F8093690F01C08081FF91EF919F9160
:104FA0008F912F910F900BBE0F900FBE0F901F90FF
:104FB00018951F920F920FB60F9211240BB60F92F5
:104FC0002F933F934F935F936F937F938F939F9311
:104FD000AF93BF93EF93FF9380E59FE0AEDEFF9129
:104FE000EF91BF91AF919F918F917F916F915F9161
:104FF0004F913F912F910F900BBE0F900FBE0F90CE
:105000001F90189580E59FE02FDE21E0892B09F4A1
:1050100020E0822F08951092530F1092520F88EEC5
:1050200093E0A0E0B0E08093540F9093550FA093CD
:10503000560FB093570F81E997E09093510F8093EB
:10504000500F85EC90E090935D0F80935C0F84ECA3
:1050500090E090935F0F80935E0F80EC90E09093D0
:10506000610F8093600F81EC90E09093630F8093C9
:10507000620F82EC90E09093650F8093640F86EC52
:1050800090E09093670F8093660F1092690F1092D3
:105090006A0F10926B0F10926C0F0895CF92DF92EF
:1050A000EF92FF920F931F93CF93DF937C016A01DE
:1050B000EB0100E010E00C151D0571F06991D701BE
:1050C000ED91FC910190F081E02DC7011995892B9C
:1050D00019F00F5F1F4FEFCFC801DF91CF911F91E4
:1050E0000F91FF90EF90DF90CF900895FC018081A9
:1050F0009181D4C3CF93DF93EC018881998100978C
:1051000009F0CCD3198218821D821C821B821A825C
:10511000DF91CF9108950F931F93CF93DF93EC010D
:105120008B016F5F7F4F8881998147D4009731F061
:10513000998388831B830A8381E001C080E0DF912B
:10514000CF911F910F910895CF93DF93EC01888148
:105150009981892B29F08A819B818617970758F4BA
:10516000CE01D9DF882341F08C819D81892B19F4F0
:10517000E881F981108281E0DF91CF910895EF926B
:10518000FF920F931F93CF93DF93EC017B018A0172
:10519000BA01DADF811103C0CE01ACDF06C01D8386
:1051A0000C83B70188819981F5D4CE01DF91CF912D
:1051B0001F910F91FF90EF900895FC0111821082D2
:1051C00013821282158214826115710551F0FB0160
:1051D00001900020E9F7AF0141505109461B570BE0
:1051E000CECF089508955ADBFDDF0E949317C1E6E4
:1051F000D6E20E94111E2097E1F363DDFACF0895F5
:105200005058BB27AA270ED075C166D130F06BD19C
:1052100020F031F49F3F11F41EF45BC10EF4E095D1
:10522000E7FB51C1E92F77D180F3BA176207730703
:105230008407950718F071F49EF58FC10EF4E09580
:105240000B2EBA2FA02D0B01B90190010C01CA0140
:10525000A0011124FF27591B99F0593F50F4503EEB
:1052600068F11A16F040A22F232F342F4427585FDD
:10527000F3CF469537952795A795F0405395C9F7F5
:105280007EF41F16BA0B620B730B840BBAF09150AD
:10529000A1F0FF0FBB1F661F771F881FC2F70EC04C
:1052A000BA0F621F731F841F48F48795779567951F
:1052B000B795F7959E3F08F0B3CF9395880F08F008
:1052C0009927EE0F979587950895D9D008F481E036
:1052D00008950CD00FC107D140F0FED030F021F47A
:1052E0005F3F19F0F0C0511139C1F3C014D198F3E8
:1052F0009923C9F35523B1F3951B550BBB27AA2757
:1053000062177307840738F09F5F5F4F220F331FC8
:10531000441FAA1FA9F333D00E2E3AF0E0E830D094
:1053200091505040E695001CCAF729D0FE2F27D097
:10533000660F771F881FBB1F261737074807AB0765
:10534000B0E809F0BB0B802DBF01FF2793585F4FDA
:105350002AF09E3F510568F0B6C000C15F3FECF3F4
:10536000983EDCF3869577956795B795F7959F5F9F
:10537000C9F7880F911D9695879597F90895E1E0F3
:10538000660F771F881FBB1F621773078407BA0752
:1053900020F0621B730B840BBA0BEE1F88F7E095AD
:1053A000089504D06894B111D9C00895BCD088F094
:1053B0009F5790F0B92F9927B751A0F0D1F0660F01
:1053C000771F881F991F1AF0BA95C9F712C0B1301C
:1053D00081F0C3D0B1E00895C0C0672F782F88272F
:1053E000B85F39F0B93FCCF3869577956795B3955B
:1053F000D9F73EF490958095709561957F4F8F4FCA
:105400009F4F0895E89409C097FB3EF490958095CE
:10541000709561957F4F8F4F9F4F9923A9F0F92F7A
:1054200096E9BB279395F695879577956795B795F8
:10543000F111F8CFFAF4BB0F11F460FF1BC06F5FDE
:105440007F4F8F4F9F4F16C0882311F096E911C0F0
:10545000772321F09EE8872F762F05C0662371F011
:1054600096E8862F70E060E02AF09A95660F771F25
:10547000881FDAF7880F9695879597F90895990F01
:105480000008550FAA0BE0E8FEEF16161706E8070E
:10549000F907C0F012161306E407F50798F0621B2F
:1054A000730B840B950B39F40A2661F0232B242B04
:1054B000252B21F408950A2609F4A140A6958FEF23
:1054C000811D811D089597F99F6780E870E060E075
:1054D00008959FEF80EC089500240A94161617068D
:1054E00018060906089500240A94121613061406D5
:1054F00005060895092E0394000C11F4882352F038
:10550000BB0F40F4BF2B11F460FF04C06F5F7F4FEF
:105510008F4F9F4F089557FD9058440F551F59F0D6
:105520005F3F71F04795880F97FB991F61F09F3F90
:1055300079F087950895121613061406551FF2CFB9
:105540004695F1DF08C0161617061806991FF1CF09
:1055500086957105610508940895E894BB27662730
:105560007727CB0197F908958ADF08F48FEF089524
:105570000BD0C0CFB1DF28F0B6DF18F0952309F0CB
:10558000A2CFA7CF1124EACFC6DFA0F3959FD1F316
:10559000950F50E0551F629FF001729FBB27F00DE1
:1055A000B11D639FAA27F00DB11DAA1F649F662736
:1055B000B00DA11D661F829F2227B00DA11D621F85
:1055C000739FB00DA11D621F839FA00D611D221F3F
:1055D000749F3327A00D611D231F849F600D211D23
:1055E000822F762F6A2F11249F5750408AF0E1F0C6
:1055F00088234AF0EE0FFF1FBB1F661F771F881F0F
:1056000091505040A9F79E3F510570F05CCFA6CF56
:105610005F3FECF3983EDCF3869577956795B795F9
:10562000F795E7959F5FC1F7FE2B880F911D969523
:10563000879597F90895DB018F939F9346D0BF918B
:10564000AF91A29F800D911DA39F900DB29F900DD1
:105650001124089597FB072E16F4009406D077FDC9
:1056600008D041D007FC05D03EF4909581959F4F1E
:105670000895709561957F4F0895A1E21A2EAA1B97
:10568000BB1BFD010DC0AA1FBB1FEE1FFF1FA217F2
:10569000B307E407F50720F0A21BB30BE40BF50BEF
:1056A000661F771F881F991F1A9469F76095709578
:1056B000809590959B01AC01BD01CF010895EE0F3F
:1056C000FF1F0590F491E02D199421D0A59F900D16
:1056D000B49F900DA49F800D911D112408950790F3
:1056E000F691E02D1994AA1BBB1B51E107C0AA1F1C
:1056F000BB1FA617B70710F0A61BB70B881F991F73
:105700005A95A9F780959095BC01CD010895A29F67
:10571000B001B39FC001A39F700D811D1124911D85
:10572000B29F700D811D1124911D0895EF920F936A
:105730001F93CF93DF93E80147FF02C034E101C01C
:1057400034E0E42FFF27E7FDF095F7FF03C0F19564
:10575000E195F109E32E022F2E2FAE013ED4CE01AA
:10576000DF91CF911F910F91EF900895CF93DF9329
:105770008230910510F482E090E0E091EF0FF0911B
:10578000F00F20E030E0A0E0B0E0309739F1408148
:10579000518148175907B8F04817590771F48281A9
:1057A0009381109729F013969C938E9312972CC097
:1057B0009093F00F8093EF0F27C02115310531F042
:1057C0004217530718F0A901DB0101C0EF019A014C
:1057D000BD01DF010280F381E02DD7CF2115310516
:1057E000F9F0281B390B2430310580F48A819B8124
:1057F0006115710521F0FB019383828304C09093AE
:10580000F00F8093EF0FFE01329644C0FE01E20FCD
:10581000F31F8193919322503109398328833AC031
:105820002091ED0F3091EE0F232B41F420910202D5
:10583000309103023093EE0F2093ED0F2091000280
:10584000309101022115310541F42DB73EB7409149
:10585000040250910502241B350BE091ED0FF091ED
:10586000EE0FE217F307A0F42E1B3F0B28173907A2
:1058700078F0AC014E5F5F4F2417350748F04E0FAC
:105880005F1F5093EE0F4093ED0F8193919302C0F1
:10589000E0E0F0E0CF01DF91CF910895CF93DF9367
:1058A000009709F487C0FC01329713821282C091DD
:1058B000EF0FD091F00F209781F420813181280FD4
:1058C000391F8091ED0F9091EE0F8217930779F5B4
:1058D000F093EE0FE093ED0F6DC0DE0120E030E0BD
:1058E000AE17BF0750F412964D915C9113979D012E
:1058F0004115510509F1DA01F3CFB383A283408149
:105900005181840F951F8A179B0771F48D919C918B
:105910001197840F951F02969183808312968D9123
:105920009C911397938382832115310529F4F09379
:10593000F00FE093EF0F3EC0D9011396FC93EE9366
:1059400012974D915D91A40FB51FEA17FB0779F4EB
:1059500080819181840F951F0296D90111969C93A5
:105960008E938281938113969C938E931297E0E09D
:10597000F0E08A819B81009719F0FE01EC01F9CFDC
:10598000CE01029628813981820F931F2091ED0F5D
:105990003091EE0F2817390769F4309729F41092E7
:1059A000F00F1092EF0F02C013821282D093EE0F0D
:1059B000C093ED0FDF91CF9108956F927F928F92F8
:1059C0009F92AF92BF92CF92DF92EF92FF920F938E
:1059D0001F93CF93DF93EC01CB01209779F4DF91F4
:1059E000CF911F910F91FF90EF90DF90CF90BF90DC
:1059F000AF909F908F907F906F90B8CEFE01E60F92
:105A0000F71F9E0122503109E217F30708F4A8C0DE
:105A1000D9010D911C91119706171707B0F00530A9
:105A2000110508F49BC0A8014450510946175707B7
:105A300008F494C002501109061B170B019311932F
:105A40006D937C93CF012ADF89C05B01A01AB10A54
:105A50004E01800E911EA091EF0FB091F00F612CBE
:105A6000712C60E070E0109709F449C0A815B905E1
:105A7000C9F5ED90FC901197670142E0C40ED11C6E
:105A8000CA14DB0478F147018A189B08640142E0DC
:105A9000C40ED11C1296BC9012971396AC91B5E02F
:105AA000CB16D10440F0B282A38391828082D901C7
:105AB0008D939C9309C00E5F1F4F0E0D1F1DF901A2
:105AC00011830083EB2DFA2F6115710531F0DB0195
:105AD0001396FC93EE93129741C0F093F00FE0936E
