:1000000030C100000C948A0B0C94B50B0C94E00BDF
:100010000C940B0C0C94360C0C94610C53C1000026
:1000200051C100004FC100004DC100004BC1000094
:1000300049C1000047C1000045C1000043C10000A4
:1000400041C100003FC100003DC100003BC10000B4
:1000500039C1000037C1000035C100000C94921D69
:1000600031C100000C9490210C94C6212BC10000DA
:1000700029C1000027C1000025C1000023C10000E4
:1000800021C100001FC100001DC100001BC10000F4
:1000900019C1000017C1000015C100000C94371CE5
:1000A00011C100000FC100000DC100000BC1000014
:1000B00009C1000007C1000005C1000003C1000024
:1000C00001C10000FFC00000FDC00000FBC0000037
:1000D000F9C00000F7C00000F5C00000F3C0000048
:1000E000F1C000007A0482048A0492049A04A204F3
:1000F000AA04B204C01EC51ECA1ED41EDE1E571F8F
:10010000E81EF01EF81E021F0C1F161F251F2F1FB2
:10011000571F391F431F4D1F781F7B1F6A1F6E1FFC
:10012000741FB21F7F1F831F891F8D1F911F971F71
:100130009B1F9F1FB21FA51FA91FAD1F00000A0B09
:1001400002090C0D0E080703040100000000000066
:10015000000000000000000000000000000000009F
:10016000000000000000000012111000000000005C
:10017000000000000000000000000000000000007F
:1001800000000102102020080810204010204080AC
:10019000020102010804020101020408102040804B
:1001A00080402010080402018004020180402010D9
:1001B0000804020108040201010204081020408022
:1001C0000102040810204080050505050705080800
:1001D0000808020202020A0A0808040404040101D1
:1001E00001010101010103030303030303030407E6
:1001F00007070C0C0C0C0C0C0C0C0202020206067D
:100200000606060606060B0B0B0B0B0B0B0B000072
:1002100020002300260029002C002F0032000001BE
:10022000000003010601090100002200250028004A
:100230002B002E00310034000201000005010801EE
:100240000B0100002100240027002A002D003000AF
:10025000330001010000040107010A014E14501B84
:10026000F82111241FBECFEFD1E2DEBFCDBF00E0E9
:100270000CBF16E0A0E0B2E0EEEBF3E500E00BBF50
:1002800002C007900D92A832B107D9F72DE0A8E27D
:10029000B6E001C01D92A73EB207E1F712E0C2E648
:1002A000D2E000E006C022970109FE010BBF0E94C8
:1002B000E024CC35D10780E00807A9F70E9464222A
:1002C0000C94DD299DCEFC01DB0182818C9383811E
:1002D00011968C931197848112968C931297858135
:1002E00013968C931397868114968C931497878119
:1002F00015968C931597808516968C931697818505
:1003000017968C9388E090E00895FC01DB014C91F6
:1003100050E060E070E042835383648375831196FC
:100320008C911197582B4283538364837583129663
:100330008C911297682B4283538364837583139641
:100340008C911397782B428353836483758314961F
:100350004C91149750E060E070E0468357836087CB
:10036000718715968C911597582B46835783608714
:10037000718716968C911697682B468357836087F2
:10038000718717968C91782B468357836087718786
:1003900088E090E008958FE092E008958DE192E08A
:1003A00008956F927F928F929F92AF92BF92CF9259
:1003B000DF92EF92FF920F931F93CF93DF93FC0195
:1003C000DB018C9190E09383828311962C9111979D
:1003D000922B9383828312964D915D916D917C91C6
:1003E00015975D0186E0A80EB11C8A019B010A5F8A
:1003F0001F4F2F4F3F4F6501CA1ADB0AE12CF12C2A
:10040000C016D106E206F30640F4E501F9905E015C
:10041000CE010297EC01F882EECFED01C40FD51F9B
:100420001D82CD01059695838483ED01C40FD51FF0
:10043000CE80DF80E884F984465F5F4F3D01640E23
:10044000751E8A01222717FD2095322F0C0D1D1DC8
:100450002E1D3F1D43018A1A9B0AA12CB12C801628
:100460009106A206B30640F4E30169913E01CE0174
:100470000297EC016883EECFC40ED51E9D012C0DB2
:100480003D1DC9010197EC011882415051094A0FE5
:100490005B1F57834683E901088119812A813B81CB
:1004A000D4E0CD0ED11C3D016C0C7D1CA60166274D
:1004B00057FD6095762F400F511F621F731F430138
:1004C0008A1A9B0AA12CB12C84169506A606B7069B
:1004D00040F4E301F9903E01CE010297EC01F8826D
:1004E000EECF0C0D1D1D9D01200F311FC90101977D
:1004F000EC011882D1E0CD1AD108CA0EDB1ED186DC
:10050000C086D90111968C91119712964C91129731
:1005100050E060E070E0BA0155274427582B8C91D9
:10052000482B13968C91782B428753876487758765
:10053000C8010496DF91CF911F910F91FF90EF902A
:10054000DF90CF90BF90AF909F908F907F906F90F3
:1005500008958EE392E0089587E592E00895AF92C2
:10056000BF92CF92DF92EF92FF921F93CF93DF93D0
:100570009C01FB018081D90112968C93818192812B
:10058000A381B4815B01C5E0AC0EB11CAC01BD011F
:100590004B5F5F4F6F4F7F4F6501CE1ADF0AE12C33
:1005A000F12CC416D506E606F70650F4E501D990FD
:1005B0005E017E01D2E0ED1AF108E701D882ECCFAE
:1005C000EF01C80FD91F1C823496E901FC83EB832D
:1005D0000596DF91CF911F91FF90EF90DF90CF9024
:1005E000BF90AF90089588E792E008958BE892E07D
:1005F000089586E495E008958CEA92E00895CF92FC
:10060000DF92EF92FF920F931F93CF93DF938C01B2
:10061000EB01888190E0A0E0B0E0F8018283938351
:10062000A483B5832981922B82839383A483B5838A
:100630002A81A22B82839383A483B5832B81B22B3F
:1006400082839383A483B5838C8190E0A0E0B0E0A3
:1006500086839783A087B1872D81922B868397838A
:10066000A087B1872E81A22B86839783A087B1872D
:100670002F81B22B86839783A087B187488550E06E
:1006800060E070E042875387648775878985582BBF
:1006900042875387648775878A85682B428753878B
:1006A000648775878B85782B428753876487758726
:1006B0008C859D85AE85BF859E01205F3F4FAC0137
:1006C000BD01405F5F4F6F4F7F4F6901CC1ADD0A5C
:1006D000E12CF12CC416D506E606F70650F4F90114
:1006E000D1909F017F01F2E0EF1AF108F701D0826B
:1006F000ECCF9E01280F391FF90117862F96F801BC
:10070000D787C6874096DF91CF911F910F91FF90B9
:10071000EF90DF90CF9008958DEC92E008958DEDED
:1007200092E008958EEF92E0089584E193E00895B9
:1007300085E393E0089582E593E008950F931F9376
:10074000CF93DF93EC018B01029659DFF801E80F9C
:10075000F91F2181428150E060E070E0BA01552725
:100760004427522B2081422B2381722B4A8B5B8B97
:100770006C8B7D8B2581468150E060E070E0BA0192
:1007800055274427522B2481422B2781722B4E8BD5
:100790005F8B688F798F0896DF91CF911F910F91B2
:1007A000089583E793E008958DE893E008958EEA35
:1007B00093E0089582EC93E00895FC01DB0132811F
:1007C0002381948185813C9311962C9311971296E5
:1007D0009C93129713968C9313973681278190855B
:1007E000818514963C93149715962C93159716961D
:1007F0009C93169717968C9317973285238594852B
:10080000858518963C93189719962C9319971A96E4
:100810009C931A971B968C938CE090E00895FC01B2
:10082000DB0111968C91119712964C91129750E022
:1008300060E070E0BA0155274427582B8C91482B73
:1008400013968C911397782B42835383648375831B
:1008500015968C91159716964C91169750E060E07E
:1008600070E0BA0155274427582B14968C911497A1
:10087000482B17968C911797782B46835783608760
:10088000718719968C9119971A964C911A9750E086
:1008900060E070E0BA0155274427582B18968C91D8
:1008A0001897482B1B968C91782B42875387648727
:1008B00075878CE090E0089583EE93E0089584EFCF
:1008C00093E0089585E194E008958DE294E0089521
:1008D000282F90E0223010F4049603C0263008F44C
:1008E00002978830910508F044C0FC01EE58FF4F94
:1008F0000C94D024809169008C7F81608093690082
:10090000E89A089580916900837F846080936900EC
:10091000E99A0895809169008F7C806180936900D5
:10092000EA9A0895809169008F73806480936900CA
:10093000EB9A089580916A008C7F816080936A00B1
:10094000EC9A089580916A00837F846080936A00A6
:10095000ED9A089580916A008F7C806180936A008F
:10096000EE9A089580916A008F73806480936A0084
:10097000EF9A08958E579B4FFC01808108950F9345
:100980001F93CF93DF93EC018C010A5F1F4FC801C7
:1009900046DFEC89FD89C801DF91CF911F910F914E
:1009A0001994FC0186899789089583EE93E0089550
:1009B00084EF93E00895FC0186A197A108958EEA43
:1009C00093E0089582EC93E00895AF92BF92CF92A6
:1009D000DF92EF92FF920F931F93CF93DF93EC017F
:1009E0007B018A81DB018C938B8111968C93EC8146
:1009F000FD81DF010D900020E9F7CD0101976C0129
:100A0000CE1ADF0AC601A0E0B0E0FB018283938327
:100A1000A483B5836C817D81A601C70106960E94DF
:100A2000EB25EE81FF81DF010D900020E9F7CD017C
:100A300001975C01AE1ABF0AF701EC0DFD1D85019F
:100A400020E030E006831783208731879AE0C90EC3
:100A5000D11C6E817F81A501C7018C0D9D1D0E9457
:100A6000EB25CA0CDB1CE885F985DF010D90002021
:100A7000E9F7CD0101975C01AE1ABF0AF701EC0D51
:100A8000FD1D850120E030E0008311832283338344
:100A900094E0C90ED11C68857985A501C7018C0D2C
:100AA0009D1D0E94EB25AC0CBD1C3A852B859C85B9
:100AB0008D85F701EA0DFB1D3083218392838383AB
:100AC000C5010496DF91CF911F910F91FF90EF9098
:100AD000DF90CF90BF90AF9008950F931F93CF9367
:100AE000DF93DC01FB0112968C91129780831396A1
:100AF0008D919C911497EC0109900020E9F72197C2
:100B0000C81BD90B8E0120E030E0018312832383C0
:100B1000348313966D917C911497AE01CF010596A5
:100B20000E94EB25CE010596DF91CF911F910F9189
:100B30000895BF92CF92DF92EF92FF920F931F938F
:100B4000CF93DF93EC017B018A81DB018C931196BB
:100B50001C92119712961C92129713961C92FB01ED
:100B6000379640E024E030E05A81C90104964517E9
:100B7000E0F4AF81B88524E0429FA00DB11D11249F
:100B80006C9111965C91119712963C911297139665
:100B90002C91DF0113976C9311965C9311963C9303
:100BA00020839C014F5F3496DFCF4985F701E20F28
:100BB000F31F408311821282138220E03985F701EE
:100BC000E80FF91F04962317B0F4AE85BF8534E013
:100BD000239FA00DB11D11246C9111965C9111976A
:100BE00012964C91129713963C91608351834283E5
:100BF00033832F5FE3CF28892083118212821382EF
:100C0000B12C2889B21698F54B2D50E0440F551F92
:100C1000EB89FC89E40FF51F0190F081E02DDF01E5
:100C20000D900020E9F79D01215031096901CE1A8C
:100C3000DF0AF701E80FF91F860120E030E00083AA
:100C40001183228333838C010C5F1F4FEB89FC8956
:100C5000E40FF51F60817181A601C701800F911F0C
:100C60000E94EB25C601800F911FB394CACFDF917C
:100C7000CF911F910F91FF90EF90DF90CF90BF9099
:100C800008950F931F93CF93DF93DC01FB0112961E
:100C90008C911297808313968C911397818314966D
:100CA0008C911497828315968C9115978383169651
:100CB0008C911697848317968C9117978583189635
:100CC0008C911897868319968C91199787831A9619
:100CD0008C911A9780871B968C911B9781871C9605
:100CE0008C911C9782871D968C911D9783871E96E9
:100CF0008D919C911F97EC0109900020E9F72197B5
:100D0000C81BD90B8E0120E030E0048715872687A9
:100D100037871E966D917C911F97AE01CF0140964B
:100D20000E94EB25CE014096DF91CF911F910F914C
:100D300008950F931F93CF93DF93EC018B010296DD
:100D4000A0DF5A894B893C892D89F801E80FF91FEA
:100D500050834183328323835E894F89388D298D67
:100D600054834583368327830896DF91CF911F9163
:100D70000F9108954F925F927F928F929F92AF92C0
:100D8000BF92CF92DF92EF92FF920F931F93CF9378
:100D9000DF93EC018B01DB01FC908A818F1550F40D
:100DA000B4E0FB9EB00111248F8198850E94072535
:100DB00098878F83FA82F8013796F12C44E050E04F
:100DC0009E012D5F3F4F8A81BA016C5F7F4F6B019F
:100DD000F81660F5408150E060E070E0742F6627FF
:100DE00055274427DF0113978C91482B11968C913E
:100DF000582B11968C91682B4B835C836D837E837B
:100E0000A6016F81788584E0F89E600D711D112424
:100E1000D9018D909D90AD90BC90DB018D929D92FB
:100E2000AD92BC921397F3943496CDCFF801E40FB2
:100E3000F51FF08089858F1550F484E0F89EB0018D
:100E400011248E859F850E9407259F878E87960196
:100E5000F98680E0FE013A969985D801A20FB31F6A
:100E6000A9014C5F5F4F6A01891748F511969C9163
:100E7000119712964C91129750E060E070E0BA0121
:100E800055274427592B9C91492B13969C91792BDC
:100E90004A875B876C877D879601AE85BF8594E026
:100EA000899FA00DB11D1124408151816281738100
:100EB0004D935D936D937C9313978F5FCDCFFC9093
:100EC00088898F1550F46F2D70E0660F771F8B891E
:100ED0009C890E9407259C8B8B8BC601F88A712CFC
:100EE0002E0151E1450E511C2889721608F044C0AC
:100EF000F801E80FF91FC080D180E280F3800496EA
:100F0000F801E80FF91FAC01662757FD6095762FB1
:100F10004C0D5D1D6E1D7F1D9F01201B310B490176
:100F2000A12CB12C84169506A606B70638F4B1900C
:100F30009F0122503109D901BC92EECFC80ED91EB3
:100F4000F801EC0DFD1D319710829C0121503109F3
:100F5000200F311F3A8B298BC6013B892C89E32F47
:100F6000F22FE70DF11DE70DF11DD2012D913C91FE
:100F7000318320837394B8CFDF91CF911F910F916C
:100F8000FF90EF90DF90CF90BF90AF909F908F90A9
:100F90007F905F904F9008958F929F92AF92BF92F3
:100FA000CF92DF92EF92FF92CF93DF93EC010E94FA
:100FB000DC1D6093EA0B7093EB0B8093EC0B90932A
:100FC000ED0B20E030E040E752E46C817D818E81C2
:100FD0009F810E9429242CED39ED47E35FE30E94B5
:100FE000DA226B017C0120E030E040E752E46A8DB8
:100FF0007B8D8C8D9D8D0E94292423ED3DE442E95B
:101000005EE30E9429242CED39ED47E35FE30E9463
:10101000DA224B015C019B01AC01C701B6010E94C1
:10102000712260932C0C70932D0C80932E0C909356
:101030002F0CA5019401C701B6010E947222609392
:10104000160C7093170C8093180C9093190CDF9169
:10105000CF91FF90EF90DF90CF90BF90AF909F9097
:101060008F9008958F929F92AF92BF92CF92DF920E
:10107000EF92FF920F931F93CF93DF93EC01CB017D
:10108000BA018B019C01B7E1359527951795079516
:10109000BA95D1F71127222733270115110521050C
:1010A000310521F000581C4F2F4F3F4F18821982F5
:1010B0001A826B017C01B5E0CC0CDD1CEE1CFF1C20
:1010C000BA95D1F7CB826B017C0143E0F594E794AC
:1010D000D794C7944A95D1F7CC826B017C015BE031
:1010E000F594E794D794C7945A95D1F7CD826801C7
:1010F0007901E4E0CC0CDD1CEE1CFF1CEA95D1F775
:101100004B015C01F3E1B594A79497948794FA9509
:10111000D1F7482D4F704C294E8368017901A4E026
:10112000F594E794D794C794AA95D1F720E030E0DE
:10113000A9010E94D62287FD02C0CF8203C08C2D58
:1011400080688F8388E090E0DF91CF911F910F91AD
:10115000FF90EF90DF90CF90BF90AF909F908F90D7
:101160000895EF92FF920F931F93CF93DF938C011B
:10117000EB01FC014281538164817581CE0172DFF4
:101180007C01F8014681578160857185CE018E0D05
:101190009F1D68DFE80EF91EF801428553856485BE
:1011A0007585CE018E0D9F1D5DDF8E0D9F1DDF911C
:1011B000CF911F910F91FF90EF900895EF92FF92C2
:1011C0000F931F93CF93DF938C017B01029659DD20
:1011D000EC01B701680F791FC8014296C2DF8C0F7E
:1011E0009D1FDF91CF911F910F91FF90EF90089578
:1011F000EF92FF920F931F93CF93DF938C017B01AC
:101200000296AFDFEC01B701680F791FC801409665
:10121000A8DF8C0F9D1FDF91CF911F910F91FF9041
:10122000EF900895EF92FF920F931F93CF93DF9368
:10123000EC018B01029625DDF801E80FF91F2A89E0
:1012400020832B8921832C8922837C0123E0E20ED9
:10125000F11CB8016E0D7F1DCE01459682DFE80EB0
:10126000F91EB8016E0D7F1DCE0183967ADFE80E60
:10127000F91EB8016E0D7F1DCE01C19672DF8E0D75
:101280009F1DDF91CF911F910F91FF90EF900895D7
:101290000F931F93FC01DB010381029506950770F4
:1012A00010E020E030E00D931D932D933C931397B5
:1012B000448150E060E070E083E0440F551F661FFA
:1012C000771F8A95D1F7402B512B622B732B4D93AF
:1012D0005D936D937C931397058110E020E030E0DF
:1012E0009BE0000F111F221F331F9A95D1F7042B8B
:1012F000152B262B372B0D931D932D933C93139772
:1013000046814F7050E060E070E083E1440F551F6C
:10131000661F771F8A95D1F7402B512B622B732BB9
:101320004D935D936D937C931397868182958F7017
:1013300007810F7710E020E030E094E0000F111FEC
:10134000221F331F9A95D1F7082B0115110521058E
:101350003105A1F0005813402109310997E1000F30
:10136000111F221F331F9A95D1F7042B152B262B03
:10137000372B0D931D932D933C9313970781007882
:1013800010E020E030E0302F2227112700274D9178
:101390005D916D917C911397402B512B622B732B98
:1013A0004D935D936D937C93139788E090E01F912C
:1013B0000F910895EF92FF920F931F93CF93DF93B6
:1013C0008C01EB01BC016E5F7F4FCE0161DF7C01C0
:1013D000B8016A5F7F4FCE018E0D9F1D59DFE80E69
:1013E000F91EB801665F7F4FCE018E0D9F1D50DF45
:1013F0008E0D9F1DDF91CF911F910F91FF90EF9068
:101400000895EF92FF920F931F93CF93DF938C0178
:101410007B010296F4D8EC01B701680F791FC8016F
:101420004296C8DF8C0F9D1FDF91CF911F910F91C6
:10143000FF90EF900895EF92FF920F931F93CF9339
:10144000DF938C017B010296B5DFEC01B701680FD9
:10145000791FC8014096AEDF8C0F9D1FDF91CF91A1
:101460001F910F91FF90EF9008950F931F93CF93CB
:10147000DF93EC018C010A5F1F4FC801DCDFECA198
:10148000FDA1C801DF91CF911F910F911994EF92A7
:10149000FF920F931F93CF93DF93EC018B01029682
:1014A000AED8F801E80FF91F20812A8B21812B8B00
:1014B00022812C8B7C0123E0E20EF11CB8016E0D21
:1014C0007F1DCE01459676DFE80EF91EB8016E0D40
:1014D0007F1DCE0183966EDFE80EF91EB8016E0DFA
:1014E0007F1DCE01C19666DF8E0D9F1DDF91CF91CE
:1014F0001F910F91FF90EF900895CF93DF93AB0171
:10150000EC01AE81BF81ED91FC9111976C817D81E1
:101510000190F081E02DCD01DF91CF911994FC0174
:1015200082EA95E09183808312821382148215826D
:1015300016821782108611861286138614861586E7
:101540000895DC01ED91FD918081ED91FD919081F7
:10155000ED91FD916C9163708E2309F064609F237F
:1015600009F06860EEEBFAE0E60FF11D6595659510
:101570006D936D917D918D919D91099423C01AC0B9
:1015800012C016C010C01EC009C014C013C006C0CF
:1015900019C009C00DC007C00DC014C06250704012
:1015A000804090400BC0615070408040904006C029
:1015B0006E5F01C06F5F7F4F8F4F9F4F9E938E93E3
:1015C0007E936E930895CF93DF93EC018B858230E9
:1015D00020F4F894CE01B5DF01C0F8946F817885CE
:1015E00089859A857894DF91CF910895823151F160
:1015F00050F4823099F0833059F57093740C6093F5
:10160000730C81E01CC0843179F0A0F0853101F5C4
:101610007093760C6093750C82E011C07093720C1D
:101620006093710C80E00BC07093780C6093770C22
:1016300083E005C070937A0C6093790C84E048D9FC
:1016400081E0089570937C0C60937B0C85E0F7CF6C
:1016500080E008950F931F93CF93DF93EC01062F43
:10166000142F62E0802F0E94B31F62E0812F0E943E
:10167000B31F202F30E0F901E853FE4FE491F0E072
:10168000EE0FFF1FE25FFD4F459154915983488350
:10169000F901EE57FE4F24912C83212F30E0F90100
:1016A000E853FE4FE491F0E0EE0FFF1FE25FFD4FC5
:1016B000A591B491BB83AA83F901EE57FE4F249103
:1016C0002D831F82188619861A8680ED97E00E9466
:1016D000301EE881F98190818C81982381E009F4A2
:1016E00080E0EA81FB8190812D81922309F0826064
:1016F0008E83BE01802F7ADF8B87BE01812F76DF3C
:101700002B8590E0820F911D8B87DF91CF911F91E8
:101710000F9108951F920F920FB60F9211240BB6DE
:101720000F922F933F934F935F936F937F938F937A
:101730009F93AF93BF93EF93FF938091750C90911C
:10174000760CFFDEFF91EF91BF91AF919F918F914A
:101750007F916F915F914F913F912F910F900BBEB1
:101760000F900FBE0F901F9018951F920F920FB6FB
:101770000F9211240BB60F922F933F934F935F93C9
:101780006F937F938F939F93AF93BF93EF93FF9349
:101790008091770C9091780CD4DEFF91EF91BF91FE
:1017A000AF919F918F917F916F915F914F913F91F9
:1017B0002F910F900BBE0F900FBE0F901F9018959A
:1017C0001F920F920FB60F9211240BB60F922F9308
:1017D0003F934F935F936F937F938F939F93AF93B9
:1017E000BF93EF93FF938091790C90917A0CA9DECF
:1017F000FF91EF91BF91AF919F918F917F916F91E9
:101800005F914F913F912F910F900BBE0F900FBEA4
:101810000F901F9018951F920F920FB60F921124E0
:101820000BB60F922F933F934F935F936F937F93DA
:101830008F939F93AF93BF93EF93FF9380917B0C14
:1018400090917C0C7EDEFF91EF91BF91AF919F91C3
:101850008F917F916F915F914F913F912F910F9059
:101860000BBE0F900FBE0F901F9018951F920F92F6
:101870000FB60F9211240BB60F922F933F934F93F5
:101880005F936F937F938F939F93AF93BF93EF93E8
:10189000FF938091710C9091720C53DEFF91EF9148
:1018A000BF91AF919F918F917F916F915F914F9178
:1018B0003F912F910F900BBE0F900FBE0F901F9076
:1018C00018951F920F920FB60F9211240BB60F921C
:1018D0002F933F934F935F936F937F938F939F9338
:1018E000AF93BF93EF93FF938091730C9091740C1F
:1018F00028DEFF91EF91BF91AF919F918F917F91E2
:101900006F915F914F913F912F910F900BBE0F9070
:101910000FBE0F901F9018950F931F93CF93DF93D7
:101920008C01EB0197FD02C061E001C060E087E03F
:101930000E94EC1FB80117FF03C0719561957109F2
:1019400088E00E949D1ED7FD02C061E001C060E0FA
:1019500089E00E94EC1FBE01D7FF03C0719561951D
:1019600071098AE0DF91CF911F910F910C949D1E18
:101970004F925F926F927F928F929F92AF92BF929F
:10198000CF92DF92EF92FF920F931F93CF93DF934B
:10199000EC016A017B0128013901488559856A8576
:1019A0007B8597018601041B150B260B370BC9019C
:1019B000B8010E94752320E635EE4DE053E40E9405
:1019C000DA224B015C0160E67AEE80E090E0A30150
:1019D00092010E94AE24CA01B9010E9473239B01A7
:1019E000AC01C501B4010E9429246C877D878E87D4
:1019F0009F87C886D986EA86FB86DF91CF911F91A3
:101A00000F91FF90EF90DF90CF90BF90AF909F909D
:101A10008F907F906F905F904F9008954F925F925C
:101A20006F927F928F929F92AF92BF92CF92DF92EE
:101A3000EF92FF92CF93DF93EC012C853D854E858D
:101A40005F85688979898A899B890E9471226B01E7
:101A50007C012C813D814E815F810E9472224B016D
:101A60005C016C837D838E839F8320910A02309179
:101A70000B0240910C0250910D02C701B6010E9469
:101A800029242B013C012091D60B3091D70B40919A
:101A9000D80B5091D90BC501B4010E9429249B0198
:101AA000AC01C301B2010E9472224B015C0128818A
:101AB00039814A815B81C701B6010E947122209160
:101AC00006023091070240910802509109020E94DB
:101AD00029249B01AC01C501B4010E9472224B0173
:101AE0005C01C882D982EA82FB826C897D89882761
:101AF00077FD8095982F0E94752320E030E045EA1D
:101B000053E40E94292420E030E04FE753E40E9490
:101B1000DA22A50194010E9472226B017C0120E06F
:101B200030E045EA53EC0E94D62287FD11C020E048
:101B300030E045EA53E4C701B6010E942524181697
:101B40006CF4C12CD12C75EAE72E73E4F72E06C095
:101B5000C12CD12C65EAE62E63ECF62E20E030E0B5
:101B600045EA53E4C701B6010E94DA2220E030E0E2
:101B70004FE753E40E9429240E9442237D8B6C8B03
:101B8000DF91CF91FF90EF90DF90CF90BF90AF901B
:101B90009F908F907F906F905F904F900895AC01D1
:101BA00020E030E0FA01EC5EFB4F0190F081E02D87
:101BB000EF2B91F4F901E65FFD4FEE0FFF1FE80FE9
:101BC000F91F7183608323583F4FFB0135832483C2
:101BD0009783868381E008952F5F3F4F4E5F5F4F6D
:101BE00029313105F9F680E00895CF92DF92EF9226
:101BF000FF920F931F93CF93DF93CDB7DEB760971C
:101C00000FB6F894DEBF0FBECDBF8C010E94DC1D65
:101C100028EE33E040E050E00E94AE2469017A01F2
:101C20009B01AC01F80184859585A685B7858C0D4F
:101C30009D1DAE1DBF1D89879A87AB87BC8760E459
:101C400072E48FE090E00E948C240089118922893F
:101C50003389600F711F821F931F6D877E878F8767
:101C6000988BBE01635F7F4FCE0109960E94651D70
:101C700088E0FE013996DE01119601900D928A9559
:101C8000E1F729813A814B815C816D817E818F8171
:101C9000988560960FB6F894DEBF0FBECDBFDF917A
:101CA000CF911F910F91FF90EF90DF90CF9008950B
:101CB0000F931F93CF93DF93CDB7DEB72A970FB65D
:101CC000F894DEBF0FBECDBF8C0186E695E09A8307
:101CD00089831B821C821D821E821F8218861986A0
:101CE0001A86D801ED91FC910190F081E02DAE01B2
:101CF0004F5F5F4F6AE070E0C80119950E94DC1DDC
:101D0000F80160877187828793872A960FB6F894C7
:101D1000DEBF0FBECDBFDF91CF911F910F91089510
:101D20004F925F926F927F928F929F92AF92BF92EB
:101D3000CF92DF92EF92FF920F931F93CF93DF9397
:101D4000CDB7DEB72E970FB6F894DEBF0FBECDBF6E
:101D50008C0182E795E09A8389831C821B8284E24E
:101D600095E09E838D8398878F839A8789871B86CA
:101D70001C861D861E86580182E3A80EB11C7801C0
:101D8000412C82E0582E612C712C6701ACEECA1AEE
:101D9000ABEFDA0AD601ED91FC913097B9F184816D
:101DA00095819C838B83808191819E838D838281A9
:101DB0009381DC01ED91FC910480F581E02D199572
:101DC00098878F83D601ED91FC9182819381DC010C
:101DD000ED91FC910680F781E02D19959A8789870E
:101DE0004B865C866D867E86F80180819181F60146
:101DF000A081B18118966D917C911997DC01ED91CC
:101E0000FC91AE014F5F5F4FC8011995B2E0EB0E38
:101E1000F11CEA14FB0409F0B8CF7801412CB2E0C0
:101E20005B2E612C712C6701EAEBCE1AEBEFDE0A18
:101E3000F601A081B1811097E1F112968D919C91EC
:101E400013979C838B8314968D919C9115979E83F9
:101E50008D83ED91FC9111970480F581E02DCD01EA
:101E6000199598878F83D6018D919C91DC01ED9116
:101E7000FC910680F781E02D19959A8789874B861A
:101E80005C866D867E86D801ED91FC918080918084
:101E9000F60180819181DC01ED91FC910280F3815A
:101EA000E02D1995AE014F5F5F4FBC01C801F401F1
:101EB0001995F2E0EF0EF11CEA14FB0409F0B3CF20
:101EC000F801EE57FB4F81E080832E960FB6F89411
:101ED000DEBF0FBECDBFDF91CF911F910F91FF905D
:101EE000EF90DF90CF90BF90AF909F908F907F90BA
:101EF0006F905F904F9008958F929F92AF92BF9294
:101F0000CF92DF92EF92FF920F931F93CF93DF93C5
:101F1000CDB7DEB72A970FB6F894DEBF0FBECDBFA0
:101F20008C015B0186E695E09A8389831B821C8283
:101F30001D821E821F82188619861A860E94DC1D49
:101F40006B017C01F80180859185A285B385C81A53
:101F5000D90AEA0AFB0AB501CE0101960E94850161
:101F600098EE892E93E0992EA12CB12CC701B601D1
:101F7000A50194010E94AE2469017A019B01AC0184
:101F80008B819C81AD81BE818C0D9D1DAE1DBF1DC1
:101F90008B839C83AD83BE8360E472E48FE090E02A
:101FA0000E948C24CF80D884E984FA84C60ED71E80
:101FB000E81EF91ECF82D886E986FA860E94DC1DCB
:101FC000CB80DC80ED80FE80F1E0CF1AD108E10803
:101FD000F108A50194010E94AE2449015A019B0118
:101FE000AC01C818D908EA08FB08F801C486D586F0
:101FF000E686F786CF80D884E984FA84F6E3DF1A90
:10200000F5E6EF0AF4ECFF0A60E472E48FE090E09A
:102010000E948C24C61AD70AE80AF90AF801C08A75
:10202000D18AE28AF38AB801605F7F4FC8010C96BB
:102030000E94651D0E94DC1DF801E957FB4F60837B
:102040007183828393832A960FB6F894DEBF0FBE06
:10205000CDBFDF91CF911F910F91FF90EF90DF9057
:10206000CF90BF90AF909F908F9008952F923F9206
:102070004F925F926F927F928F929F92AF92BF9298
:10208000CF92DF92EF92FF920F931F93CF93DF9344
:10209000CDB7DEB760970FB6F894DEBF0FBECDBFE9
:1020A0004C010E94DC1D6B017C01940129573B4FC0
:1020B0003E832D83F90180819181A281B381A701A3
:1020C0009601281B390B4A0B5B0BDA01C901893FCA
:1020D0009A42A105B10510F035971082A401485825
:1020E0005B4F588B4F87DA018D919C91892B79F04A
:1020F000F401E557FB4F80819181A281B3818C155A
:102100009D05AE05BF0518F4FA0111821082340155
:10211000F0E86F1AFBEF7F0A940124583B4F3A8393
:102120002983A4014E575B4F58874F832C5E3F4F46
:102130003C872B87435F5F4F5E874D87840106583E
:102140001B4F1601270154E1250E311C411C511C67
:10215000540184E1A80EB11C940122583B4F3C83EA
:102160002B83A40145575B4F5A874987D4011296A8
:102170008D919C911397DC01ED91FC910680F78184
:10218000E02D19959C0197FD29C1F3018081918172
:10219000820F931F91838083AF85B8894D915C91A5
:1021A00047305105E1F4EB81FC8180819181AC01E4
:1021B0004F5F5F4F51834083F401E80FF91F248B79
:1021C000D8018D919C91119701978D939C93892BA8
:1021D00009F0BECF28E030E0EF85F88986C04115D0
:1021E000510519F52F3F310569F481E090E0AF8585
:1021F000B8898D939C93E985FA8520823182428249
:102200005382B4CF0E94DC1D6C197D098E099F0991
:10221000663071058105910508F49ACFF401EE57F7
:10222000FB4F10828EEF9FEFFEC04130510591F4BD
:102230002E3F310519F482E090E02EC0EF85F88939
:1022400011821082AF81B8858C91811181CFC40138
:102250002FDD8CCF4230510589F4F8013183208382
:10226000AB81BC811D921C9283E090E0EF85F889E0
:1022700091838083D3012D933C9378CF43305105D4
:1022800081F4322F2227F80180819181820F931FE0
:102290009183808384E090E0AF85B8898D939C938F
:1022A00065CF4430510599F460E071E00E949B24B1
:1022B0008F3F910539F485E090E0EF85F8899183AF
:1022C000808354CFAF85B8891D921C924FCF453083
:1022D000510571F4E981FA813183208386E090E031
:1022E000AF85B8898D939C93F301318320833ECFD2
:1022F00046305105D1F4322F2227A981BA818D9120
:102300009C911197820F931F8D939C9327E030E04F
:10231000EF85F88931832083D8018D919C91892B99
:1023200009F016CF28E030E0E0CF4830510509F041
:102330000FCFAF85B8891D921C9260E071E00E94BA
:102340009B248F3F910509F003CFA981BA81ED91BC
:10235000FC913097A1F4C401ABDCC401E1DCF401D1
:10236000ED57FB4FC082D182E282F382ED81FE8184
:10237000C082D182E282F3828FEF9FEF54C0EA30B5
:10238000F10521F4B501C401B7DDF0CEE630F10569
:1023900051F4B5018B859C850E94BA0681E0AD851C
:1023A000BE858C93E3CEEB30F10521F4EF81F88507
:1023B0001082DCCEE154FE4FEE0FFF1FE80DF91D39
:1023C00080819181009709F4C3CEDC01ED91FC91ED
:1023D0000190F081E02DB5011995C8CEF401EE57BA
:1023E000FB4F80818823E9F084010D571B4FF801D2
:1023F00080819181A281B381A7019601281B390BAD
:102400004A0B5B0BDA01C901853C9940A105B10576
:1024100040F0C4014DDCD801CD92DD92ED92FC92EA
:10242000139780E090E060960FB6F894DEBF0FBE81
:10243000CDBFDF91CF911F910F91FF90EF90DF9073
:10244000CF90BF90AF909F908F907F906F905F9054
:102450004F903F902F9008958F929F92AF92BF928E
:10246000CF92DF92EF92FF92CF93DF936B017C01CB
:102470002091120C3091130C4091140C5091150CBA
:102480006091280C7091290C80912A0C90912B0C52
:102490000E94722220E030E040E05FE30E942924A5
:1024A00020E030E040E752E40E94DA222CED39EDE2
:1024B00047E35FE30E9429244B015C01CEE5D6E0AF
:1024C0008FEF96E092DB288339834A835B836C83AA
:1024D0007D838E839F8380926A0690926B06A09282
:1024E0006C06B0926D0610926E0610926F061092F6
:1024F000700610927106C701B6010E94732320E096
:1025000030E04AE754E40E94DA2260937206709346
:102510007306809374069093750666E576E08CE406
:1025200096E00E947D0A8FEF96E0DF91CF91FF90B9
:10253000EF90DF90CF90BF90AF909F908F9096CD0F
:10254000CF93DF9300D01F921F92CDB7DEB72EE757
:1025500035E03A8329836B835D834C83DC01ED9105
:10256000FC910190F081E02DAE014F5F5F4F67E07D
:1025700070E019950F900F900F900F900F90DF91D2
:10258000CF910895CF92DF92EF92FF920F931F9316
:10259000CF93DF93FC0122813381C481D581422F07
:1025A000532F6C2F7D2F40930A0250930B026093A0
:1025B0000C0270930D0216810781F084E184D8012A
:1025C000C7014B2F5A2F692F782F40930602509343
:1025D000070260930802709309024285538564855F
:1025E00075856A01C601A62FB72F8093D60B9093ED
:1025F000D70BA093D80BB093D90B7F936F935F93B6
:102600004F93EF92FF920F931F93DF93CF933F93DC
:102610002F938EE494E09F938F9384EA9BE09F93A3
:102620008F930E94F4258DB79EB740960FB6F8940D
:102630009EBF0FBE8DBF44EA5BE061E08FEF96E086
:10264000DF91CF911F910F91FF90EF90DF90CF908E
:1026500077CFCF92DF92EF92FF920F931F93CF939A
:10266000DF93EC017B01643671053CF0FC01EE5711
:10267000FB4F8081882309F462C0DA01ED91FC915F
:102680000190F081E02DBE01655E7D4FCA01199574
:102690008C016E01BCEECB1ABDEFDB0A2FEFF60109
:1026A00020832EEF3196208331968083319690835C
:1026B000890F8095319680833196E0823196F08241
:1026C00085E090E020E030E0A801495F5F4F84178B
:1026D000950750F4FE01E80FF91FEC5EFD4F608195
:1026E000260F311D0196F3CF085F1F4F4C0F5D1F62
:1026F000FA01EC5EFD4F209520830130F2E01F07C8
:10270000B0F47601C7018C199D09801791076CF40C
:102710008A819B81D7016D917D01DC01ED91FC9156
:102720000190F081E02D1995EDCFC8010AC040E677
:1027300054E063E0CE0104DF8FEF9FEF02C080E042
:1027400090E0DF91CF911F910F91FF90EF90DF907C
:10275000CF90089561E088E00E94B31F61E087E0B8
:102760000E94B31F61E08AE00E94B31F61E089E02C
:102770000E94B31F60E070E080E090E0CDD840910F
:10278000030750910407609105077091060726E042
:1027900080910107909102070E9430211092780BDE
:1027A0001092770B10927A0B1092790B10927E0B8D
:1027B00010927D0B10927C0B10927B0B80E091EEBF
:1027C000A0E0B0E08093030790930407A09305076F
:1027D000B0930607E5E4FBE080E090E021913191C1
:1027E000232B81F4FC01EE0FFF1FEB5BF44F2FEB6B
:1027F00036E0318320838C599F4F9093C20680939B
:10280000C10604C001968931910541F7E5E4FBE07A
:1028100080E090E021913191232B81F4FC01EE0FB7
:10282000FF1FEB5BF44F27ED36E0318320838C599B
:102830009F4F9093DA068093D90604C001968931A0
:10284000910541F76CE476E08FEF96E0A8D966E752
:1028500076E08FEF96E0A3D968E276E08FEF96E01E
:102860009ED98091810B811104C08FEF96E0FEDB31
:10287000F8CF49E954E061E08FEF96E061DE49EB83
:1028800054E061E08FEF96E05BDE8DE79CE081D65F
:1028900065E070E080E090E00C940B1E0F931F93B6
:1028A000CF93DF938CE59CE00E948F0A87E49CE045
:1028B0000E948F0A82E39CE00E948F0A42E163E15A
:1028C0008AEF9BE00E942A0B42E063E08EEE9BE0E1
:1028D0000E942A0B8AEE95E0909300078093FF06F2
:1028E00086E49DE0909302078093010780E091EEDB
:1028F000A0E0B0E08093030790930407A09305073E
:10290000B09306071092810B8AE895E09093900BA4
:1029100080938F0B1092910B1092970B1092960B45
:102920001092980B10929E0B10929D0B10929F0B81
:102930001092A30B1092A20BE3E1FBE01192119213
:102940008BE0E534F807D1F7E5E4FBE01192119252
:102950008BE0E737F807D1F7E3E1F7E0119289E080
:10296000E331F807D9F7E3E1F9E011928BE0E331C5
:10297000F807D9F784EF95E09093D8068093D706AF
:1029800086EC95E09093DE068093DD068FED96E071
:102990000E948F0A8DEE96E00E948F0A8CEC97E0E1
:1029A0009093FC068093FB0681E090E09093FE06F6
:1029B0008093FD0622ED34E03093DC062093DB06A5
:1029C00020E036E03093C0062093BF0622ED35E0CC
:1029D0003093C6062093C5061092C7061092C8060B
:1029E0001092C9061092CA061092CB061092CC061D
:1029F0001092CD061092CE061092CF061092D006FD
:102A00001092D1061092D20622EC32E13093D40615
:102A10002093D3069093D6068093D5068AED94E052
:102A20009093C4068093C3068EED95E09093810643
:102A30008093800606E915E01093830600938206D2
:102A400010928406109285061092860610928706D0
:102A5000109288061092890610928A0610928B06B0
:102A600010928C0610928D0610928E0610928F0690
:102A7000C4E2D5E0D0939106C093900610929206DE
:102A8000109293061092940685E996E00E948F0AB0
:102A900083EA96E00E948F0A81EB96E00E948F0AFB
:102AA0008EED94E0909377068093760680E896E02A
:102AB000909379068093780610927F0610927E0696
:102AC0008EEA95E090935706809356061093590628
:102AD0000093580610925A0610925B0610925C06FC
:102AE00010925D0610925E0610925F0610926006CC
:102AF00010926106109262061092630610926406AC
:102B000010926506D0936706C093660688E696E045
:102B10000E948F0A86EE94E090934D0680934C06B7
:102B200086E596E090934F0680934E0610925506E8
:102B3000109254068AEB95E0909333068093320608
:102B4000109335060093340610923606109237061D
:102B5000109238061092390610923A0610923B06EF
:102B600010923C0610923D0610923E0610923F06CF
:102B70001092400610924106D0934306C09342063D
:102B8000109244061092450610924606109247068F
:102B9000109248061092490610924A0610924B066F
:102BA0008EEE94E0909329068093280682E396E0C7
:102BB00090932B0680932A061092310610923006CD
:102BC000DF91CF911F910F910895CF93C62FBC0134
:102BD0008DE79CE0F1D46C2F8DE79CE09CD48DE7D1
:102BE0009CE0CF915BC51F93CF93DF931F92CDB72E
:102BF000DEB7162FBC018DE79CE04983DDD4612F41
:102C00008DE79CE088D44981642F8DE79CE083D4D4
:102C10008DE79CE00F90DF91CF911F913FC540E27F
:102C200061E08EE190E0DFDF65E070E080E090E061
:102C3000F2D748E160E08EE190E0D5DF65E070E03A
:102C400080E090E0E8D741E062E08EE190E0CBDF09
:102C500065E070E080E090E0DED781E008951F93AA
:102C6000CF93DF93EC01162FBC018DE79CE0A4D439
:102C7000612F8DE79CE04FD48DE79CE00FD564E198
:102C800070E080E090E0C7D741E050E0BE018DE702
:102C90009CE002D58DE79CE0EFD3DF91CF911F91AF
:102CA000089560E083E590E0DADF853E01F548E0D5
:102CB0006DE283E590E097DF65E070E080E090E012
:102CC000AAD749E061E383E590E08DDF65E070E03D
:102CD00080E090E0A0D749E06CE283E590E083DFFC
:102CE00065E070E080E090E096D781E0089580E0B4
:102CF000089560E088E690E0B2DF8E77883651F57F
:102D000040E86EE388E690E06EDF65E070E080E02A
:102D100090E081D74BE166E188E690E064DF65E012
:102D200070E080E090E077D743E165E188E690E0ED
:102D30005ADF65E070E080E090E06DD743E06EE33D
:102D400088E690E050DF6AE070E080E090E063D7D2
:102D500081E0089580E00895A4DF80939206C9DFA2
:102D6000809393065CDF8093940680919206811194
:102D700006C047EF54E063E08FEF96E0E1DB80911F
:102D80009306811106C040E155E063E08FEF96E0C5
:102D9000D7DB80919406811106C045E255E063E0DF
:102DA0008FEF96E0CDDB10920E020895CF93DF9364
:102DB0001092700C62E383E590E007DF46E050E09C
:102DC00063E570E08DE79CE067D48DE79CE04CD331
:102DD000892B79F0C091700CD0E08DE79CE04CD34A
:102DE000C659D34F88838091700C8F5F8093700C8D
:102DF000ECCF60916B0C70E0762F662780916A0CA7
:102E0000682B882777FD8095982F0E9475232DECDD
:102E10003CEC4CEC51E40E94DA2260935E0C70931F
:102E20005F0C8093600C9093610C60916D0C70E06E
:102E3000762F662780916C0C682B882777FD80950C
:102E4000982F0E9475232DEC3CEC4CEC51E40E9431
:102E5000DA226093620C7093630C8093640C9093FD
:102E6000650C60916F0C70E0762F662780916E0C78
:102E7000682B882777FD8095982F0E9475232DEC6D
:102E80003CEC4CEC51E40E94DA226093660C7093A7
:102E9000670C8093680C9093690CDF91CF91089533
:102EA000CF93DF9310925B0C6DE188E690E08DDEAE
:102EB00046E050E068E670E08DE79CE0EDD38DE7FA
:102EC0009CE0D2D2892B79F0C0915B0CD0E08DE7E9
:102ED0009CE0D2D2CB5AD34F888380915B0C8F5F1A
:102EE00080935B0CECCF6091550C70E0762F6627D9
:102EF0008091560C682B882777FD8095982F0E942B
:102F0000752329ED33E24FE95AE30E9429246093A7
:102F1000490C70934A0C80934B0C90934C0C60912D
:102F2000570C70E0762F66278091580C682B882705
:102F300077FD8095982F0E94752329ED33E24FE9A4
:102F40005AE30E94292460934D0C70934E0C809399
:102F50004F0C9093500C6091590C70E0762F6627BF
:102F600080915A0C682B882777FD8095982F0E94B6
:102F7000752329ED33E24FE95AE30E942924609337
:102F8000510C7093520C8093530C9093540CDF911E
:102F9000CF910895CF93DF931092460C63E08EE1BA
:102FA00090E013DE46E050E06EE170E08DE79CE0DB
:102FB00073D38DE79CE058D2892B79F0C091460CF1
:102FC000D0E08DE79CE058D2C05CD34F88838091DD
:102FD000460C8F5F8093460CECCF6091400C70E004
:102FE000762F66278091410C682B882777FD809586
:102FF000982F0E9475232FE135E84BE65FE30E948E
:1030000029246093340C7093350C8093360C909384
:10301000370C6091440C70E0762F66278091450C48
:10302000682B882777FD8095982F0E9475232FE1C4
:1030300035E84BE65FE30E9429246093380C7093D7
:10304000390C80933A0C90933B0C6091420C70E0E9
:10305000762F66278091430C682B882777FD809513
:10306000982F0E9475232FE135E84BE65FE30E941D
:10307000292460933C0C70933D0C80933E0C9093FC
:103080003F0C41E062E08EE190E0DF91CF91ABCD6B
:103090008FEF96E00E94F50D209388063093890605
:1030A00040938A0650938B0660938C0670938D062E
:1030B00080938E0690938F068DE395E09093910612
:1030C0008093900680919206882389F16FDE80912B
:1030D0005E0C90915F0CA091600CB091610C80939C
:1030E000970690939806A0939906B0939A068091BC
:1030F000620C9091630CA091640CB091650C80936C
:103100009B0690939C06A0939D06B0939E0680918B
:10311000660C9091670CA091680CB091690C80933B
:103120009F069093A006A093A106B093A20680915B
:103130009306882389F1B4DE8091490C90914A0C62
:10314000A0914B0CB0914C0C8093A5069093A606D1
:10315000A093A706B093A80680914D0C90914E0CB9
:10316000A0914F0CB091500C8093A9069093AA06A1
:10317000A093AB06B093AC068091510C9091520C89
:10318000A091530CB091540C8093AD069093AE0671
:10319000A093AF06B093B00680919406882389F17E
:1031A000F9DE8091340C9091350CA091360CB091E1
:1031B000370C8093B3069093B406A093B506B093F2
:1031C000B6068091380C9091390CA0913A0CB091D0
:1031D0003B0C8093B7069093B806A093B906B093C2
:1031E000BA0680913C0C90913D0CA0913E0CB091A0
:1031F0003F0C8093BB069093BC06A093BD06B09392
:10320000BE0660E876E086E796E00C947D0ACF92F1
:10321000DF92EF92FF920F931F93CED4C090E20BF8
:10322000D090E30BE090E40BF090E50B6C197D0976
:103230008E099F096436710581059105B8F0BCD4EB
:10324000C090E20BD090E30BE090E40BF090E50B24
:103250006C197D098E099F09FFD8AED46093E20BEB
:103260007093E30B8093E40B9093E50BA5D4C0908F
:10327000E60BD090E70BE090E80BF090E90B6C19AF
:103280007D098E099F09643671058105910508F451
:1032900042C092D46B017C018091E60B9091E70BC8
:1032A000A091E80BB091E90BC81AD90AEA0AFB0A07
:1032B0008AEF9BE00E94E30AAB01BC019701860103
:1032C0008CE19CE00E94B80C8EEE9BE00E94E30A29
:1032D000AB01BC019701860186E09CE00E94B80C1E
:1032E0008CE19CE00E940E0D86E09CE00E940E0D99
:1032F00060911A0C70911B0C8091300C9091310CE4
:103300000E948C0C59D46093E60B7093E70B80936A
:10331000E80B9093E90B50D4C090EA0BD090EB0BE4
:10332000E090EC0BF090ED0B6C197D098E099F0974
:103330006039714081059105F0F010922C0C1092CB
:103340002D0C10922E0C10922F0C1092160C109225
:10335000170C1092180C1092190C10921B0C109252
:103360001A0C1092310C1092300C60E070E080E08A
:1033700090E00E948C0C20D4C090DE0BD090DF0B2C
:10338000E090E00BF090E10B6C197D098E099F092C
:10339000643671058105910580F080910E028823C5
:1033A00011F0DADC01C074DE07D46093DE0B709399
:1033B000DF0B8093E00B9093E10BFED3C090DA0B10
:1033C000D090DB0BE090DC0BF090DD0B6C197D09ED
:1033D0008E099F096436710581059105D8F18AEF40
:1033E0009BE00E94E30A6093440670934506809335
:1033F0004606909347068EEE9BE00E94E30A609398
:1034000048067093490680934A0690934B068FEFC7
:1034100096E00E94F50D20933A0630933B064093C8
:103420003C0650933D0660933E0670933F068093A2
:1034300040069093410662E376E088E296E00E94BF
:103440007D0ABAD36093DA0B7093DB0B8093DC0BAD
:103450009093DD0B8FEF96E01F910F91FF90EF900F
:10346000DF90CF900C9436108091AD0C90E02091BD
:10347000AE0C821B910908952091AE0C8091AD0C89
:10348000281750F4E22FF0E0E155F34F808190E0EF
:103490002F5F2093AE0C08958FEF9FEF0895E0917A
:1034A000AE0C8091AD0CE81730F4F0E0E155F34F2D
:1034B000808190E008958FEF9FEF08950895CF9257
:1034C000DF92EF92FF920F931F93CF93DF937C01D4
:1034D000CB018A012091890C222389F0EB016B0139
:1034E000C40ED51ECC15DD0561F06991D701ED91B3
:1034F000FC910190F081E02DC7011995F3CF642F65
:103500008DD1C801DF91CF911F910F91FF90EF9066
:10351000DF90CF900895CF93DF931F92CDB7DEB7A2
:1035200069832091890C2223D1F020918A0C2032CA
:1035300040F021E030E0FC013383228380E090E022
:1035400014C080918B0CE82FF0E0E457F34F998181
:1035500090838F5F80938B0C80938A0C04C061E012
:10356000CE0101965BD181E090E00F90DF91CF9189
:103570000895FC011382128248EE53E060E070E08F
:1035800044835583668377838CE096E091838083C0
:1035900008951092AE0C1092AD0C10928B0C1092FC
:1035A0008A0C81C081E08093890C6093AC0C1092EE
:1035B0008B0C10928A0C0895F5CF0F93062F21E003
:1035C00040918A0C6CE87CE08091AC0CD0D01092D9
:1035D0008B0C10928A0C1092890C0F9108958F9287
:1035E0009F92AF92BF92CF92DF92EF92FF920F9392
:1035F0001F93CF93DF93EC01F62ED42E480159018F
:10360000EE2009F1CFDF1E2D143008F013E0115029
:10361000B8F0E881F98128E0129FB0011124A501DA
:10362000940104C056954795379527956A95D2F72A
:10363000CA01B9010190F081E02DCE011995E7CFC3
:1036400060E0CE01BADF4D2D413208F040E22C2D72
:103650006FEA7CE08F2D43D01092AE0C8093AD0CBE
:10366000DF91CF911F910F91FF90EF90DF90CF905E
:10367000BF90AF909F908F900895CF92EF920F934D
:103680001F93C22EE12C00E010E09801A8DF1F91EB
:103690000F91EF90CF90089521E0EFCF61E08DCFB3
:1036A0008DE79CE066CF10923C0D81E080933A0D4F
:1036B0001092390D61E084E18FD461E085E18CD412
:1036C000E9EBF0E080818E7F808380818D7F808335
:1036D00088E48093B80085E48093BC00089541326B
:1036E00008F043C090913C0D9111FCCF91E0909374
:1036F0003C0D20933A0D2FEF2093CF0C1092140D18
:10370000240F2093130D90933B0D90913B0D880F48
:10371000892B80933B0D8091390D813061F410929B
:10372000390D80913B0D8093BB008091BC0083FDDF
:10373000F8CF85EC01C085EE8093BC0080913C0DF4
:103740008130E1F38091140D841710F44091140D31
:1037500025E13DE0FB01D9018A2F821B841718F473
:103760008D918193F9CF842F089580E008950F9370
:10377000413208F04AC090913C0D9111FCCF92E08B
:1037800090933C0D00933A0D9FEF9093CF0C1092C5
:10379000140D4093130DFB0165E17DE0DB019A2FD1
:1037A000961B941718F491919D93F9CF10923B0DAD
:1037B00090913B0D880F892B80933B0D8091390DA3
:1037C000813061F41092390D80913B0D8093BB00E4
:1037D0008091BC0083FDF8CF85EC01C085EE80931D
:1037E000BC00222321F080913C0D8230E1F38091D6
:1037F000CF0C8F3F61F08091CF0C803251F08091DF
:10380000CF0C803341F483E007C081E005C080E045
:1038100003C082E001C084E00F910895613298F402
:1038200020913C0D243089F46093F10CFC0183EF6E
:103830009CE0DC012A2F281B261718F421912D93D8
:10384000F9CF80E0089581E0089582E0089585ED44
:103850008093BC008091BC0084FDFCCF10923C0D95
:10386000089585EC8093BC0010923C0D08951F9242
:103870000F920FB60F9211240BB60F922F933F9316
:103880004F935F936F937F938F939F93AF93BF9368
:10389000EF93FF938091B900887F803609F49DC033
:1038A00070F5883209F45CC090F4803109F455C099
:1038B00038F4882309F4F3C0883009F44EC0F2C00C
:1038C000883109F44DC0803209F45EC0EBC0803409
:1038D00009F469C050F4803309F456C0883309F004
:1038E000E1C08093CF0CBDDFDDC0803509F44FC04F
:1038F000883509F45DC0883409F0D4C0D2C0883955
:1039000009F4C3C0A8F4883709F467C038F48836CE
:1039100009F463C0803709F460C0C4C0883809F472
:10392000B4C0803909F45FC0803809F0BBC05BC007
:10393000803B09F482C038F4803A09F466C0883AC2
:1039400009F47BC0AFC0803C09F4A3C0883C09F4F3
:10395000A0C0883B09F486C0A5C080913B0D10C073
:103960009091140D8091130D981770F5E091140D3E
:1039700081E08E0F8093140DF0E0EB5EF24F8081BA
:103980008093BB0085EC82C08093CF0C8AC0E0910D
:10399000140D81E08E0F8093140D8091BB00F0E038
:1039A000EB5EF24F80839091140D8091130D6AC0ED
:1039B000E091140D81E08E0F8093140D8091BB0077
:1039C000F0E0EB5EF24F808380913A0D811169C087
:1039D00081E08093390D84EA5DC083E080933C0DE3
:1039E0001092D00CCFCF8091D00C803208F04DC017
:1039F000E091D00C81E08E0F8093D00C8091BB00C1
:103A0000F0E0EF52F34F8083BDCF2BDF8091D00CDD
:103A1000803230F4E091D00CF0E0EF52F34F10829E
:103A20006091D00C70E0E091350DF091360D81ED94
:103A30009CE019951092D00C35C084E080933C0D29
:103A40001092F20C1092F10CE091370DF091380DBC
:103A500019958091F10C811105C081E08093F10CE2
:103A60001092F30CE091F20C81E08E0F8093F20C37
:103A7000F0E0ED50F34F80818093BB009091F20C09
:103A80008091F10C981708F47DCF85E88093BC00F5
:103A900009C085EC8093BC0010923C0D03C01092CD
:103AA000CF0CD5DEFF91EF91BF91AF919F918F9198
:103AB0007F916F915F914F913F912F910F900BBE2E
:103AC0000F900FBE0F901F901895CF92DF92EF923C
:103AD000FF920F931F93CF93DF938C01EB016881CB
:103AE00079818A819B8120E03AEC4AE95BE336D711
:103AF000F801C080D180E280F380C20ED31EE41EA4
:103B0000F51EC082D182E282F382688379838A8340
:103B10009B83DF91CF911F910F91FF90EF90DF90EA
:103B2000CF9008951F920F920FB60F9211242F93EA
:103B30003F938F939F93AF93BF9380913E0D90914E
:103B40003F0DA091400DB091410D30913D0D23E00E
:103B5000230F2D3720F40196A11DB11D05C026E8C5
:103B6000230F0296A11DB11D20933D0D80933E0DA4
:103B700090933F0DA093400DB093410D8091420D65
:103B80009091430DA091440DB091450D0196A11D5A
:103B9000B11D8093420D9093430DA093440DB093BB
:103BA000450DBF91AF919F918F913F912F910F90B4
:103BB0000FBE0F901F9018952FB7F89460913E0D8F
:103BC00070913F0D8091400D9091410D2FBF089550
:103BD0003FB7F8948091420D9091430DA091440D10
:103BE000B091450D26B5A89B05C02F3F19F0019651
:103BF000A11DB11D3FBF6627782F892F9A2F620F15
:103C0000711D811D911D42E0660F771F881F991F4E
:103C10004A95D1F70895CF92DF92EF92FF92CF931A
:103C2000DF936B017C01D4DFEB01C114D104E1040B
:103C3000F10479F055D4CCDF6C1B7D0B683E7340EA
:103C4000A0F381E0C81AD108E108F108C851DC4F9F
:103C5000ECCFDF91CF91FF90EF90DF90CF90089560
:103C60008230910538F0880F991F880F991F0597AA
:103C70000197F1F70895789484B5826084BD84B586
:103C8000816084BD85B5826085BD85B5816085BD57
:103C9000EEE6F0E0808181608083E1E8F0E0108270
:103CA000808182608083808181608083E0E8F0E0B1
:103CB000808181608083E1EBF0E08081846080839B
:103CC000E0EBF0E0808181608083E1E9F0E08081D9
:103CD00082608083808181608083E0E9F0E0808180
:103CE00081608083E1EAF0E080818260808380816E
:103CF00081608083E0EAF0E0808181608083E1E29E
:103D0000F1E0808182608083808181608083E0E255
:103D1000F1E0808181608083EAE7F0E08081846067
:103D200080838081826080838081816080838081C4
:103D3000806880831092C10008951F93CF93DF9312
:103D4000182FEB0161E00FD1209711F460E004C05F
:103D5000CF3FD10531F461E0812FDF91CF911F91E9
:103D60003BC1E12FF0E0E45CFE4F449150E0FA01EA
:103D70003197E231F10508F09AC0E658FF4F10C6BE
:103D800084B5806884BDC7BD97C084B5806284BD9A
:103D9000C8BD92C080918000806880938000D093DD
:103DA0008900C093880088C08091800080628093E1
:103DB0008000D0938B00C0938A007EC080918000E9
:103DC000886080938000D0938D00C0938C0074C075
:103DD0008091B00080688093B000C093B3006CC045
:103DE0008091B00080628093B000C093B40064C042
:103DF00080919000806880939000D0939900C09348
:103E000098005AC080919000806280939000D09377
:103E10009B00C0939A0050C080919000886080936E
:103E20009000D0939D00C0939C0046C08091A0005C
:103E300080688093A0008091A0008F7B8093A00079
:103E4000D093A900C093A80037C08091A0008062E1
:103E50008093A000D093AB00C093AA002DC08091A6
:103E6000A00088608093A000D093AD00C093AC0008
:103E700023C080912001806880932001D093290184
:103E8000C093280119C08091200180628093200195
:103E9000D0932B01C0932A010FC08091200188602C
:103EA00080932001D0932D01C0932C0105C0C03810
:103EB000D1050CF050CF4ACFDF91CF911F910895DB
:103EC00090E0FC013197E231F10508F04BC0E45776
:103ED000FF4F66C5809180008F7703C0809180007E
:103EE0008F7D80938000089580918000877FF9CF37
:103EF00084B58F7702C084B58F7D84BD089580918D
:103F0000B0008F7703C08091B0008F7D8093B000A8
:103F10000895809190008F7707C0809190008F7DE9
:103F200003C080919000877F8093900008958091D6
:103F3000A0008F7707C08091A0008F7D03C0809183
:103F4000A000877F8093A0000895809120018F7743
:103F500007C0809120018F7D03C080912001877F61
:103F6000809320010895CF93DF9390E0FC01EE57FA
:103F7000FE4F2491FC01E853FE4F8491882349F1C0
:103F800090E0880F991FFC01EE5BFD4FA591B49165
:103F9000885D9D4FFC01C591D4919FB7611108C008
:103FA000F8948C91209582238C93888182230AC077
:103FB000623051F4F8948C91322F309583238C9396
:103FC0008881822B888304C0F8948C91822B8C93F7
:103FD0009FBFDF91CF9108950F931F93CF93DF93EE
:103FE0001F92CDB7DEB7282F30E0F901E45CFE4F19
:103FF0008491F901EE57FE4F1491F901E853FE4FF9
:1040000004910023C1F0882319F0698359DF698185
:10401000E02FF0E0EE0FFF1FE85DFD4FA591B4919A
:104020009FB7F8948C91611103C01095812301C052
:10403000812B8C939FBF0F90DF91CF911F910F9198
:104040000895FC01818D228D90E0805C9F4F821B42
:1040500091098F7399270895FC01918D828D98178E
:1040600031F0828DE80FF11D858D90E008958FEF7E
:104070009FEF0895FC01918D828D981761F0828DDC
:10408000DF01A80FB11D5D968C91928D9F5F9F738C
:10409000928F90E008958FEF9FEF08958FEE91E259
:1040A000892B39F080E090E0892B19F098D18111AB
:1040B00025C080E090E0892B41F080E090E0892BE2
:1040C00021F00E94000081111CC080E090E0892B4B
:1040D00041F080E090E0892B21F00E9400008111E6
:1040E00013C080E090E0892BA1F080E090E0892B64
:1040F00081F00E94000081110AC008950E94000012
:10410000D8CF0E940000E1CF0E940000EACF0C94BB
:1041100000000895FC01848DDF01A80FB11DA35A92
:10412000BF4F2C91848D90E001968F739927848FD7
:10413000A689B7892C93A089B1898C9180648C93CE
:10414000938D848D981306C00288F389E02D8081B9
:104150008F7D80830895CF93DF93EC01888D882332
:10416000C1F0EA89FB89808185FD05C0A889B989EC
:104170008C9186FD0EC00FB607FCF5CF808185FFC0
:10418000F2CFA889B9898C9185FFEDCFCE01C2DF2E
:10419000E8CFDF91CF910895CF92DF92FF920F93F6
:1041A0001F93CF93DF931F92CDB7DEB76C0181E0F1
:1041B000D60158968C9358975B969C915B975C962A
:1041C0008C915C97981307C05096ED91FC91519794
:1041D000808185FD2DC0F601038D10E00F5F1F4F1C
:1041E0000F731127F02EF601848DF81210C00FB650
:1041F00007FCF9CFD6015096ED91FC915197808143
:1042000085FFF1CFC601698385DF6981ECCF838D9E
:10421000E80FF11DE35AFF4F6083D6015B960C93C4
:104220005B975296ED91FC915397808180620CC010
:10423000D6015696ED91FC91579760835096ED917B
:10424000FC91519780818064808381E090E00F90A1
:10425000DF91CF911F910F91FF90DF90CF90089544
:10426000BF92CF92DF92EF92FF92CF93DF93EC0158
:104270006A017B01B22EE889F98982E080834115C9
:1042800081EE58076105710599F060E079E08DE3F2
:1042900090E0A701960162D32150310941095109EB
:1042A0005695479537952795211580E1380790F069
:1042B000E889F989108260E874E88EE190E0A7014E
:1042C00096014CD321503109410951095695479522
:1042D00037952795EC85FD853083EE85FF85208316
:1042E000188EEC89FD89B082EA89FB898081806122
:1042F0008083EA89FB89808188608083EA89FB89E1
:10430000808180688083EA89FB8980818F7D8083BA
:10431000DF91CF91FF90EF90DF90CF90BF90089505
:104320001F920F920FB60F9211240BB60F922F937C
:104330008F939F93EF93FF93E091560DF091570D5C
:104340008081E0915C0DF0915D0D82FD12C0908145
:1043500080915F0D8F5F8F732091600D821751F0F8
:10436000E0915F0DF0E0EA5BF24F958F80935F0D77
:1043700001C08081FF91EF919F918F912F910F90BC
:104380000BBE0F900FBE0F901F9018951F920F92AB
:104390000FB60F9211240BB60F922F933F934F93AA
:1043A0005F936F937F938F939F93AF93BF93EF939D
:1043B000FF9386E49DE0AEDEFF91EF91BF91AF9158
:1043C0009F918F917F916F915F914F913F912F912D
:1043D0000F900BBE0F900FBE0F901F90189586E4A4
:1043E0009DE02FDE21E0892B09F420E0822F089543
:1043F0001092490D1092480D88EE93E0A0E0B0E0D5
:1044000080934A0D90934B0DA0934C0DB0934D0D9E
:104410008CE196E09093470D8093460D85EC90E0FB
:104420009093530D8093520D84EC90E09093550D32
:104430008093540D80EC90E09093570D8093560D2F
:1044400081EC90E09093590D8093580D82EC90E0B0
:1044500090935B0D80935A0D86EC90E090935D0DE8
:1044600080935C0D10925F0D1092600D1092610DA3
:104470001092620D0895CF92DF92EF92FF920F9308
:104480001F93CF93DF937C016A01EB0100E010E002
:104490000C151D0571F06991D701ED91FC9101900A
:1044A000F081E02DC7011995892B19F00F5F1F4F7F
:1044B000EFCFC801DF91CF911F910F91FF90EF9047
:1044C000DF90CF9008950895D6DBFDDF0E94AA13F8
:1044D000CEE4D0E20E9407192097E1F3DFDDFACFA6
:1044E00008955058BB27AA270ED075C166D130F069
:1044F0006BD120F031F49F3F11F41EF45BC10EF438
:10450000E095E7FB51C1E92F77D180F3BA17620735
:1045100073078407950718F071F49EF58FC10EF4A8
:10452000E0950B2EBA2FA02D0B01B90190010C01C3
:10453000CA01A0011124FF27591B99F0593F50F4DB
:10454000503E68F11A16F040A22F232F342F442733
:10455000585FF3CF469537952795A795F04053952B
:10456000C9F77EF41F16BA0B620B730B840BBAF0FB
:104570009150A1F0FF0FBB1F661F771F881FC2F766
:104580000EC0BA0F621F731F841F48F4879577957A
:104590006795B795F7959E3F08F0B3CF9395880F31
:1045A00008F09927EE0F979587950895D9D008F4CC
:1045B00081E008950CD00FC107D140F0FED030F05B
:1045C00021F45F3F19F0F0C0511139C1F3C014D18B
:1045D00098F39923C9F35523B1F3951B550BBB27CA
:1045E000AA2762177307840738F09F5F5F4F220F77
:1045F000331F441FAA1FA9F333D00E2E3AF0E0E870
:1046000030D091505040E695001CCAF729D0FE2FBB
:1046100027D0660F771F881FBB1F2617370748074D
:10462000AB07B0E809F0BB0B802DBF01FF27935803
:104630005F4F2AF09E3F510568F0B6C000C15F3F52
:10464000ECF3983EDCF3869577956795B795F795EB
:104650009F5FC9F7880F911D9695879597F90895E3
:10466000E1E0660F771F881FBB1F6217730784077F
:10467000BA0720F0621B730B840BBA0BEE1F88F78E
:10468000E095089504D06894B111D9C00895BCD0C4
:1046900088F09F5790F0B92F9927B751A0F0D1F02B
:1046A000660F771F881F991F1AF0BA95C9F712C0B5
:1046B000B13081F0C3D0B1E00895C0C0672F782F2A
:1046C0008827B85F39F0B93FCCF386957795679521
:1046D000B395D9F73EF490958095709561957F4F8D
:1046E0008F4F9F4F0895E89409C097FB3EF4909533
:1046F0008095709561957F4F8F4F9F4F9923A9F0BB
:10470000F92F96E9BB279395F69587957795679549
:10471000B795F111F8CFFAF4BB0F11F460FF1BC08D
:104720006F5F7F4F8F4F9F4F16C0882311F096E920
:1047300011C0772321F09EE8872F762F05C06623CE
:1047400071F096E8862F70E060E02AF09A95660F87
:10475000771F881FDAF7880F9695879597F9089540
:10476000990F0008550FAA0BE0E8FEEF1616170682
:10477000E807F907C0F012161306E407F50798F0EA
:10478000621B730B840B950B39F40A2661F0232B03
:10479000242B252B21F408950A2609F4A140A6957F
:1047A0008FEF811D811D089597F99F6780E870E064
:1047B00060E008959FEF80EC089500240A94161697
:1047C000170618060906089500240A9412161306FF
:1047D000140605060895092E0394000C11F488238D
:1047E00052F0BB0F40F4BF2B11F460FF04C06F5FA9
:1047F0007F4F8F4F9F4F089557FD9058440F551F7F
:1048000059F05F3F71F04795880F97FB991F61F052
:104810009F3F79F087950895121613061406551FC9
:10482000F2CF4695F1DF08C0161617061806991F35
:10483000F1CF86957105610508940895E894BB272A
:1048400066277727CB0197F908958ADF08F48FEF61
:1048500008950BD0C0CFB1DF28F0B6DF18F0952354
:1048600009F0A2CFA7CF1124EACFC6DFA0F3959F0E
:10487000D1F3950F50E0551F629FF001729FBB2747
:10488000F00DB11D639FAA27F00DB11DAA1F649FF3
:104890006627B00DA11D661F829F2227B00DA11DA6
:1048A000621F739FB00DA11D621F839FA00D611D2C
:1048B000221F749F3327A00D611D231F849F600D4D
:1048C000211D822F762F6A2F11249F5750408AF086
:1048D000E1F088234AF0EE0FFF1FBB1F661F771F12
:1048E000881F91505040A9F79E3F510570F05CCF52
:1048F000A6CF5F3FECF3983EDCF3869577956795FE
:10490000B795F795E7959F5FC1F7FE2B880F911D2F
:104910009695879597F90895DB018F939F9346D0DD
:10492000BF91AF91A29F800D911DA39F900DB29F4B
:10493000900D1124089597FB072E16F4009406D0CD
:1049400077FD08D041D007FC05D03EF490958195C5
:104950009F4F0895709561957F4F0895A1E21A2E9B
:10496000AA1BBB1BFD010DC0AA1FBB1FEE1FFF1F13
:10497000A217B307E407F50720F0A21BB30BE40B63
:10498000F50B661F771F881F991F1A9469F76095AA
:104990007095809590959B01AC01BD01CF01089564
:1049A000EE0FFF1F0590F491E02D199421D0A59FE3
:1049B000900DB49F900DA49F800D911D112408951A
:1049C0000790F691E02D1994AA1BBB1B51E107C07B
:1049D000AA1FBB1FA617B70710F0A61BB70B881F8F
:1049E000991F5A95A9F780959095BC01CD0108951E
:1049F000A29FB001B39FC001A39F700D811D112420
:104A0000911DB29F700D811D1124911D08956F920B
:104A10007F928F929F92AF92BF92CF92DF92EF924E
:104A2000FF920F931F93CF93DF93EC01CB0120975D
:104A300079F4DF91CF911F910F91FF90EF90DF906C
:104A4000CF90BF90AF909F908F907F906F90E8C273
:104A5000FE01E60FF71F9E0122503109E217F3070E
:104A600008F4A8C0D9010D911C91119706171707DA
:104A7000B0F00530110508F49BC0A801445051095D
:104A80004617570708F494C002501109061B170B6C
:104A9000019311936D937C93CF015AD389C05B012D
:104AA000A01AB10A4E01800E911EA091E50DB091A1
:104AB000E60D612C712C60E070E0109709F449C09C
:104AC000A815B905C9F5ED90FC901197670142E072
:104AD000C40ED11CCA14DB0478F147018A189B0864
:104AE000640142E0C40ED11C1296BC90129713963A
:104AF000AC91B5E0CB16D10440F0B282A383918291
:104B00008082D9018D939C9309C00E5F1F4F0E0DBB
:104B10001F1DF90111830083EB2DFA2F611571051B
:104B200031F0DB011396FC93EE93129741C0F093A2
:104B3000E60DE093E50D3CC06D917C9111976616F2
:104B4000770608F43B01BD0112960D90BC91A02D93
:104B5000B4CF6091E30D7091E40D68157905E9F427
:104B600068167906D0F44091000250910102411577
:104B7000510541F44DB75EB7609104027091050292
:104B8000461B570BE417F507A8F4F093E40DE093E8
:104B9000E30DF901918380830BC042D27C01009721
:104BA00049F0A801BE0117D0CE01D2D2C70104C07E
:104BB000CE0102C080E090E0DF91CF911F910F9174
:104BC000FF90EF90DF90CF90BF90AF909F908F902D
:104BD0007F906F900895FB01DC0102C001900D925F
:104BE00041505040D8F708950F931F93CF93DF9310
:104BF000CDB7DEB72E970FB6F894DEBF0FBECDBF90
:104C00000E891F8986E08C831A8309838FEF9FE7C3
:104C10009E838D83AE01465E5F4F688D798DCE0198
:104C2000019610D0EF81F885E00FF11F10822E96CB
:104C30000FB6F894DEBF0FBECDBFDF91CF911F91AD
:104C40000F9108952F923F924F925F926F927F92B1
:104C50008F929F92AF92BF92CF92DF92EF92FF928C
:104C60000F931F93CF93DF93CDB7DEB72C970FB67B
:104C7000F894DEBF0FBECDBF7C016B018A01FC0141
:104C800017821682838181FFB0C1CE0101964C014B
:104C9000F7019381F60193FD859193FF81916F0157
:104CA000882309F49EC1853239F493FD859193FFE1
:104CB00081916F01853221F4B70190E0EED2E8CF07
:104CC000512C312C20E02032A0F48B3269F030F4EA
:104CD000803259F0833269F420612CC08D3239F072
:104CE000803339F4216026C02260246023C028600C
:104CF00021C027FD27C030ED380F3A3078F426FF69
:104D000006C0FAE05F9E300D1124532E13C08AE0D6
:104D1000389E300D1124332E20620CC08E3221F4C7
:104D200026FD5FC1206406C08C3611F4206802C0E5
:104D3000883641F4F60193FD859193FF81916F01CF
:104D40008111C1CF982F9F7D9554933028F40C5F2B
:104D50001F4FFFE3F9830DC0833631F0833771F0C5
:104D6000833509F057C021C0F801808189830E5F27
:104D70001F4F44244394512C540114C03801F2E0D5
:104D80006F0E711CF801A080B18026FF03C0652D55
:104D900070E002C06FEF7FEFC5012C8773D22C014A
:104DA00083012C852F77222E16C03801F2E06F0E7A
:104DB000711CF801A080B18026FF03C0652D70E052
:104DC00002C06FEF7FEFC5012C8751D22C012C85DB
:104DD0002068222E830123FC19C0832D90E0481601
:104DE0005906A0F4B70180E290E057D23A94F5CF8B
:104DF000F50127FC859127FE81915F01B70190E0C5
:104E00004CD231103A94F1E04F1A51084114510438
:104E100079F7DEC0843611F0893631F5F80127FFC5
:104E200007C060817181828193810C5F1F4F08C030
:104E300060817181882777FD8095982F0E5F1F4FC5
:104E40002F76B22E97FF09C0909580957095619549
:104E50007F4F8F4F9F4F2068B22E2AE030E0A40191
:104E60004ED2A82EA81843C0853729F42F7EB22E23
:104E70002AE030E025C0F22FF97FBF2E8F36C1F037
:104E800018F4883579F0ADC0803719F0883721F0F3
:104E9000A8C02F2F2061B22EB4FE0DC08B2D8460D0
:104EA000B82E09C024FF0AC09F2F9660B92E06C0F5
:104EB00028E030E005C020E130E002C020E132E02F
:104EC000F801B7FE07C060817181828193810C5F18
:104ED0001F4F06C06081718180E090E00E5F1F4F20
:104EE000A4010DD2A82EA818FB2DFF77BF2EB6FE69
:104EF0000BC02B2D2E7FA51450F4B4FE0AC0B2FCBB
:104F000008C02B2D2E7E05C07A2C2B2D03C07A2CA9
:104F100001C0752C24FF0DC0FE01EA0DF11D80813A
:104F2000803311F4297E09C022FF06C07394739464
:104F300004C0822F867809F0739423FD12C020FFED
:104F400006C05A2C731418F4530C5718732C73148E
:104F500060F4B70180E290E02C879FD173942C8598
:104F6000F6CF731410F4371801C0312C24FF11C090
:104F7000B70180E390E02C8790D12C8522FF16C0EA
:104F800021FF03C088E590E002C088E790E0B70108
:104F90000CC0822F867851F021FD02C080E201C052
:104FA0008BE227FD8DE2B70190E077D1A51430F4B4
:104FB000B70180E390E071D15A94F8CFAA94F4013C
:104FC000EA0DF11D8081B70190E067D1A110F6CF05
:104FD000332009F45DCEB70180E290E05ED13A94CF
:104FE000F7CFF7018681978102C08FEF9FEF2C9654
:104FF0000FB6F894DEBF0FBECDBFDF91CF911F91EA
:105000000F91FF90EF90DF90CF90BF90AF909F9067
:105010008F907F906F905F904F903F902F9008956A
:10502000CF93DF938230910510F482E090E0E0911D
:10503000E50DF091E60D20E030E0A0E0B0E0309723
:1050400039F14081518148175907B8F0481759077D
:1050500071F482819381109729F013969C938E931B
:1050600012972CC09093E60D8093E50D27C0211573
:10507000310531F04217530718F0A901DB0101C0D7
:10508000EF019A01BD01DF010280F381E02DD7CF4E
:1050900021153105F9F0281B390B2430310580F436
:1050A0008A819B816115710521F0FB0193838283C5
:1050B00004C09093E60D8093E50DFE01329644C046
:1050C000FE01E20FF31F819391932250310939833E
:1050D00028833AC02091E30D3091E40D232B41F455
:1050E00020910202309103023093E40D2093E30DEE
:1050F00020910002309101022115310541F42DB7B4
:105100003EB74091040250910502241B350BE091FB
:10511000E30DF091E40DE217F307A0F42E1B3F0B13
:105120002817390778F0AC014E5F5F4F2417350719
:1051300048F04E0F5F1F5093E40D4093E30D8193B1
:10514000919302C0E0E0F0E0CF01DF91CF910895AC
:10515000CF93DF93009709F487C0FC013297138245
:105160001282C091E50DD091E60D209781F4208147
:105170003181280F391F8091E30D9091E40D821742
:10518000930779F5F093E40DE093E30D6DC0DE0134
:1051900020E030E0AE17BF0750F412964D915C91BD
:1051A00013979D014115510509F1DA01F3CFB3833E
:1051B000A28340815181840F951F8A179B0771F448
:1051C0008D919C911197840F951F029691838083F6
:1051D00012968D919C9113979383828321153105AB
:1051E00029F4F093E60DE093E50D3EC0D901139646
:1051F000FC93EE9312974D915D91A40FB51FEA17A2
:10520000FB0779F480819181840F951F0296D90163
:1052100011969C938E938281938113969C938E9387
:105220001297E0E0F0E08A819B81009719F0FE017F
:10523000EC01F9CFCE01029628813981820F931FAC
:105240002091E30D3091E40D2817390769F4309768
:1052500029F41092E60D1092E50D02C0138212821D
:10526000D093E40DC093E30DDF91CF910895FC013D
:105270000590615070400110D8F7809590958E0F81
:105280009F1F0895FC016150704001900110D8F7F4
:10529000809590958E0F9F1F08950F931F93CF9326
:1052A000DF93182F092FEB018B8181FD03C08FEF56
:1052B0009FEF20C082FF10C04E815F812C813D8115
:1052C000421753077CF4E881F9819F012F5F3F4F1C
:1052D00039832883108306C0E885F985812F1995C5
:1052E000892B29F72E813F812F5F3F4F3F832E83EC
:1052F000812F902FDF91CF911F910F910895FA0187
:10530000AA27283051F1203181F1E8946F936E7F04
:105310006E5F7F4F8F4F9F4FAF4FB1E03ED0B4E0F5
:105320003CD0670F781F891F9A1FA11D680F791F36
:105330008A1F911DA11D6A0F711D811D911DA11D47
:1053400020D009F468943F912AE0269F1124301957
:10535000305D3193DEF6CF010895462F4770405DF2
:105360004193B3E00FD0C9F7F6CF462F4F70405DA1
:105370004A3318F0495D31FD4052419302D0A9F7FC
:10538000EACFB4E0A6959795879577956795BA95F6
:10539000C9F700976105710508959B01AC010A2EBC
:1053A00006945795479537952795BA95C9F7620F93
:0E53B000731F841F951FA01D0895F894FFCF52
:1053BE000000E70D80000000803FCDCCCC3E017395
:1053CE0074645F6D7367732F54696D650063643722
:1053DE003136366337346335353263333131666295
:1053EE006363326665356137626332383900726FD6
:1053FE007373657269616C5F6D7367732F546F7031
:10540E006963496E666F003061643531663838669F
:10541E0063343438393266386331303638343037A5
:10542E003736343630303500726F7373657269619A
:10543E006C5F6D7367732F4C6F67003131616264FF
:10544E003733316332353933333236316364363183
:10545E00383362643132643632393500396630653C
:10546E0039386264613635393831393836646466B4
:10547E003533616661376134306534390073746475
:10548E005F6D7367732F48656164657200323137E3
:10549E003664656361656362636537386162633381
:1054AE0062393665663034396661626564006765F7
:1054BE006F6D657472795F6D7367732F5665637464
:1054CE006F723300346138343262363566343133BC
:1054DE003038346463326231306662343834656138
:1054EE00376631370067656F6D657472795F6D73FE
:1054FE0067732F566563746F72335374616D706585
:10550E0064003762333234633733323565363833BD
:10551E006266303261396231346230313039306531
:10552E00633700726F735F61726475696E6F5F6D62
:10553E007367732F456E636F6465727300316237E4
:10554E0038613430323763303762643961386138EC
:10555E003935343334353534393466623200676563
:10556E006F6D657472795F6D7367732F547769739E
:10557E0074003966313935663838313234366664FE
:10558E006661323739386431643365656263613818
:10559E003461006C696E6F5F7069642F6C696E6F39
:1055AE005049440061353539646631383762646676
:1055BE0036336634323664356633303462366232B0
:1055CE003862623400726F735F61726475696E6FF8
:1055DE005F6D7367732F526177496D750033626328
:1055EE003065613337373831646135316164343158
:1055FE006136383638666636326661613900503A41
:10560E0020256620443A20256620443A202566004F
:10561E004D6573736167652066726F6D2064657684
:10562E006963652064726F707065643A206D65738E
:10563E0073616765206C6172676572207468616E54
:10564E00206275666665722E00436F6E6E656374BA
:10565E00656420746F206D6963726F636F6E747210
:10566E006F6C6C65722E2E2E00524F532041726459
:10567E0075696E6F20494D5520737461727465643F
:10568E002E00636D645F76656C00706964007261F4
:10569E00775F696D75007261775F76656C00656E18
:1056AE00636F6465727300416363656C65726F6DE1
:1056BE0065746572204E4F5420464F554E4421005E
:1056CE004779726F73636F7065204E4F5420464F4B
:1056DE00554E4421004D61676E65746F6D6574653E
:1056EE0072204E4F5420464F554E442100696D7521
:1056FE005F6C696E6B00726F7373657269616C5F5C
:10570E006D7367732F526571756573745061726135
:10571E006D000000000063018501CB01CE01000089
:10572E000000E504D101A902AC02000000006D05E5
:10573E00AF02F302F602000000009905BA06F90264
:10574E00FC02000000004106FF028C038F030000E4
:10575E000000B108DA099203950300000000DE088C
:10576E00010A98039B030000000099069E03D103D3
:10577E00D40300000000F8081B0AD703DA03000068
:10578E000000DD030F045C045F040000000012093A
:10579E00470A620465040000000029133610BA049B
:1057AE0000000000350ADB04DF04E2040000000004
:1057BE00BF04D104D504D804000000008B1A5F1A70
:1057CE00341A3C1A4F1A5E1A00000000CC203B22FD
:0857DE0021203A202C20AB2011
:00000001FF
