:10000000AEC100000C94C60E0C94F10E0C941C0FA3
:100010000C94470F0C94720F0C949D0FD1C10000EB
:10002000CFC10000CDC10000CBC10000C9C100009C
:10003000C7C10000C5C10000C3C10000C1C10000AC
:10004000BFC10000BDC10000BBC10000B9C10000BC
:10005000B7C10000B5C10000B3C100000C94D023AB
:10006000AFC100000C94CE270C940428A9C1000055
:10007000A7C10000A5C10000A3C10000A1C10000EC
:100080009FC100009DC100009BC1000099C10000FC
:1000900097C1000095C1000093C100000C94752227
:1000A0008FC100008DC100008BC1000089C100001C
:1000B00087C1000085C1000083C1000081C100002C
:1000C0007FC100007DC100007BC1000079C100003C
:1000D00077C1000075C1000073C1000071C100004C
:1000E0006FC1000059056105690571057905810534
:1000F00089059105FE240325082512251C25952533
:1001000026252E25362540254A25542563256D258F
:100110009525772581258B25B625B925A825AC25DC
:10012000B225F025BD25C125C725CB25CF25D52551
:10013000D925DD25F025E325E725EB2500000A0B71
:1001400002090C0D0E080703040100000000000066
:10015000000000000000000000000000000000009F
:10016000000000000000000012111000000000005C
:10017000000000000000000000000000000000007F
:1001800000000102102020080810204010204080AC
:10019000020102010804020101020408102040804B
:1001A00080402010080402018004020180402010D9
:1001B0000804020108040201010204081020408022
:1001C0000102040810204080050505050705080800
:1001D0000808020202020A0A0808040404040101D1
:1001E00001010101010103030303030303030407E6
:1001F00007070C0C0C0C0C0C0C0C0202020206067D
:100200000606060606060B0B0B0B0B0B0B0B000072
:1002100020002300260029002C002F0032000001BE
:10022000000003010601090100002200250028004A
:100230002B002E00310034000201000005010801EE
:100240000B0100002100240027002A002D003000AF
:10025000330001010000040107010A0100407A1087
:10026000F35A00A0724E18090010A5D4E80000E867
:100270007648170000E40B54020000CA9A3B0000C5
:1002800000E1F505000080969800000040420F0054
:100290000000A08601000000102700000000E80315
:1002A000000000006400000000000A0000000000E0
:1002B0000100000000002C76D888DC674F0823DF9F
:1002C000C1DFAE59E1B1B796E5E3E453C63AE65172
:1002D000997696E8E6C28426EB898C9B62ED407C99
:1002E0006FFCEFBC9C9F40F2BAA56FA5F490055A35
:1002F0002AF75C936B6CF9676DC11BFCE0E40D475A
:10030000FEF520E6B500D0ED902E0300943577057C
:100310000080841E080000204E0A000000C80C3334
:100320003333330F986E12831141EF8D2114893BC3
:10033000E65516CFFEE6DB18D1844B381BF77C1D43
:10034000901DA4BBE424203284725E228100C9F196
:1003500024ECA1E53D272D198E2136280B1B1124F5
:100360001FBECFEFD1E2DEBFCDBF00E00CBF17E074
:10037000A0E0B2E0E8E4F6E600E00BBF02C00790C0
:100380000D92AE3CB107D9F720E1AEECB7E001C069
:100390001D92A132B207E1F713E0CCE5D3E000E013
:1003A00006C022970109FE010BBF0E949A2BC63599
:1003B000D10780E00807A9F70E941E290C94133387
:1003C0001FCEFC01DB0182818C93838111968C937B
:1003D0001197848112968C931297858113968C9332
:1003E0001397868114968C931497878115968C9316
:1003F0001597808516968C931697818517968C9302
:1004000088E090E00895FC01DB014C9150E060E051
:1004100070E0428353836483758311968C911197A6
:10042000582B428353836483758312968C91129761
:10043000682B428353836483758313968C9113973F
:10044000782B428353836483758314964C9114975D
:1004500050E060E070E046835783608771871596AF
:100460008C911597582B4683578360877187169612
:100470008C911697682B46835783608771871796F0
:100480008C91782B468357836087718788E090E052
:10049000089587E192E0089585E292E008956F92D1
:1004A0007F928F929F92AF92BF92CF92DF92EF9204
:1004B000FF920F931F93CF93DF93FC01DB018C918D
:1004C00090E09383828311962C911197922B9383C2
:1004D000828312964D915D916D917C9115975D018E
:1004E00086E0A80EB11C8A019B010A5F1F4F2F4FA7
:1004F0003F4F6501CA1ADB0AE12CF12CC016D10668
:10050000E206F30640F4E501F9905E01CE010297A0
:10051000EC01F882EECFED01C40FD51F1D82CD0195
:10052000059695838483ED01C40FD51FCE80DF80AF
:10053000E884F984465F5F4F3D01640E751E8A01B1
:10054000222717FD2095322F0C0D1D1D2E1D3F1D3E
:1005500043018A1A9B0AA12CB12C80169106A2068F
:10056000B30640F4E30169913E01CE010297EC012C
:100570006883EECFC40ED51E9D012C0D3D1DC90113
:100580000197EC011882415051094A0F5B1F5783B4
:100590004683E901088119812A813B81D4E0CD0E8F
:1005A000D11C3D016C0C7D1CA601662757FD609592
:1005B000762F400F511F621F731F43018A1A9B0A37
:1005C000A12CB12C84169506A606B70640F4E301CB
:1005D000F9903E01CE010297EC01F882EECF0C0DAE
:1005E0001D1D9D01200F311FC9010197EC011882CB
:1005F000D1E0CD1AD108CA0EDB1ED186C086D90142
:1006000011968C91119712964C91129750E060E0E0
:1006100070E0BA0155274427582B8C91482B13962C
:100620008C91782B4287538764877587C80104961D
:10063000DF91CF911F910F91FF90EF90DF90CF90BE
:10064000BF90AF909F908F907F906F90089586E4B9
:1006500092E008958FE592E00895AF92BF92CF9215
:10066000DF92EF92FF921F93CF93DF939C01FB01E8
:100670008081D90112968C9381819281A381B4816A
:100680005B01C5E0AC0EB11CAC01BD014B5F5F4F1F
:100690006F4F7F4F6501CE1ADF0AE12CF12CC41693
:1006A000D506E606F70650F4E501D9905E017E0115
:1006B000D2E0ED1AF108E701D882ECCFEF01C80FC4
:1006C000D91F1C823496E901FC83EB830596DF91E8
:1006D000CF911F91FF90EF90DF90CF90BF90AF90A0
:1006E000089580E892E0089583E992E0089588EC07
:1006F00096E0089584EB92E00895CF92DF92EF9216
:10070000FF920F931F93CF93DF938C01EB018881AE
:1007100090E0A0E0B0E0F80182839383A483B583E6
:100720002981922B82839383A483B5832A81A22B70
:1007300082839383A483B5832B81B22B828393839B
:10074000A483B5838C8190E0A0E0B0E0868397839A
:10075000A087B1872D81922B86839783A087B1874D
:100760002E81A22B86839783A087B1872F81B22BFE
:1007700086839783A087B187488550E060E070E06A
:1007800042875387648775878985582B42875387AB
:10079000648775878A85682B428753876487758746
:1007A0008B85782B42875387648775878C859D85D9
:1007B000AE85BF859E01205F3F4FAC01BD01405F0C
:1007C0005F4F6F4F7F4F6901CC1ADD0AE12CF12C8E
:1007D000C416D506E606F70650F4F901D1909F013C
:1007E0007F01F2E0EF1AF108F701D082ECCF9E0111
:1007F000280F391FF90117862F96F801D787C6876A
:100800004096DF91CF911F910F91FF90EF90DF9075
:10081000CF90089585ED92E0089585EE92E00895D9
:1008200086E093E008958CE193E008958DE393E0F2
:1008300008958AE593E008950F931F93CF93DF9374
:10084000EC018B01029659DFF801E80FF91F2181B5
:10085000428150E060E070E0BA0155274427522BF6
:100860002081422B2381722B4A8B5B8B6C8B7D8B7F
:100870002581468150E060E070E0BA0155274427A9
:10088000522B2481422B2781722B4E8B5F8B688FDA
:10089000798F0896DF91CF911F910F9108958BE783
:1008A00093E0089585E993E0089586EB93E0089539
:1008B0008DEC93E008958EEE93E0089582E094E04D
:1008C0000895FC01DB0132812381948185813C9371
:1008D00011962C93119712969C93129713968C93C2
:1008E0001397368127819085818514963C931497C0
:1008F00015962C93159716969C93169717968C938E
:100900001797328523859485858518963C9318978B
:1009100019962C9319971A969C931A971B968C9359
:100920008CE090E00895FC01DB0111968C91119709
:1009300012964C91129750E060E070E0BA01552792
:100940004427582B8C91482B13968C911397782B16
:10095000428353836483758315968C9115971696FD
:100960004C91169750E060E070E0BA01552744279B
:10097000582B14968C911497482B17968C91179797
:10098000782B468357836087718719968C911997C6
:100990001A964C911A9750E060E070E0BA01552722
:1009A0004427582B18968C911897482B1B968C919E
:1009B000782B42875387648775878CE090E0089591
:1009C00083E294E0089584E394E008950F931F93E5
:1009D000CF93DF93EC018B0102968FDEF801E80FD5
:1009E000F91F2181428150E060E070E0BA01552793
:1009F0004427522B2081422B2381722B4A8B5B8B05
:100A00006C8B7D8B2581468150E060E070E0BA01FF
:100A100055274427522B2481422B2781722B4E8B42
:100A20005F8B688F798F2185428550E060E070E0B0
:100A3000BA0155274427522B2085422B2385722B40
:100A40004A8F5B8F6C8F7D8F2585468550E060E0F7
:100A500070E0BA0155274427522B2485422B278565
:100A6000722B4E8F5F8F68A379A34096DF91CF9151
:100A70001F910F91089585E594E008958AE694E02A
:100A800008958BE894E0089583EA94E00895282F70
:100A900090E0223010F4049603C0263008F4029748
:100AA0008830910508F044C0FC01EE58FF4F0C94CB
:100AB0008A2B809169008C7F816080936900E89A1D
:100AC000089580916900837F846080936900E99A2A
:100AD0000895809169008F7C806180936900EA9A13
:100AE0000895809169008F73806480936900EB9A08
:100AF000089580916A008C7F816080936A00EC9AEF
:100B0000089580916A00837F846080936A00ED9AE3
:100B1000089580916A008F7C806180936A00EE9ACC
:100B2000089580916A008F73806480936A00EF9AC1
:100B300008958E579B4FFC01808108950F931F935A
:100B4000CF93DF93EC018C010A5F1F4FC8013EDF9A
:100B5000E8A5F9A5C801DF91CF911F910F911994D4
:100B6000FC0182A593A5089585E594E008958AE6A1
:100B700094E008950F931F93CF93DF93EC018C01C2
:100B80000A5F1F4FC801CFDEEC89FD89C801DF91E4
:100B9000CF911F910F911994FC018689978908952F
:100BA00083E294E0089584E394E00895FC0186A133
:100BB00097A108958EEE93E0089582E094E0089561
:100BC000AF92BF92CF92DF92EF92FF920F931F935B
:100BD000CF93DF93EC017B018A81DB018C938B81C6
:100BE00011968C93EC81FD81DF010D900020E9F7D7
:100BF000CD0101976C01CE1ADF0AC601A0E0B0E07A
:100C0000FB0182839383A483B5836C817D81A601DC
:100C1000C70106960E94EC2DEE81FF81DF010D9049
:100C20000020E9F7CD0101975C01AE1ABF0AF70178
:100C3000EC0DFD1D850120E030E006831783208741
:100C400031879AE0C90ED11C6E817F81A501C70151
:100C50008C0D9D1D0E94EC2DCA0CDB1CE885F985CE
:100C6000DF010D900020E9F7CD0101975C01AE1A7C
:100C7000BF0AF701EC0DFD1D850120E030E0008387
:100C800011832283338394E0C90ED11C6885798552
:100C9000A501C7018C0D9D1D0E94EC2DAC0CBD1C47
:100CA0003A852B859C858D85F701EA0DFB1D3083E8
:100CB000218392838383C5010496DF91CF911F9195
:100CC0000F91FF90EF90DF90CF90BF90AF9008957D
:100CD0000F931F93CF93DF93DC01FB0112968C914E
:100CE0001297808313968D919C911497EC01099033
:100CF0000020E9F72197C81BD90B8E0120E030E0D6
:100D0000018312832383348313966D917C9114970E
:100D1000AE01CF0105960E94EC2DCE010596DF9124
:100D2000CF911F910F910895BF92CF92DF92EF92D2
:100D3000FF920F931F93CF93DF93EC017B018A8186
:100D4000DB018C9311961C92119712961C921297AC
:100D500013961C92FB01379640E024E030E05A8164
:100D6000C90104964517E0F4AF81B88524E0429F9D
:100D7000A00DB11D11246C9111965C9111971296E2
:100D80003C91129713962C91DF0113976C93119657
:100D90005C9311963C9320839C014F5F3496DFCF88
:100DA0004985F701E20FF31F4083118212821382FB
:100DB00020E03985F701E80FF91F04962317B0F4F6
:100DC000AE85BF8534E0239FA00DB11D11246C9129
:100DD00011965C91119712964C91129713963C9133
:100DE00060835183428333832F5FE3CF288920833D
:100DF000118212821382B12C2889B21698F54B2DDC
:100E000050E0440F551FEB89FC89E40FF51F01905A
:100E1000F081E02DDF010D900020E9F79D012150C8
:100E200031096901CE1ADF0AF701E80FF91F8601BF
:100E300020E030E000831183228333838C010C5F38
:100E40001F4FEB89FC89E40FF51F60817181A601BA
:100E5000C701800F911F0E94EC2DC601800F911FCA
:100E6000B394CACFDF91CF911F910F91FF90EF9074
:100E7000DF90CF90BF9008950F931F93CF93DF9390
:100E8000DC01FB0112968C911297808313968C9152
:100E90001397818314968C911497828315968C9165
:100EA0001597838316968C911697848317968C9149
:100EB0001797858318968C911897868319968C912D
:100EC000199787831A968C911A9780871B968C9115
:100ED0001B9781871C968C911C9782871D968C91FD
:100EE0001D9783871E968D919C911F97EC01099009
:100EF0000020E9F72197C81BD90B8E0120E030E0D4
:100F000004871587268737871E966D917C911F97DA
:100F1000AE01CF0140960E94EC2DCE014096DF91AC
:100F2000CF911F910F9108950F931F93CF93DF934C
:100F3000EC018B010296A0DF5A894B893C892D89EF
:100F4000F801E80FF91F50834183328323835E89C0
:100F50004F89388D298D548345833683278308969E
:100F6000DF91CF911F910F9108950F931F93CF930E
:100F7000DF93EC018B0102967FDF5A894B893C8914
:100F80002D89F801E80FF91F5083418332832383B1
:100F90005E894F89388D298D548345833683278315
:100FA0005A8D4B8D3C8D2D8D5087418732872387FD
:100FB0005E8D4F8D38A129A15487458736872787B5
:100FC0004096DF91CF911F910F9108954F925F92BC
:100FD0007F928F929F92AF92BF92CF92DF92EF92C9
:100FE000FF920F931F93CF93DF93EC018B01DB01F3
:100FF000FC908A818F1550F4B4E0FB9EB00111245F
:101000008F8198850E94082D98878F83FA82F80136
:101010003796F12C44E050E09E012D5F3F4F8A81CE
:10102000BA016C5F7F4F6B01F81660F5408150E0AC
:1010300060E070E0742F662755274427DF0113977F
:101040008C91482B11968C91582B11968C91682B72
:101050004B835C836D837E83A6016F81788584E0FA
:10106000F89E600D711D1124D9018D909D90AD9059
:10107000BC90DB018D929D92AD92BC921397F3943C
:101080003496CDCFF801E40FF51FF08089858F15D8
:1010900050F484E0F89EB00111248E859F850E9453
:1010A000082D9F878E879601F98680E0FE013A968B
:1010B0009985D801A20FB31FA9014C5F5F4F6A0148
:1010C000891748F511969C91119712964C91129799
:1010D00050E060E070E0BA0155274427592B9C91FD
:1010E000492B13969C91792B4A875B876C877D8768
:1010F0009601AE85BF8594E0899FA00DB11D112496
:1011000040815181628173814D935D936D937C9396
:1011100013978F5FCDCFFC9088898F1550F46F2D7A
:1011200070E0660F771F8B899C890E94082D9C8B2D
:101130008B8BC601F88A712C2E0151E1450E511C92
:101140002889721608F044C0F801E80FF91FC08022
:10115000D180E280F3800496F801E80FF91FAC011A
:10116000662757FD6095762F4C0D5D1D6E1D7F1D0A
:101170009F01201B310B4901A12CB12C841695062F
:10118000A606B70638F4B1909F0122503109D90163
:10119000BC92EECFC80ED91EF801EC0DFD1D3197A3
:1011A00010829C0121503109200F311F3A8B298B6D
:1011B000C6013B892C89E32FF22FE70DF11DE70DC6
:1011C000F11DD2012D913C91318320837394B8CFCE
:1011D000DF91CF911F910F91FF90EF90DF90CF9013
:1011E000BF90AF909F908F907F905F904F900895A9
:1011F0008F929F92AF92BF92CF92DF92EF92FF9227
:10120000CF93DF93EC010E941A246093160E709323
:10121000170E8093180E9093190E20E030E040E7EF
:1012200052E46C817D818E819F810E94E32A2CEDA6
:1012300039ED47E35FE30E9494296B017C0120E0D4
:1012400030E040E752E46A8D7B8D8C8D9D8D0E944D
:10125000E32A23ED3DE442E95EE30E94E32A2CED1C
:1012600039ED47E35FE30E9494294B015C019B0148
:10127000AC01C701B6010E942B2960935C0E7093EC
:101280005D0E80935E0E90935F0EA5019401C701E1
:10129000B6010E942C296093420E7093430E8093F6
:1012A000440E9093450EDF91CF91FF90EF90DF9029
:1012B000CF90BF90AF909F908F9008958F929F9204
:1012C000AF92BF92CF92DF92EF92FF920F931F9354
:1012D000CF93DF93EC01CB01BA018B019C01B7E105
:1012E0003595279517950795BA95D1F71127222798
:1012F0003327011511052105310521F000581C4F38
:101300002F4F3F4F188219821A826B017C01B5E082
:10131000CC0CDD1CEE1CFF1CBA95D1F7CB826B0107
:101320007C0143E0F594E794D794C7944A95D1F7AC
:10133000CC826B017C015BE0F594E794D794C79471
:101340005A95D1F7CD8268017901E4E0CC0CDD1C1F
:10135000EE1CFF1CEA95D1F74B015C01F3E1B5945B
:10136000A79497948794FA95D1F7482D4F704C29FC
:101370004E8368017901A4E0F594E794D794C7946B
:10138000AA95D1F720E030E0A9010E94902987FDBD
:1013900002C0CF8203C08C2D80688F8388E090E0EC
:1013A000DF91CF911F910F91FF90EF90DF90CF9041
:1013B000BF90AF909F908F900895EF92FF920F9300
:1013C0001F93CF93DF938C01EB01FC01428153818A
:1013D00064817581CE0172DF7C01F80146815781FD
:1013E00060857185CE018E0D9F1D68DFE80EF91EA8
:1013F000F8014285538564857585CE018E0D9F1D4C
:101400005DDF8E0D9F1DDF91CF911F910F91FF909A
:10141000EF900895EF92FF920F931F93CF93DF9376
:101420008C017B01029628DDEC01B701680F791F62
:10143000C8014296C2DF8C0F9D1FDF91CF911F9193
:101440000F91FF90EF900895EF92FF920F931F93EB
:10145000CF93DF938C017B010296AFDFEC01B701E4
:10146000680F791FC8014096A8DF8C0F9D1FDF9180
:10147000CF911F910F91FF90EF900895EF92FF92FF
:101480000F931F93CF93DF93EC018B010296F4DC53
:10149000F801E80FF91F2A8920832B8921832C89E1
:1014A00022837C0123E0E20EF11CB8016E0D7F1D4A
:1014B000CE01459682DFE80EF91EB8016E0D7F1D44
:1014C000CE0183967ADFE80EF91EB8016E0D7F1DFE
:1014D000CE01C19672DF8E0D9F1DDF91CF911F91BE
:1014E0000F91FF90EF9008957F928F929F92AF920D
:1014F000BF92CF92DF92EF92FF920F931F93CF9301
:10150000DF93EC018B010296B7DC2A89F801E80F22
:10151000F91F2083118212829C012C5F3F4F13829E
:10152000712C8A89F801E20FF31FA9014C5F5F4F0C
:101530004A01781660F5872D90E0880F991FAD89D4
:10154000BE89A80FB91F4D915C91DA010D90002062
:10155000E9F79D01215031095901A41AB50A650125
:10156000E12CF12CC082D182E282F382ED89FE89E6
:10157000E80FF91F60817181A501C801880D991DCF
:101580000E94EC2D9501280D391D7394CACF8F89C7
:101590008083118212825A011382F12C8F89F80103
:1015A000EA0DFB1DF81688F4AC8DBD8D54E0F59E58
:1015B000A00DB11D11244D915D916D917C91CF01D4
:1015C0007DDEA80EB91EF394E9CF8E8D8083118243
:1015D000128284E0A80EB11C1382F12C8E8DF801CA
:1015E000EA0DFB1DF81688F4ABA1BCA124E0F29E25
:1015F000A00DB11D11244D915D916D917C91CF0194
:101600005DDEA80EB91EF394E9CF8DA1808311820F
:10161000128234E0A30EB11C1382F12C8DA1F816B6
:1016200098F4EAA5FBA544E0F49EE00DF11D112419
:101630004081518162817381C8018A0D9B1D3EDE0C
:10164000A80EB91EF394EACFC501DF91CF911F9187
:101650000F91FF90EF90DF90CF90BF90AF909F9051
:101660008F907F9008950F931F93FC01DB010381FE
:1016700002950695077010E020E030E00D931D9371
:101680002D933C931397448150E060E070E093E029
:10169000440F551F661F771F9A95D1F7402B512B8A
:1016A000622B732B4D935D936D937C931397058100
:1016B00010E020E030E08BE0000F111F221F331FED
:1016C0008A95D1F7042B152B262B372B0D931D93C1
:1016D0002D933C93139746814F7050E060E070E08B
:1016E00093E1440F551F661F771F9A95D1F7402B42
:1016F000512B622B732B4D935D936D937C931397BA
:10170000868182958F7007810F7710E020E030E0AE
:1017100094E0000F111F221F331F9A95D1F7082B59
:101720000115110521053105A1F0005813402109CB
:10173000310987E1000F111F221F331F8A95D1F74E
:10174000042B152B262B372B0D931D932D933C9398
:1017500013970781007810E020E030E0302F222737
:10176000112700274D915D916D917C911397402B2E
:10177000512B622B732B4D935D936D937C93139739
:1017800088E090E01F910F910895EF92FF920F93E0
:101790001F93CF93DF938C01EB01BC016E5F7F4FF2
:1017A000CE0161DF7C01B8016A5F7F4FCE018E0DF3
:1017B0009F1D59DFE80EF91EB801665F7F4FCE010D
:1017C0008E0D9F1D50DF8E0D9F1DDF91CF911F91BC
:1017D0000F91FF90EF900895EF92FF920F931F9358
:1017E000CF93DF938C017B0102960E947D03EC0175
:1017F000B701680F791FC8014296C7DF8C0F9D1F84
:10180000DF91CF911F910F91FF90EF900895EF928C
:10181000FF920F931F93CF93DF938C017B0102966E
:10182000B4DFEC01B701680F791FC8014096ADDF46
:101830008C0F9D1FDF91CF911F910F91FF90EF9023
:1018400008950F931F93CF93DF93EC018C010A5FF0
:101850001F4FC801DCDFECA1FDA1C801DF91CF91D2
:101860001F910F911994EF92FF920F931F93CF93B3
:10187000DF93EC018B0102960E947D03F801E80FD3
:10188000F91F20812A8B21812B8B22812C8B7C01BB
:1018900023E0E20EF11CB8016E0D7F1DCE014596CE
:1018A00074DFE80EF91EB8016E0D7F1DCE01839620
:1018B0006CDFE80EF91EB8016E0D7F1DCE01C196DA
:1018C00064DF8E0D9F1DDF91CF911F910F91FF90CF
:1018D000EF9008954F925F926F927F928F929F92B6
:1018E000AF92BF92CF92DF92EF92FF920F931F932E
:1018F000CF93DF93EC018B0102960E947D034C0194
:10190000F801E80FF91FF0808A898F1550F46F2DC8
:1019100070E0660F771F8D899E890E94082D9E8B2F
:101920008D8BA4014C5F5F4FFA8A90E06E0123E13A
:10193000C20ED11C8A89F801E40FF51F9A012C5FB1
:101940003F4F7901981708F040C080809180A280B5
:10195000B380F801EE0DFF1DA701662757FD6095C6
:10196000762F480D591D6A1D7B1D9F01201B310BD1
:101970002901612C712C441655066606770638F449
:1019800081919F0122503109D9018C93EECF8E0CA9
:101990009F1CF801E80DF91D319710829701215025
:1019A0003109200F311F3C8B2B8BA4012D898E898F
:1019B000E22FF82FE90FF11DE90FF11DD6012D914E
:1019C0003C91318320839F5FB5CFB0808F898B1589
:1019D00050F434E0B39EB00111248C8D9D8D0E9493
:1019E000082D9D8F8C8FBF8A912C5E0188E1A80EF7
:1019F000B11C2F89C8018E0D9F1D9216B0F4B50140
:101A000032DEE80EF91EEC8DFD8DA4E09A9EE00D0D
:101A1000F11D1124D5014D915D916D917C91408313
:101A20005183628373839394E4CFFC01B0808E8DE5
:101A30008B1550F4F4E0BF9EB00111248BA19CA142
:101A40000E94082D9CA38BA324E0E20EF11CBE8E05
:101A5000912C5E013FE1A30EB11C2E8DC8018E0DAD
:101A60009F1D9216B0F4B501FEDDE80EF91EEBA144
:101A7000FCA184E0989EE00DF11D1124D5014D914B
:101A80005D916D917C9140835183628373839394C4
:101A9000E4CFFC01B0808DA18B1550F4F4E0BF9E23
:101AA000B00111248AA59BA50E94082D9BA78AA797
:101AB00024E0E20EF11CBDA2912C5E0136E2A30EE1
:101AC000B11C8DA19816C8F4B501C8018E0D9F1DDB
:101AD000CADDE80EF91EEAA5FBA584E0989EE00D9C
:101AE000F11D1124D5014D915D916D917C91408343
:101AF0005183628373839394E4CFC701DF91CF91C5
:101B00001F910F91FF90EF90DF90CF90BF90AF901B
:101B10009F908F907F906F905F904F900895CF939C
:101B2000DF93AB01EC01AE81BF81ED91FC91119788
:101B30006C817D810190F081E02DCD01DF91CF910D
:101B40001994FC0184E297E09183808312821382CE
:101B500014821582168217821086118612861386C9
:101B6000148615860895CF93DF93EC0188E797E0FC
:101B70009983888388E197E09B838A831C821D82F6
:101B80001E821F82188619861A861B861C861D8651
:101B90001E861F8683E896E0998B888B1A8A1B8A9B
:101BA0001C8ACE014596CDDFCE018396CADFCE01D9
:101BB000C196DF91CF91C5CFDC01ED91FD91808180
:101BC000ED91FD919081ED91FD916C9163708E236B
:101BD00009F064609F2309F06860E9EFFDE0E60F1B
:101BE000F11D659565956D936D917D918D919D919B
:101BF000099423C01AC012C016C010C01EC009C06C
:101C000014C013C006C019C009C00DC007C00DC064
:101C100014C062507040804090400BC061507040D2
:101C20008040904006C06E5F01C06F5F7F4F8F4F56
:101C30009F4F9E938E937E936E930895CF93DF93E1
:101C4000EC018B85823020F4F894CE01B5DF01C021
:101C5000F8946F81788589859A857894DF91CF9102
:101C60000895823159F150F4823099F0833061F552
:101C70007093AE0E6093AD0E81E01CC0843179F09C
:101C8000A0F0853109F57093B00E6093AF0E82E03D
:101C900011C07093AC0E6093AB0E80E00BC07093DC
:101CA000B20E6093B10E83E005C07093B40E6093E2
:101CB000B30E84E00E94470581E008957093B60E4C
:101CC0006093B50E85E0F6CF80E008950F931F93E3
:101CD000CF93DF93EC01062F142F62E0802F0E9438
:101CE000F12562E0812F0E94F125202F30E0F901DB
:101CF000E853FE4FE491F0E0EE0FFF1FE25FFD4F6F
:101D00004591549159834883F901EE57FE4F249130
:101D10002C83212F30E0F901E853FE4FE491F0E0ED
:101D2000EE0FFF1FE25FFD4FA591B491BB83AA8325
:101D3000F901EE57FE4F24912D831F8218861986D4
:101D40001A8680ED97E00E946E24E881F9819081E7
:101D50008C81982381E009F480E0EA81FB81908105
:101D60002D81922309F082608E83BE01802F79DF5E
:101D70008B87BE01812F75DF2B8590E0820F911D2F
:101D80008B87DF91CF911F910F9108951F920F9232
:101D90000FB60F9211240BB60F922F933F934F93D0
:101DA0005F936F937F938F939F93AF93BF93EF93C3
:101DB000FF938091AF0E9091B00EFEDEFF91EF91F8
:101DC000BF91AF919F918F917F916F915F914F9153
:101DD0003F912F910F900BBE0F900FBE0F901F9051
:101DE00018951F920F920FB60F9211240BB60F92F7
:101DF0002F933F934F935F936F937F938F939F9313
:101E0000AF93BF93EF93FF938091B10E9091B20E79
:101E1000D3DEFF91EF91BF91AF919F918F917F9111
:101E20006F915F914F913F912F910F900BBE0F904B
:101E30000FBE0F901F9018951F920F920FB60F9222
:101E400011240BB60F922F933F934F935F936F9391
:101E50007F938F939F93AF93BF93EF93FF93809163
:101E6000B30E9091B40EA8DEFF91EF91BF91AF91A8
:101E70009F918F917F916F915F914F913F912F91A2
:101E80000F900BBE0F900FBE0F901F9018951F92D2
:101E90000F920FB60F9211240BB60F922F933F9310
:101EA0004F935F936F937F938F939F93AF93BF9362
:101EB000EF93FF938091B50E9091B60E7DDEFF916A
:101EC000EF91BF91AF919F918F917F916F915F91B2
:101ED0004F913F912F910F900BBE0F900FBE0F901F
:101EE0001F9018951F920F920FB60F9211240BB6E8
:101EF0000F922F933F934F935F936F937F938F93A3
:101F00009F93AF93BF93EF93FF938091AB0E90910C
:101F1000AC0E52DEFF91EF91BF91AF919F918F91E7
:101F20007F916F915F914F913F912F910F900BBED9
:101F30000F900FBE0F901F9018951F920F920FB623
:101F40000F9211240BB60F922F933F934F935F93F1
:101F50006F937F938F939F93AF93BF93EF93FF9371
:101F60008091AD0E9091AE0E27DEFF91EF91BF9163
:101F7000AF919F918F917F916F915F914F913F9121
:101F80002F910F900BBE0F900FBE0F901F901895C2
:101F90000F931F93CF93DF938C01EB0197FD02C04A
:101FA00061E001C060E087E00E942A26B80117FFC7
:101FB00003C071956195710988E00E94DB24D7FD0B
:101FC00002C061E001C060E089E00E942A26BE01F3
:101FD000D7FF03C07195619571098AE0DF91CF91B8
:101FE0001F910F910C94DB244F925F926F927F921E
:101FF0008F929F92AF92BF92CF92DF92EF92FF9219
:102000000F931F93CF93DF93EC016A017B012801AB
:102010003901488559856A857B8597018601041BAE
:10202000150B260B370BC901B8010E942F2A20E699
:1020300035EE4DE053E40E9494294B015C0160E6CB
:102040007AEE80E090E0A30192010E94682BCA0121
:10205000B9010E942D2A9B01AC01C501B4010E9467
:10206000E32A6C877D878E879F872BED3FE049ECC5
:1020700050E40E94E32A20E030E040E752E40E946E
:1020800094296E8B7F8B888F998FC886D986EA8634
:10209000FB86DF91CF911F910F91FF90EF90DF9022
:1020A000CF90BF90AF909F908F907F906F905F90F8
:1020B0004F9008954F925F926F927F928F929F926E
:1020C000AF92BF92CF92DF92EF92FF92CF93DF93C6
:1020D000EC012C853D854E855F85688979898A89E3
:1020E0009B890E942B296B017C012C813D814E81B3
:1020F0005F810E942C294B015C016C837D838E8360
:102100009F8320911202309113024091140250914A
:102110001502C701B6010E94E32A2B013C01209160
:10212000FA0D3091FB0D4091FC0D5091FD0DC50154
:10213000B4010E94E32A9B01AC01C301B2010E94D9
:102140002C294B015C01288139814A815B81C701BF
:10215000B6010E942B2920910E0230910F0240916E
:102160001002509111020E94E32A9B01AC01C501AB
:10217000B4010E942C294B015C01C882D982EA82F9
:10218000FB826C897D89882777FD8095982F0E9436
:102190002F2A20E030E045EA53E40E94E32A20E0C1
:1021A00030E04FE753E40E949429A50194010E9476
:1021B0002C296B017C0120E030E045EA53EC0E94C1
:1021C000902987FD11C020E030E045EA53E4C701C3
:1021D000B6010E94DF2A18166CF4C12CD12C75EAC6
:1021E000E72E73E4F72E06C0C12CD12C65EAE62E4B
:1021F00063ECF62E20E030E045EA53E4C701B60177
:102200000E94942920E030E04FE753E40E94E32A43
:102210000E94FC297D8B6C8BDF91CF91FF90EF901A
:10222000DF90CF90BF90AF909F908F907F906F90F6
:102230005F904F900895FC0184E897E0918380833C
:1022400080E89FE09383828340E051EE60E070E09D
:102250004483558366837783DF01AE57BB4F1C925F
:102260001E968CE097E011969C938E9312961C928A
:10227000129718961C921E92179719961C921997EE
:102280001F961C921E921E9750961C925097549621
:102290001C921E92539780E090E0DF01A80FB91FB7
:1022A000AC5EBB4F1D921C92029682339105A9F73A
:1022B00080E090E0DF01A80FB91FAA5BBB4F1D9221
:1022C0001C92029682339105A9F780E090E0DF012D
:1022D000A80FB91F54961C920196811522E092070F
:1022E000B1F780E090E0DF01A80FB91FAC5EBD4FF1
:1022F0001C920196811522E09207A9F70895AC017E
:1023000020E030E0FA01EC5EFB4F0190F081E02D1F
:10231000EF2B91F4F901E65FFD4FEE0FFF1FE80F81
:10232000F91F7183608323583F4FFB01358324835A
:102330009783868381E008952F5F3F4F4E5F5F4F05
:1023400029313105F9F680E00895CF92DF92EF92BE
:10235000FF920F931F93CF93DF93CDB7DEB76097B4
:102360000FB6F894DEBF0FBECDBF8C010E941A24B9
:1023700028EE33E040E050E00E94682B69017A01CA
:102380009B01AC01F80184859585A685B7858C0DE8
:102390009D1DAE1DBF1D89879A87AB87BC8760E4F2
:1023A00072E48FE090E00E94462B00891189228917
:1023B0003389600F711F821F931F6D877E878F8700
:1023C000988BBE01635F7F4FCE0109960E94A323C5
:1023D00088E0FE013996DE01119601900D928A95F2
:1023E000E1F729813A814B815C816D817E818F810A
:1023F000988560960FB6F894DEBF0FBECDBFDF9113
:10240000CF911F910F91FF90EF90DF90CF900895A3
:102410000F931F93CF93DF93CDB7DEB72A970FB6F5
:10242000F894DEBF0FBECDBF8C0188EE96E09A8394
:1024300089831B821C821D821E821F821886198638
:102440001A86D801ED91FC910190F081E02DAE014A
:102450004F5F5F4F6AE070E0C80119950E941A242F
:10246000F80160877187828793872A960FB6F89460
:10247000DEBF0FBECDBFDF91CF911F910F910895A9
:102480004F925F926F927F928F929F92AF92BF9284
:10249000CF92DF92EF92FF920F931F93CF93DF9330
:1024A000CDB7DEB72E970FB6F894DEBF0FBECDBF07
:1024B0008C0184EF96E09A8389831C821B8283E8D7
:1024C00096E09E838D8398878F839A8789871B8662
:1024D0001C861D861E86580182E3A80EB11C780159
:1024E000412C82E0582E612C712C6701ACEECA1A87
:1024F000ABEFDA0AD601ED91FC913097B9F1848106
:1025000095819C838B83808191819E838D83828141
:102510009381DC01ED91FC910480F581E02D19950A
:1025200098878F83D601ED91FC9182819381DC01A4
:10253000ED91FC910680F781E02D19959A878987A6
:102540004B865C866D867E86F80180819181F601DE
:10255000A081B18118966D917C911997DC01ED9164
:10256000FC91AE014F5F5F4FC8011995B2E0EB0ED1
:10257000F11CEA14FB0409F0B8CF7801412CB2E059
:102580005B2E612C712C6701EAEBCE1AEBEFDE0AB1
:10259000F601A081B1811097E1F112968D919C9185
:1025A00013979C838B8314968D919C9115979E8392
:1025B0008D83ED91FC9111970480F581E02DCD0183
:1025C000199598878F83D6018D919C91DC01ED91AF
:1025D000FC910680F781E02D19959A8789874B86B3
:1025E0005C866D867E86D801ED91FC91808091801D
:1025F000F60180819181DC01ED91FC910280F381F3
:10260000E02D1995AE014F5F5F4FBC01C801F40189
:102610001995F2E0EF0EF11CEA14FB0409F0B3CFB8
:10262000F801EE57FB4F81E080832E960FB6F894A9
:10263000DEBF0FBECDBFDF91CF911F910F91FF90F5
:10264000EF90DF90CF90BF90AF909F908F907F9052
:102650006F905F904F9008958F929F92AF92BF922C
:10266000CF92DF92EF92FF920F931F93CF93DF935E
:10267000CDB7DEB72A970FB6F894DEBF0FBECDBF39
:102680008C015B0188EE96E09A8389831B821C8211
:102690001D821E821F82188619861A860E941A249D
:1026A0006B017C01F80180859185A285B385C81AEC
:1026B000D90AEA0AFB0AB501CE0101960E9403027B
:1026C00098EE892E93E0992EA12CB12CC701B6016A
:1026D000A50194010E94682B69017A019B01AC015C
:1026E0008B819C81AD81BE818C0D9D1DAE1DBF1D5A
:1026F0008B839C83AD83BE8360E472E48FE090E0C3
:102700000E94462BCF80D884E984FA84C60ED71E57
:10271000E81EF91ECF82D886E986FA860E941A241E
:10272000CB80DC80ED80FE80F1E0CF1AD108E1089B
:10273000F108A50194010E94682B49015A019B01EF
:10274000AC01C818D908EA08FB08F801C486D58688
:10275000E686F786CF80D884E984FA84F6E3DF1A28
:10276000F5E6EF0AF4ECFF0A60E472E48FE090E033
:102770000E94462BC61AD70AE80AF90AF801C08A4D
:10278000D18AE28AF38AB801605F7F4FC8010C9654
:102790000E94A3230E941A24F801E957FB4F60838B
:1027A0007183828393832A960FB6F894DEBF0FBE9F
:1027B000CDBFDF91CF911F910F91FF90EF90DF90F0
:1027C000CF90BF90AF909F908F9008952F923F929F
:1027D0004F925F926F927F928F929F92AF92BF9231
:1027E000CF92DF92EF92FF920F931F93CF93DF93DD
:1027F000CDB7DEB760970FB6F894DEBF0FBECDBF82
:102800004C010E941A246B017C01940129573B4F13
:102810003E832D83F90180819181A281B381A7013B
:102820009601281B390B4A0B5B0BDA01C901893F62
:102830009A42A105B10510F035971082A4014858BD
:102840005B4F588B4F87DA018D919C91892B79F0E2
:10285000F401E557FB4F80819181A281B3818C15F2
:102860009D05AE05BF0518F4FA01118210823401EE
:10287000F0E86F1AFBEF7F0A940124583B4F3A832C
:102880002983A4014E575B4F58874F832C5E3F4FDF
:102890003C872B87435F5F4F5E874D8784010658D7
:1028A0001B4F1601270154E1250E311C411C511C00
:1028B000540184E1A80EB11C940122583B4F3C8383
:1028C0002B83A40145575B4F5A874987D401129641
:1028D0008D919C911397DC01ED91FC910680F7811D
:1028E000E02D19959C0197FD29C1F301808191810B
:1028F000820F931F91838083AF85B8894D915C913E
:1029000047305105E1F4EB81FC8180819181AC017C
:102910004F5F5F4F51834083F401E80FF91F248B11
:10292000D8018D919C91119701978D939C93892B40
:1029300009F0BECF28E030E0EF85F88986C0411568
:10294000510519F52F3F310569F481E090E0AF851D
:10295000B8898D939C93E985FA85208231824282E1
:102960005382B4CF0E941A246C197D098E099F09E5
:10297000663071058105910508F49ACFF401EE5790
:10298000FB4F10828EEF9FEFFEC04130510591F456
:102990002E3F310519F482E090E02EC0EF85F889D2
:1029A00011821082AF81B8858C91811181CFC401D1
:1029B0002FDD8CCF4230510589F4F801318320831B
:1029C000AB81BC811D921C9283E090E0EF85F88979
:1029D00091838083D3012D933C9378CF433051056D
:1029E00081F4322F2227F80180819181820F931F79
:1029F0009183808384E090E0AF85B8898D939C9328
:102A000065CF4430510599F460E071E00E94552B88
:102A10008F3F910539F485E090E0EF85F889918347
:102A2000808354CFAF85B8891D921C924FCF45301B
:102A3000510571F4E981FA813183208386E090E0C9
:102A4000AF85B8898D939C93F301318320833ECF6A
:102A500046305105D1F4322F2227A981BA818D91B8
:102A60009C911197820F931F8D939C9327E030E0E8
:102A7000EF85F88931832083D8018D919C91892B32
:102A800009F016CF28E030E0E0CF4830510509F0DA
:102A90000FCFAF85B8891D921C9260E071E00E9453
:102AA000552B8F3F910509F003CFA981BA81ED9194
:102AB000FC913097A1F4C401ABDCC401E1DCF4016A
:102AC000ED57FB4FC082D182E282F382ED81FE811D
:102AD000C082D182E282F3828FEF9FEF54C0EA304E
:102AE000F10521F4B501C401B7DDF0CEE630F10502
:102AF00051F4B5018B859C850E94E60781E0AD8588
:102B0000BE858C93E3CEEB30F10521F4EF81F8859F
:102B10001082DCCEE154FE4FEE0FFF1FE80DF91DD1
:102B200080819181009709F4C3CEDC01ED91FC9185
:102B30000190F081E02DB5011995C8CEF401EE5752
:102B4000FB4F80818823E9F084010D571B4FF8016A
:102B500080819181A281B381A7019601281B390B45
:102B60004A0B5B0BDA01C901853C9940A105B1050F
:102B700040F0C4014DDCD801CD92DD92ED92FC9283
:102B8000139780E090E060960FB6F894DEBF0FBE1A
:102B9000CDBFDF91CF911F910F91FF90EF90DF900C
:102BA000CF90BF90AF909F908F907F906F905F90ED
:102BB0004F903F902F9008958F929F92AF92BF9227
:102BC000CF92DF92EF92FF92CF93DF936B017C0164
:102BD00020913E0E30913F0E4091400E5091410E9B
:102BE0006091580E7091590E80915A0E90915B0E23
:102BF0000E942C2920E030E040E05FE30E94E32ABD
:102C000020E030E040E752E40E9494292CED39EDB9
:102C100047E35FE30E94E32A4B015C01C6E5D8E08D
:102C200083E299E092DB288339834A835B836C8358
:102C30007D838E839F838092620890926308A09226
:102C40006408B092650810926608109267081092A6
:102C5000680810926908C701B6010E942D2A20E079
:102C600030E04AE754E40E94942960936A08709324
:102C70006B0880936C0890936D086EE478E084E4B0
:102C800098E00E948F0D83E299E0DF91CF91FF9051
:102C9000EF90DF90CF90BF90AF909F908F9096CDA8
:102CA000CF93DF9300D01F921F92CDB7DEB720E005
:102CB00037E03A8329836B835D834C83DC01ED919C
:102CC000FC910190F081E02DAE014F5F5F4F67E016
:102CD00070E019950F900F900F900F900F90DF916B
:102CE000CF910895AB0161E0DBCFCF92DF92EF92FD
:102CF000FF920F931F93CF93DF93FC0122813381C7
:102D0000C481D581422F532F6C2F7D2F4093120207
:102D10005093130260931402709315021681078179
:102D2000F084E184D801C7014B2F5A2F692F782FE7
:102D300040930E0250930F026093100270931102A1
:102D400042855385648575856A01C601A62FB72F14
:102D50008093FA0D9093FB0DA093FC0DB093FD0DA5
:102D60007F936F935F934F93EF92FF920F931F9315
:102D7000DF93CF933F932F9384EC94E09F938F93B3
:102D800088EC9DE09F938F930E94FC2D8DB79EB79A
:102D900040960FB6F8949EBF0FBE8DBF68EC7DE0E5
:102DA00083E299E0DF91CF911F910F91FF90EF9017
:102DB000DF90CF9097CFEF92FF920F931F93CF9317
:102DC000DF93FC0102891389C28DD38D1F930F936A
:102DD00086ED94E09F938F9368ECE62E6DE0F62EDF
:102DE000FF92EF920E94FC2DB70183E299E07ADF17
:102DF000DF93CF938EEE94E09F938F93FF92EF92A9
:102E00000E94FC2DB70183E299E06CDF0E941A2436
:102E10006093120E7093130E8093140E9093150E00
:102E2000EDB7FEB73C960FB6F894FEBF0FBEEDBFF0
:102E300017FD02C061E001C060E087E00E942A2621
:102E4000B80117FF03C071956195710988E00E9470
:102E5000DB24D7FD02C061E001C060E089E00E9490
:102E60002A26BE01D7FF03C07195619571098AE0DA
:102E7000DF91CF911F910F91FF90EF900C94DB2485
:102E8000CF92DF92EF92FF920F931F93CF93DF9336
:102E9000CDB7DEB764970FB6F894DEBF0FBECDBFD7
:102EA00061E088E00E94F12561E087E00E94F12561
:102EB00061E08AE00E94F12561E089E00E94F1254D
:102EC00060E070E080E090E063D840912709509185
:102ED00028096091290970912A0926E08091250925
:102EE000909126090E946E2710929C0D10929B0DC6
:102EF00010929E0D10929D0D1092A20D1092A10D98
:102F00001092A00D10929F0D80E091EEA0E0B0E035
:102F10008093270990932809A0932909B0932A093F
:102F2000E9E6FDE080E090E021913191232B81F4EE
:102F3000FC01EE0FFF1FE759F24F23EE38E031831B
:102F400020838C599F4F9093E6088093E50804C036
:102F500001968931910541F7E9E6FDE080E090E0D6
:102F600021913191232B81F4FC01EE0FFF1FE759D2
:102F7000F24F2BEF38E0318320838C599F4F909391
:102F8000FE088093FD0804C001968931910541F740
:102F9000E9E6FDE080E090E021913191232B81F47E
:102FA000FC01EE0FFF1FE759F24F27EB38E03183AA
:102FB00020838C599F4F9093BA088093B90804C01E
:102FC00001968931910541F764E478E083E299E064
:102FD00096D96EE678E083E299E091D987E095E0B2
:102FE00090933B0880933A0860E278E083E299E0AE
:102FF00086D98AE195E090930508809304088AE0D9
:1030000092E090930A088093090883E299E09DD9A1
:103010002093FC073093FD074093FE075093FF0772
:10302000609300087093010880930208909303084E
:1030300082E08093060880930B08809312088093A7
:10304000190882EE97E090931808809317088AED8C
:1030500097E0909311088093100882ED97E0909389
:103060001F0880931E086AEE77E083E299E047D953
:103070008091A50D811104C083E299E0A7DBF8CF10
:1030800067E275E083E299E02DDE67E475E083E2B4
:1030900099E028DE6091A50E7091A60E83E299E07A
:1030A00021DE6091060270910702809108029091E2
:1030B00009029E012F5F3F4F7901890124E04AE018
:1030C0000E94C12BFF92EF9280E695E09F938F9331
:1030D00078ECC72E7DE0D72EDF92CF920E94FC2D98
:1030E000B60183E299E0FEDD6091CE077091CF07D3
:1030F0008091D0079091D10724E04AE00E94C12B33
:10310000FF92EF9284E895E09F938F93DF92CF92A6
:103110000E94FC2DB60183E299E0E4DD87EB9EE09E
:103120000E94072165E070E080E090E00E94492461
:103130000FB6F894DEBF0FBECDBF64960FB6F894FD
:10314000DEBF0FBECDBFDF91CF911F910F91FF90DA
:10315000EF90DF90CF900895CF92DF92EF92FF92A1
:103160000F931F93CF93DF93EC017B0164367105BE
:103170003CF0FC01EE57FB4F8081882309F462C0CC
:10318000DA01ED91FC910190F081E02DBE01655EC8
:103190007D4FCA0119958C016E01BCEECB1ABDEFB3
:1031A000DB0A2FEFF60120832EEF31962083319634
:1031B000808331969083890F8095319680833196F4
:1031C000E0823196F08285E090E020E030E0A801D6
:1031D000495F5F4F8417950750F4FE01E80FF91F10
:1031E000EC5EFD4F6081260F311D0196F3CF085F25
:1031F0001F4F4C0F5D1FFA01EC5EFD4F20952083A1
:103200000130F2E01F07B0F47601C7018C199D0967
:10321000801791076CF48A819B81D7016D917D01A4
:10322000DC01ED91FC910190F081E02D1995EDCF3D
:10323000C8010AC043EA55E063E0CE0131DD8FEFFB
:103240009FEF02C080E090E0DF91CF911F910F913E
:10325000FF90EF90DF90CF900895EF92FF920F9341
:103260001F93CF93DF936CED75E085EA9EE00E949B
:10327000082980E99EE00E94A10D8BE79EE00E9454
:10328000A10D86E69EE00E94A10D42E163E186E287
:103290009EE00E94660E42E063E08AE19EE00E94AA
:1032A000660E83E299E00E941B118EE897E09093EE
:1032B000FC088093FB0884E597E0909302098093D3
:1032C000010983E099E00E94A10D81E199E00E944B
:1032D000A10D88EF98E09093200980931F0981E069
:1032E00090E0909322098093210921E236E0309307
:1032F00000092093FF082AE937E03093E40820937F
:10330000E30820E637E03093EA082093E9081092BA
:10331000EB081092EC081092ED081092EE08109253
:10332000EF081092F0081092F1081092F208109233
:10333000F3081092F4081092F5081092F60825E7A9
:1033400036E13093F8082093F7089093FA088093B9
:10335000F90829E236E03093E8082093E70826EAE6
:1033600037E03093B8082093B7082CE637E0309365
:10337000BE082093BD0808E117E01093C008009331
:10338000BF081092C1081092C2081092C308109290
:10339000C4081092C5081092C6081092C70810926F
:1033A000C8081092C9081092CA081092CB0810924F
:1033B000CC08C3E8D6E0D093CE08C093CD081092D5
:1033C000CF081092D0081092D1081092D208109213
:1033D000D3081092D4081092D5081092D6081092F3
:1033E000D7081092D8081092D9081092DA081092D3
:1033F000DB081092DC081092DD081092DE082BED3D
:1034000036E13093E0082093DF089093E208809340
:10341000E1088DE296E09093BC088093BB0888E7B2
:1034200098E00E94B30D85E396E090936F08809337
:103430006E0888E798E09093710880937008109266
:103440007708109276088EE4E82E88E0F82E80E364
:1034500097E0F701918380831093510800935008FF
:103460001092520810925308109254081092550866
:103470001092560810925708109258081092590846
:1034800010925A0810925B0810925C0810925D0826
:10349000D0935F08C0935E0880E698E00E94A10D7B
:1034A0008DE396E09093450880934408F092470896
:1034B000E092460810924D0810924C08EAE2F8E0BB
:1034C0008CE397E09183808310932D0800932C0860
:1034D00010922E0810922F08109230081092310886
:1034E0001092320810923308109234081092350866
:1034F0001092360810923708109238081092390846
:10350000D0933B08C0933A0810923C0810923D08B3
:1035100010923E0810923F08109240081092410805
:10352000109242081092430881E195E0909321089F
:1035300080932008F0932308E09322081092290832
:1035400010922808E4EFF7E088E497E09183808305
:103550001093F7070093F6071092F8071092F907F7
:103560001092FA071092FB071092FC071092FD07C9
:103570001092FE071092FF071092000810920108A7
:103580001092020810920308D0930508C093040813
:103590001092060810920A081092090810920B085F
:1035A0001092110810921008109212081092180828
:1035B000109217081092190810921F0810921E08F6
:1035C00085E496E09093EB078093EA07F093ED078C
:1035D000E093EC071092F3071092F2072091060295
:1035E0003091070240910802509109026BED7FE093
:1035F00089EC90E40E9494296093CE077093CF07E2
:103600008093D0079093D107DF91CF911F910F91B5
:10361000FF90EF90089585EA9EE00C94A128CF9347
:10362000C62FBC0187EB9EE005D66C2F87EB9EE092
:10363000B0D587EB9EE0CF916FC61F93CF93DF93FA
:103640001F92CDB7DEB7162FBC0187EB9EE04983F2
:10365000F1D5612F87EB9EE09CD54981642F87EBE4
:103660009EE097D587EB9EE00F90DF91CF911F9161
:1036700053C640E261E08EE190E0DFDF65E070E09C
:1036800080E090E00E94492448E160E08EE190E013
:10369000D4DF65E070E080E090E00E94492441E0E2
:1036A00062E08EE190E0C9DF65E070E080E090E0EC
:1036B0000E94492481E008951F93CF93DF93EC018A
:1036C000162FBC0187EB9EE0B5D5612F87EB9EE0FE
:1036D00060D587EB9EE020D664E170E080E090E06A
:1036E0000E94492441E050E0BE0187EB9EE012D6E3
:1036F00087EB9EE0FFD4DF91CF911F91089560E0AA
:1037000083E590E0D9DF853E19F548E06DE283E579
:1037100090E093DF65E070E080E090E00E94492453
:1037200049E061E383E590E088DF65E070E080E0F8
:1037300090E00E94492449E06CE283E590E07DDF5F
:1037400065E070E080E090E00E94492481E0089507
:1037500080E0089560E088E690E0AEDF8E778836FE
:1037600071F540E86EE388E690E067DF65E070E0C1
:1037700080E090E00E9449244BE166E188E690E019
:103780005CDF65E070E080E090E00E94492443E166
:1037900065E188E690E051DF65E070E080E090E070
:1037A0000E94492443E06EE388E690E046DF6AE049
:1037B00070E080E090E00E94492481E0089580E07C
:1037C00008959DDF80938A08C5DF80938B0851DFC1
:1037D00080938C0880918A08811106C046E556E0E6
:1037E00063E083E299E05CDA80918B08811106C086
:1037F0004FE656E063E083E299E052DA80918C086C
:10380000811106C044E856E063E083E299E048DABB
:10381000109216020895CF93DF931092A40E62E3E4
:1038200083E590E0FCDE46E050E063E570E087EB86
:103830009EE070D587EB9EE055D4892B79F0C0913E
:10384000A40ED0E087EB9EE055D4C256D14F8883BA
:103850008091A40E8F5F8093A40EECCF60919F0E99
:1038600070E0762F662780919E0E682B882777FD63
:103870008095982F0E942F2A2DEC3CEC4CEC51E4C3
:103880000E9494296093920E7093930E8093940EED
:103890009093950E6091A10E70E0762F662780912F
:1038A000A00E682B882777FD8095982F0E942F2ADD
:1038B0002DEC3CEC4CEC51E40E9494296093960E64
:1038C0007093970E8093980E9093990E6091A30E2B
:1038D00070E0762F66278091A20E682B882777FDEF
:1038E0008095982F0E942F2A2DEC3CEC4CEC51E453
:1038F0000E94942960939A0E70939B0E80939C0E65
:1039000090939D0EDF91CF910895CF93DF93109206
:103910008F0E6DE188E690E082DE46E050E068E6DA
:1039200070E087EB9EE0F6D487EB9EE0DBD3892B3B
:1039300079F0C0918F0ED0E087EB9EE0DBD3C757C4
:10394000D14F888380918F0E8F5F80938F0EECCF45
:103950006091890E70E0762F662780918A0E682B21
:10396000882777FD8095982F0E942F2A29ED33E232
:103970004FE95AE30E94E32A60937D0E70937E0E16
:1039800080937F0E9093800E60918B0E70E0762F67
:10399000662780918C0E682B882777FD8095982F5D
:1039A0000E942F2A29ED33E24FE95AE30E94E32ACD
:1039B0006093810E7093820E8093830E9093840E99
:1039C00060918D0E70E0762F662780918E0E682BA9
:1039D000882777FD8095982F0E942F2A29ED33E2C2
:1039E0004FE95AE30E94E32A6093850E7093860E96
:1039F0008093870E9093880EDF91CF910895CF9397
:103A0000DF9310927A0E63E08EE190E008DE46E0EC
:103A100050E06EE170E087EB9EE07CD487EB9EE0A7
:103A200061D3892B79F0C0917A0ED0E087EB9EE0CC
:103A300061D3CC58D14F888380917A0E8F5F809369
:103A40007A0EECCF6091740E70E0762F662780912D
:103A5000750E682B882777FD8095982F0E942F2A56
:103A60002FE135E84BE65FE30E94E32A6093680E9E
:103A70007093690E80936A0E90936B0E6091780E2E
:103A800070E0762F66278091790E682B882777FD66
:103A90008095982F0E942F2A2FE135E84BE65FE3AF
:103AA0000E94E32A60936C0E70936D0E80936E0EED
:103AB00090936F0E6091760E70E0762F662780915E
:103AC000770E682B882777FD8095982F0E942F2AE4
:103AD0002FE135E84BE65FE30E94E32A6093700E26
:103AE0007093710E8093720E9093730E41E062E0BA
:103AF0008EE190E0DF91CF91A0CD83E299E00E942A
:103B0000A511209380083093810840938208509338
:103B10008308609384087093850880938608909347
:103B200087088CE996E090938908809388088091B3
:103B30008A08882389F16FDE8091920E9091930E0E
:103B4000A091940EB091950E80938F089093900859
:103B5000A0939108B09392088091960E9091970E41
:103B6000A091980EB091990E809393089093940829
:103B7000A0939508B093960880919A0E90919B0E11
:103B8000A0919C0EB0919D0E8093970890939808F9
:103B9000A0939908B0939A0880918B08882389F1A3
:103BA000B4DE80917D0E90917E0EA0917F0EB0913B
:103BB000800E80939D0890939E08A0939F08B093D9
:103BC000A0088091810E9091820EA091830EB091F9
:103BD000840E8093A1089093A208A093A308B093A9
:103BE000A4088091850E9091860EA091870EB091C9
:103BF000880E8093A5089093A608A093A708B09379
:103C0000A80880918C08882389F1F9DE8091680EDC
:103C10009091690EA0916A0EB0916B0E8093AB08E3
:103C20009093AC08A093AD08B093AE0880916C0E51
:103C300090916D0EA0916E0EB0916F0E8093AF08B3
:103C40009093B008A093B108B093B2088091700E21
:103C50009091710EA091720EB091730E8093B30883
:103C60009093B408A093B508B093B60868E778E0DD
:103C70008EE698E00C948F0D4F925F926F927F9238
:103C80008F929F92AF92BF92CF92DF92EF92FF926C
:103C90000F931F93CF93DF9300D01F92CDB7DEB762
:103CA000C9D5C0900A0ED0900B0EE0900C0EF0908B
:103CB0000D0E6C197D098E099F0964367105810509
:103CC0009105C0F0B7D5C0900A0ED0900B0EE090D1
:103CD0000C0EF0900D0E6C197D098E099F090E9443
:103CE000DC15A8D560930A0E70930B0E80930C0E12
:103CF00090930D0E9FD5C0900E0ED0900F0EE090B9
:103D0000100EF090110E6C197D098E099F09643612
:103D100071058105910508F442C08CD56B017C01C9
:103D200080910E0E90910F0EA091100EB091110E79
:103D3000C81AD90AEA0AFB0A86E29EE00E941E0E11
:103D4000AB01BC01970186018CE49EE00E94F40F58
:103D50008AE19EE00E941E0EAB01BC019701860124
:103D600082E39EE00E94F40F8CE49EE00E945A10D1
:103D700082E39EE00E945A106091460E7091470EB9
:103D80008091600E9091610E0E94C80F53D5609390
:103D90000E0E70930F0E8093100E9093110E4AD555
:103DA000C090160ED090170EE090180EF090190EDD
:103DB0006C197D098E099F09603971408105910553
:103DC000F0F010925C0E10925D0E10925E0E10924A
:103DD0005F0E1092420E1092430E1092440E1092FB
:103DE000450E1092470E1092460E1092610E1092E0
:103DF000600E60E070E080E090E00E94C80F1AD58D
:103E0000C090060ED090070EE090080EF090090EBC
:103E10006C197D098E099F0964367105810591052C
:103E200080F080911602882311F0CBDC01C065DEA2
:103E300001D56093060E7093070E8093080E909341
:103E4000090EF8D4C090020ED090030EE090040E3C
:103E5000F090050E6C197D098E099F096436710575
:103E600081059105D8F186E29EE00E941E0E6093C6
:103E70003C0870933D0880933E0890933F088AE188
:103E80009EE00E941E0E609340087093410880934C
:103E900042089093430883E299E00E94A511209381
:103EA00032083093330840933408509335086093B8
:103EB00036087093370880933808909339086AE27F
:103EC00078E080E298E00E948F0DB4D46093020EF7
:103ED0007093030E8093040E9093050EABD4C090A4
:103EE000FE0DD090FF0DE090000EF090010E6C19C9
:103EF0007D098E099F09643671058105910508F4D5
:103F0000D9C086E29EE00E941E0E2B013C018AE190
:103F10009EE00E941E0E4B015C01C0900602D090F4
:103F20000702E0900802F090090200911008109139
:103F30001108B201882777FD8095982F0E942F2ABB
:103F400069837A838B839C83C301B2010E942F2AE9
:103F5000A70196010E9494290E94FC29882777FDD9
:103F60008095982F0E942F2AA70196010E94E32A8C
:103F70009B01AC0169817A818B819C810E942B29F4
:103F80000E94FC29882777FD8095982F0E942F2A70
:103F90009B01AC016091CE077091CF078091D00753
:103FA0009091D1070E94E32AF80160837183828394
:103FB0009383B401882777FD8095982F0E942F2A3C
:103FC0002B013C01C501B4010E942F2AA7019601D3
:103FD0000E9494290E94FC29882777FD8095982FBC
:103FE0000E942F2AA70196010E94E32A9B01AC019F
:103FF000C301B2010E942B290E94FC29882777FD6A
:104000008095982F0E942F2A9B01AC016091CE07CA
:104010007091CF078091D0079091D1070E94E32A39
:10402000F8016483758386839783E0911708F09184
:1040300018088091620E9091630EA091640EB09169
:10404000650E80839183A283B3838091480E909103
:10405000490EA0914A0EB0914B0E84839583A6839E
:10406000B78383E299E00E94A5112093FC07309367
:10407000FD074093FE075093FF076093000870937D
:104080000108809302089093030864EF77E08AEEBA
:1040900097E00E948F0D64EF77E08AEE97E00E9430
:1040A0008F0DC8D36093FE0D7093FF0D8093000EAB
:1040B0009093010E83E299E00F900F900F900F9074
:1040C000DF91CF911F910F91FF90EF90DF90CF90F4
:1040D000BF90AF909F908F907F906F905F904F9028
:1040E0000C94E6138091E70E90E02091E80E821B7D
:1040F000910908952091E80E8091E70E281750F459
:10410000E22FF0E0E751F14F808190E02F5F2093A4
:10411000E80E08958FEF9FEF0895E091E80E8091EB
:10412000E70EE81730F4F0E0E751F14F808190E0BE
:1041300008958FEF9FEF08950895CF92DF92EF9249
:10414000FF920F931F93CF93DF937C01CB018A01E2
:104150002091C30E222389F0EB016B01C40ED51E02
:10416000CC15DD0561F06991D701ED91FC910190CD
:10417000F081E02DC7011995F3CF642F8DD1C801CF
:10418000DF91CF911F910F91FF90EF90DF90CF9033
:104190000895CF93DF931F92CDB7DEB76983209147
:1041A000C30E2223D1F02091C40E203240F021E032
:1041B00030E0FC013383228380E090E014C08091E2
:1041C000C50EE82FF0E0EA53F14F998190838F5F9D
:1041D0008093C50E8093C40E04C061E0CE010196A9
:1041E0005BD181E090E00F90DF91CF910895FC01C9
:1041F0001382128248EE53E060E070E044835583FE
:104200006683778382EB97E0918380830895109291
:10421000E80E1092E70E1092C50E1092C40E81C0E7
:1042200081E08093C30E6093E60E1092C50E10924B
:10423000C40E0895F5CF0F93062F21E04091C40ED0
:1042400066EC7EE08091E60ED0D01092C50E109202
:10425000C40E1092C30E0F9108958F929F92AF9249
:10426000BF92CF92DF92EF92FF920F931F93CF9363
:10427000DF93EC01F62ED42E48015901EE2009F10E
:10428000CFDF1E2D143008F013E01150B8F0E88194
:10429000F98128E0129FB0011124A501940104C006
:1042A00056954795379527956A95D2F7CA01B90172
:1042B0000190F081E02DCE011995E7CF60E0CE01AD
:1042C000BADF4D2D413208F040E22C2D69EE7EE040
:1042D0008F2D43D01092E80E8093E70EDF91CF919F
:1042E0001F910F91FF90EF90DF90CF90BF90AF9014
:1042F0009F908F900895CF92EF920F931F93C22EAD
:10430000E12C00E010E09801A8DF1F910F91EF90E1
:10431000CF90089521E0EFCF61E08DCF87EB9EE055
:1043200066CF1092760F81E08093740F1092730F16
:1043300061E084E18FD461E085E18CD4E9EBF0E0C9
:1043400080818E7F808380818D7F808388E48093CD
:10435000B80085E48093BC000895413208F043C062
:104360009091760F9111FCCF91E09093760F20936E
:10437000740F2FEF2093090F10924E0F240F2093EC
:104380004D0F9093750F9091750F880F892B809327
:10439000750F8091730F813061F41092730F8091CB
:1043A000750F8093BB008091BC0083FDF8CF85EC36
:1043B00001C085EE8093BC008091760F8130E1F3DF
:1043C00080914E0F841710F440914E0F2FE43FE080
:1043D000FB01D9018A2F821B841718F48D918193D8
:1043E000F9CF842F089580E008950F93413208F0AB
:1043F0004AC09091760F9111FCCF92E09093760F86
:104400000093740F9FEF9093090F10924E0F4093FB
:104410004D0FFB016FE47FE0DB019A2F961B941791
:1044200018F491919D93F9CF1092750F9091750F9B
:10443000880F892B8093750F8091730F813061F401
:104440001092730F8091750F8093BB008091BC0018
:1044500083FDF8CF85EC01C085EE8093BC0022235C
:1044600021F08091760F8230E1F38091090F8F3F28
:1044700061F08091090F803251F08091090F8033F3
:1044800041F483E007C081E005C080E003C082E022
:1044900001C084E00F910895613298F42091760F65
:1044A000243089F460932B0FFC018DE29FE0DC0146
:1044B0002A2F281B261718F421912D93F9CF80E07D
:1044C000089581E0089582E0089585ED8093BC0011
:1044D0008091BC0084FDFCCF1092760F089585EC8E
:1044E0008093BC001092760F08951F920F920FB622
:1044F0000F9211240BB60F922F933F934F935F931C
:104500006F937F938F939F93AF93BF93EF93FF939B
:104510008091B900887F803609F49DC070F588329B
:1045200009F45CC090F4803109F455C038F4882354
:1045300009F4F3C0883009F44EC0F2C0883109F4A0
:104540004DC0803209F45EC0EBC0803409F469C00C
:1045500050F4803309F456C0883309F0E1C08093E9
:10456000090FBDDFDDC0803509F44FC0883509F47F
:104570005DC0883409F0D4C0D2C0883909F4C3C002
:10458000A8F4883709F467C038F4883609F463C0A2
:10459000803709F460C0C4C0883809F4B4C08039D9
:1045A00009F45FC0803809F0BBC05BC0803B09F4F0
:1045B00082C038F4803A09F466C0883A09F47BC0B6
:1045C000AFC0803C09F4A3C0883C09F4A0C0883B7C
:1045D00009F486C0A5C08091750F10C090914E0F50
:1045E00080914D0F981770F5E0914E0F81E08E0F7E
:1045F00080934E0FF0E0E15BF04F80818093BB0031
:1046000085EC82C08093090F8AC0E0914E0F81E053
:104610008E0F80934E0F8091BB00F0E0E15BF04F76
:10462000808390914E0F80914D0F6AC0E0914E0FA4
:1046300081E08E0F80934E0F8091BB00F0E0E15B34
:10464000F04F80838091740F811169C081E0809365
:10465000730F84EA5DC083E08093760F10920A0F97
:10466000CFCF80910A0F803208F04DC0E0910A0F41
:1046700081E08E0F80930A0F8091BB00F0E0E55F30
:10468000F04F8083BDCF2BDF80910A0F803230F452
:10469000E0910A0FF0E0E55FF04F108260910A0FA1
:1046A00070E0E0916F0FF091700F8BE09FE0199533
:1046B00010920A0F35C084E08093760F10922C0F71
:1046C00010922B0FE091710FF091720F199580915C
:1046D0002B0F811105C081E080932B0F10922D0FBD
:1046E000E0912C0F81E08E0F80932C0FF0E0E35DC2
:1046F000F04F80818093BB0090912C0F80912B0F05
:10470000981708F47DCF85E88093BC0009C085EC3C
:104710008093BC001092760F03C01092090FD5DE73
:10472000FF91EF91BF91AF919F918F917F916F9189
:104730005F914F913F912F910F900BBE0F900FBE45
:104740000F901F901895CF92DF92EF92FF920F93E8
:104750001F93CF93DF938C01EB01688179818A816C
:104760009B8120E03AEC4AE95BE3B2D7F801C080D4
:10477000D180E280F380C20ED31EE41EF51EC082FB
:10478000D182E282F382688379838A839B83DF917B
:10479000CF911F910F91FF90EF90DF90CF900895F0
:1047A0001F920F920FB60F9211242F933F938F9366
:1047B0009F93AF93BF938091780F9091790FA091C1
:1047C0007A0FB0917B0F3091770F23E0230F2D37B5
:1047D00020F40196A11DB11D05C026E8230F029605
:1047E000A11DB11D2093770F8093780F9093790FBF
:1047F000A0937A0FB0937B0F80917C0F90917D0FE7
:10480000A0917E0FB0917F0F0196A11DB11D8093E5
:104810007C0F90937D0FA0937E0FB0937F0FBF917D
:10482000AF919F918F913F912F910F900FBE0F905D
:104830001F9018952FB7F8946091780F7091790FA9
:1048400080917A0F90917B0F2FBF08953FB7F89416
:1048500080917C0F90917D0FA0917E0FB0917F0F82
:1048600026B5A89B05C02F3F19F00196A11DB11DCB
:104870003FBF6627782F892F9A2F620F711D811DE8
:10488000911D42E0660F771F881F991F4A95D1F747
:104890000895CF92DF92EF92FF92CF93DF936B0157
:1048A0007C01D4DFEB01C114D104E104F10479F0FF
:1048B000D1D4CCDF6C1B7D0B683E7340A0F381E04C
:1048C000C81AD108E108F108C851DC4FECCFDF91DC
:1048D000CF91FF90EF90DF90CF90089582309105B7
:1048E00038F0880F991F880F991F05970197F1F7E6
:1048F0000895789484B5826084BD84B5816084BD58
:1049000085B5826085BD85B5816085BDEEE6F0E048
:10491000808181608083E1E8F0E0108280818260A4
:104920008083808181608083E0E8F0E08081816025
:104930008083E1EBF0E0808184608083E0EBF0E055
:10494000808181608083E1E9F0E080818260808302
:10495000808181608083E0E9F0E0808181608083F4
:10496000E1EAF0E0808182608083808181608083E1
:10497000E0EAF0E0808181608083E1E2F1E0808123
:1049800082608083808181608083E0E2F1E08081C9
:1049900081608083EAE7F0E08081846080838081A9
:1049A0008260808380818160808380818068808351
:1049B0001092C10008951F93CF93DF93182FEB013E
:1049C00061E00FD1209711F460E004C0CF3FD10522
:1049D00031F461E0812FDF91CF911F913BC1E12F35
:1049E000F0E0E45CFE4F449150E0FA013197E2318F
:1049F000F10508F09AC0E658FF4F8CC684B5806870
:104A000084BDC7BD97C084B5806284BDC8BD92C057
:104A100080918000806880938000D0938900C0934B
:104A2000880088C080918000806280938000D0934D
:104A30008B00C0938A007EC0809180008860809344
:104A40008000D0938D00C0938C0074C08091B00022
:104A500080688093B000C093B3006CC08091B000B8
:104A600080628093B000C093B40064C080919000D5
:104A7000806880939000D0939900C09398005AC0AA
:104A800080919000806280939000D0939B00C093AF
:104A90009A0050C080919000886080939000D093DD
:104AA0009D00C0939C0046C08091A00080688093C8
:104AB000A0008091A0008F7B8093A000D093A900DC
:104AC000C093A80037C08091A00080628093A000AE
:104AD000D093AB00C093AA002DC08091A000886045
:104AE0008093A000D093AD00C093AC0023C0809110
:104AF0002001806880932001D0932901C093280170
:104B000019C080912001806280932001D0932B01F5
:104B1000C0932A010FC080912001886080932001FA
:104B2000D0932D01C0932C0105C0C038D1050CF0E5
:104B300050CF4ACFDF91CF911F91089590E0FC01B3
:104B40003197E231F10508F04BC0E457FF4FE2C561
:104B5000809180008F7703C0809180008F7D80934B
:104B60008000089580918000877FF9CF84B58F778A
:104B700002C084B58F7D84BD08958091B0008F7789
:104B800003C08091B0008F7D8093B0000895809124
:104B900090008F7707C0809190008F7D03C0809137
:104BA0009000877F8093900008958091A0008F7778
:104BB00007C08091A0008F7D03C08091A000877FF7
:104BC0008093A0000895809120018F7707C0809185
:104BD00020018F7D03C080912001877F8093200179
:104BE0000895CF93DF9390E0FC01EE57FE4F2491A0
:104BF000FC01E853FE4F8491882349F190E0880F2F
:104C0000991FFC01EE5BFD4FA591B491885D9D4F0E
:104C1000FC01C591D4919FB7611108C0F8948C91A3
:104C2000209582238C93888182230AC0623051F4BC
:104C3000F8948C91322F309583238C938881822B2A
:104C4000888304C0F8948C91822B8C939FBFDF9152
:104C5000CF9108950F931F93CF93DF931F92CDB7FA
:104C6000DEB7282F30E0F901E45CFE4F8491F901B2
:104C7000EE57FE4F1491F901E853FE4F04910023C3
:104C8000C1F0882319F0698359DF6981E02FF0E0D2
:104C9000EE0FFF1FE85DFD4FA591B4919FB7F8940B
:104CA0008C91611103C01095812301C0812B8C93DD
:104CB0009FBF0F90DF91CF911F910F910895FC013D
:104CC000818D228D90E0805C9F4F821B91098F73B4
:104CD00099270895FC01918D828D981731F0828D6E
:104CE000E80FF11D858D90E008958FEF9FEF0895F7
:104CF000FC01918D828D981761F0828DDF01A80FE4
:104D0000B11D5D968C91928D9F5F9F73928F90E005
:104D100008958FEF9FEF08958DE298E2892B39F087
:104D200080E090E0892B19F098D1811125C080E0B6
:104D300090E0892B41F080E090E0892B21F00E94E7
:104D4000000081111CC080E090E0892B41F080E0E0
:104D500090E0892B21F00E940000811113C080E0B7
:104D600090E0892BA1F080E090E0892B81F00E94F7
:104D7000000081110AC008950E940000D8CF0E944F
:104D80000000E1CF0E940000EACF0C9400000895DB
:104D9000FC01848DDF01A80FB11DA35ABF4F2C91D8
:104DA000848D90E001968F739927848FA689B789A7
:104DB0002C93A089B1898C9180648C93938D848D80
:104DC000981306C00288F389E02D80818F7D80834F
:104DD0000895CF93DF93EC01888D8823C1F0EA8991
:104DE000FB89808185FD05C0A889B9898C9186FDE4
:104DF0000EC00FB607FCF5CF808185FFF2CFA889E2
:104E0000B9898C9185FFEDCFCE01C2DFE8CFDF916C
:104E1000CF910895CF92DF92FF920F931F93CF937C
:104E2000DF931F92CDB7DEB76C0181E0D6015896B3
:104E30008C9358975B969C915B975C968C915C9752
:104E4000981307C05096ED91FC915197808185FD94
:104E50002DC0F601038D10E00F5F1F4F0F73112758
:104E6000F02EF601848DF81210C00FB607FCF9CFB2
:104E7000D6015096ED91FC915197808185FFF1CF3D
:104E8000C601698385DF6981ECCF838DE80FF11D51
:104E9000E35AFF4F6083D6015B960C935B97529663
:104EA000ED91FC915397808180620CC0D60156969B
:104EB000ED91FC91579760835096ED91FC9151973D
:104EC00080818064808381E090E00F90DF91CF91BA
:104ED0001F910F91FF90DF90CF900895BF92CF92D6
:104EE000DF92EF92FF92CF93DF93EC016A017B0197
:104EF000B22EE889F98982E08083411581EE580756
:104F00006105710599F060E079E08DE390E0A7011B
:104F10009601DED321503109410951095695479533
:104F200037952795211580E1380790F0E889F989B0
:104F3000108260E874E88EE190E0A7019601C8D382
:104F400021503109410951095695479537952795C3
:104F5000EC85FD853083EE85FF852083188EEC89F6
:104F6000FD89B082EA89FB89808180618083EA893A
:104F7000FB89808188608083EA89FB8980818068E1
:104F80008083EA89FB8980818F7D8083DF91CF9147
:104F9000FF90EF90DF90CF90BF9008951F920F92F7
:104FA0000FB60F9211240BB60F922F938F939F93EE
:104FB000EF93FF93E091900FF091910F8081E0913A
:104FC000960FF091970F82FD12C090818091990FFA
:104FD0008F5F8F7320919A0F821751F0E091990F94
:104FE000F0E0E058F04F958F8093990F01C08081D9
:104FF000FF91EF919F918F912F910F900BBE0F908A
:105000000FBE0F901F9018951F920F920FB60F9220
:1050100011240BB60F922F933F934F935F936F938F
:105020007F938F939F93AF93BF93EF93FF9380E80A
:105030009FE0AEDEFF91EF91BF91AF919F918F9175
:105040007F916F915F914F913F912F910F900BBE88
:105050000F900FBE0F901F90189580E89FE02FDEF5
:1050600021E0892B09F420E0822F08951092830F0C
:105070001092820F88EE93E0A0E0B0E08093840F5E
:105080009093850FA093860FB093870F82EC97E0E3
:105090009093810F8093800F85EC90E090938D0F1B
:1050A00080938C0F84EC90E090938F0F80938E0F01
:1050B00080EC90E09093910F8093900F81EC90E0C2
:1050C0009093930F8093920F82EC90E09093950FC2
:1050D0008093940F86EC90E09093970F8093960FB7
:1050E0001092990F10929A0F10929B0F10929C0F92
:1050F0000895CF92DF92EF92FF920F931F93CF9379
:10510000DF937C016A01EB0100E010E00C151D0546
:1051100071F06991D701ED91FC910190F081E02D42
:10512000C7011995892B19F00F5F1F4FEFCFC801E9
:10513000DF91CF911F910F91FF90EF90DF90CF9073
:105140000895FC0180819181D4C3CF93DF93EC015A
:1051500088819981009709F0CCD3198218821D8229
:105160001C821B821A82DF91CF9108950F931F93A7
:10517000CF93DF93EC018B016F5F7F4F8881998123
:1051800047D4009731F0998388831B830A8381E099
:1051900001C080E0DF91CF911F910F910895CF93CF
:1051A000DF93EC0188819981892B29F08A819B8189
:1051B0008617970758F4CE01D9DF882341F08C81F8
:1051C0009D81892B19F4E881F981108281E0DF91BA
:1051D000CF910895EF92FF920F931F93CF93DF9398
:1051E000EC017B018A01BA01DADF811103C0CE0133
:1051F000ACDF06C01D830C83B70188819981F5D48B
:10520000CE01DF91CF911F910F91FF90EF90089504
:10521000FC011182108213821282158214826115A0
:10522000710551F0FB0101900020E9F7AF014150F9
:105230005109461B570BCECF089508955ADBFDDF69
:105240000E944017CCE8D6E20E943C1E2097E1F372
:1052500063DDFACF08955058BB27AA270ED075C139
:1052600066D130F06BD120F031F49F3F11F41EF481
:105270005BC10EF4E095E7FB51C1E92F77D180F3D4
:10528000BA17620773078407950718F071F49EF543
:105290008FC10EF4E0950B2EBA2FA02D0B01B90192
:1052A00090010C01CA01A0011124FF27591B99F09C
:1052B000593F50F4503E68F11A16F040A22F232FA8
:1052C000342F4427585FF3CF469537952795A795F8
:1052D000F0405395C9F77EF41F16BA0B620B730B9F
:1052E000840BBAF09150A1F0FF0FBB1F661F771F10
:1052F000881FC2F70EC0BA0F621F731F841F48F4C5
:10530000879577956795B795F7959E3F08F0B3CF4A
:105310009395880F08F09927EE0F97958795089534
:10532000D9D008F481E008950CD00FC107D140F026
:10533000FED030F021F45F3F19F0F0C0511139C1B7
:10534000F3C014D198F39923C9F35523B1F3951BF6
:10535000550BBB27AA2762177307840738F09F5F96
:105360005F4F220F331F441FAA1FA9F333D00E2E05
:105370003AF0E0E830D091505040E695001CCAF772
:1053800029D0FE2F27D0660F771F881FBB1F261737
:1053900037074807AB07B0E809F0BB0B802DBF010A
:1053A000FF2793585F4F2AF09E3F510568F0B6C023
:1053B00000C15F3FECF3983EDCF3869577956795E7
:1053C000B795F7959F5FC9F7880F911D96958795BB
:1053D00097F90895E1E0660F771F881FBB1F6217DA
:1053E00073078407BA0720F0621B730B840BBA0B98
:1053F000EE1F88F7E095089504D06894B111D9C0E4
:105400000895BCD088F09F5790F0B92F9927B751D5
:10541000A0F0D1F0660F771F881F991F1AF0BA9578
:10542000C9F712C0B13081F0C3D0B1E00895C0C057
:10543000672F782F8827B85F39F0B93FCCF386956E
:1054400077956795B395D9F73EF4909580957095CB
:1054500061957F4F8F4F9F4F0895E89409C097FB48
:105460003EF490958095709561957F4F8F4F9F4F3B
:105470009923A9F0F92F96E9BB279395F69587957F
:1054800077956795B795F111F8CFFAF4BB0F11F442
:1054900060FF1BC06F5F7F4F8F4F9F4F16C08823E9
:1054A00011F096E911C0772321F09EE8872F762F1F
:1054B00005C0662371F096E8862F70E060E02AF060
:1054C0009A95660F771F881FDAF7880F969587954C
:1054D00097F90895990F0008550FAA0BE0E8FEEF21
:1054E00016161706E807F907C0F012161306E407A8
:1054F000F50798F0621B730B840B950B39F40A26A1
:1055000061F0232B242B252B21F408950A2609F47E
:10551000A140A6958FEF811D811D089597F99F6782
:1055200080E870E060E008959FEF80EC089500242B
:105530000A941616170618060906089500240A94F8
:1055400012161306140605060895092E0394000C7E
:1055500011F4882352F0BB0F40F4BF2B11F460FF0D
:1055600004C06F5F7F4F8F4F9F4F089557FD905836
:10557000440F551F59F05F3F71F04795880F97FB17
:10558000991F61F09F3F79F08795089512161306D1
:105590001406551FF2CF4695F1DF08C01616170600
:1055A0001806991FF1CF8695710561050894089535
:1055B000E894BB2766277727CB0197F908958ADF00
:1055C00008F48FEF08950BD0C0CFB1DF28F0B6DF1D
:1055D00018F0952309F0A2CFA7CF1124EACFC6DF98
:1055E000A0F3959FD1F3950F50E0551F629FF001F6
:1055F000729FBB27F00DB11D639FAA27F00DB11D4F
:10560000AA1F649F6627B00DA11D661F829F2227D7
:10561000B00DA11D621F739FB00DA11D621F839F5E
:10562000A00D611D221F749F3327A00D611D231F34
:10563000849F600D211D822F762F6A2F11249F5782
:1056400050408AF0E1F088234AF0EE0FFF1FBB1FA5
:10565000661F771F881F91505040A9F79E3F510544
:1056600070F05CCFA6CF5F3FECF3983EDCF38695FD
:1056700077956795B795F795E7959F5FC1F7FE2BEF
:10568000880F911D9695879597F90895DB018F9363
:105690009F9346D0BF91AF91A29F800D911DA39F74
:1056A000900DB29F900D1124089597FB072E16F4CC
:1056B000009406D077FD08D041D007FC05D03EF419
:1056C000909581959F4F0895709561957F4F0895AE
:1056D000A1E21A2EAA1BBB1BFD010DC0AA1FBB1FF6
:1056E000EE1FFF1FA217B307E407F50720F0A21B68
:1056F000B30BE40BF50B661F771F881F991F1A94D5
:1057000069F760957095809590959B01AC01BD01FE
:10571000CF010895EE0FFF1F0590F491E02D19942D
:1057200021D0A59F900DB49F900DA49F800D911D39
:10573000112408950790F691E02D1994AA1BBB1B24
:1057400051E107C0AA1FBB1FA617B70710F0A61B81
:10575000B70B881F991F5A95A9F780959095BC01A2
:10576000CD010895A29FB001B39FC001A39F700D0A
:10577000811D1124911DB29F700D811D1124911D59
:105780000895EF920F931F93CF93DF93E80147FFA4
:1057900002C034E101C034E0E42FFF27E7FDF095BB
:1057A000F7FF03C0F195E195F109E32E022F2E2FAB
:1057B000AE013ED4CE01DF91CF911F910F91EF90BA
:1057C0000895CF93DF938230910510F482E090E04A
:1057D000E0911F10F091201020E030E0A0E0B0E058
:1057E000309739F14081518148175907B8F048176F
:1057F000590771F482819381109729F013969C9335
:105800008E9312972CC09093201080931F1027C066
:105810002115310531F04217530718F0A901DB01BA
:1058200001C0EF019A01BD01DF010280F381E02D8B
:10583000D7CF21153105F9F0281B390B243031055C
:1058400080F48A819B816115710521F0FB019383AE
:10585000828304C09093201080931F10FE01329623
:1058600044C0FE01E20FF31F81939193225031094E
:10587000398328833AC020911D1030911E10232BAC
:1058800041F4209102023091030230931E102093C4
:105890001D1020910002309101022115310541F4C3
:1058A0002DB73EB74091040250910502241B350BE1
:1058B000E0911D10F0911E10E217F307A0F42E1BCB
:1058C0003F0B2817390778F0AC014E5F5F4F241764
:1058D000350748F04E0F5F1F50931E1040931D1068
:1058E0008193919302C0E0E0F0E0CF01DF91CF918E
:1058F0000895CF93DF93009709F487C0FC01329796
:1059000013821282C0911F10D0912010209781F431
:1059100020813181280F391F80911D1090911E1018
:105920008217930779F5F0931E10E0931D106DC058
:10593000DE0120E030E0AE17BF0750F412964D9123
:105940005C9113979D014115510509F1DA01F3CFDF
:10595000B383A28340815181840F951F8A179B07CF
:1059600071F48D919C911197840F951F02969183EC
:10597000808312968D919C91139793838283211536
:10598000310529F4F0932010E0931F103EC0D90197
:105990001396FC93EE9312974D915D91A40FB51F52
:1059A000EA17FB0779F480819181840F951F029695
:1059B000D90111969C938E938281938113969C9327
:1059C0008E931297E0E0F0E08A819B81009719F0B6
:1059D000FE01EC01F9CFCE01029628813981820FB8
:1059E000931F20911D1030911E102817390769F45C
:1059F000309729F41092201010921F1002C01382C9
:105A00001282D0931E10C0931D10DF91CF91089584
:105A10006F927F928F929F92AF92BF92CF92DF92BE
:105A2000EF92FF920F931F93CF93DF93EC01CB0183
:105A3000209779F4DF91CF911F910F91FF90EF9014
:105A4000DF90CF90BF90AF909F908F907F906F909E
:105A5000B8CEFE01E60FF71F9E0122503109E21772
:105A6000F30708F4A8C0D9010D911C9111970617EE
:105A70001707B0F00530110508F49BC0A801445089
:105A800051094617570708F494C002501109061B24
:105A9000170B019311936D937C93CF012ADF89C07B
:105AA0005B01A01AB10A4E01800E911EA0911F1039
:105AB000B0912010612C712C60E070E0109709F417
:105AC00049C0A815B905C9F5ED90FC90119767017B
:105AD00042E0C40ED11CCA14DB0478F147018A18D5
